{
	"lib.sol": {
		"libraryManagemnet": {
			"abi": [
				{
					"inputs": [
						{
							"internalType": "uint256",
							"name": "_deadline",
							"type": "uint256"
						}
					],
					"stateMutability": "nonpayable",
					"type": "constructor"
				},
				{
					"anonymous": false,
					"inputs": [
						{
							"indexed": true,
							"internalType": "address",
							"name": "student",
							"type": "address"
						},
						{
							"indexed": false,
							"internalType": "uint256",
							"name": "bookid",
							"type": "uint256"
						}
					],
					"name": "BookBorrowed",
					"type": "event"
				},
				{
					"anonymous": false,
					"inputs": [
						{
							"indexed": true,
							"internalType": "address",
							"name": "student",
							"type": "address"
						},
						{
							"indexed": false,
							"internalType": "uint256",
							"name": "bookid",
							"type": "uint256"
						}
					],
					"name": "BookReturn",
					"type": "event"
				},
				{
					"anonymous": false,
					"inputs": [
						{
							"indexed": true,
							"internalType": "address",
							"name": "student",
							"type": "address"
						}
					],
					"name": "MembershipPurchased",
					"type": "event"
				},
				{
					"anonymous": false,
					"inputs": [
						{
							"indexed": true,
							"internalType": "address",
							"name": "student",
							"type": "address"
						},
						{
							"indexed": false,
							"internalType": "uint256",
							"name": "amount",
							"type": "uint256"
						}
					],
					"name": "PenaltyCharge",
					"type": "event"
				},
				{
					"stateMutability": "payable",
					"type": "fallback"
				},
				{
					"inputs": [
						{
							"internalType": "uint256",
							"name": "bookid",
							"type": "uint256"
						}
					],
					"name": "Borrowbook",
					"outputs": [],
					"stateMutability": "nonpayable",
					"type": "function"
				},
				{
					"inputs": [
						{
							"internalType": "string",
							"name": "_title",
							"type": "string"
						},
						{
							"internalType": "uint256",
							"name": "_price",
							"type": "uint256"
						}
					],
					"name": "addBook",
					"outputs": [],
					"stateMutability": "nonpayable",
					"type": "function"
				},
				{
					"inputs": [],
					"name": "becomeMember",
					"outputs": [],
					"stateMutability": "payable",
					"type": "function"
				},
				{
					"inputs": [
						{
							"internalType": "uint256",
							"name": "",
							"type": "uint256"
						}
					],
					"name": "books",
					"outputs": [
						{
							"internalType": "string",
							"name": "title",
							"type": "string"
						},
						{
							"internalType": "uint256",
							"name": "price",
							"type": "uint256"
						},
						{
							"internalType": "bool",
							"name": "isAvailable",
							"type": "bool"
						}
					],
					"stateMutability": "view",
					"type": "function"
				},
				{
					"inputs": [],
					"name": "deadline",
					"outputs": [
						{
							"internalType": "uint256",
							"name": "",
							"type": "uint256"
						}
					],
					"stateMutability": "view",
					"type": "function"
				},
				{
					"inputs": [
						{
							"internalType": "uint256",
							"name": "bookid",
							"type": "uint256"
						}
					],
					"name": "getBooksdetails",
					"outputs": [
						{
							"internalType": "string",
							"name": "title",
							"type": "string"
						},
						{
							"internalType": "uint256",
							"name": "price",
							"type": "uint256"
						},
						{
							"internalType": "bool",
							"name": "isAvailable",
							"type": "bool"
						}
					],
					"stateMutability": "view",
					"type": "function"
				},
				{
					"inputs": [],
					"name": "getbalance",
					"outputs": [
						{
							"internalType": "uint256",
							"name": "",
							"type": "uint256"
						}
					],
					"stateMutability": "view",
					"type": "function"
				},
				{
					"inputs": [],
					"name": "manager",
					"outputs": [
						{
							"internalType": "address",
							"name": "",
							"type": "address"
						}
					],
					"stateMutability": "view",
					"type": "function"
				},
				{
					"inputs": [],
					"name": "membershipfee",
					"outputs": [
						{
							"internalType": "uint256",
							"name": "",
							"type": "uint256"
						}
					],
					"stateMutability": "view",
					"type": "function"
				},
				{
					"inputs": [
						{
							"internalType": "uint256",
							"name": "index",
							"type": "uint256"
						}
					],
					"name": "returnBook",
					"outputs": [],
					"stateMutability": "nonpayable",
					"type": "function"
				},
				{
					"inputs": [
						{
							"internalType": "address",
							"name": "",
							"type": "address"
						}
					],
					"name": "students",
					"outputs": [
						{
							"internalType": "bool",
							"name": "isMember",
							"type": "bool"
						},
						{
							"internalType": "uint256",
							"name": "borrowedcount",
							"type": "uint256"
						}
					],
					"stateMutability": "view",
					"type": "function"
				},
				{
					"inputs": [],
					"name": "withdrawfunds",
					"outputs": [],
					"stateMutability": "nonpayable",
					"type": "function"
				},
				{
					"stateMutability": "payable",
					"type": "receive"
				}
			],
			"devdoc": {
				"kind": "dev",
				"methods": {},
				"version": 1
			},
			"evm": {
				"assembly": "    /* \"lib.sol\":60:4268  contract libraryManagemnet{... */\n  mstore(0x40, 0x80)\n    /* \"lib.sol\":178:185  1 ether */\n  0x0de0b6b3a7640000\n    /* \"lib.sol\":152:185  uint public membershipfee=1 ether */\n  0x02\n  sstore\n    /* \"lib.sol\":849:971  constructor(uint256 _deadline){... */\n  callvalue\n  dup1\n  iszero\n  tag_1\n  jumpi\n  0x00\n  dup1\n  revert\ntag_1:\n  pop\n  mload(0x40)\n  sub(codesize, bytecodeSize)\n  dup1\n  bytecodeSize\n  dup4\n  codecopy\n  dup2\n  dup2\n  add\n  0x40\n  mstore\n  dup2\n  add\n  swap1\n  tag_2\n  swap2\n  swap1\n  tag_3\n  jump\t// in\ntag_2:\n    /* \"lib.sol\":898:908  msg.sender */\n  caller\n    /* \"lib.sol\":890:897  manager */\n  0x00\n  dup1\n    /* \"lib.sol\":890:908  manager=msg.sender */\n  0x0100\n  exp\n  dup2\n  sload\n  dup2\n  0xffffffffffffffffffffffffffffffffffffffff\n  mul\n  not\n  and\n  swap1\n  dup4\n  0xffffffffffffffffffffffffffffffffffffffff\n  and\n  mul\n  or\n  swap1\n  sstore\n  pop\n    /* \"lib.sol\":944:953  _deadline */\n  dup1\n    /* \"lib.sol\":928:943  block.timestamp */\n  timestamp\n    /* \"lib.sol\":928:953  block.timestamp+_deadline */\n  tag_6\n  swap2\n  swap1\n  tag_7\n  jump\t// in\ntag_6:\n    /* \"lib.sol\":919:927  deadline */\n  0x01\n    /* \"lib.sol\":919:953  deadline=block.timestamp+_deadline */\n  dup2\n  swap1\n  sstore\n  pop\n    /* \"lib.sol\":849:971  constructor(uint256 _deadline){... */\n  pop\n    /* \"lib.sol\":60:4268  contract libraryManagemnet{... */\n  jump(tag_8)\n    /* \"#utility.yul\":88:205   */\ntag_10:\n    /* \"#utility.yul\":197:198   */\n  0x00\n    /* \"#utility.yul\":194:195   */\n  dup1\n    /* \"#utility.yul\":187:199   */\n  revert\n    /* \"#utility.yul\":334:411   */\ntag_12:\n    /* \"#utility.yul\":371:378   */\n  0x00\n    /* \"#utility.yul\":400:405   */\n  dup2\n    /* \"#utility.yul\":389:405   */\n  swap1\n  pop\n    /* \"#utility.yul\":334:411   */\n  swap2\n  swap1\n  pop\n  jump\t// out\n    /* \"#utility.yul\":417:539   */\ntag_13:\n    /* \"#utility.yul\":490:514   */\n  tag_22\n    /* \"#utility.yul\":508:513   */\n  dup2\n    /* \"#utility.yul\":490:514   */\n  tag_12\n  jump\t// in\ntag_22:\n    /* \"#utility.yul\":483:488   */\n  dup2\n    /* \"#utility.yul\":480:515   */\n  eq\n    /* \"#utility.yul\":470:533   */\n  tag_23\n  jumpi\n    /* \"#utility.yul\":529:530   */\n  0x00\n    /* \"#utility.yul\":526:527   */\n  dup1\n    /* \"#utility.yul\":519:531   */\n  revert\n    /* \"#utility.yul\":470:533   */\ntag_23:\n    /* \"#utility.yul\":417:539   */\n  pop\n  jump\t// out\n    /* \"#utility.yul\":545:688   */\ntag_14:\n    /* \"#utility.yul\":602:607   */\n  0x00\n    /* \"#utility.yul\":633:639   */\n  dup2\n    /* \"#utility.yul\":627:640   */\n  mload\n    /* \"#utility.yul\":618:640   */\n  swap1\n  pop\n    /* \"#utility.yul\":649:682   */\n  tag_25\n    /* \"#utility.yul\":676:681   */\n  dup2\n    /* \"#utility.yul\":649:682   */\n  tag_13\n  jump\t// in\ntag_25:\n    /* \"#utility.yul\":545:688   */\n  swap3\n  swap2\n  pop\n  pop\n  jump\t// out\n    /* \"#utility.yul\":694:1045   */\ntag_3:\n    /* \"#utility.yul\":764:770   */\n  0x00\n    /* \"#utility.yul\":813:815   */\n  0x20\n    /* \"#utility.yul\":801:810   */\n  dup3\n    /* \"#utility.yul\":792:799   */\n  dup5\n    /* \"#utility.yul\":788:811   */\n  sub\n    /* \"#utility.yul\":784:816   */\n  slt\n    /* \"#utility.yul\":781:900   */\n  iszero\n  tag_27\n  jumpi\n    /* \"#utility.yul\":819:898   */\n  tag_28\n  tag_10\n  jump\t// in\ntag_28:\n    /* \"#utility.yul\":781:900   */\ntag_27:\n    /* \"#utility.yul\":939:940   */\n  0x00\n    /* \"#utility.yul\":964:1028   */\n  tag_29\n    /* \"#utility.yul\":1020:1027   */\n  dup5\n    /* \"#utility.yul\":1011:1017   */\n  dup3\n    /* \"#utility.yul\":1000:1009   */\n  dup6\n    /* \"#utility.yul\":996:1018   */\n  add\n    /* \"#utility.yul\":964:1028   */\n  tag_14\n  jump\t// in\ntag_29:\n    /* \"#utility.yul\":954:1028   */\n  swap2\n  pop\n    /* \"#utility.yul\":910:1038   */\n  pop\n    /* \"#utility.yul\":694:1045   */\n  swap3\n  swap2\n  pop\n  pop\n  jump\t// out\n    /* \"#utility.yul\":1051:1231   */\ntag_15:\n    /* \"#utility.yul\":1099:1176   */\n  0x4e487b7100000000000000000000000000000000000000000000000000000000\n    /* \"#utility.yul\":1096:1097   */\n  0x00\n    /* \"#utility.yul\":1089:1177   */\n  mstore\n    /* \"#utility.yul\":1196:1200   */\n  0x11\n    /* \"#utility.yul\":1193:1194   */\n  0x04\n    /* \"#utility.yul\":1186:1201   */\n  mstore\n    /* \"#utility.yul\":1220:1224   */\n  0x24\n    /* \"#utility.yul\":1217:1218   */\n  0x00\n    /* \"#utility.yul\":1210:1225   */\n  revert\n    /* \"#utility.yul\":1237:1428   */\ntag_7:\n    /* \"#utility.yul\":1277:1280   */\n  0x00\n    /* \"#utility.yul\":1296:1316   */\n  tag_32\n    /* \"#utility.yul\":1314:1315   */\n  dup3\n    /* \"#utility.yul\":1296:1316   */\n  tag_12\n  jump\t// in\ntag_32:\n    /* \"#utility.yul\":1291:1316   */\n  swap2\n  pop\n    /* \"#utility.yul\":1330:1350   */\n  tag_33\n    /* \"#utility.yul\":1348:1349   */\n  dup4\n    /* \"#utility.yul\":1330:1350   */\n  tag_12\n  jump\t// in\ntag_33:\n    /* \"#utility.yul\":1325:1350   */\n  swap3\n  pop\n    /* \"#utility.yul\":1373:1374   */\n  dup3\n    /* \"#utility.yul\":1370:1371   */\n  dup3\n    /* \"#utility.yul\":1366:1375   */\n  add\n    /* \"#utility.yul\":1359:1375   */\n  swap1\n  pop\n    /* \"#utility.yul\":1394:1397   */\n  dup1\n    /* \"#utility.yul\":1391:1392   */\n  dup3\n    /* \"#utility.yul\":1388:1398   */\n  gt\n    /* \"#utility.yul\":1385:1421   */\n  iszero\n  tag_34\n  jumpi\n    /* \"#utility.yul\":1401:1419   */\n  tag_35\n  tag_15\n  jump\t// in\ntag_35:\n    /* \"#utility.yul\":1385:1421   */\ntag_34:\n    /* \"#utility.yul\":1237:1428   */\n  swap3\n  swap2\n  pop\n  pop\n  jump\t// out\n    /* \"lib.sol\":60:4268  contract libraryManagemnet{... */\ntag_8:\n  dataSize(sub_0)\n  dup1\n  dataOffset(sub_0)\n  0x00\n  codecopy\n  0x00\n  return\nstop\n\nsub_0: assembly {\n        /* \"lib.sol\":60:4268  contract libraryManagemnet{... */\n      mstore(0x40, 0x80)\n      jumpi(tag_1, lt(calldatasize, 0x04))\n      shr(0xe0, calldataload(0x00))\n      dup1\n      0x6c343ffe\n      gt\n      tag_15\n      jumpi\n      dup1\n      0x6c343ffe\n      eq\n      tag_9\n      jumpi\n      dup1\n      0x9d083222\n      eq\n      tag_10\n      jumpi\n      dup1\n      0xa6c807a9\n      eq\n      tag_11\n      jumpi\n      dup1\n      0xc609f68c\n      eq\n      tag_12\n      jumpi\n      dup1\n      0xca5140c9\n      eq\n      tag_13\n      jumpi\n      dup1\n      0xd6b27461\n      eq\n      tag_14\n      jumpi\n      jump(tag_2)\n    tag_15:\n      dup1\n      0x29dcb0cf\n      eq\n      tag_3\n      jumpi\n      dup1\n      0x481c6a75\n      eq\n      tag_4\n      jumpi\n      dup1\n      0x4d9b3d5d\n      eq\n      tag_5\n      jumpi\n      dup1\n      0x637a3872\n      eq\n      tag_6\n      jumpi\n      dup1\n      0x68744046\n      eq\n      tag_7\n      jumpi\n      dup1\n      0x6b21ffb6\n      eq\n      tag_8\n      jumpi\n      jump(tag_2)\n    tag_1:\n      jumpi(tag_2, calldatasize)\n      stop\n    tag_2:\n      stop\n        /* \"lib.sol\":122:145  uint256 public deadline */\n    tag_3:\n      callvalue\n      dup1\n      iszero\n      tag_20\n      jumpi\n      0x00\n      dup1\n      revert\n    tag_20:\n      pop\n      tag_21\n      tag_22\n      jump\t// in\n    tag_21:\n      mload(0x40)\n      tag_23\n      swap2\n      swap1\n      tag_24\n      jump\t// in\n    tag_23:\n      mload(0x40)\n      dup1\n      swap2\n      sub\n      swap1\n      return\n        /* \"lib.sol\":93:115  address public manager */\n    tag_4:\n      callvalue\n      dup1\n      iszero\n      tag_25\n      jumpi\n      0x00\n      dup1\n      revert\n    tag_25:\n      pop\n      tag_26\n      tag_27\n      jump\t// in\n    tag_26:\n      mload(0x40)\n      tag_28\n      swap2\n      swap1\n      tag_29\n      jump\t// in\n    tag_28:\n      mload(0x40)\n      dup1\n      swap2\n      sub\n      swap1\n      return\n        /* \"lib.sol\":4076:4247  function getbalance()public view returns(uint){... */\n    tag_5:\n      callvalue\n      dup1\n      iszero\n      tag_30\n      jumpi\n      0x00\n      dup1\n      revert\n    tag_30:\n      pop\n      tag_31\n      tag_32\n      jump\t// in\n    tag_31:\n      mload(0x40)\n      tag_33\n      swap2\n      swap1\n      tag_24\n      jump\t// in\n    tag_33:\n      mload(0x40)\n      dup1\n      swap2\n      sub\n      swap1\n      return\n        /* \"lib.sol\":1216:1426  function addBook(string memory _title,uint256 _price)public OnlyManager{... */\n    tag_6:\n      callvalue\n      dup1\n      iszero\n      tag_34\n      jumpi\n      0x00\n      dup1\n      revert\n    tag_34:\n      pop\n      tag_35\n      0x04\n      dup1\n      calldatasize\n      sub\n      dup2\n      add\n      swap1\n      tag_36\n      swap2\n      swap1\n      tag_37\n      jump\t// in\n    tag_36:\n      tag_38\n      jump\t// in\n    tag_35:\n      stop\n        /* \"lib.sol\":523:541  Book[]public books */\n    tag_7:\n      callvalue\n      dup1\n      iszero\n      tag_39\n      jumpi\n      0x00\n      dup1\n      revert\n    tag_39:\n      pop\n      tag_40\n      0x04\n      dup1\n      calldatasize\n      sub\n      dup2\n      add\n      swap1\n      tag_41\n      swap2\n      swap1\n      tag_42\n      jump\t// in\n    tag_41:\n      tag_43\n      jump\t// in\n    tag_40:\n      mload(0x40)\n      tag_44\n      swap4\n      swap3\n      swap2\n      swap1\n      tag_45\n      jump\t// in\n    tag_44:\n      mload(0x40)\n      dup1\n      swap2\n      sub\n      swap1\n      return\n        /* \"lib.sol\":1750:2353  function Borrowbook(uint256 bookid)public{... */\n    tag_8:\n      callvalue\n      dup1\n      iszero\n      tag_46\n      jumpi\n      0x00\n      dup1\n      revert\n    tag_46:\n      pop\n      tag_47\n      0x04\n      dup1\n      calldatasize\n      sub\n      dup2\n      add\n      swap1\n      tag_48\n      swap2\n      swap1\n      tag_42\n      jump\t// in\n    tag_48:\n      tag_49\n      jump\t// in\n    tag_47:\n      stop\n        /* \"lib.sol\":3796:3995  function withdrawfunds() public OnlyManager{... */\n    tag_9:\n      callvalue\n      dup1\n      iszero\n      tag_50\n      jumpi\n      0x00\n      dup1\n      revert\n    tag_50:\n      pop\n      tag_51\n      tag_52\n      jump\t// in\n    tag_51:\n      stop\n        /* \"lib.sol\":1434:1742  function becomeMember() payable public{... */\n    tag_10:\n      tag_53\n      tag_54\n      jump\t// in\n    tag_53:\n      stop\n        /* \"lib.sol\":548:588  mapping(address=>student)public students */\n    tag_11:\n      callvalue\n      dup1\n      iszero\n      tag_55\n      jumpi\n      0x00\n      dup1\n      revert\n    tag_55:\n      pop\n      tag_56\n      0x04\n      dup1\n      calldatasize\n      sub\n      dup2\n      add\n      swap1\n      tag_57\n      swap2\n      swap1\n      tag_58\n      jump\t// in\n    tag_57:\n      tag_59\n      jump\t// in\n    tag_56:\n      mload(0x40)\n      tag_60\n      swap3\n      swap2\n      swap1\n      tag_61\n      jump\t// in\n    tag_60:\n      mload(0x40)\n      dup1\n      swap2\n      sub\n      swap1\n      return\n        /* \"lib.sol\":3516:3790  function getBooksdetails(uint bookid)public view returns(string memory title,uint256 price,bool isAvailable){... */\n    tag_12:\n      callvalue\n      dup1\n      iszero\n      tag_62\n      jumpi\n      0x00\n      dup1\n      revert\n    tag_62:\n      pop\n      tag_63\n      0x04\n      dup1\n      calldatasize\n      sub\n      dup2\n      add\n      swap1\n      tag_64\n      swap2\n      swap1\n      tag_42\n      jump\t// in\n    tag_64:\n      tag_65\n      jump\t// in\n    tag_63:\n      mload(0x40)\n      tag_66\n      swap4\n      swap3\n      swap2\n      swap1\n      tag_45\n      jump\t// in\n    tag_66:\n      mload(0x40)\n      dup1\n      swap2\n      sub\n      swap1\n      return\n        /* \"lib.sol\":2359:3510  function returnBook(uint256 index)public OnlyMember{... */\n    tag_13:\n      callvalue\n      dup1\n      iszero\n      tag_67\n      jumpi\n      0x00\n      dup1\n      revert\n    tag_67:\n      pop\n      tag_68\n      0x04\n      dup1\n      calldatasize\n      sub\n      dup2\n      add\n      swap1\n      tag_69\n      swap2\n      swap1\n      tag_42\n      jump\t// in\n    tag_69:\n      tag_70\n      jump\t// in\n    tag_68:\n      stop\n        /* \"lib.sol\":152:185  uint public membershipfee=1 ether */\n    tag_14:\n      callvalue\n      dup1\n      iszero\n      tag_71\n      jumpi\n      0x00\n      dup1\n      revert\n    tag_71:\n      pop\n      tag_72\n      tag_73\n      jump\t// in\n    tag_72:\n      mload(0x40)\n      tag_74\n      swap2\n      swap1\n      tag_24\n      jump\t// in\n    tag_74:\n      mload(0x40)\n      dup1\n      swap2\n      sub\n      swap1\n      return\n        /* \"lib.sol\":122:145  uint256 public deadline */\n    tag_22:\n      sload(0x01)\n      dup2\n      jump\t// out\n        /* \"lib.sol\":93:115  address public manager */\n    tag_27:\n      0x00\n      dup1\n      sload\n      swap1\n      0x0100\n      exp\n      swap1\n      div\n      0xffffffffffffffffffffffffffffffffffffffff\n      and\n      dup2\n      jump\t// out\n        /* \"lib.sol\":4076:4247  function getbalance()public view returns(uint){... */\n    tag_32:\n        /* \"lib.sol\":4117:4121  uint */\n      0x00\n        /* \"lib.sol\":4153:4160  manager */\n      dup1\n      0x00\n      swap1\n      sload\n      swap1\n      0x0100\n      exp\n      swap1\n      div\n      0xffffffffffffffffffffffffffffffffffffffff\n      and\n        /* \"lib.sol\":4141:4160  msg.sender==manager */\n      0xffffffffffffffffffffffffffffffffffffffff\n      and\n        /* \"lib.sol\":4141:4151  msg.sender */\n      caller\n        /* \"lib.sol\":4141:4160  msg.sender==manager */\n      0xffffffffffffffffffffffffffffffffffffffff\n      and\n      eq\n        /* \"lib.sol\":4133:4199  require(msg.sender==manager,\"you cannot get acess to the balance\") */\n      tag_76\n      jumpi\n      mload(0x40)\n      0x08c379a000000000000000000000000000000000000000000000000000000000\n      dup2\n      mstore\n      0x04\n      add\n      tag_77\n      swap1\n      tag_78\n      jump\t// in\n    tag_77:\n      mload(0x40)\n      dup1\n      swap2\n      sub\n      swap1\n      revert\n    tag_76:\n        /* \"lib.sol\":4217:4238  address(this).balance */\n      selfbalance\n        /* \"lib.sol\":4210:4239  return(address(this).balance) */\n      swap1\n      pop\n        /* \"lib.sol\":4076:4247  function getbalance()public view returns(uint){... */\n      swap1\n      jump\t// out\n        /* \"lib.sol\":1216:1426  function addBook(string memory _title,uint256 _price)public OnlyManager{... */\n    tag_38:\n        /* \"lib.sol\":1032:1039  manager */\n      0x00\n      dup1\n      sload\n      swap1\n      0x0100\n      exp\n      swap1\n      div\n      0xffffffffffffffffffffffffffffffffffffffff\n      and\n        /* \"lib.sol\":1020:1039  msg.sender==manager */\n      0xffffffffffffffffffffffffffffffffffffffff\n      and\n        /* \"lib.sol\":1020:1030  msg.sender */\n      caller\n        /* \"lib.sol\":1020:1039  msg.sender==manager */\n      0xffffffffffffffffffffffffffffffffffffffff\n      and\n      eq\n        /* \"lib.sol\":1012:1067  require(msg.sender==manager,\"Yo didnot have the acess\") */\n      tag_80\n      jumpi\n      mload(0x40)\n      0x08c379a000000000000000000000000000000000000000000000000000000000\n      dup2\n      mstore\n      0x04\n      add\n      tag_81\n      swap1\n      tag_82\n      jump\t// in\n    tag_81:\n      mload(0x40)\n      dup1\n      swap2\n      sub\n      swap1\n      revert\n    tag_80:\n        /* \"lib.sol\":1298:1303  books */\n      0x03\n        /* \"lib.sol\":1309:1413  Book({... */\n      mload(0x40)\n      dup1\n      0x60\n      add\n      0x40\n      mstore\n      dup1\n        /* \"lib.sol\":1335:1341  _title */\n      dup5\n        /* \"lib.sol\":1309:1413  Book({... */\n      dup2\n      mstore\n      0x20\n      add\n        /* \"lib.sol\":1362:1368  _price */\n      dup4\n        /* \"lib.sol\":1309:1413  Book({... */\n      dup2\n      mstore\n      0x20\n      add\n        /* \"lib.sol\":1395:1399  true */\n      0x01\n        /* \"lib.sol\":1309:1413  Book({... */\n      iszero\n      iszero\n      dup2\n      mstore\n      pop\n        /* \"lib.sol\":1298:1414  books.push(Book({... */\n      swap1\n      dup1\n      0x01\n      dup2\n      sload\n      add\n      dup1\n      dup3\n      sstore\n      dup1\n      swap2\n      pop\n      pop\n      0x01\n      swap1\n      sub\n      swap1\n      0x00\n      mstore\n      keccak256(0x00, 0x20)\n      swap1\n      0x03\n      mul\n      add\n      0x00\n      swap1\n      swap2\n      swap1\n      swap2\n      swap1\n      swap2\n      pop\n      0x00\n      dup3\n      add\n      mload\n      dup2\n      0x00\n      add\n      swap1\n      dup2\n      tag_85\n      swap2\n      swap1\n      tag_86\n      jump\t// in\n    tag_85:\n      pop\n      0x20\n      dup3\n      add\n      mload\n      dup2\n      0x01\n      add\n      sstore\n      0x40\n      dup3\n      add\n      mload\n      dup2\n      0x02\n      add\n      exp(0x0100, 0x00)\n      dup2\n      sload\n      dup2\n      0xff\n      mul\n      not\n      and\n      swap1\n      dup4\n      iszero\n      iszero\n      mul\n      or\n      swap1\n      sstore\n      pop\n      pop\n      pop\n        /* \"lib.sol\":1216:1426  function addBook(string memory _title,uint256 _price)public OnlyManager{... */\n      pop\n      pop\n      jump\t// out\n        /* \"lib.sol\":523:541  Book[]public books */\n    tag_43:\n      0x03\n      dup2\n      dup2\n      sload\n      dup2\n      lt\n      tag_87\n      jumpi\n      0x00\n      dup1\n      revert\n    tag_87:\n      swap1\n      0x00\n      mstore\n      keccak256(0x00, 0x20)\n      swap1\n      0x03\n      mul\n      add\n      0x00\n      swap2\n      pop\n      swap1\n      pop\n      dup1\n      0x00\n      add\n      dup1\n      sload\n      tag_89\n      swap1\n      tag_90\n      jump\t// in\n    tag_89:\n      dup1\n      0x1f\n      add\n      0x20\n      dup1\n      swap2\n      div\n      mul\n      0x20\n      add\n      mload(0x40)\n      swap1\n      dup2\n      add\n      0x40\n      mstore\n      dup1\n      swap3\n      swap2\n      swap1\n      dup2\n      dup2\n      mstore\n      0x20\n      add\n      dup3\n      dup1\n      sload\n      tag_91\n      swap1\n      tag_90\n      jump\t// in\n    tag_91:\n      dup1\n      iszero\n      tag_92\n      jumpi\n      dup1\n      0x1f\n      lt\n      tag_93\n      jumpi\n      0x0100\n      dup1\n      dup4\n      sload\n      div\n      mul\n      dup4\n      mstore\n      swap2\n      0x20\n      add\n      swap2\n      jump(tag_92)\n    tag_93:\n      dup3\n      add\n      swap2\n      swap1\n      0x00\n      mstore\n      keccak256(0x00, 0x20)\n      swap1\n    tag_94:\n      dup2\n      sload\n      dup2\n      mstore\n      swap1\n      0x01\n      add\n      swap1\n      0x20\n      add\n      dup1\n      dup4\n      gt\n      tag_94\n      jumpi\n      dup3\n      swap1\n      sub\n      0x1f\n      and\n      dup3\n      add\n      swap2\n    tag_92:\n      pop\n      pop\n      pop\n      pop\n      pop\n      swap1\n      dup1\n      0x01\n      add\n      sload\n      swap1\n      dup1\n      0x02\n      add\n      0x00\n      swap1\n      sload\n      swap1\n      0x0100\n      exp\n      swap1\n      div\n      0xff\n      and\n      swap1\n      pop\n      dup4\n      jump\t// out\n        /* \"lib.sol\":1750:2353  function Borrowbook(uint256 bookid)public{... */\n    tag_49:\n        /* \"lib.sol\":1817:1822  books */\n      0x03\n        /* \"lib.sol\":1817:1829  books.length */\n      dup1\n      sload\n      swap1\n      pop\n        /* \"lib.sol\":1810:1816  bookid */\n      dup2\n        /* \"lib.sol\":1810:1829  bookid<books.length */\n      lt\n        /* \"lib.sol\":1802:1850  require(bookid<books.length,\"No book available\") */\n      tag_96\n      jumpi\n      mload(0x40)\n      0x08c379a000000000000000000000000000000000000000000000000000000000\n      dup2\n      mstore\n      0x04\n      add\n      tag_97\n      swap1\n      tag_98\n      jump\t// in\n    tag_97:\n      mload(0x40)\n      dup1\n      swap2\n      sub\n      swap1\n      revert\n    tag_96:\n        /* \"lib.sol\":1869:1874  books */\n      0x03\n        /* \"lib.sol\":1875:1881  bookid */\n      dup2\n        /* \"lib.sol\":1869:1882  books[bookid] */\n      dup2\n      sload\n      dup2\n      lt\n      tag_99\n      jumpi\n      tag_100\n      tag_101\n      jump\t// in\n    tag_100:\n    tag_99:\n      swap1\n      0x00\n      mstore\n      keccak256(0x00, 0x20)\n      swap1\n      0x03\n      mul\n      add\n        /* \"lib.sol\":1869:1894  books[bookid].isAvailable */\n      0x02\n      add\n      0x00\n      swap1\n      sload\n      swap1\n      0x0100\n      exp\n      swap1\n      div\n      0xff\n      and\n        /* \"lib.sol\":1861:1923  require(books[bookid].isAvailable,\"The book is not available\") */\n      tag_103\n      jumpi\n      mload(0x40)\n      0x08c379a000000000000000000000000000000000000000000000000000000000\n      dup2\n      mstore\n      0x04\n      add\n      tag_104\n      swap1\n      tag_105\n      jump\t// in\n    tag_104:\n      mload(0x40)\n      dup1\n      swap2\n      sub\n      swap1\n      revert\n    tag_103:\n        /* \"lib.sol\":1977:1978  2 */\n      0x02\n        /* \"lib.sol\":1942:1950  students */\n      0x04\n        /* \"lib.sol\":1942:1962  students[msg.sender] */\n      0x00\n        /* \"lib.sol\":1951:1961  msg.sender */\n      caller\n        /* \"lib.sol\":1942:1962  students[msg.sender] */\n      0xffffffffffffffffffffffffffffffffffffffff\n      and\n      0xffffffffffffffffffffffffffffffffffffffff\n      and\n      dup2\n      mstore\n      0x20\n      add\n      swap1\n      dup2\n      mstore\n      0x20\n      add\n      0x00\n      keccak256\n        /* \"lib.sol\":1942:1976  students[msg.sender].borrowedcount */\n      0x01\n      add\n      sload\n        /* \"lib.sol\":1942:1978  students[msg.sender].borrowedcount<2 */\n      lt\n        /* \"lib.sol\":1934:2018  require(students[msg.sender].borrowedcount<2,\"Your cannot borrow more than 2 books\") */\n      tag_106\n      jumpi\n      mload(0x40)\n      0x08c379a000000000000000000000000000000000000000000000000000000000\n      dup2\n      mstore\n      0x04\n      add\n      tag_107\n      swap1\n      tag_108\n      jump\t// in\n    tag_107:\n      mload(0x40)\n      dup1\n      swap2\n      sub\n      swap1\n      revert\n    tag_106:\n        /* \"lib.sol\":2055:2060  false */\n      0x00\n        /* \"lib.sol\":2029:2034  books */\n      0x03\n        /* \"lib.sol\":2035:2041  bookid */\n      dup3\n        /* \"lib.sol\":2029:2042  books[bookid] */\n      dup2\n      sload\n      dup2\n      lt\n      tag_109\n      jumpi\n      tag_110\n      tag_101\n      jump\t// in\n    tag_110:\n    tag_109:\n      swap1\n      0x00\n      mstore\n      keccak256(0x00, 0x20)\n      swap1\n      0x03\n      mul\n      add\n        /* \"lib.sol\":2029:2054  books[bookid].isAvailable */\n      0x02\n      add\n      0x00\n        /* \"lib.sol\":2029:2060  books[bookid].isAvailable=false */\n      0x0100\n      exp\n      dup2\n      sload\n      dup2\n      0xff\n      mul\n      not\n      and\n      swap1\n      dup4\n      iszero\n      iszero\n      mul\n      or\n      swap1\n      sstore\n      pop\n        /* \"lib.sol\":2144:2242  Borrowedbook({... */\n      mload(0x40)\n      dup1\n      0x40\n      add\n      0x40\n      mstore\n      dup1\n        /* \"lib.sol\":2179:2185  bookid */\n      dup3\n        /* \"lib.sol\":2144:2242  Borrowedbook({... */\n      dup2\n      mstore\n      0x20\n      add\n        /* \"lib.sol\":2213:2228  block.timestamp */\n      timestamp\n        /* \"lib.sol\":2144:2242  Borrowedbook({... */\n      dup2\n      mstore\n      pop\n        /* \"lib.sol\":2073:2081  students */\n      0x04\n        /* \"lib.sol\":2073:2093  students[msg.sender] */\n      0x00\n        /* \"lib.sol\":2082:2092  msg.sender */\n      caller\n        /* \"lib.sol\":2073:2093  students[msg.sender] */\n      0xffffffffffffffffffffffffffffffffffffffff\n      and\n      0xffffffffffffffffffffffffffffffffffffffff\n      and\n      dup2\n      mstore\n      0x20\n      add\n      swap1\n      dup2\n      mstore\n      0x20\n      add\n      0x00\n      keccak256\n        /* \"lib.sol\":2073:2107  students[msg.sender].borrowedbooks */\n      0x02\n      add\n        /* \"lib.sol\":2073:2143  students[msg.sender].borrowedbooks[students[msg.sender].borrowedcount] */\n      0x00\n        /* \"lib.sol\":2108:2116  students */\n      0x04\n        /* \"lib.sol\":2108:2128  students[msg.sender] */\n      0x00\n        /* \"lib.sol\":2117:2127  msg.sender */\n      caller\n        /* \"lib.sol\":2108:2128  students[msg.sender] */\n      0xffffffffffffffffffffffffffffffffffffffff\n      and\n      0xffffffffffffffffffffffffffffffffffffffff\n      and\n      dup2\n      mstore\n      0x20\n      add\n      swap1\n      dup2\n      mstore\n      0x20\n      add\n      0x00\n      keccak256\n        /* \"lib.sol\":2108:2142  students[msg.sender].borrowedcount */\n      0x01\n      add\n      sload\n        /* \"lib.sol\":2073:2143  students[msg.sender].borrowedbooks[students[msg.sender].borrowedcount] */\n      dup2\n      mstore\n      0x20\n      add\n      swap1\n      dup2\n      mstore\n      0x20\n      add\n      0x00\n      keccak256\n        /* \"lib.sol\":2073:2242  students[msg.sender].borrowedbooks[students[msg.sender].borrowedcount]=Borrowedbook({... */\n      0x00\n      dup3\n      add\n      mload\n      dup2\n      0x00\n      add\n      sstore\n      0x20\n      dup3\n      add\n      mload\n      dup2\n      0x01\n      add\n      sstore\n      swap1\n      pop\n      pop\n        /* \"lib.sol\":2253:2261  students */\n      0x04\n        /* \"lib.sol\":2253:2273  students[msg.sender] */\n      0x00\n        /* \"lib.sol\":2262:2272  msg.sender */\n      caller\n        /* \"lib.sol\":2253:2273  students[msg.sender] */\n      0xffffffffffffffffffffffffffffffffffffffff\n      and\n      0xffffffffffffffffffffffffffffffffffffffff\n      and\n      dup2\n      mstore\n      0x20\n      add\n      swap1\n      dup2\n      mstore\n      0x20\n      add\n      0x00\n      keccak256\n        /* \"lib.sol\":2253:2287  students[msg.sender].borrowedcount */\n      0x01\n      add\n      0x00\n        /* \"lib.sol\":2253:2289  students[msg.sender].borrowedcount++ */\n      dup2\n      sload\n      dup1\n      swap3\n      swap2\n      swap1\n      tag_112\n      swap1\n      tag_113\n      jump\t// in\n    tag_112:\n      swap2\n      swap1\n      pop\n      sstore\n      pop\n        /* \"lib.sol\":2318:2328  msg.sender */\n      caller\n        /* \"lib.sol\":2305:2337  BookBorrowed(msg.sender, bookid) */\n      0xffffffffffffffffffffffffffffffffffffffff\n      and\n      0x84edab31b887a66b8af059a2b9c3c53e440d8b54f65102ae6acc11bf485db9e2\n        /* \"lib.sol\":2330:2336  bookid */\n      dup3\n        /* \"lib.sol\":2305:2337  BookBorrowed(msg.sender, bookid) */\n      mload(0x40)\n      tag_114\n      swap2\n      swap1\n      tag_24\n      jump\t// in\n    tag_114:\n      mload(0x40)\n      dup1\n      swap2\n      sub\n      swap1\n      log2\n        /* \"lib.sol\":1750:2353  function Borrowbook(uint256 bookid)public{... */\n      pop\n      jump\t// out\n        /* \"lib.sol\":3796:3995  function withdrawfunds() public OnlyManager{... */\n    tag_52:\n        /* \"lib.sol\":1032:1039  manager */\n      0x00\n      dup1\n      sload\n      swap1\n      0x0100\n      exp\n      swap1\n      div\n      0xffffffffffffffffffffffffffffffffffffffff\n      and\n        /* \"lib.sol\":1020:1039  msg.sender==manager */\n      0xffffffffffffffffffffffffffffffffffffffff\n      and\n        /* \"lib.sol\":1020:1030  msg.sender */\n      caller\n        /* \"lib.sol\":1020:1039  msg.sender==manager */\n      0xffffffffffffffffffffffffffffffffffffffff\n      and\n      eq\n        /* \"lib.sol\":1012:1067  require(msg.sender==manager,\"Yo didnot have the acess\") */\n      tag_116\n      jumpi\n      mload(0x40)\n      0x08c379a000000000000000000000000000000000000000000000000000000000\n      dup2\n      mstore\n      0x04\n      add\n      tag_117\n      swap1\n      tag_82\n      jump\t// in\n    tag_117:\n      mload(0x40)\n      dup1\n      swap2\n      sub\n      swap1\n      revert\n    tag_116:\n        /* \"lib.sol\":3874:3882  deadline */\n      sload(0x01)\n        /* \"lib.sol\":3858:3873  block.timestamp */\n      timestamp\n        /* \"lib.sol\":3858:3882  block.timestamp>deadline */\n      gt\n        /* \"lib.sol\":3850:3928  require(block.timestamp>deadline,\"Its not time to withdraw the money manager\") */\n      tag_119\n      jumpi\n      mload(0x40)\n      0x08c379a000000000000000000000000000000000000000000000000000000000\n      dup2\n      mstore\n      0x04\n      add\n      tag_120\n      swap1\n      tag_121\n      jump\t// in\n    tag_120:\n      mload(0x40)\n      dup1\n      swap2\n      sub\n      swap1\n      revert\n    tag_119:\n        /* \"lib.sol\":3947:3954  manager */\n      0x00\n      dup1\n      sload\n      swap1\n      0x0100\n      exp\n      swap1\n      div\n      0xffffffffffffffffffffffffffffffffffffffff\n      and\n        /* \"lib.sol\":3939:3964  payable(manager).transfer */\n      0xffffffffffffffffffffffffffffffffffffffff\n      and\n        /* \"lib.sol\":3939:3987  payable(manager).transfer(address(this).balance) */\n      0x08fc\n        /* \"lib.sol\":3965:3986  address(this).balance */\n      selfbalance\n        /* \"lib.sol\":3939:3987  payable(manager).transfer(address(this).balance) */\n      swap1\n      dup2\n      iszero\n      mul\n      swap1\n      mload(0x40)\n      0x00\n      mload(0x40)\n      dup1\n      dup4\n      sub\n      dup2\n      dup6\n      dup9\n      dup9\n      call\n      swap4\n      pop\n      pop\n      pop\n      pop\n      iszero\n      dup1\n      iszero\n      tag_123\n      jumpi\n      returndatasize\n      0x00\n      dup1\n      returndatacopy\n      revert(0x00, returndatasize)\n    tag_123:\n      pop\n        /* \"lib.sol\":3796:3995  function withdrawfunds() public OnlyManager{... */\n      jump\t// out\n        /* \"lib.sol\":1434:1742  function becomeMember() payable public{... */\n    tag_54:\n        /* \"lib.sol\":1502:1515  membershipfee */\n      sload(0x02)\n        /* \"lib.sol\":1491:1500  msg.value */\n      callvalue\n        /* \"lib.sol\":1491:1515  msg.value==membershipfee */\n      eq\n        /* \"lib.sol\":1483:1564  require(msg.value==membershipfee,\"The amount is not sufficient to become member\") */\n      tag_125\n      jumpi\n      mload(0x40)\n      0x08c379a000000000000000000000000000000000000000000000000000000000\n      dup2\n      mstore\n      0x04\n      add\n      tag_126\n      swap1\n      tag_127\n      jump\t// in\n    tag_126:\n      mload(0x40)\n      dup1\n      swap2\n      sub\n      swap1\n      revert\n    tag_125:\n        /* \"lib.sol\":1584:1592  students */\n      0x04\n        /* \"lib.sol\":1584:1604  students[msg.sender] */\n      0x00\n        /* \"lib.sol\":1593:1603  msg.sender */\n      caller\n        /* \"lib.sol\":1584:1604  students[msg.sender] */\n      0xffffffffffffffffffffffffffffffffffffffff\n      and\n      0xffffffffffffffffffffffffffffffffffffffff\n      and\n      dup2\n      mstore\n      0x20\n      add\n      swap1\n      dup2\n      mstore\n      0x20\n      add\n      0x00\n      keccak256\n        /* \"lib.sol\":1584:1613  students[msg.sender].isMember */\n      0x00\n      add\n      0x00\n      swap1\n      sload\n      swap1\n      0x0100\n      exp\n      swap1\n      div\n      0xff\n      and\n        /* \"lib.sol\":1583:1613  !students[msg.sender].isMember */\n      iszero\n        /* \"lib.sol\":1575:1641  require(!students[msg.sender].isMember,\"You are already a member\") */\n      tag_128\n      jumpi\n      mload(0x40)\n      0x08c379a000000000000000000000000000000000000000000000000000000000\n      dup2\n      mstore\n      0x04\n      add\n      tag_129\n      swap1\n      tag_130\n      jump\t// in\n    tag_129:\n      mload(0x40)\n      dup1\n      swap2\n      sub\n      swap1\n      revert\n    tag_128:\n        /* \"lib.sol\":1682:1686  true */\n      0x01\n        /* \"lib.sol\":1652:1660  students */\n      0x04\n        /* \"lib.sol\":1652:1672  students[msg.sender] */\n      0x00\n        /* \"lib.sol\":1661:1671  msg.sender */\n      caller\n        /* \"lib.sol\":1652:1672  students[msg.sender] */\n      0xffffffffffffffffffffffffffffffffffffffff\n      and\n      0xffffffffffffffffffffffffffffffffffffffff\n      and\n      dup2\n      mstore\n      0x20\n      add\n      swap1\n      dup2\n      mstore\n      0x20\n      add\n      0x00\n      keccak256\n        /* \"lib.sol\":1652:1681  students[msg.sender].isMember */\n      0x00\n      add\n      0x00\n        /* \"lib.sol\":1652:1686  students[msg.sender].isMember=true */\n      0x0100\n      exp\n      dup2\n      sload\n      dup2\n      0xff\n      mul\n      not\n      and\n      swap1\n      dup4\n      iszero\n      iszero\n      mul\n      or\n      swap1\n      sstore\n      pop\n        /* \"lib.sol\":1723:1733  msg.sender */\n      caller\n        /* \"lib.sol\":1703:1734  MembershipPurchased(msg.sender) */\n      0xffffffffffffffffffffffffffffffffffffffff\n      and\n      0x59b0c23c5a97a8e6d0985d27b23833bae2e892eb6811832e87e3699863722838\n      mload(0x40)\n      mload(0x40)\n      dup1\n      swap2\n      sub\n      swap1\n      log2\n        /* \"lib.sol\":1434:1742  function becomeMember() payable public{... */\n      jump\t// out\n        /* \"lib.sol\":548:588  mapping(address=>student)public students */\n    tag_59:\n      mstore(0x20, 0x04)\n      dup1\n      0x00\n      mstore\n      keccak256(0x00, 0x40)\n      0x00\n      swap2\n      pop\n      swap1\n      pop\n      dup1\n      0x00\n      add\n      0x00\n      swap1\n      sload\n      swap1\n      0x0100\n      exp\n      swap1\n      div\n      0xff\n      and\n      swap1\n      dup1\n      0x01\n      add\n      sload\n      swap1\n      pop\n      dup3\n      jump\t// out\n        /* \"lib.sol\":3516:3790  function getBooksdetails(uint bookid)public view returns(string memory title,uint256 price,bool isAvailable){... */\n    tag_65:\n        /* \"lib.sol\":3573:3592  string memory title */\n      0x60\n        /* \"lib.sol\":3593:3606  uint256 price */\n      0x00\n        /* \"lib.sol\":3607:3623  bool isAvailable */\n      dup1\n        /* \"lib.sol\":3650:3655  books */\n      0x03\n        /* \"lib.sol\":3650:3662  books.length */\n      dup1\n      sload\n      swap1\n      pop\n        /* \"lib.sol\":3643:3649  bookid */\n      dup5\n        /* \"lib.sol\":3643:3662  bookid<books.length */\n      lt\n        /* \"lib.sol\":3635:3682  require(bookid<books.length,\"No valid book id\") */\n      tag_132\n      jumpi\n      mload(0x40)\n      0x08c379a000000000000000000000000000000000000000000000000000000000\n      dup2\n      mstore\n      0x04\n      add\n      tag_133\n      swap1\n      tag_134\n      jump\t// in\n    tag_133:\n      mload(0x40)\n      dup1\n      swap2\n      sub\n      swap1\n      revert\n    tag_132:\n        /* \"lib.sol\":3693:3709  Book memory book */\n      0x00\n        /* \"lib.sol\":3710:3715  books */\n      0x03\n        /* \"lib.sol\":3716:3722  bookid */\n      dup6\n        /* \"lib.sol\":3710:3723  books[bookid] */\n      dup2\n      sload\n      dup2\n      lt\n      tag_135\n      jumpi\n      tag_136\n      tag_101\n      jump\t// in\n    tag_136:\n    tag_135:\n      swap1\n      0x00\n      mstore\n      keccak256(0x00, 0x20)\n      swap1\n      0x03\n      mul\n      add\n        /* \"lib.sol\":3693:3723  Book memory book=books[bookid] */\n      mload(0x40)\n      dup1\n      0x60\n      add\n      0x40\n      mstore\n      swap1\n      dup2\n      0x00\n      dup3\n      add\n      dup1\n      sload\n      tag_138\n      swap1\n      tag_90\n      jump\t// in\n    tag_138:\n      dup1\n      0x1f\n      add\n      0x20\n      dup1\n      swap2\n      div\n      mul\n      0x20\n      add\n      mload(0x40)\n      swap1\n      dup2\n      add\n      0x40\n      mstore\n      dup1\n      swap3\n      swap2\n      swap1\n      dup2\n      dup2\n      mstore\n      0x20\n      add\n      dup3\n      dup1\n      sload\n      tag_139\n      swap1\n      tag_90\n      jump\t// in\n    tag_139:\n      dup1\n      iszero\n      tag_140\n      jumpi\n      dup1\n      0x1f\n      lt\n      tag_141\n      jumpi\n      0x0100\n      dup1\n      dup4\n      sload\n      div\n      mul\n      dup4\n      mstore\n      swap2\n      0x20\n      add\n      swap2\n      jump(tag_140)\n    tag_141:\n      dup3\n      add\n      swap2\n      swap1\n      0x00\n      mstore\n      keccak256(0x00, 0x20)\n      swap1\n    tag_142:\n      dup2\n      sload\n      dup2\n      mstore\n      swap1\n      0x01\n      add\n      swap1\n      0x20\n      add\n      dup1\n      dup4\n      gt\n      tag_142\n      jumpi\n      dup3\n      swap1\n      sub\n      0x1f\n      and\n      dup3\n      add\n      swap2\n    tag_140:\n      pop\n      pop\n      pop\n      pop\n      pop\n      dup2\n      mstore\n      0x20\n      add\n      0x01\n      dup3\n      add\n      sload\n      dup2\n      mstore\n      0x20\n      add\n      0x02\n      dup3\n      add\n      0x00\n      swap1\n      sload\n      swap1\n      0x0100\n      exp\n      swap1\n      div\n      0xff\n      and\n      iszero\n      iszero\n      iszero\n      iszero\n      dup2\n      mstore\n      pop\n      pop\n      swap1\n      pop\n        /* \"lib.sol\":3741:3745  book */\n      dup1\n        /* \"lib.sol\":3741:3751  book.title */\n      0x00\n      add\n      mload\n        /* \"lib.sol\":3752:3756  book */\n      dup2\n        /* \"lib.sol\":3752:3762  book.price */\n      0x20\n      add\n      mload\n        /* \"lib.sol\":3763:3767  book */\n      dup3\n        /* \"lib.sol\":3763:3779  book.isAvailable */\n      0x40\n      add\n      mload\n        /* \"lib.sol\":3734:3780  return(book.title,book.price,book.isAvailable) */\n      swap4\n      pop\n      swap4\n      pop\n      swap4\n      pop\n      pop\n        /* \"lib.sol\":3516:3790  function getBooksdetails(uint bookid)public view returns(string memory title,uint256 price,bool isAvailable){... */\n      swap2\n      swap4\n      swap1\n      swap3\n      pop\n      jump\t// out\n        /* \"lib.sol\":2359:3510  function returnBook(uint256 index)public OnlyMember{... */\n    tag_70:\n        /* \"lib.sol\":1133:1141  students */\n      0x04\n        /* \"lib.sol\":1133:1153  students[msg.sender] */\n      0x00\n        /* \"lib.sol\":1142:1152  msg.sender */\n      caller\n        /* \"lib.sol\":1133:1153  students[msg.sender] */\n      0xffffffffffffffffffffffffffffffffffffffff\n      and\n      0xffffffffffffffffffffffffffffffffffffffff\n      and\n      dup2\n      mstore\n      0x20\n      add\n      swap1\n      dup2\n      mstore\n      0x20\n      add\n      0x00\n      keccak256\n        /* \"lib.sol\":1133:1162  students[msg.sender].isMember */\n      0x00\n      add\n      0x00\n      swap1\n      sload\n      swap1\n      0x0100\n      exp\n      swap1\n      div\n      0xff\n      and\n        /* \"lib.sol\":1125:1188  require(students[msg.sender].isMember,\"You are not the member\") */\n      tag_144\n      jumpi\n      mload(0x40)\n      0x08c379a000000000000000000000000000000000000000000000000000000000\n      dup2\n      mstore\n      0x04\n      add\n      tag_145\n      swap1\n      tag_146\n      jump\t// in\n    tag_145:\n      mload(0x40)\n      dup1\n      swap2\n      sub\n      swap1\n      revert\n    tag_144:\n        /* \"lib.sol\":2435:2443  students */\n      0x04\n        /* \"lib.sol\":2435:2455  students[msg.sender] */\n      0x00\n        /* \"lib.sol\":2444:2454  msg.sender */\n      caller\n        /* \"lib.sol\":2435:2455  students[msg.sender] */\n      0xffffffffffffffffffffffffffffffffffffffff\n      and\n      0xffffffffffffffffffffffffffffffffffffffff\n      and\n      dup2\n      mstore\n      0x20\n      add\n      swap1\n      dup2\n      mstore\n      0x20\n      add\n      0x00\n      keccak256\n        /* \"lib.sol\":2435:2469  students[msg.sender].borrowedcount */\n      0x01\n      add\n      sload\n        /* \"lib.sol\":2429:2434  index */\n      dup2\n        /* \"lib.sol\":2429:2469  index<students[msg.sender].borrowedcount */\n      lt\n        /* \"lib.sol\":2421:2496  require(index<students[msg.sender].borrowedcount,\"invalid index mentioned\") */\n      tag_148\n      jumpi\n      mload(0x40)\n      0x08c379a000000000000000000000000000000000000000000000000000000000\n      dup2\n      mstore\n      0x04\n      add\n      tag_149\n      swap1\n      tag_150\n      jump\t// in\n    tag_149:\n      mload(0x40)\n      dup1\n      swap2\n      sub\n      swap1\n      revert\n    tag_148:\n        /* \"lib.sol\":2507:2539  Borrowedbook memory borrowedBook */\n      0x00\n        /* \"lib.sol\":2542:2550  students */\n      0x04\n        /* \"lib.sol\":2542:2562  students[msg.sender] */\n      0x00\n        /* \"lib.sol\":2551:2561  msg.sender */\n      caller\n        /* \"lib.sol\":2542:2562  students[msg.sender] */\n      0xffffffffffffffffffffffffffffffffffffffff\n      and\n      0xffffffffffffffffffffffffffffffffffffffff\n      and\n      dup2\n      mstore\n      0x20\n      add\n      swap1\n      dup2\n      mstore\n      0x20\n      add\n      0x00\n      keccak256\n        /* \"lib.sol\":2542:2576  students[msg.sender].borrowedbooks */\n      0x02\n      add\n        /* \"lib.sol\":2542:2583  students[msg.sender].borrowedbooks[index] */\n      0x00\n        /* \"lib.sol\":2577:2582  index */\n      dup4\n        /* \"lib.sol\":2542:2583  students[msg.sender].borrowedbooks[index] */\n      dup2\n      mstore\n      0x20\n      add\n      swap1\n      dup2\n      mstore\n      0x20\n      add\n      0x00\n      keccak256\n        /* \"lib.sol\":2507:2583  Borrowedbook memory borrowedBook = students[msg.sender].borrowedbooks[index] */\n      mload(0x40)\n      dup1\n      0x40\n      add\n      0x40\n      mstore\n      swap1\n      dup2\n      0x00\n      dup3\n      add\n      sload\n      dup2\n      mstore\n      0x20\n      add\n      0x01\n      dup3\n      add\n      sload\n      dup2\n      mstore\n      pop\n      pop\n      swap1\n      pop\n        /* \"lib.sol\":2594:2608  uint256 bookid */\n      0x00\n        /* \"lib.sol\":2609:2621  borrowedBook */\n      dup2\n        /* \"lib.sol\":2609:2628  borrowedBook.bookid */\n      0x00\n      add\n      mload\n        /* \"lib.sol\":2594:2628  uint256 bookid=borrowedBook.bookid */\n      swap1\n      pop\n        /* \"lib.sol\":2654:2659  books */\n      0x03\n        /* \"lib.sol\":2654:2666  books.length */\n      dup1\n      sload\n      swap1\n      pop\n        /* \"lib.sol\":2647:2653  bookid */\n      dup2\n        /* \"lib.sol\":2647:2666  bookid<books.length */\n      lt\n        /* \"lib.sol\":2639:2685  require(bookid<books.length,\"Invalid book id\") */\n      tag_151\n      jumpi\n      mload(0x40)\n      0x08c379a000000000000000000000000000000000000000000000000000000000\n      dup2\n      mstore\n      0x04\n      add\n      tag_152\n      swap1\n      tag_153\n      jump\t// in\n    tag_152:\n      mload(0x40)\n      dup1\n      swap2\n      sub\n      swap1\n      revert\n    tag_151:\n        /* \"lib.sol\":2772:2780  deadline */\n      sload(0x01)\n        /* \"lib.sol\":2746:2758  borrowedBook */\n      dup3\n        /* \"lib.sol\":2746:2771  borrowedBook.borrowedTime */\n      0x20\n      add\n      mload\n        /* \"lib.sol\":2746:2780  borrowedBook.borrowedTime+deadline */\n      tag_154\n      swap2\n      swap1\n      tag_155\n      jump\t// in\n    tag_154:\n        /* \"lib.sol\":2730:2745  block.timestamp */\n      timestamp\n        /* \"lib.sol\":2730:2780  block.timestamp>borrowedBook.borrowedTime+deadline */\n      gt\n        /* \"lib.sol\":2727:3039  if(block.timestamp>borrowedBook.borrowedTime+deadline){... */\n      iszero\n      tag_156\n      jumpi\n        /* \"lib.sol\":2796:2811  uint256 penalty */\n      0x00\n        /* \"lib.sol\":2812:2817  books */\n      0x03\n        /* \"lib.sol\":2818:2824  bookid */\n      dup3\n        /* \"lib.sol\":2812:2825  books[bookid] */\n      dup2\n      sload\n      dup2\n      lt\n      tag_157\n      jumpi\n      tag_158\n      tag_101\n      jump\t// in\n    tag_158:\n    tag_157:\n      swap1\n      0x00\n      mstore\n      keccak256(0x00, 0x20)\n      swap1\n      0x03\n      mul\n      add\n        /* \"lib.sol\":2812:2831  books[bookid].price */\n      0x01\n      add\n      sload\n        /* \"lib.sol\":2796:2831  uint256 penalty=books[bookid].price */\n      swap1\n      pop\n        /* \"lib.sol\":2874:2881  penalty */\n      dup1\n        /* \"lib.sol\":2854:2864  msg.sender */\n      caller\n        /* \"lib.sol\":2854:2872  msg.sender.balance */\n      0xffffffffffffffffffffffffffffffffffffffff\n      and\n      balance\n        /* \"lib.sol\":2854:2881  msg.sender.balance>=penalty */\n      lt\n      iszero\n        /* \"lib.sol\":2846:2922  require(msg.sender.balance>=penalty,\"No sufficient balance in your account\") */\n      tag_160\n      jumpi\n      mload(0x40)\n      0x08c379a000000000000000000000000000000000000000000000000000000000\n      dup2\n      mstore\n      0x04\n      add\n      tag_161\n      swap1\n      tag_162\n      jump\t// in\n    tag_161:\n      mload(0x40)\n      dup1\n      swap2\n      sub\n      swap1\n      revert\n    tag_160:\n        /* \"lib.sol\":2945:2952  manager */\n      0x00\n      dup1\n      sload\n      swap1\n      0x0100\n      exp\n      swap1\n      div\n      0xffffffffffffffffffffffffffffffffffffffff\n      and\n        /* \"lib.sol\":2937:2962  payable(manager).transfer */\n      0xffffffffffffffffffffffffffffffffffffffff\n      and\n        /* \"lib.sol\":2937:2971  payable(manager).transfer(penalty) */\n      0x08fc\n        /* \"lib.sol\":2963:2970  penalty */\n      dup3\n        /* \"lib.sol\":2937:2971  payable(manager).transfer(penalty) */\n      swap1\n      dup2\n      iszero\n      mul\n      swap1\n      mload(0x40)\n      0x00\n      mload(0x40)\n      dup1\n      dup4\n      sub\n      dup2\n      dup6\n      dup9\n      dup9\n      call\n      swap4\n      pop\n      pop\n      pop\n      pop\n      iszero\n      dup1\n      iszero\n      tag_164\n      jumpi\n      returndatasize\n      0x00\n      dup1\n      returndatacopy\n      revert(0x00, returndatasize)\n    tag_164:\n      pop\n        /* \"lib.sol\":3005:3015  msg.sender */\n      caller\n        /* \"lib.sol\":2991:3025  PenaltyCharge(msg.sender, penalty) */\n      0xffffffffffffffffffffffffffffffffffffffff\n      and\n      0x1b4b1ab7aa7799c2071a3b350ab2454c23b380010dd29135206b1ea84b3600ab\n        /* \"lib.sol\":3017:3024  penalty */\n      dup3\n        /* \"lib.sol\":2991:3025  PenaltyCharge(msg.sender, penalty) */\n      mload(0x40)\n      tag_165\n      swap2\n      swap1\n      tag_24\n      jump\t// in\n    tag_165:\n      mload(0x40)\n      dup1\n      swap2\n      sub\n      swap1\n      log2\n        /* \"lib.sol\":2781:3039  {... */\n      pop\n        /* \"lib.sol\":2727:3039  if(block.timestamp>borrowedBook.borrowedTime+deadline){... */\n    tag_156:\n        /* \"lib.sol\":3075:3079  true */\n      0x01\n        /* \"lib.sol\":3049:3054  books */\n      0x03\n        /* \"lib.sol\":3055:3061  bookid */\n      dup3\n        /* \"lib.sol\":3049:3062  books[bookid] */\n      dup2\n      sload\n      dup2\n      lt\n      tag_166\n      jumpi\n      tag_167\n      tag_101\n      jump\t// in\n    tag_167:\n    tag_166:\n      swap1\n      0x00\n      mstore\n      keccak256(0x00, 0x20)\n      swap1\n      0x03\n      mul\n      add\n        /* \"lib.sol\":3049:3074  books[bookid].isAvailable */\n      0x02\n      add\n      0x00\n        /* \"lib.sol\":3049:3079  books[bookid].isAvailable=true */\n      0x0100\n      exp\n      dup2\n      sload\n      dup2\n      0xff\n      mul\n      not\n      and\n      swap1\n      dup4\n      iszero\n      iszero\n      mul\n      or\n      swap1\n      sstore\n      pop\n        /* \"lib.sol\":3136:3145  uint256 i */\n      0x00\n        /* \"lib.sol\":3146:3151  index */\n      dup4\n        /* \"lib.sol\":3136:3151  uint256 i=index */\n      swap1\n      pop\n        /* \"lib.sol\":3132:3303  for(uint256 i=index;i<students[msg.sender].borrowedcount-1;i++){... */\n    tag_169:\n        /* \"lib.sol\":3189:3190  1 */\n      0x01\n        /* \"lib.sol\":3154:3162  students */\n      0x04\n        /* \"lib.sol\":3154:3174  students[msg.sender] */\n      0x00\n        /* \"lib.sol\":3163:3173  msg.sender */\n      caller\n        /* \"lib.sol\":3154:3174  students[msg.sender] */\n      0xffffffffffffffffffffffffffffffffffffffff\n      and\n      0xffffffffffffffffffffffffffffffffffffffff\n      and\n      dup2\n      mstore\n      0x20\n      add\n      swap1\n      dup2\n      mstore\n      0x20\n      add\n      0x00\n      keccak256\n        /* \"lib.sol\":3154:3188  students[msg.sender].borrowedcount */\n      0x01\n      add\n      sload\n        /* \"lib.sol\":3154:3190  students[msg.sender].borrowedcount-1 */\n      tag_172\n      swap2\n      swap1\n      tag_173\n      jump\t// in\n    tag_172:\n        /* \"lib.sol\":3152:3153  i */\n      dup2\n        /* \"lib.sol\":3152:3190  i<students[msg.sender].borrowedcount-1 */\n      lt\n        /* \"lib.sol\":3132:3303  for(uint256 i=index;i<students[msg.sender].borrowedcount-1;i++){... */\n      iszero\n      tag_170\n      jumpi\n        /* \"lib.sol\":3248:3256  students */\n      0x04\n        /* \"lib.sol\":3248:3268  students[msg.sender] */\n      0x00\n        /* \"lib.sol\":3257:3267  msg.sender */\n      caller\n        /* \"lib.sol\":3248:3268  students[msg.sender] */\n      0xffffffffffffffffffffffffffffffffffffffff\n      and\n      0xffffffffffffffffffffffffffffffffffffffff\n      and\n      dup2\n      mstore\n      0x20\n      add\n      swap1\n      dup2\n      mstore\n      0x20\n      add\n      0x00\n      keccak256\n        /* \"lib.sol\":3248:3282  students[msg.sender].borrowedbooks */\n      0x02\n      add\n        /* \"lib.sol\":3248:3287  students[msg.sender].borrowedbooks[i+1] */\n      0x00\n        /* \"lib.sol\":3285:3286  1 */\n      0x01\n        /* \"lib.sol\":3283:3284  i */\n      dup4\n        /* \"lib.sol\":3283:3286  i+1 */\n      tag_174\n      swap2\n      swap1\n      tag_155\n      jump\t// in\n    tag_174:\n        /* \"lib.sol\":3248:3287  students[msg.sender].borrowedbooks[i+1] */\n      dup2\n      mstore\n      0x20\n      add\n      swap1\n      dup2\n      mstore\n      0x20\n      add\n      0x00\n      keccak256\n        /* \"lib.sol\":3210:3218  students */\n      0x04\n        /* \"lib.sol\":3210:3230  students[msg.sender] */\n      0x00\n        /* \"lib.sol\":3219:3229  msg.sender */\n      caller\n        /* \"lib.sol\":3210:3230  students[msg.sender] */\n      0xffffffffffffffffffffffffffffffffffffffff\n      and\n      0xffffffffffffffffffffffffffffffffffffffff\n      and\n      dup2\n      mstore\n      0x20\n      add\n      swap1\n      dup2\n      mstore\n      0x20\n      add\n      0x00\n      keccak256\n        /* \"lib.sol\":3210:3244  students[msg.sender].borrowedbooks */\n      0x02\n      add\n        /* \"lib.sol\":3210:3247  students[msg.sender].borrowedbooks[i] */\n      0x00\n        /* \"lib.sol\":3245:3246  i */\n      dup4\n        /* \"lib.sol\":3210:3247  students[msg.sender].borrowedbooks[i] */\n      dup2\n      mstore\n      0x20\n      add\n      swap1\n      dup2\n      mstore\n      0x20\n      add\n      0x00\n      keccak256\n        /* \"lib.sol\":3210:3287  students[msg.sender].borrowedbooks[i]=students[msg.sender].borrowedbooks[i+1] */\n      0x00\n      dup3\n      add\n      sload\n      dup2\n      0x00\n      add\n      sstore\n      0x01\n      dup3\n      add\n      sload\n      dup2\n      0x01\n      add\n      sstore\n      swap1\n      pop\n      pop\n        /* \"lib.sol\":3191:3194  i++ */\n      dup1\n      dup1\n      0x01\n      add\n      swap2\n      pop\n      pop\n        /* \"lib.sol\":3132:3303  for(uint256 i=index;i<students[msg.sender].borrowedcount-1;i++){... */\n      jump(tag_169)\n    tag_170:\n      pop\n        /* \"lib.sol\":3320:3328  students */\n      0x04\n        /* \"lib.sol\":3320:3340  students[msg.sender] */\n      0x00\n        /* \"lib.sol\":3329:3339  msg.sender */\n      caller\n        /* \"lib.sol\":3320:3340  students[msg.sender] */\n      0xffffffffffffffffffffffffffffffffffffffff\n      and\n      0xffffffffffffffffffffffffffffffffffffffff\n      and\n      dup2\n      mstore\n      0x20\n      add\n      swap1\n      dup2\n      mstore\n      0x20\n      add\n      0x00\n      keccak256\n        /* \"lib.sol\":3320:3354  students[msg.sender].borrowedbooks */\n      0x02\n      add\n        /* \"lib.sol\":3320:3392  students[msg.sender].borrowedbooks[students[msg.sender].borrowedcount-1] */\n      0x00\n        /* \"lib.sol\":3390:3391  1 */\n      0x01\n        /* \"lib.sol\":3355:3363  students */\n      0x04\n        /* \"lib.sol\":3355:3375  students[msg.sender] */\n      0x00\n        /* \"lib.sol\":3364:3374  msg.sender */\n      caller\n        /* \"lib.sol\":3355:3375  students[msg.sender] */\n      0xffffffffffffffffffffffffffffffffffffffff\n      and\n      0xffffffffffffffffffffffffffffffffffffffff\n      and\n      dup2\n      mstore\n      0x20\n      add\n      swap1\n      dup2\n      mstore\n      0x20\n      add\n      0x00\n      keccak256\n        /* \"lib.sol\":3355:3389  students[msg.sender].borrowedcount */\n      0x01\n      add\n      sload\n        /* \"lib.sol\":3355:3391  students[msg.sender].borrowedcount-1 */\n      tag_175\n      swap2\n      swap1\n      tag_173\n      jump\t// in\n    tag_175:\n        /* \"lib.sol\":3320:3392  students[msg.sender].borrowedbooks[students[msg.sender].borrowedcount-1] */\n      dup2\n      mstore\n      0x20\n      add\n      swap1\n      dup2\n      mstore\n      0x20\n      add\n      0x00\n      keccak256\n      0x00\n        /* \"lib.sol\":3313:3392  delete students[msg.sender].borrowedbooks[students[msg.sender].borrowedcount-1] */\n      dup1\n      dup3\n      add\n      0x00\n      swap1\n      sstore\n      0x01\n      dup3\n      add\n      0x00\n      swap1\n      sstore\n      pop\n      pop\n        /* \"lib.sol\":3403:3411  students */\n      0x04\n        /* \"lib.sol\":3403:3423  students[msg.sender] */\n      0x00\n        /* \"lib.sol\":3412:3422  msg.sender */\n      caller\n        /* \"lib.sol\":3403:3423  students[msg.sender] */\n      0xffffffffffffffffffffffffffffffffffffffff\n      and\n      0xffffffffffffffffffffffffffffffffffffffff\n      and\n      dup2\n      mstore\n      0x20\n      add\n      swap1\n      dup2\n      mstore\n      0x20\n      add\n      0x00\n      keccak256\n        /* \"lib.sol\":3403:3437  students[msg.sender].borrowedcount */\n      0x01\n      add\n      0x00\n        /* \"lib.sol\":3403:3439  students[msg.sender].borrowedcount-- */\n      dup2\n      sload\n      dup1\n      swap3\n      swap2\n      swap1\n      tag_176\n      swap1\n      tag_177\n      jump\t// in\n    tag_176:\n      swap2\n      swap1\n      pop\n      sstore\n      pop\n        /* \"lib.sol\":3466:3476  msg.sender */\n      caller\n        /* \"lib.sol\":3455:3485  BookReturn(msg.sender, bookid) */\n      0xffffffffffffffffffffffffffffffffffffffff\n      and\n      0xfc4aa72d872118be90bd96befc9ca2d792220107618a078d83eef022995792d7\n        /* \"lib.sol\":3478:3484  bookid */\n      dup3\n        /* \"lib.sol\":3455:3485  BookReturn(msg.sender, bookid) */\n      mload(0x40)\n      tag_178\n      swap2\n      swap1\n      tag_24\n      jump\t// in\n    tag_178:\n      mload(0x40)\n      dup1\n      swap2\n      sub\n      swap1\n      log2\n        /* \"lib.sol\":2410:3510  {... */\n      pop\n      pop\n        /* \"lib.sol\":2359:3510  function returnBook(uint256 index)public OnlyMember{... */\n      pop\n      jump\t// out\n        /* \"lib.sol\":152:185  uint public membershipfee=1 ether */\n    tag_73:\n      sload(0x02)\n      dup2\n      jump\t// out\n        /* \"#utility.yul\":7:84   */\n    tag_179:\n        /* \"#utility.yul\":44:51   */\n      0x00\n        /* \"#utility.yul\":73:78   */\n      dup2\n        /* \"#utility.yul\":62:78   */\n      swap1\n      pop\n        /* \"#utility.yul\":7:84   */\n      swap2\n      swap1\n      pop\n      jump\t// out\n        /* \"#utility.yul\":90:208   */\n    tag_180:\n        /* \"#utility.yul\":177:201   */\n      tag_253\n        /* \"#utility.yul\":195:200   */\n      dup2\n        /* \"#utility.yul\":177:201   */\n      tag_179\n      jump\t// in\n    tag_253:\n        /* \"#utility.yul\":172:175   */\n      dup3\n        /* \"#utility.yul\":165:202   */\n      mstore\n        /* \"#utility.yul\":90:208   */\n      pop\n      pop\n      jump\t// out\n        /* \"#utility.yul\":214:436   */\n    tag_24:\n        /* \"#utility.yul\":307:311   */\n      0x00\n        /* \"#utility.yul\":345:347   */\n      0x20\n        /* \"#utility.yul\":334:343   */\n      dup3\n        /* \"#utility.yul\":330:348   */\n      add\n        /* \"#utility.yul\":322:348   */\n      swap1\n      pop\n        /* \"#utility.yul\":358:429   */\n      tag_255\n        /* \"#utility.yul\":426:427   */\n      0x00\n        /* \"#utility.yul\":415:424   */\n      dup4\n        /* \"#utility.yul\":411:428   */\n      add\n        /* \"#utility.yul\":402:408   */\n      dup5\n        /* \"#utility.yul\":358:429   */\n      tag_180\n      jump\t// in\n    tag_255:\n        /* \"#utility.yul\":214:436   */\n      swap3\n      swap2\n      pop\n      pop\n      jump\t// out\n        /* \"#utility.yul\":442:568   */\n    tag_181:\n        /* \"#utility.yul\":479:486   */\n      0x00\n        /* \"#utility.yul\":519:561   */\n      0xffffffffffffffffffffffffffffffffffffffff\n        /* \"#utility.yul\":512:517   */\n      dup3\n        /* \"#utility.yul\":508:562   */\n      and\n        /* \"#utility.yul\":497:562   */\n      swap1\n      pop\n        /* \"#utility.yul\":442:568   */\n      swap2\n      swap1\n      pop\n      jump\t// out\n        /* \"#utility.yul\":574:670   */\n    tag_182:\n        /* \"#utility.yul\":611:618   */\n      0x00\n        /* \"#utility.yul\":640:664   */\n      tag_258\n        /* \"#utility.yul\":658:663   */\n      dup3\n        /* \"#utility.yul\":640:664   */\n      tag_181\n      jump\t// in\n    tag_258:\n        /* \"#utility.yul\":629:664   */\n      swap1\n      pop\n        /* \"#utility.yul\":574:670   */\n      swap2\n      swap1\n      pop\n      jump\t// out\n        /* \"#utility.yul\":676:794   */\n    tag_183:\n        /* \"#utility.yul\":763:787   */\n      tag_260\n        /* \"#utility.yul\":781:786   */\n      dup2\n        /* \"#utility.yul\":763:787   */\n      tag_182\n      jump\t// in\n    tag_260:\n        /* \"#utility.yul\":758:761   */\n      dup3\n        /* \"#utility.yul\":751:788   */\n      mstore\n        /* \"#utility.yul\":676:794   */\n      pop\n      pop\n      jump\t// out\n        /* \"#utility.yul\":800:1022   */\n    tag_29:\n        /* \"#utility.yul\":893:897   */\n      0x00\n        /* \"#utility.yul\":931:933   */\n      0x20\n        /* \"#utility.yul\":920:929   */\n      dup3\n        /* \"#utility.yul\":916:934   */\n      add\n        /* \"#utility.yul\":908:934   */\n      swap1\n      pop\n        /* \"#utility.yul\":944:1015   */\n      tag_262\n        /* \"#utility.yul\":1012:1013   */\n      0x00\n        /* \"#utility.yul\":1001:1010   */\n      dup4\n        /* \"#utility.yul\":997:1014   */\n      add\n        /* \"#utility.yul\":988:994   */\n      dup5\n        /* \"#utility.yul\":944:1015   */\n      tag_183\n      jump\t// in\n    tag_262:\n        /* \"#utility.yul\":800:1022   */\n      swap3\n      swap2\n      pop\n      pop\n      jump\t// out\n        /* \"#utility.yul\":1028:1103   */\n    tag_184:\n        /* \"#utility.yul\":1061:1067   */\n      0x00\n        /* \"#utility.yul\":1094:1096   */\n      0x40\n        /* \"#utility.yul\":1088:1097   */\n      mload\n        /* \"#utility.yul\":1078:1097   */\n      swap1\n      pop\n        /* \"#utility.yul\":1028:1103   */\n      swap1\n      jump\t// out\n        /* \"#utility.yul\":1109:1226   */\n    tag_185:\n        /* \"#utility.yul\":1218:1219   */\n      0x00\n        /* \"#utility.yul\":1215:1216   */\n      dup1\n        /* \"#utility.yul\":1208:1220   */\n      revert\n        /* \"#utility.yul\":1232:1349   */\n    tag_186:\n        /* \"#utility.yul\":1341:1342   */\n      0x00\n        /* \"#utility.yul\":1338:1339   */\n      dup1\n        /* \"#utility.yul\":1331:1343   */\n      revert\n        /* \"#utility.yul\":1355:1472   */\n    tag_187:\n        /* \"#utility.yul\":1464:1465   */\n      0x00\n        /* \"#utility.yul\":1461:1462   */\n      dup1\n        /* \"#utility.yul\":1454:1466   */\n      revert\n        /* \"#utility.yul\":1478:1595   */\n    tag_188:\n        /* \"#utility.yul\":1587:1588   */\n      0x00\n        /* \"#utility.yul\":1584:1585   */\n      dup1\n        /* \"#utility.yul\":1577:1589   */\n      revert\n        /* \"#utility.yul\":1601:1703   */\n    tag_189:\n        /* \"#utility.yul\":1642:1648   */\n      0x00\n        /* \"#utility.yul\":1693:1695   */\n      0x1f\n        /* \"#utility.yul\":1689:1696   */\n      not\n        /* \"#utility.yul\":1684:1686   */\n      0x1f\n        /* \"#utility.yul\":1677:1682   */\n      dup4\n        /* \"#utility.yul\":1673:1687   */\n      add\n        /* \"#utility.yul\":1669:1697   */\n      and\n        /* \"#utility.yul\":1659:1697   */\n      swap1\n      pop\n        /* \"#utility.yul\":1601:1703   */\n      swap2\n      swap1\n      pop\n      jump\t// out\n        /* \"#utility.yul\":1709:1889   */\n    tag_190:\n        /* \"#utility.yul\":1757:1834   */\n      0x4e487b7100000000000000000000000000000000000000000000000000000000\n        /* \"#utility.yul\":1754:1755   */\n      0x00\n        /* \"#utility.yul\":1747:1835   */\n      mstore\n        /* \"#utility.yul\":1854:1858   */\n      0x41\n        /* \"#utility.yul\":1851:1852   */\n      0x04\n        /* \"#utility.yul\":1844:1859   */\n      mstore\n        /* \"#utility.yul\":1878:1882   */\n      0x24\n        /* \"#utility.yul\":1875:1876   */\n      0x00\n        /* \"#utility.yul\":1868:1883   */\n      revert\n        /* \"#utility.yul\":1895:2176   */\n    tag_191:\n        /* \"#utility.yul\":1978:2005   */\n      tag_271\n        /* \"#utility.yul\":2000:2004   */\n      dup3\n        /* \"#utility.yul\":1978:2005   */\n      tag_189\n      jump\t// in\n    tag_271:\n        /* \"#utility.yul\":1970:1976   */\n      dup2\n        /* \"#utility.yul\":1966:2006   */\n      add\n        /* \"#utility.yul\":2108:2114   */\n      dup2\n        /* \"#utility.yul\":2096:2106   */\n      dup2\n        /* \"#utility.yul\":2093:2115   */\n      lt\n        /* \"#utility.yul\":2072:2090   */\n      0xffffffffffffffff\n        /* \"#utility.yul\":2060:2070   */\n      dup3\n        /* \"#utility.yul\":2057:2091   */\n      gt\n        /* \"#utility.yul\":2054:2116   */\n      or\n        /* \"#utility.yul\":2051:2139   */\n      iszero\n      tag_272\n      jumpi\n        /* \"#utility.yul\":2119:2137   */\n      tag_273\n      tag_190\n      jump\t// in\n    tag_273:\n        /* \"#utility.yul\":2051:2139   */\n    tag_272:\n        /* \"#utility.yul\":2159:2169   */\n      dup1\n        /* \"#utility.yul\":2155:2157   */\n      0x40\n        /* \"#utility.yul\":2148:2170   */\n      mstore\n        /* \"#utility.yul\":1938:2176   */\n      pop\n        /* \"#utility.yul\":1895:2176   */\n      pop\n      pop\n      jump\t// out\n        /* \"#utility.yul\":2182:2311   */\n    tag_192:\n        /* \"#utility.yul\":2216:2222   */\n      0x00\n        /* \"#utility.yul\":2243:2263   */\n      tag_275\n      tag_184\n      jump\t// in\n    tag_275:\n        /* \"#utility.yul\":2233:2263   */\n      swap1\n      pop\n        /* \"#utility.yul\":2272:2305   */\n      tag_276\n        /* \"#utility.yul\":2300:2304   */\n      dup3\n        /* \"#utility.yul\":2292:2298   */\n      dup3\n        /* \"#utility.yul\":2272:2305   */\n      tag_191\n      jump\t// in\n    tag_276:\n        /* \"#utility.yul\":2182:2311   */\n      swap2\n      swap1\n      pop\n      jump\t// out\n        /* \"#utility.yul\":2317:2625   */\n    tag_193:\n        /* \"#utility.yul\":2379:2383   */\n      0x00\n        /* \"#utility.yul\":2469:2487   */\n      0xffffffffffffffff\n        /* \"#utility.yul\":2461:2467   */\n      dup3\n        /* \"#utility.yul\":2458:2488   */\n      gt\n        /* \"#utility.yul\":2455:2511   */\n      iszero\n      tag_278\n      jumpi\n        /* \"#utility.yul\":2491:2509   */\n      tag_279\n      tag_190\n      jump\t// in\n    tag_279:\n        /* \"#utility.yul\":2455:2511   */\n    tag_278:\n        /* \"#utility.yul\":2529:2558   */\n      tag_280\n        /* \"#utility.yul\":2551:2557   */\n      dup3\n        /* \"#utility.yul\":2529:2558   */\n      tag_189\n      jump\t// in\n    tag_280:\n        /* \"#utility.yul\":2521:2558   */\n      swap1\n      pop\n        /* \"#utility.yul\":2613:2617   */\n      0x20\n        /* \"#utility.yul\":2607:2611   */\n      dup2\n        /* \"#utility.yul\":2603:2618   */\n      add\n        /* \"#utility.yul\":2595:2618   */\n      swap1\n      pop\n        /* \"#utility.yul\":2317:2625   */\n      swap2\n      swap1\n      pop\n      jump\t// out\n        /* \"#utility.yul\":2631:2779   */\n    tag_194:\n        /* \"#utility.yul\":2729:2735   */\n      dup3\n        /* \"#utility.yul\":2724:2727   */\n      dup2\n        /* \"#utility.yul\":2719:2722   */\n      dup4\n        /* \"#utility.yul\":2706:2736   */\n      calldatacopy\n        /* \"#utility.yul\":2770:2771   */\n      0x00\n        /* \"#utility.yul\":2761:2767   */\n      dup4\n        /* \"#utility.yul\":2756:2759   */\n      dup4\n        /* \"#utility.yul\":2752:2768   */\n      add\n        /* \"#utility.yul\":2745:2772   */\n      mstore\n        /* \"#utility.yul\":2631:2779   */\n      pop\n      pop\n      pop\n      jump\t// out\n        /* \"#utility.yul\":2785:3210   */\n    tag_195:\n        /* \"#utility.yul\":2863:2868   */\n      0x00\n        /* \"#utility.yul\":2888:2954   */\n      tag_283\n        /* \"#utility.yul\":2904:2953   */\n      tag_284\n        /* \"#utility.yul\":2946:2952   */\n      dup5\n        /* \"#utility.yul\":2904:2953   */\n      tag_193\n      jump\t// in\n    tag_284:\n        /* \"#utility.yul\":2888:2954   */\n      tag_192\n      jump\t// in\n    tag_283:\n        /* \"#utility.yul\":2879:2954   */\n      swap1\n      pop\n        /* \"#utility.yul\":2977:2983   */\n      dup3\n        /* \"#utility.yul\":2970:2975   */\n      dup2\n        /* \"#utility.yul\":2963:2984   */\n      mstore\n        /* \"#utility.yul\":3015:3019   */\n      0x20\n        /* \"#utility.yul\":3008:3013   */\n      dup2\n        /* \"#utility.yul\":3004:3020   */\n      add\n        /* \"#utility.yul\":3053:3056   */\n      dup5\n        /* \"#utility.yul\":3044:3050   */\n      dup5\n        /* \"#utility.yul\":3039:3042   */\n      dup5\n        /* \"#utility.yul\":3035:3051   */\n      add\n        /* \"#utility.yul\":3032:3057   */\n      gt\n        /* \"#utility.yul\":3029:3141   */\n      iszero\n      tag_285\n      jumpi\n        /* \"#utility.yul\":3060:3139   */\n      tag_286\n      tag_188\n      jump\t// in\n    tag_286:\n        /* \"#utility.yul\":3029:3141   */\n    tag_285:\n        /* \"#utility.yul\":3150:3204   */\n      tag_287\n        /* \"#utility.yul\":3197:3203   */\n      dup5\n        /* \"#utility.yul\":3192:3195   */\n      dup3\n        /* \"#utility.yul\":3187:3190   */\n      dup6\n        /* \"#utility.yul\":3150:3204   */\n      tag_194\n      jump\t// in\n    tag_287:\n        /* \"#utility.yul\":2869:3210   */\n      pop\n        /* \"#utility.yul\":2785:3210   */\n      swap4\n      swap3\n      pop\n      pop\n      pop\n      jump\t// out\n        /* \"#utility.yul\":3230:3570   */\n    tag_196:\n        /* \"#utility.yul\":3286:3291   */\n      0x00\n        /* \"#utility.yul\":3335:3338   */\n      dup3\n        /* \"#utility.yul\":3328:3332   */\n      0x1f\n        /* \"#utility.yul\":3320:3326   */\n      dup4\n        /* \"#utility.yul\":3316:3333   */\n      add\n        /* \"#utility.yul\":3312:3339   */\n      slt\n        /* \"#utility.yul\":3302:3424   */\n      tag_289\n      jumpi\n        /* \"#utility.yul\":3343:3422   */\n      tag_290\n      tag_187\n      jump\t// in\n    tag_290:\n        /* \"#utility.yul\":3302:3424   */\n    tag_289:\n        /* \"#utility.yul\":3460:3466   */\n      dup2\n        /* \"#utility.yul\":3447:3467   */\n      calldataload\n        /* \"#utility.yul\":3485:3564   */\n      tag_291\n        /* \"#utility.yul\":3560:3563   */\n      dup5\n        /* \"#utility.yul\":3552:3558   */\n      dup3\n        /* \"#utility.yul\":3545:3549   */\n      0x20\n        /* \"#utility.yul\":3537:3543   */\n      dup7\n        /* \"#utility.yul\":3533:3550   */\n      add\n        /* \"#utility.yul\":3485:3564   */\n      tag_195\n      jump\t// in\n    tag_291:\n        /* \"#utility.yul\":3476:3564   */\n      swap2\n      pop\n        /* \"#utility.yul\":3292:3570   */\n      pop\n        /* \"#utility.yul\":3230:3570   */\n      swap3\n      swap2\n      pop\n      pop\n      jump\t// out\n        /* \"#utility.yul\":3576:3698   */\n    tag_197:\n        /* \"#utility.yul\":3649:3673   */\n      tag_293\n        /* \"#utility.yul\":3667:3672   */\n      dup2\n        /* \"#utility.yul\":3649:3673   */\n      tag_179\n      jump\t// in\n    tag_293:\n        /* \"#utility.yul\":3642:3647   */\n      dup2\n        /* \"#utility.yul\":3639:3674   */\n      eq\n        /* \"#utility.yul\":3629:3692   */\n      tag_294\n      jumpi\n        /* \"#utility.yul\":3688:3689   */\n      0x00\n        /* \"#utility.yul\":3685:3686   */\n      dup1\n        /* \"#utility.yul\":3678:3690   */\n      revert\n        /* \"#utility.yul\":3629:3692   */\n    tag_294:\n        /* \"#utility.yul\":3576:3698   */\n      pop\n      jump\t// out\n        /* \"#utility.yul\":3704:3843   */\n    tag_198:\n        /* \"#utility.yul\":3750:3755   */\n      0x00\n        /* \"#utility.yul\":3788:3794   */\n      dup2\n        /* \"#utility.yul\":3775:3795   */\n      calldataload\n        /* \"#utility.yul\":3766:3795   */\n      swap1\n      pop\n        /* \"#utility.yul\":3804:3837   */\n      tag_296\n        /* \"#utility.yul\":3831:3836   */\n      dup2\n        /* \"#utility.yul\":3804:3837   */\n      tag_197\n      jump\t// in\n    tag_296:\n        /* \"#utility.yul\":3704:3843   */\n      swap3\n      swap2\n      pop\n      pop\n      jump\t// out\n        /* \"#utility.yul\":3849:4503   */\n    tag_37:\n        /* \"#utility.yul\":3927:3933   */\n      0x00\n        /* \"#utility.yul\":3935:3941   */\n      dup1\n        /* \"#utility.yul\":3984:3986   */\n      0x40\n        /* \"#utility.yul\":3972:3981   */\n      dup4\n        /* \"#utility.yul\":3963:3970   */\n      dup6\n        /* \"#utility.yul\":3959:3982   */\n      sub\n        /* \"#utility.yul\":3955:3987   */\n      slt\n        /* \"#utility.yul\":3952:4071   */\n      iszero\n      tag_298\n      jumpi\n        /* \"#utility.yul\":3990:4069   */\n      tag_299\n      tag_185\n      jump\t// in\n    tag_299:\n        /* \"#utility.yul\":3952:4071   */\n    tag_298:\n        /* \"#utility.yul\":4138:4139   */\n      0x00\n        /* \"#utility.yul\":4127:4136   */\n      dup4\n        /* \"#utility.yul\":4123:4140   */\n      add\n        /* \"#utility.yul\":4110:4141   */\n      calldataload\n        /* \"#utility.yul\":4168:4186   */\n      0xffffffffffffffff\n        /* \"#utility.yul\":4160:4166   */\n      dup2\n        /* \"#utility.yul\":4157:4187   */\n      gt\n        /* \"#utility.yul\":4154:4271   */\n      iszero\n      tag_300\n      jumpi\n        /* \"#utility.yul\":4190:4269   */\n      tag_301\n      tag_186\n      jump\t// in\n    tag_301:\n        /* \"#utility.yul\":4154:4271   */\n    tag_300:\n        /* \"#utility.yul\":4295:4358   */\n      tag_302\n        /* \"#utility.yul\":4350:4357   */\n      dup6\n        /* \"#utility.yul\":4341:4347   */\n      dup3\n        /* \"#utility.yul\":4330:4339   */\n      dup7\n        /* \"#utility.yul\":4326:4348   */\n      add\n        /* \"#utility.yul\":4295:4358   */\n      tag_196\n      jump\t// in\n    tag_302:\n        /* \"#utility.yul\":4285:4358   */\n      swap3\n      pop\n        /* \"#utility.yul\":4081:4368   */\n      pop\n        /* \"#utility.yul\":4407:4409   */\n      0x20\n        /* \"#utility.yul\":4433:4486   */\n      tag_303\n        /* \"#utility.yul\":4478:4485   */\n      dup6\n        /* \"#utility.yul\":4469:4475   */\n      dup3\n        /* \"#utility.yul\":4458:4467   */\n      dup7\n        /* \"#utility.yul\":4454:4476   */\n      add\n        /* \"#utility.yul\":4433:4486   */\n      tag_198\n      jump\t// in\n    tag_303:\n        /* \"#utility.yul\":4423:4486   */\n      swap2\n      pop\n        /* \"#utility.yul\":4378:4496   */\n      pop\n        /* \"#utility.yul\":3849:4503   */\n      swap3\n      pop\n      swap3\n      swap1\n      pop\n      jump\t// out\n        /* \"#utility.yul\":4509:4838   */\n    tag_42:\n        /* \"#utility.yul\":4568:4574   */\n      0x00\n        /* \"#utility.yul\":4617:4619   */\n      0x20\n        /* \"#utility.yul\":4605:4614   */\n      dup3\n        /* \"#utility.yul\":4596:4603   */\n      dup5\n        /* \"#utility.yul\":4592:4615   */\n      sub\n        /* \"#utility.yul\":4588:4620   */\n      slt\n        /* \"#utility.yul\":4585:4704   */\n      iszero\n      tag_305\n      jumpi\n        /* \"#utility.yul\":4623:4702   */\n      tag_306\n      tag_185\n      jump\t// in\n    tag_306:\n        /* \"#utility.yul\":4585:4704   */\n    tag_305:\n        /* \"#utility.yul\":4743:4744   */\n      0x00\n        /* \"#utility.yul\":4768:4821   */\n      tag_307\n        /* \"#utility.yul\":4813:4820   */\n      dup5\n        /* \"#utility.yul\":4804:4810   */\n      dup3\n        /* \"#utility.yul\":4793:4802   */\n      dup6\n        /* \"#utility.yul\":4789:4811   */\n      add\n        /* \"#utility.yul\":4768:4821   */\n      tag_198\n      jump\t// in\n    tag_307:\n        /* \"#utility.yul\":4758:4821   */\n      swap2\n      pop\n        /* \"#utility.yul\":4714:4831   */\n      pop\n        /* \"#utility.yul\":4509:4838   */\n      swap3\n      swap2\n      pop\n      pop\n      jump\t// out\n        /* \"#utility.yul\":4844:4943   */\n    tag_199:\n        /* \"#utility.yul\":4896:4902   */\n      0x00\n        /* \"#utility.yul\":4930:4935   */\n      dup2\n        /* \"#utility.yul\":4924:4936   */\n      mload\n        /* \"#utility.yul\":4914:4936   */\n      swap1\n      pop\n        /* \"#utility.yul\":4844:4943   */\n      swap2\n      swap1\n      pop\n      jump\t// out\n        /* \"#utility.yul\":4949:5118   */\n    tag_200:\n        /* \"#utility.yul\":5033:5044   */\n      0x00\n        /* \"#utility.yul\":5067:5073   */\n      dup3\n        /* \"#utility.yul\":5062:5065   */\n      dup3\n        /* \"#utility.yul\":5055:5074   */\n      mstore\n        /* \"#utility.yul\":5107:5111   */\n      0x20\n        /* \"#utility.yul\":5102:5105   */\n      dup3\n        /* \"#utility.yul\":5098:5112   */\n      add\n        /* \"#utility.yul\":5083:5112   */\n      swap1\n      pop\n        /* \"#utility.yul\":4949:5118   */\n      swap3\n      swap2\n      pop\n      pop\n      jump\t// out\n        /* \"#utility.yul\":5124:5263   */\n    tag_201:\n        /* \"#utility.yul\":5213:5219   */\n      dup3\n        /* \"#utility.yul\":5208:5211   */\n      dup2\n        /* \"#utility.yul\":5203:5206   */\n      dup4\n        /* \"#utility.yul\":5197:5220   */\n      mcopy\n        /* \"#utility.yul\":5254:5255   */\n      0x00\n        /* \"#utility.yul\":5245:5251   */\n      dup4\n        /* \"#utility.yul\":5240:5243   */\n      dup4\n        /* \"#utility.yul\":5236:5252   */\n      add\n        /* \"#utility.yul\":5229:5256   */\n      mstore\n        /* \"#utility.yul\":5124:5263   */\n      pop\n      pop\n      pop\n      jump\t// out\n        /* \"#utility.yul\":5269:5646   */\n    tag_202:\n        /* \"#utility.yul\":5357:5360   */\n      0x00\n        /* \"#utility.yul\":5385:5424   */\n      tag_312\n        /* \"#utility.yul\":5418:5423   */\n      dup3\n        /* \"#utility.yul\":5385:5424   */\n      tag_199\n      jump\t// in\n    tag_312:\n        /* \"#utility.yul\":5440:5511   */\n      tag_313\n        /* \"#utility.yul\":5504:5510   */\n      dup2\n        /* \"#utility.yul\":5499:5502   */\n      dup6\n        /* \"#utility.yul\":5440:5511   */\n      tag_200\n      jump\t// in\n    tag_313:\n        /* \"#utility.yul\":5433:5511   */\n      swap4\n      pop\n        /* \"#utility.yul\":5520:5585   */\n      tag_314\n        /* \"#utility.yul\":5578:5584   */\n      dup2\n        /* \"#utility.yul\":5573:5576   */\n      dup6\n        /* \"#utility.yul\":5566:5570   */\n      0x20\n        /* \"#utility.yul\":5559:5564   */\n      dup7\n        /* \"#utility.yul\":5555:5571   */\n      add\n        /* \"#utility.yul\":5520:5585   */\n      tag_201\n      jump\t// in\n    tag_314:\n        /* \"#utility.yul\":5610:5639   */\n      tag_315\n        /* \"#utility.yul\":5632:5638   */\n      dup2\n        /* \"#utility.yul\":5610:5639   */\n      tag_189\n      jump\t// in\n    tag_315:\n        /* \"#utility.yul\":5605:5608   */\n      dup5\n        /* \"#utility.yul\":5601:5640   */\n      add\n        /* \"#utility.yul\":5594:5640   */\n      swap2\n      pop\n        /* \"#utility.yul\":5361:5646   */\n      pop\n        /* \"#utility.yul\":5269:5646   */\n      swap3\n      swap2\n      pop\n      pop\n      jump\t// out\n        /* \"#utility.yul\":5652:5742   */\n    tag_203:\n        /* \"#utility.yul\":5686:5693   */\n      0x00\n        /* \"#utility.yul\":5729:5734   */\n      dup2\n        /* \"#utility.yul\":5722:5735   */\n      iszero\n        /* \"#utility.yul\":5715:5736   */\n      iszero\n        /* \"#utility.yul\":5704:5736   */\n      swap1\n      pop\n        /* \"#utility.yul\":5652:5742   */\n      swap2\n      swap1\n      pop\n      jump\t// out\n        /* \"#utility.yul\":5748:5857   */\n    tag_204:\n        /* \"#utility.yul\":5829:5850   */\n      tag_318\n        /* \"#utility.yul\":5844:5849   */\n      dup2\n        /* \"#utility.yul\":5829:5850   */\n      tag_203\n      jump\t// in\n    tag_318:\n        /* \"#utility.yul\":5824:5827   */\n      dup3\n        /* \"#utility.yul\":5817:5851   */\n      mstore\n        /* \"#utility.yul\":5748:5857   */\n      pop\n      pop\n      jump\t// out\n        /* \"#utility.yul\":5863:6384   */\n    tag_45:\n        /* \"#utility.yul\":6026:6030   */\n      0x00\n        /* \"#utility.yul\":6064:6066   */\n      0x60\n        /* \"#utility.yul\":6053:6062   */\n      dup3\n        /* \"#utility.yul\":6049:6067   */\n      add\n        /* \"#utility.yul\":6041:6067   */\n      swap1\n      pop\n        /* \"#utility.yul\":6113:6122   */\n      dup2\n        /* \"#utility.yul\":6107:6111   */\n      dup2\n        /* \"#utility.yul\":6103:6123   */\n      sub\n        /* \"#utility.yul\":6099:6100   */\n      0x00\n        /* \"#utility.yul\":6088:6097   */\n      dup4\n        /* \"#utility.yul\":6084:6101   */\n      add\n        /* \"#utility.yul\":6077:6124   */\n      mstore\n        /* \"#utility.yul\":6141:6219   */\n      tag_320\n        /* \"#utility.yul\":6214:6218   */\n      dup2\n        /* \"#utility.yul\":6205:6211   */\n      dup7\n        /* \"#utility.yul\":6141:6219   */\n      tag_202\n      jump\t// in\n    tag_320:\n        /* \"#utility.yul\":6133:6219   */\n      swap1\n      pop\n        /* \"#utility.yul\":6229:6301   */\n      tag_321\n        /* \"#utility.yul\":6297:6299   */\n      0x20\n        /* \"#utility.yul\":6286:6295   */\n      dup4\n        /* \"#utility.yul\":6282:6300   */\n      add\n        /* \"#utility.yul\":6273:6279   */\n      dup6\n        /* \"#utility.yul\":6229:6301   */\n      tag_180\n      jump\t// in\n    tag_321:\n        /* \"#utility.yul\":6311:6377   */\n      tag_322\n        /* \"#utility.yul\":6373:6375   */\n      0x40\n        /* \"#utility.yul\":6362:6371   */\n      dup4\n        /* \"#utility.yul\":6358:6376   */\n      add\n        /* \"#utility.yul\":6349:6355   */\n      dup5\n        /* \"#utility.yul\":6311:6377   */\n      tag_204\n      jump\t// in\n    tag_322:\n        /* \"#utility.yul\":5863:6384   */\n      swap5\n      swap4\n      pop\n      pop\n      pop\n      pop\n      jump\t// out\n        /* \"#utility.yul\":6390:6512   */\n    tag_205:\n        /* \"#utility.yul\":6463:6487   */\n      tag_324\n        /* \"#utility.yul\":6481:6486   */\n      dup2\n        /* \"#utility.yul\":6463:6487   */\n      tag_182\n      jump\t// in\n    tag_324:\n        /* \"#utility.yul\":6456:6461   */\n      dup2\n        /* \"#utility.yul\":6453:6488   */\n      eq\n        /* \"#utility.yul\":6443:6506   */\n      tag_325\n      jumpi\n        /* \"#utility.yul\":6502:6503   */\n      0x00\n        /* \"#utility.yul\":6499:6500   */\n      dup1\n        /* \"#utility.yul\":6492:6504   */\n      revert\n        /* \"#utility.yul\":6443:6506   */\n    tag_325:\n        /* \"#utility.yul\":6390:6512   */\n      pop\n      jump\t// out\n        /* \"#utility.yul\":6518:6657   */\n    tag_206:\n        /* \"#utility.yul\":6564:6569   */\n      0x00\n        /* \"#utility.yul\":6602:6608   */\n      dup2\n        /* \"#utility.yul\":6589:6609   */\n      calldataload\n        /* \"#utility.yul\":6580:6609   */\n      swap1\n      pop\n        /* \"#utility.yul\":6618:6651   */\n      tag_327\n        /* \"#utility.yul\":6645:6650   */\n      dup2\n        /* \"#utility.yul\":6618:6651   */\n      tag_205\n      jump\t// in\n    tag_327:\n        /* \"#utility.yul\":6518:6657   */\n      swap3\n      swap2\n      pop\n      pop\n      jump\t// out\n        /* \"#utility.yul\":6663:6992   */\n    tag_58:\n        /* \"#utility.yul\":6722:6728   */\n      0x00\n        /* \"#utility.yul\":6771:6773   */\n      0x20\n        /* \"#utility.yul\":6759:6768   */\n      dup3\n        /* \"#utility.yul\":6750:6757   */\n      dup5\n        /* \"#utility.yul\":6746:6769   */\n      sub\n        /* \"#utility.yul\":6742:6774   */\n      slt\n        /* \"#utility.yul\":6739:6858   */\n      iszero\n      tag_329\n      jumpi\n        /* \"#utility.yul\":6777:6856   */\n      tag_330\n      tag_185\n      jump\t// in\n    tag_330:\n        /* \"#utility.yul\":6739:6858   */\n    tag_329:\n        /* \"#utility.yul\":6897:6898   */\n      0x00\n        /* \"#utility.yul\":6922:6975   */\n      tag_331\n        /* \"#utility.yul\":6967:6974   */\n      dup5\n        /* \"#utility.yul\":6958:6964   */\n      dup3\n        /* \"#utility.yul\":6947:6956   */\n      dup6\n        /* \"#utility.yul\":6943:6965   */\n      add\n        /* \"#utility.yul\":6922:6975   */\n      tag_206\n      jump\t// in\n    tag_331:\n        /* \"#utility.yul\":6912:6975   */\n      swap2\n      pop\n        /* \"#utility.yul\":6868:6985   */\n      pop\n        /* \"#utility.yul\":6663:6992   */\n      swap3\n      swap2\n      pop\n      pop\n      jump\t// out\n        /* \"#utility.yul\":6998:7318   */\n    tag_61:\n        /* \"#utility.yul\":7113:7117   */\n      0x00\n        /* \"#utility.yul\":7151:7153   */\n      0x40\n        /* \"#utility.yul\":7140:7149   */\n      dup3\n        /* \"#utility.yul\":7136:7154   */\n      add\n        /* \"#utility.yul\":7128:7154   */\n      swap1\n      pop\n        /* \"#utility.yul\":7164:7229   */\n      tag_333\n        /* \"#utility.yul\":7226:7227   */\n      0x00\n        /* \"#utility.yul\":7215:7224   */\n      dup4\n        /* \"#utility.yul\":7211:7228   */\n      add\n        /* \"#utility.yul\":7202:7208   */\n      dup6\n        /* \"#utility.yul\":7164:7229   */\n      tag_204\n      jump\t// in\n    tag_333:\n        /* \"#utility.yul\":7239:7311   */\n      tag_334\n        /* \"#utility.yul\":7307:7309   */\n      0x20\n        /* \"#utility.yul\":7296:7305   */\n      dup4\n        /* \"#utility.yul\":7292:7310   */\n      add\n        /* \"#utility.yul\":7283:7289   */\n      dup5\n        /* \"#utility.yul\":7239:7311   */\n      tag_180\n      jump\t// in\n    tag_334:\n        /* \"#utility.yul\":6998:7318   */\n      swap4\n      swap3\n      pop\n      pop\n      pop\n      jump\t// out\n        /* \"#utility.yul\":7324:7546   */\n    tag_207:\n        /* \"#utility.yul\":7464:7498   */\n      0x796f752063616e6e6f742067657420616365737320746f207468652062616c61\n        /* \"#utility.yul\":7460:7461   */\n      0x00\n        /* \"#utility.yul\":7452:7458   */\n      dup3\n        /* \"#utility.yul\":7448:7462   */\n      add\n        /* \"#utility.yul\":7441:7499   */\n      mstore\n        /* \"#utility.yul\":7533:7538   */\n      0x6e63650000000000000000000000000000000000000000000000000000000000\n        /* \"#utility.yul\":7528:7530   */\n      0x20\n        /* \"#utility.yul\":7520:7526   */\n      dup3\n        /* \"#utility.yul\":7516:7531   */\n      add\n        /* \"#utility.yul\":7509:7539   */\n      mstore\n        /* \"#utility.yul\":7324:7546   */\n      pop\n      jump\t// out\n        /* \"#utility.yul\":7552:7918   */\n    tag_208:\n        /* \"#utility.yul\":7694:7697   */\n      0x00\n        /* \"#utility.yul\":7715:7782   */\n      tag_337\n        /* \"#utility.yul\":7779:7781   */\n      0x23\n        /* \"#utility.yul\":7774:7777   */\n      dup4\n        /* \"#utility.yul\":7715:7782   */\n      tag_200\n      jump\t// in\n    tag_337:\n        /* \"#utility.yul\":7708:7782   */\n      swap2\n      pop\n        /* \"#utility.yul\":7791:7884   */\n      tag_338\n        /* \"#utility.yul\":7880:7883   */\n      dup3\n        /* \"#utility.yul\":7791:7884   */\n      tag_207\n      jump\t// in\n    tag_338:\n        /* \"#utility.yul\":7909:7911   */\n      0x40\n        /* \"#utility.yul\":7904:7907   */\n      dup3\n        /* \"#utility.yul\":7900:7912   */\n      add\n        /* \"#utility.yul\":7893:7912   */\n      swap1\n      pop\n        /* \"#utility.yul\":7552:7918   */\n      swap2\n      swap1\n      pop\n      jump\t// out\n        /* \"#utility.yul\":7924:8343   */\n    tag_78:\n        /* \"#utility.yul\":8090:8094   */\n      0x00\n        /* \"#utility.yul\":8128:8130   */\n      0x20\n        /* \"#utility.yul\":8117:8126   */\n      dup3\n        /* \"#utility.yul\":8113:8131   */\n      add\n        /* \"#utility.yul\":8105:8131   */\n      swap1\n      pop\n        /* \"#utility.yul\":8177:8186   */\n      dup2\n        /* \"#utility.yul\":8171:8175   */\n      dup2\n        /* \"#utility.yul\":8167:8187   */\n      sub\n        /* \"#utility.yul\":8163:8164   */\n      0x00\n        /* \"#utility.yul\":8152:8161   */\n      dup4\n        /* \"#utility.yul\":8148:8165   */\n      add\n        /* \"#utility.yul\":8141:8188   */\n      mstore\n        /* \"#utility.yul\":8205:8336   */\n      tag_340\n        /* \"#utility.yul\":8331:8335   */\n      dup2\n        /* \"#utility.yul\":8205:8336   */\n      tag_208\n      jump\t// in\n    tag_340:\n        /* \"#utility.yul\":8197:8336   */\n      swap1\n      pop\n        /* \"#utility.yul\":7924:8343   */\n      swap2\n      swap1\n      pop\n      jump\t// out\n        /* \"#utility.yul\":8349:8523   */\n    tag_209:\n        /* \"#utility.yul\":8489:8515   */\n      0x596f206469646e6f742068617665207468652061636573730000000000000000\n        /* \"#utility.yul\":8485:8486   */\n      0x00\n        /* \"#utility.yul\":8477:8483   */\n      dup3\n        /* \"#utility.yul\":8473:8487   */\n      add\n        /* \"#utility.yul\":8466:8516   */\n      mstore\n        /* \"#utility.yul\":8349:8523   */\n      pop\n      jump\t// out\n        /* \"#utility.yul\":8529:8895   */\n    tag_210:\n        /* \"#utility.yul\":8671:8674   */\n      0x00\n        /* \"#utility.yul\":8692:8759   */\n      tag_343\n        /* \"#utility.yul\":8756:8758   */\n      0x18\n        /* \"#utility.yul\":8751:8754   */\n      dup4\n        /* \"#utility.yul\":8692:8759   */\n      tag_200\n      jump\t// in\n    tag_343:\n        /* \"#utility.yul\":8685:8759   */\n      swap2\n      pop\n        /* \"#utility.yul\":8768:8861   */\n      tag_344\n        /* \"#utility.yul\":8857:8860   */\n      dup3\n        /* \"#utility.yul\":8768:8861   */\n      tag_209\n      jump\t// in\n    tag_344:\n        /* \"#utility.yul\":8886:8888   */\n      0x20\n        /* \"#utility.yul\":8881:8884   */\n      dup3\n        /* \"#utility.yul\":8877:8889   */\n      add\n        /* \"#utility.yul\":8870:8889   */\n      swap1\n      pop\n        /* \"#utility.yul\":8529:8895   */\n      swap2\n      swap1\n      pop\n      jump\t// out\n        /* \"#utility.yul\":8901:9320   */\n    tag_82:\n        /* \"#utility.yul\":9067:9071   */\n      0x00\n        /* \"#utility.yul\":9105:9107   */\n      0x20\n        /* \"#utility.yul\":9094:9103   */\n      dup3\n        /* \"#utility.yul\":9090:9108   */\n      add\n        /* \"#utility.yul\":9082:9108   */\n      swap1\n      pop\n        /* \"#utility.yul\":9154:9163   */\n      dup2\n        /* \"#utility.yul\":9148:9152   */\n      dup2\n        /* \"#utility.yul\":9144:9164   */\n      sub\n        /* \"#utility.yul\":9140:9141   */\n      0x00\n        /* \"#utility.yul\":9129:9138   */\n      dup4\n        /* \"#utility.yul\":9125:9142   */\n      add\n        /* \"#utility.yul\":9118:9165   */\n      mstore\n        /* \"#utility.yul\":9182:9313   */\n      tag_346\n        /* \"#utility.yul\":9308:9312   */\n      dup2\n        /* \"#utility.yul\":9182:9313   */\n      tag_210\n      jump\t// in\n    tag_346:\n        /* \"#utility.yul\":9174:9313   */\n      swap1\n      pop\n        /* \"#utility.yul\":8901:9320   */\n      swap2\n      swap1\n      pop\n      jump\t// out\n        /* \"#utility.yul\":9326:9506   */\n    tag_211:\n        /* \"#utility.yul\":9374:9451   */\n      0x4e487b7100000000000000000000000000000000000000000000000000000000\n        /* \"#utility.yul\":9371:9372   */\n      0x00\n        /* \"#utility.yul\":9364:9452   */\n      mstore\n        /* \"#utility.yul\":9471:9475   */\n      0x22\n        /* \"#utility.yul\":9468:9469   */\n      0x04\n        /* \"#utility.yul\":9461:9476   */\n      mstore\n        /* \"#utility.yul\":9495:9499   */\n      0x24\n        /* \"#utility.yul\":9492:9493   */\n      0x00\n        /* \"#utility.yul\":9485:9500   */\n      revert\n        /* \"#utility.yul\":9512:9832   */\n    tag_90:\n        /* \"#utility.yul\":9556:9562   */\n      0x00\n        /* \"#utility.yul\":9593:9594   */\n      0x02\n        /* \"#utility.yul\":9587:9591   */\n      dup3\n        /* \"#utility.yul\":9583:9595   */\n      div\n        /* \"#utility.yul\":9573:9595   */\n      swap1\n      pop\n        /* \"#utility.yul\":9640:9641   */\n      0x01\n        /* \"#utility.yul\":9634:9638   */\n      dup3\n        /* \"#utility.yul\":9630:9642   */\n      and\n        /* \"#utility.yul\":9661:9679   */\n      dup1\n        /* \"#utility.yul\":9651:9732   */\n      tag_349\n      jumpi\n        /* \"#utility.yul\":9717:9721   */\n      0x7f\n        /* \"#utility.yul\":9709:9715   */\n      dup3\n        /* \"#utility.yul\":9705:9722   */\n      and\n        /* \"#utility.yul\":9695:9722   */\n      swap2\n      pop\n        /* \"#utility.yul\":9651:9732   */\n    tag_349:\n        /* \"#utility.yul\":9779:9781   */\n      0x20\n        /* \"#utility.yul\":9771:9777   */\n      dup3\n        /* \"#utility.yul\":9768:9782   */\n      lt\n        /* \"#utility.yul\":9748:9766   */\n      dup2\n        /* \"#utility.yul\":9745:9783   */\n      sub\n        /* \"#utility.yul\":9742:9826   */\n      tag_350\n      jumpi\n        /* \"#utility.yul\":9798:9816   */\n      tag_351\n      tag_211\n      jump\t// in\n    tag_351:\n        /* \"#utility.yul\":9742:9826   */\n    tag_350:\n        /* \"#utility.yul\":9563:9832   */\n      pop\n        /* \"#utility.yul\":9512:9832   */\n      swap2\n      swap1\n      pop\n      jump\t// out\n        /* \"#utility.yul\":9838:9979   */\n    tag_212:\n        /* \"#utility.yul\":9887:9891   */\n      0x00\n        /* \"#utility.yul\":9910:9913   */\n      dup2\n        /* \"#utility.yul\":9902:9913   */\n      swap1\n      pop\n        /* \"#utility.yul\":9933:9936   */\n      dup2\n        /* \"#utility.yul\":9930:9931   */\n      0x00\n        /* \"#utility.yul\":9923:9937   */\n      mstore\n        /* \"#utility.yul\":9967:9971   */\n      0x20\n        /* \"#utility.yul\":9964:9965   */\n      0x00\n        /* \"#utility.yul\":9954:9972   */\n      keccak256\n        /* \"#utility.yul\":9946:9972   */\n      swap1\n      pop\n        /* \"#utility.yul\":9838:9979   */\n      swap2\n      swap1\n      pop\n      jump\t// out\n        /* \"#utility.yul\":9985:10078   */\n    tag_213:\n        /* \"#utility.yul\":10022:10028   */\n      0x00\n        /* \"#utility.yul\":10069:10071   */\n      0x20\n        /* \"#utility.yul\":10064:10066   */\n      0x1f\n        /* \"#utility.yul\":10057:10062   */\n      dup4\n        /* \"#utility.yul\":10053:10067   */\n      add\n        /* \"#utility.yul\":10049:10072   */\n      div\n        /* \"#utility.yul\":10039:10072   */\n      swap1\n      pop\n        /* \"#utility.yul\":9985:10078   */\n      swap2\n      swap1\n      pop\n      jump\t// out\n        /* \"#utility.yul\":10084:10191   */\n    tag_214:\n        /* \"#utility.yul\":10128:10136   */\n      0x00\n        /* \"#utility.yul\":10178:10183   */\n      dup3\n        /* \"#utility.yul\":10172:10176   */\n      dup3\n        /* \"#utility.yul\":10168:10184   */\n      shl\n        /* \"#utility.yul\":10147:10184   */\n      swap1\n      pop\n        /* \"#utility.yul\":10084:10191   */\n      swap3\n      swap2\n      pop\n      pop\n      jump\t// out\n        /* \"#utility.yul\":10197:10590   */\n    tag_215:\n        /* \"#utility.yul\":10266:10272   */\n      0x00\n        /* \"#utility.yul\":10316:10317   */\n      0x08\n        /* \"#utility.yul\":10304:10314   */\n      dup4\n        /* \"#utility.yul\":10300:10318   */\n      mul\n        /* \"#utility.yul\":10339:10436   */\n      tag_356\n        /* \"#utility.yul\":10369:10435   */\n      0xffffffffffffffffffffffffffffffffffffffffffffffffffffffffffffffff\n        /* \"#utility.yul\":10358:10367   */\n      dup3\n        /* \"#utility.yul\":10339:10436   */\n      tag_214\n      jump\t// in\n    tag_356:\n        /* \"#utility.yul\":10457:10496   */\n      tag_357\n        /* \"#utility.yul\":10487:10495   */\n      dup7\n        /* \"#utility.yul\":10476:10485   */\n      dup4\n        /* \"#utility.yul\":10457:10496   */\n      tag_214\n      jump\t// in\n    tag_357:\n        /* \"#utility.yul\":10445:10496   */\n      swap6\n      pop\n        /* \"#utility.yul\":10529:10533   */\n      dup1\n        /* \"#utility.yul\":10525:10534   */\n      not\n        /* \"#utility.yul\":10518:10523   */\n      dup5\n        /* \"#utility.yul\":10514:10535   */\n      and\n        /* \"#utility.yul\":10505:10535   */\n      swap4\n      pop\n        /* \"#utility.yul\":10578:10582   */\n      dup1\n        /* \"#utility.yul\":10568:10576   */\n      dup7\n        /* \"#utility.yul\":10564:10583   */\n      and\n        /* \"#utility.yul\":10557:10562   */\n      dup5\n        /* \"#utility.yul\":10554:10584   */\n      or\n        /* \"#utility.yul\":10544:10584   */\n      swap3\n      pop\n        /* \"#utility.yul\":10273:10590   */\n      pop\n      pop\n        /* \"#utility.yul\":10197:10590   */\n      swap4\n      swap3\n      pop\n      pop\n      pop\n      jump\t// out\n        /* \"#utility.yul\":10596:10656   */\n    tag_216:\n        /* \"#utility.yul\":10624:10627   */\n      0x00\n        /* \"#utility.yul\":10645:10650   */\n      dup2\n        /* \"#utility.yul\":10638:10650   */\n      swap1\n      pop\n        /* \"#utility.yul\":10596:10656   */\n      swap2\n      swap1\n      pop\n      jump\t// out\n        /* \"#utility.yul\":10662:10804   */\n    tag_217:\n        /* \"#utility.yul\":10712:10721   */\n      0x00\n        /* \"#utility.yul\":10745:10798   */\n      tag_360\n        /* \"#utility.yul\":10763:10797   */\n      tag_361\n        /* \"#utility.yul\":10772:10796   */\n      tag_362\n        /* \"#utility.yul\":10790:10795   */\n      dup5\n        /* \"#utility.yul\":10772:10796   */\n      tag_179\n      jump\t// in\n    tag_362:\n        /* \"#utility.yul\":10763:10797   */\n      tag_216\n      jump\t// in\n    tag_361:\n        /* \"#utility.yul\":10745:10798   */\n      tag_179\n      jump\t// in\n    tag_360:\n        /* \"#utility.yul\":10732:10798   */\n      swap1\n      pop\n        /* \"#utility.yul\":10662:10804   */\n      swap2\n      swap1\n      pop\n      jump\t// out\n        /* \"#utility.yul\":10810:10885   */\n    tag_218:\n        /* \"#utility.yul\":10853:10856   */\n      0x00\n        /* \"#utility.yul\":10874:10879   */\n      dup2\n        /* \"#utility.yul\":10867:10879   */\n      swap1\n      pop\n        /* \"#utility.yul\":10810:10885   */\n      swap2\n      swap1\n      pop\n      jump\t// out\n        /* \"#utility.yul\":10891:11160   */\n    tag_219:\n        /* \"#utility.yul\":11001:11040   */\n      tag_365\n        /* \"#utility.yul\":11032:11039   */\n      dup4\n        /* \"#utility.yul\":11001:11040   */\n      tag_217\n      jump\t// in\n    tag_365:\n        /* \"#utility.yul\":11062:11153   */\n      tag_366\n        /* \"#utility.yul\":11111:11152   */\n      tag_367\n        /* \"#utility.yul\":11135:11151   */\n      dup3\n        /* \"#utility.yul\":11111:11152   */\n      tag_218\n      jump\t// in\n    tag_367:\n        /* \"#utility.yul\":11103:11109   */\n      dup5\n        /* \"#utility.yul\":11096:11100   */\n      dup5\n        /* \"#utility.yul\":11090:11101   */\n      sload\n        /* \"#utility.yul\":11062:11153   */\n      tag_215\n      jump\t// in\n    tag_366:\n        /* \"#utility.yul\":11056:11060   */\n      dup3\n        /* \"#utility.yul\":11049:11154   */\n      sstore\n        /* \"#utility.yul\":10967:11160   */\n      pop\n        /* \"#utility.yul\":10891:11160   */\n      pop\n      pop\n      pop\n      jump\t// out\n        /* \"#utility.yul\":11166:11239   */\n    tag_220:\n        /* \"#utility.yul\":11211:11214   */\n      0x00\n        /* \"#utility.yul\":11166:11239   */\n      swap1\n      jump\t// out\n        /* \"#utility.yul\":11245:11434   */\n    tag_221:\n        /* \"#utility.yul\":11322:11354   */\n      tag_370\n      tag_220\n      jump\t// in\n    tag_370:\n        /* \"#utility.yul\":11363:11428   */\n      tag_371\n        /* \"#utility.yul\":11421:11427   */\n      dup2\n        /* \"#utility.yul\":11413:11419   */\n      dup5\n        /* \"#utility.yul\":11407:11411   */\n      dup5\n        /* \"#utility.yul\":11363:11428   */\n      tag_219\n      jump\t// in\n    tag_371:\n        /* \"#utility.yul\":11298:11434   */\n      pop\n        /* \"#utility.yul\":11245:11434   */\n      pop\n      pop\n      jump\t// out\n        /* \"#utility.yul\":11440:11626   */\n    tag_222:\n        /* \"#utility.yul\":11500:11620   */\n    tag_373:\n        /* \"#utility.yul\":11517:11520   */\n      dup2\n        /* \"#utility.yul\":11510:11515   */\n      dup2\n        /* \"#utility.yul\":11507:11521   */\n      lt\n        /* \"#utility.yul\":11500:11620   */\n      iszero\n      tag_375\n      jumpi\n        /* \"#utility.yul\":11571:11610   */\n      tag_376\n        /* \"#utility.yul\":11608:11609   */\n      0x00\n        /* \"#utility.yul\":11601:11606   */\n      dup3\n        /* \"#utility.yul\":11571:11610   */\n      tag_221\n      jump\t// in\n    tag_376:\n        /* \"#utility.yul\":11544:11545   */\n      0x01\n        /* \"#utility.yul\":11537:11542   */\n      dup2\n        /* \"#utility.yul\":11533:11546   */\n      add\n        /* \"#utility.yul\":11524:11546   */\n      swap1\n      pop\n        /* \"#utility.yul\":11500:11620   */\n      jump(tag_373)\n    tag_375:\n        /* \"#utility.yul\":11440:11626   */\n      pop\n      pop\n      jump\t// out\n        /* \"#utility.yul\":11632:12175   */\n    tag_223:\n        /* \"#utility.yul\":11733:11735   */\n      0x1f\n        /* \"#utility.yul\":11728:11731   */\n      dup3\n        /* \"#utility.yul\":11725:11736   */\n      gt\n        /* \"#utility.yul\":11722:12168   */\n      iszero\n      tag_378\n      jumpi\n        /* \"#utility.yul\":11767:11805   */\n      tag_379\n        /* \"#utility.yul\":11799:11804   */\n      dup2\n        /* \"#utility.yul\":11767:11805   */\n      tag_212\n      jump\t// in\n    tag_379:\n        /* \"#utility.yul\":11851:11880   */\n      tag_380\n        /* \"#utility.yul\":11869:11879   */\n      dup5\n        /* \"#utility.yul\":11851:11880   */\n      tag_213\n      jump\t// in\n    tag_380:\n        /* \"#utility.yul\":11841:11849   */\n      dup2\n        /* \"#utility.yul\":11837:11881   */\n      add\n        /* \"#utility.yul\":12034:12036   */\n      0x20\n        /* \"#utility.yul\":12022:12032   */\n      dup6\n        /* \"#utility.yul\":12019:12037   */\n      lt\n        /* \"#utility.yul\":12016:12065   */\n      iszero\n      tag_381\n      jumpi\n        /* \"#utility.yul\":12055:12063   */\n      dup2\n        /* \"#utility.yul\":12040:12063   */\n      swap1\n      pop\n        /* \"#utility.yul\":12016:12065   */\n    tag_381:\n        /* \"#utility.yul\":12078:12158   */\n      tag_382\n        /* \"#utility.yul\":12134:12156   */\n      tag_383\n        /* \"#utility.yul\":12152:12155   */\n      dup6\n        /* \"#utility.yul\":12134:12156   */\n      tag_213\n      jump\t// in\n    tag_383:\n        /* \"#utility.yul\":12124:12132   */\n      dup4\n        /* \"#utility.yul\":12120:12157   */\n      add\n        /* \"#utility.yul\":12107:12118   */\n      dup3\n        /* \"#utility.yul\":12078:12158   */\n      tag_222\n      jump\t// in\n    tag_382:\n        /* \"#utility.yul\":11737:12168   */\n      pop\n      pop\n        /* \"#utility.yul\":11722:12168   */\n    tag_378:\n        /* \"#utility.yul\":11632:12175   */\n      pop\n      pop\n      pop\n      jump\t// out\n        /* \"#utility.yul\":12181:12298   */\n    tag_224:\n        /* \"#utility.yul\":12235:12243   */\n      0x00\n        /* \"#utility.yul\":12285:12290   */\n      dup3\n        /* \"#utility.yul\":12279:12283   */\n      dup3\n        /* \"#utility.yul\":12275:12291   */\n      shr\n        /* \"#utility.yul\":12254:12291   */\n      swap1\n      pop\n        /* \"#utility.yul\":12181:12298   */\n      swap3\n      swap2\n      pop\n      pop\n      jump\t// out\n        /* \"#utility.yul\":12304:12473   */\n    tag_225:\n        /* \"#utility.yul\":12348:12354   */\n      0x00\n        /* \"#utility.yul\":12381:12432   */\n      tag_386\n        /* \"#utility.yul\":12429:12430   */\n      0x00\n        /* \"#utility.yul\":12425:12431   */\n      not\n        /* \"#utility.yul\":12417:12422   */\n      dup5\n        /* \"#utility.yul\":12414:12415   */\n      0x08\n        /* \"#utility.yul\":12410:12423   */\n      mul\n        /* \"#utility.yul\":12381:12432   */\n      tag_224\n      jump\t// in\n    tag_386:\n        /* \"#utility.yul\":12377:12433   */\n      not\n        /* \"#utility.yul\":12462:12466   */\n      dup1\n        /* \"#utility.yul\":12456:12460   */\n      dup4\n        /* \"#utility.yul\":12452:12467   */\n      and\n        /* \"#utility.yul\":12442:12467   */\n      swap2\n      pop\n        /* \"#utility.yul\":12355:12473   */\n      pop\n        /* \"#utility.yul\":12304:12473   */\n      swap3\n      swap2\n      pop\n      pop\n      jump\t// out\n        /* \"#utility.yul\":12478:12773   */\n    tag_226:\n        /* \"#utility.yul\":12554:12558   */\n      0x00\n        /* \"#utility.yul\":12700:12729   */\n      tag_388\n        /* \"#utility.yul\":12725:12728   */\n      dup4\n        /* \"#utility.yul\":12719:12723   */\n      dup4\n        /* \"#utility.yul\":12700:12729   */\n      tag_225\n      jump\t// in\n    tag_388:\n        /* \"#utility.yul\":12692:12729   */\n      swap2\n      pop\n        /* \"#utility.yul\":12762:12765   */\n      dup3\n        /* \"#utility.yul\":12759:12760   */\n      0x02\n        /* \"#utility.yul\":12755:12766   */\n      mul\n        /* \"#utility.yul\":12749:12753   */\n      dup3\n        /* \"#utility.yul\":12746:12767   */\n      or\n        /* \"#utility.yul\":12738:12767   */\n      swap1\n      pop\n        /* \"#utility.yul\":12478:12773   */\n      swap3\n      swap2\n      pop\n      pop\n      jump\t// out\n        /* \"#utility.yul\":12778:14173   */\n    tag_86:\n        /* \"#utility.yul\":12895:12932   */\n      tag_390\n        /* \"#utility.yul\":12928:12931   */\n      dup3\n        /* \"#utility.yul\":12895:12932   */\n      tag_199\n      jump\t// in\n    tag_390:\n        /* \"#utility.yul\":12997:13015   */\n      0xffffffffffffffff\n        /* \"#utility.yul\":12989:12995   */\n      dup2\n        /* \"#utility.yul\":12986:13016   */\n      gt\n        /* \"#utility.yul\":12983:13039   */\n      iszero\n      tag_391\n      jumpi\n        /* \"#utility.yul\":13019:13037   */\n      tag_392\n      tag_190\n      jump\t// in\n    tag_392:\n        /* \"#utility.yul\":12983:13039   */\n    tag_391:\n        /* \"#utility.yul\":13063:13101   */\n      tag_393\n        /* \"#utility.yul\":13095:13099   */\n      dup3\n        /* \"#utility.yul\":13089:13100   */\n      sload\n        /* \"#utility.yul\":13063:13101   */\n      tag_90\n      jump\t// in\n    tag_393:\n        /* \"#utility.yul\":13148:13215   */\n      tag_394\n        /* \"#utility.yul\":13208:13214   */\n      dup3\n        /* \"#utility.yul\":13200:13206   */\n      dup3\n        /* \"#utility.yul\":13194:13198   */\n      dup6\n        /* \"#utility.yul\":13148:13215   */\n      tag_223\n      jump\t// in\n    tag_394:\n        /* \"#utility.yul\":13242:13243   */\n      0x00\n        /* \"#utility.yul\":13266:13270   */\n      0x20\n        /* \"#utility.yul\":13253:13270   */\n      swap1\n      pop\n        /* \"#utility.yul\":13298:13300   */\n      0x1f\n        /* \"#utility.yul\":13290:13296   */\n      dup4\n        /* \"#utility.yul\":13287:13301   */\n      gt\n        /* \"#utility.yul\":13315:13316   */\n      0x01\n        /* \"#utility.yul\":13310:13928   */\n      dup2\n      eq\n      tag_396\n      jumpi\n        /* \"#utility.yul\":13972:13973   */\n      0x00\n        /* \"#utility.yul\":13989:13995   */\n      dup5\n        /* \"#utility.yul\":13986:14063   */\n      iszero\n      tag_397\n      jumpi\n        /* \"#utility.yul\":14038:14047   */\n      dup3\n        /* \"#utility.yul\":14033:14036   */\n      dup8\n        /* \"#utility.yul\":14029:14048   */\n      add\n        /* \"#utility.yul\":14023:14049   */\n      mload\n        /* \"#utility.yul\":14014:14049   */\n      swap1\n      pop\n        /* \"#utility.yul\":13986:14063   */\n    tag_397:\n        /* \"#utility.yul\":14089:14156   */\n      tag_398\n        /* \"#utility.yul\":14149:14155   */\n      dup6\n        /* \"#utility.yul\":14142:14147   */\n      dup3\n        /* \"#utility.yul\":14089:14156   */\n      tag_226\n      jump\t// in\n    tag_398:\n        /* \"#utility.yul\":14083:14087   */\n      dup7\n        /* \"#utility.yul\":14076:14157   */\n      sstore\n        /* \"#utility.yul\":13945:14167   */\n      pop\n        /* \"#utility.yul\":13280:14167   */\n      jump(tag_395)\n        /* \"#utility.yul\":13310:13928   */\n    tag_396:\n        /* \"#utility.yul\":13362:13366   */\n      0x1f\n        /* \"#utility.yul\":13358:13367   */\n      not\n        /* \"#utility.yul\":13350:13356   */\n      dup5\n        /* \"#utility.yul\":13346:13368   */\n      and\n        /* \"#utility.yul\":13396:13433   */\n      tag_399\n        /* \"#utility.yul\":13428:13432   */\n      dup7\n        /* \"#utility.yul\":13396:13433   */\n      tag_212\n      jump\t// in\n    tag_399:\n        /* \"#utility.yul\":13455:13456   */\n      0x00\n        /* \"#utility.yul\":13469:13677   */\n    tag_400:\n        /* \"#utility.yul\":13483:13490   */\n      dup3\n        /* \"#utility.yul\":13480:13481   */\n      dup2\n        /* \"#utility.yul\":13477:13491   */\n      lt\n        /* \"#utility.yul\":13469:13677   */\n      iszero\n      tag_402\n      jumpi\n        /* \"#utility.yul\":13562:13571   */\n      dup5\n        /* \"#utility.yul\":13557:13560   */\n      dup10\n        /* \"#utility.yul\":13553:13572   */\n      add\n        /* \"#utility.yul\":13547:13573   */\n      mload\n        /* \"#utility.yul\":13539:13545   */\n      dup3\n        /* \"#utility.yul\":13532:13574   */\n      sstore\n        /* \"#utility.yul\":13613:13614   */\n      0x01\n        /* \"#utility.yul\":13605:13611   */\n      dup3\n        /* \"#utility.yul\":13601:13615   */\n      add\n        /* \"#utility.yul\":13591:13615   */\n      swap2\n      pop\n        /* \"#utility.yul\":13660:13662   */\n      0x20\n        /* \"#utility.yul\":13649:13658   */\n      dup6\n        /* \"#utility.yul\":13645:13663   */\n      add\n        /* \"#utility.yul\":13632:13663   */\n      swap5\n      pop\n        /* \"#utility.yul\":13506:13510   */\n      0x20\n        /* \"#utility.yul\":13503:13504   */\n      dup2\n        /* \"#utility.yul\":13499:13511   */\n      add\n        /* \"#utility.yul\":13494:13511   */\n      swap1\n      pop\n        /* \"#utility.yul\":13469:13677   */\n      jump(tag_400)\n    tag_402:\n        /* \"#utility.yul\":13705:13711   */\n      dup7\n        /* \"#utility.yul\":13696:13703   */\n      dup4\n        /* \"#utility.yul\":13693:13712   */\n      lt\n        /* \"#utility.yul\":13690:13869   */\n      iszero\n      tag_403\n      jumpi\n        /* \"#utility.yul\":13763:13772   */\n      dup5\n        /* \"#utility.yul\":13758:13761   */\n      dup10\n        /* \"#utility.yul\":13754:13773   */\n      add\n        /* \"#utility.yul\":13748:13774   */\n      mload\n        /* \"#utility.yul\":13806:13854   */\n      tag_404\n        /* \"#utility.yul\":13848:13852   */\n      0x1f\n        /* \"#utility.yul\":13840:13846   */\n      dup10\n        /* \"#utility.yul\":13836:13853   */\n      and\n        /* \"#utility.yul\":13825:13834   */\n      dup3\n        /* \"#utility.yul\":13806:13854   */\n      tag_225\n      jump\t// in\n    tag_404:\n        /* \"#utility.yul\":13798:13804   */\n      dup4\n        /* \"#utility.yul\":13791:13855   */\n      sstore\n        /* \"#utility.yul\":13713:13869   */\n      pop\n        /* \"#utility.yul\":13690:13869   */\n    tag_403:\n        /* \"#utility.yul\":13915:13916   */\n      0x01\n        /* \"#utility.yul\":13911:13912   */\n      0x02\n        /* \"#utility.yul\":13903:13909   */\n      dup9\n        /* \"#utility.yul\":13899:13913   */\n      mul\n        /* \"#utility.yul\":13895:13917   */\n      add\n        /* \"#utility.yul\":13889:13893   */\n      dup9\n        /* \"#utility.yul\":13882:13918   */\n      sstore\n        /* \"#utility.yul\":13317:13928   */\n      pop\n      pop\n      pop\n        /* \"#utility.yul\":13280:14167   */\n    tag_395:\n      pop\n        /* \"#utility.yul\":12870:14173   */\n      pop\n      pop\n      pop\n        /* \"#utility.yul\":12778:14173   */\n      pop\n      pop\n      jump\t// out\n        /* \"#utility.yul\":14179:14346   */\n    tag_227:\n        /* \"#utility.yul\":14319:14338   */\n      0x4e6f20626f6f6b20617661696c61626c65000000000000000000000000000000\n        /* \"#utility.yul\":14315:14316   */\n      0x00\n        /* \"#utility.yul\":14307:14313   */\n      dup3\n        /* \"#utility.yul\":14303:14317   */\n      add\n        /* \"#utility.yul\":14296:14339   */\n      mstore\n        /* \"#utility.yul\":14179:14346   */\n      pop\n      jump\t// out\n        /* \"#utility.yul\":14352:14718   */\n    tag_228:\n        /* \"#utility.yul\":14494:14497   */\n      0x00\n        /* \"#utility.yul\":14515:14582   */\n      tag_407\n        /* \"#utility.yul\":14579:14581   */\n      0x11\n        /* \"#utility.yul\":14574:14577   */\n      dup4\n        /* \"#utility.yul\":14515:14582   */\n      tag_200\n      jump\t// in\n    tag_407:\n        /* \"#utility.yul\":14508:14582   */\n      swap2\n      pop\n        /* \"#utility.yul\":14591:14684   */\n      tag_408\n        /* \"#utility.yul\":14680:14683   */\n      dup3\n        /* \"#utility.yul\":14591:14684   */\n      tag_227\n      jump\t// in\n    tag_408:\n        /* \"#utility.yul\":14709:14711   */\n      0x20\n        /* \"#utility.yul\":14704:14707   */\n      dup3\n        /* \"#utility.yul\":14700:14712   */\n      add\n        /* \"#utility.yul\":14693:14712   */\n      swap1\n      pop\n        /* \"#utility.yul\":14352:14718   */\n      swap2\n      swap1\n      pop\n      jump\t// out\n        /* \"#utility.yul\":14724:15143   */\n    tag_98:\n        /* \"#utility.yul\":14890:14894   */\n      0x00\n        /* \"#utility.yul\":14928:14930   */\n      0x20\n        /* \"#utility.yul\":14917:14926   */\n      dup3\n        /* \"#utility.yul\":14913:14931   */\n      add\n        /* \"#utility.yul\":14905:14931   */\n      swap1\n      pop\n        /* \"#utility.yul\":14977:14986   */\n      dup2\n        /* \"#utility.yul\":14971:14975   */\n      dup2\n        /* \"#utility.yul\":14967:14987   */\n      sub\n        /* \"#utility.yul\":14963:14964   */\n      0x00\n        /* \"#utility.yul\":14952:14961   */\n      dup4\n        /* \"#utility.yul\":14948:14965   */\n      add\n        /* \"#utility.yul\":14941:14988   */\n      mstore\n        /* \"#utility.yul\":15005:15136   */\n      tag_410\n        /* \"#utility.yul\":15131:15135   */\n      dup2\n        /* \"#utility.yul\":15005:15136   */\n      tag_228\n      jump\t// in\n    tag_410:\n        /* \"#utility.yul\":14997:15136   */\n      swap1\n      pop\n        /* \"#utility.yul\":14724:15143   */\n      swap2\n      swap1\n      pop\n      jump\t// out\n        /* \"#utility.yul\":15149:15329   */\n    tag_101:\n        /* \"#utility.yul\":15197:15274   */\n      0x4e487b7100000000000000000000000000000000000000000000000000000000\n        /* \"#utility.yul\":15194:15195   */\n      0x00\n        /* \"#utility.yul\":15187:15275   */\n      mstore\n        /* \"#utility.yul\":15294:15298   */\n      0x32\n        /* \"#utility.yul\":15291:15292   */\n      0x04\n        /* \"#utility.yul\":15284:15299   */\n      mstore\n        /* \"#utility.yul\":15318:15322   */\n      0x24\n        /* \"#utility.yul\":15315:15316   */\n      0x00\n        /* \"#utility.yul\":15308:15323   */\n      revert\n        /* \"#utility.yul\":15335:15510   */\n    tag_229:\n        /* \"#utility.yul\":15475:15502   */\n      0x54686520626f6f6b206973206e6f7420617661696c61626c6500000000000000\n        /* \"#utility.yul\":15471:15472   */\n      0x00\n        /* \"#utility.yul\":15463:15469   */\n      dup3\n        /* \"#utility.yul\":15459:15473   */\n      add\n        /* \"#utility.yul\":15452:15503   */\n      mstore\n        /* \"#utility.yul\":15335:15510   */\n      pop\n      jump\t// out\n        /* \"#utility.yul\":15516:15882   */\n    tag_230:\n        /* \"#utility.yul\":15658:15661   */\n      0x00\n        /* \"#utility.yul\":15679:15746   */\n      tag_414\n        /* \"#utility.yul\":15743:15745   */\n      0x19\n        /* \"#utility.yul\":15738:15741   */\n      dup4\n        /* \"#utility.yul\":15679:15746   */\n      tag_200\n      jump\t// in\n    tag_414:\n        /* \"#utility.yul\":15672:15746   */\n      swap2\n      pop\n        /* \"#utility.yul\":15755:15848   */\n      tag_415\n        /* \"#utility.yul\":15844:15847   */\n      dup3\n        /* \"#utility.yul\":15755:15848   */\n      tag_229\n      jump\t// in\n    tag_415:\n        /* \"#utility.yul\":15873:15875   */\n      0x20\n        /* \"#utility.yul\":15868:15871   */\n      dup3\n        /* \"#utility.yul\":15864:15876   */\n      add\n        /* \"#utility.yul\":15857:15876   */\n      swap1\n      pop\n        /* \"#utility.yul\":15516:15882   */\n      swap2\n      swap1\n      pop\n      jump\t// out\n        /* \"#utility.yul\":15888:16307   */\n    tag_105:\n        /* \"#utility.yul\":16054:16058   */\n      0x00\n        /* \"#utility.yul\":16092:16094   */\n      0x20\n        /* \"#utility.yul\":16081:16090   */\n      dup3\n        /* \"#utility.yul\":16077:16095   */\n      add\n        /* \"#utility.yul\":16069:16095   */\n      swap1\n      pop\n        /* \"#utility.yul\":16141:16150   */\n      dup2\n        /* \"#utility.yul\":16135:16139   */\n      dup2\n        /* \"#utility.yul\":16131:16151   */\n      sub\n        /* \"#utility.yul\":16127:16128   */\n      0x00\n        /* \"#utility.yul\":16116:16125   */\n      dup4\n        /* \"#utility.yul\":16112:16129   */\n      add\n        /* \"#utility.yul\":16105:16152   */\n      mstore\n        /* \"#utility.yul\":16169:16300   */\n      tag_417\n        /* \"#utility.yul\":16295:16299   */\n      dup2\n        /* \"#utility.yul\":16169:16300   */\n      tag_230\n      jump\t// in\n    tag_417:\n        /* \"#utility.yul\":16161:16300   */\n      swap1\n      pop\n        /* \"#utility.yul\":15888:16307   */\n      swap2\n      swap1\n      pop\n      jump\t// out\n        /* \"#utility.yul\":16313:16536   */\n    tag_231:\n        /* \"#utility.yul\":16453:16487   */\n      0x596f75722063616e6e6f7420626f72726f77206d6f7265207468616e20322062\n        /* \"#utility.yul\":16449:16450   */\n      0x00\n        /* \"#utility.yul\":16441:16447   */\n      dup3\n        /* \"#utility.yul\":16437:16451   */\n      add\n        /* \"#utility.yul\":16430:16488   */\n      mstore\n        /* \"#utility.yul\":16522:16528   */\n      0x6f6f6b7300000000000000000000000000000000000000000000000000000000\n        /* \"#utility.yul\":16517:16519   */\n      0x20\n        /* \"#utility.yul\":16509:16515   */\n      dup3\n        /* \"#utility.yul\":16505:16520   */\n      add\n        /* \"#utility.yul\":16498:16529   */\n      mstore\n        /* \"#utility.yul\":16313:16536   */\n      pop\n      jump\t// out\n        /* \"#utility.yul\":16542:16908   */\n    tag_232:\n        /* \"#utility.yul\":16684:16687   */\n      0x00\n        /* \"#utility.yul\":16705:16772   */\n      tag_420\n        /* \"#utility.yul\":16769:16771   */\n      0x24\n        /* \"#utility.yul\":16764:16767   */\n      dup4\n        /* \"#utility.yul\":16705:16772   */\n      tag_200\n      jump\t// in\n    tag_420:\n        /* \"#utility.yul\":16698:16772   */\n      swap2\n      pop\n        /* \"#utility.yul\":16781:16874   */\n      tag_421\n        /* \"#utility.yul\":16870:16873   */\n      dup3\n        /* \"#utility.yul\":16781:16874   */\n      tag_231\n      jump\t// in\n    tag_421:\n        /* \"#utility.yul\":16899:16901   */\n      0x40\n        /* \"#utility.yul\":16894:16897   */\n      dup3\n        /* \"#utility.yul\":16890:16902   */\n      add\n        /* \"#utility.yul\":16883:16902   */\n      swap1\n      pop\n        /* \"#utility.yul\":16542:16908   */\n      swap2\n      swap1\n      pop\n      jump\t// out\n        /* \"#utility.yul\":16914:17333   */\n    tag_108:\n        /* \"#utility.yul\":17080:17084   */\n      0x00\n        /* \"#utility.yul\":17118:17120   */\n      0x20\n        /* \"#utility.yul\":17107:17116   */\n      dup3\n        /* \"#utility.yul\":17103:17121   */\n      add\n        /* \"#utility.yul\":17095:17121   */\n      swap1\n      pop\n        /* \"#utility.yul\":17167:17176   */\n      dup2\n        /* \"#utility.yul\":17161:17165   */\n      dup2\n        /* \"#utility.yul\":17157:17177   */\n      sub\n        /* \"#utility.yul\":17153:17154   */\n      0x00\n        /* \"#utility.yul\":17142:17151   */\n      dup4\n        /* \"#utility.yul\":17138:17155   */\n      add\n        /* \"#utility.yul\":17131:17178   */\n      mstore\n        /* \"#utility.yul\":17195:17326   */\n      tag_423\n        /* \"#utility.yul\":17321:17325   */\n      dup2\n        /* \"#utility.yul\":17195:17326   */\n      tag_232\n      jump\t// in\n    tag_423:\n        /* \"#utility.yul\":17187:17326   */\n      swap1\n      pop\n        /* \"#utility.yul\":16914:17333   */\n      swap2\n      swap1\n      pop\n      jump\t// out\n        /* \"#utility.yul\":17339:17519   */\n    tag_233:\n        /* \"#utility.yul\":17387:17464   */\n      0x4e487b7100000000000000000000000000000000000000000000000000000000\n        /* \"#utility.yul\":17384:17385   */\n      0x00\n        /* \"#utility.yul\":17377:17465   */\n      mstore\n        /* \"#utility.yul\":17484:17488   */\n      0x11\n        /* \"#utility.yul\":17481:17482   */\n      0x04\n        /* \"#utility.yul\":17474:17489   */\n      mstore\n        /* \"#utility.yul\":17508:17512   */\n      0x24\n        /* \"#utility.yul\":17505:17506   */\n      0x00\n        /* \"#utility.yul\":17498:17513   */\n      revert\n        /* \"#utility.yul\":17525:17758   */\n    tag_113:\n        /* \"#utility.yul\":17564:17567   */\n      0x00\n        /* \"#utility.yul\":17587:17611   */\n      tag_426\n        /* \"#utility.yul\":17605:17610   */\n      dup3\n        /* \"#utility.yul\":17587:17611   */\n      tag_179\n      jump\t// in\n    tag_426:\n        /* \"#utility.yul\":17578:17611   */\n      swap2\n      pop\n        /* \"#utility.yul\":17633:17699   */\n      0xffffffffffffffffffffffffffffffffffffffffffffffffffffffffffffffff\n        /* \"#utility.yul\":17626:17631   */\n      dup3\n        /* \"#utility.yul\":17623:17700   */\n      sub\n        /* \"#utility.yul\":17620:17723   */\n      tag_427\n      jumpi\n        /* \"#utility.yul\":17703:17721   */\n      tag_428\n      tag_233\n      jump\t// in\n    tag_428:\n        /* \"#utility.yul\":17620:17723   */\n    tag_427:\n        /* \"#utility.yul\":17750:17751   */\n      0x01\n        /* \"#utility.yul\":17743:17748   */\n      dup3\n        /* \"#utility.yul\":17739:17752   */\n      add\n        /* \"#utility.yul\":17732:17752   */\n      swap1\n      pop\n        /* \"#utility.yul\":17525:17758   */\n      swap2\n      swap1\n      pop\n      jump\t// out\n        /* \"#utility.yul\":17764:17993   */\n    tag_234:\n        /* \"#utility.yul\":17904:17938   */\n      0x497473206e6f742074696d6520746f20776974686472617720746865206d6f6e\n        /* \"#utility.yul\":17900:17901   */\n      0x00\n        /* \"#utility.yul\":17892:17898   */\n      dup3\n        /* \"#utility.yul\":17888:17902   */\n      add\n        /* \"#utility.yul\":17881:17939   */\n      mstore\n        /* \"#utility.yul\":17973:17985   */\n      0x6579206d616e6167657200000000000000000000000000000000000000000000\n        /* \"#utility.yul\":17968:17970   */\n      0x20\n        /* \"#utility.yul\":17960:17966   */\n      dup3\n        /* \"#utility.yul\":17956:17971   */\n      add\n        /* \"#utility.yul\":17949:17986   */\n      mstore\n        /* \"#utility.yul\":17764:17993   */\n      pop\n      jump\t// out\n        /* \"#utility.yul\":17999:18365   */\n    tag_235:\n        /* \"#utility.yul\":18141:18144   */\n      0x00\n        /* \"#utility.yul\":18162:18229   */\n      tag_431\n        /* \"#utility.yul\":18226:18228   */\n      0x2a\n        /* \"#utility.yul\":18221:18224   */\n      dup4\n        /* \"#utility.yul\":18162:18229   */\n      tag_200\n      jump\t// in\n    tag_431:\n        /* \"#utility.yul\":18155:18229   */\n      swap2\n      pop\n        /* \"#utility.yul\":18238:18331   */\n      tag_432\n        /* \"#utility.yul\":18327:18330   */\n      dup3\n        /* \"#utility.yul\":18238:18331   */\n      tag_234\n      jump\t// in\n    tag_432:\n        /* \"#utility.yul\":18356:18358   */\n      0x40\n        /* \"#utility.yul\":18351:18354   */\n      dup3\n        /* \"#utility.yul\":18347:18359   */\n      add\n        /* \"#utility.yul\":18340:18359   */\n      swap1\n      pop\n        /* \"#utility.yul\":17999:18365   */\n      swap2\n      swap1\n      pop\n      jump\t// out\n        /* \"#utility.yul\":18371:18790   */\n    tag_121:\n        /* \"#utility.yul\":18537:18541   */\n      0x00\n        /* \"#utility.yul\":18575:18577   */\n      0x20\n        /* \"#utility.yul\":18564:18573   */\n      dup3\n        /* \"#utility.yul\":18560:18578   */\n      add\n        /* \"#utility.yul\":18552:18578   */\n      swap1\n      pop\n        /* \"#utility.yul\":18624:18633   */\n      dup2\n        /* \"#utility.yul\":18618:18622   */\n      dup2\n        /* \"#utility.yul\":18614:18634   */\n      sub\n        /* \"#utility.yul\":18610:18611   */\n      0x00\n        /* \"#utility.yul\":18599:18608   */\n      dup4\n        /* \"#utility.yul\":18595:18612   */\n      add\n        /* \"#utility.yul\":18588:18635   */\n      mstore\n        /* \"#utility.yul\":18652:18783   */\n      tag_434\n        /* \"#utility.yul\":18778:18782   */\n      dup2\n        /* \"#utility.yul\":18652:18783   */\n      tag_235\n      jump\t// in\n    tag_434:\n        /* \"#utility.yul\":18644:18783   */\n      swap1\n      pop\n        /* \"#utility.yul\":18371:18790   */\n      swap2\n      swap1\n      pop\n      jump\t// out\n        /* \"#utility.yul\":18796:19028   */\n    tag_236:\n        /* \"#utility.yul\":18936:18970   */\n      0x54686520616d6f756e74206973206e6f742073756666696369656e7420746f20\n        /* \"#utility.yul\":18932:18933   */\n      0x00\n        /* \"#utility.yul\":18924:18930   */\n      dup3\n        /* \"#utility.yul\":18920:18934   */\n      add\n        /* \"#utility.yul\":18913:18971   */\n      mstore\n        /* \"#utility.yul\":19005:19020   */\n      0x6265636f6d65206d656d62657200000000000000000000000000000000000000\n        /* \"#utility.yul\":19000:19002   */\n      0x20\n        /* \"#utility.yul\":18992:18998   */\n      dup3\n        /* \"#utility.yul\":18988:19003   */\n      add\n        /* \"#utility.yul\":18981:19021   */\n      mstore\n        /* \"#utility.yul\":18796:19028   */\n      pop\n      jump\t// out\n        /* \"#utility.yul\":19034:19400   */\n    tag_237:\n        /* \"#utility.yul\":19176:19179   */\n      0x00\n        /* \"#utility.yul\":19197:19264   */\n      tag_437\n        /* \"#utility.yul\":19261:19263   */\n      0x2d\n        /* \"#utility.yul\":19256:19259   */\n      dup4\n        /* \"#utility.yul\":19197:19264   */\n      tag_200\n      jump\t// in\n    tag_437:\n        /* \"#utility.yul\":19190:19264   */\n      swap2\n      pop\n        /* \"#utility.yul\":19273:19366   */\n      tag_438\n        /* \"#utility.yul\":19362:19365   */\n      dup3\n        /* \"#utility.yul\":19273:19366   */\n      tag_236\n      jump\t// in\n    tag_438:\n        /* \"#utility.yul\":19391:19393   */\n      0x40\n        /* \"#utility.yul\":19386:19389   */\n      dup3\n        /* \"#utility.yul\":19382:19394   */\n      add\n        /* \"#utility.yul\":19375:19394   */\n      swap1\n      pop\n        /* \"#utility.yul\":19034:19400   */\n      swap2\n      swap1\n      pop\n      jump\t// out\n        /* \"#utility.yul\":19406:19825   */\n    tag_127:\n        /* \"#utility.yul\":19572:19576   */\n      0x00\n        /* \"#utility.yul\":19610:19612   */\n      0x20\n        /* \"#utility.yul\":19599:19608   */\n      dup3\n        /* \"#utility.yul\":19595:19613   */\n      add\n        /* \"#utility.yul\":19587:19613   */\n      swap1\n      pop\n        /* \"#utility.yul\":19659:19668   */\n      dup2\n        /* \"#utility.yul\":19653:19657   */\n      dup2\n        /* \"#utility.yul\":19649:19669   */\n      sub\n        /* \"#utility.yul\":19645:19646   */\n      0x00\n        /* \"#utility.yul\":19634:19643   */\n      dup4\n        /* \"#utility.yul\":19630:19647   */\n      add\n        /* \"#utility.yul\":19623:19670   */\n      mstore\n        /* \"#utility.yul\":19687:19818   */\n      tag_440\n        /* \"#utility.yul\":19813:19817   */\n      dup2\n        /* \"#utility.yul\":19687:19818   */\n      tag_237\n      jump\t// in\n    tag_440:\n        /* \"#utility.yul\":19679:19818   */\n      swap1\n      pop\n        /* \"#utility.yul\":19406:19825   */\n      swap2\n      swap1\n      pop\n      jump\t// out\n        /* \"#utility.yul\":19831:20005   */\n    tag_238:\n        /* \"#utility.yul\":19971:19997   */\n      0x596f752061726520616c72656164792061206d656d6265720000000000000000\n        /* \"#utility.yul\":19967:19968   */\n      0x00\n        /* \"#utility.yul\":19959:19965   */\n      dup3\n        /* \"#utility.yul\":19955:19969   */\n      add\n        /* \"#utility.yul\":19948:19998   */\n      mstore\n        /* \"#utility.yul\":19831:20005   */\n      pop\n      jump\t// out\n        /* \"#utility.yul\":20011:20377   */\n    tag_239:\n        /* \"#utility.yul\":20153:20156   */\n      0x00\n        /* \"#utility.yul\":20174:20241   */\n      tag_443\n        /* \"#utility.yul\":20238:20240   */\n      0x18\n        /* \"#utility.yul\":20233:20236   */\n      dup4\n        /* \"#utility.yul\":20174:20241   */\n      tag_200\n      jump\t// in\n    tag_443:\n        /* \"#utility.yul\":20167:20241   */\n      swap2\n      pop\n        /* \"#utility.yul\":20250:20343   */\n      tag_444\n        /* \"#utility.yul\":20339:20342   */\n      dup3\n        /* \"#utility.yul\":20250:20343   */\n      tag_238\n      jump\t// in\n    tag_444:\n        /* \"#utility.yul\":20368:20370   */\n      0x20\n        /* \"#utility.yul\":20363:20366   */\n      dup3\n        /* \"#utility.yul\":20359:20371   */\n      add\n        /* \"#utility.yul\":20352:20371   */\n      swap1\n      pop\n        /* \"#utility.yul\":20011:20377   */\n      swap2\n      swap1\n      pop\n      jump\t// out\n        /* \"#utility.yul\":20383:20802   */\n    tag_130:\n        /* \"#utility.yul\":20549:20553   */\n      0x00\n        /* \"#utility.yul\":20587:20589   */\n      0x20\n        /* \"#utility.yul\":20576:20585   */\n      dup3\n        /* \"#utility.yul\":20572:20590   */\n      add\n        /* \"#utility.yul\":20564:20590   */\n      swap1\n      pop\n        /* \"#utility.yul\":20636:20645   */\n      dup2\n        /* \"#utility.yul\":20630:20634   */\n      dup2\n        /* \"#utility.yul\":20626:20646   */\n      sub\n        /* \"#utility.yul\":20622:20623   */\n      0x00\n        /* \"#utility.yul\":20611:20620   */\n      dup4\n        /* \"#utility.yul\":20607:20624   */\n      add\n        /* \"#utility.yul\":20600:20647   */\n      mstore\n        /* \"#utility.yul\":20664:20795   */\n      tag_446\n        /* \"#utility.yul\":20790:20794   */\n      dup2\n        /* \"#utility.yul\":20664:20795   */\n      tag_239\n      jump\t// in\n    tag_446:\n        /* \"#utility.yul\":20656:20795   */\n      swap1\n      pop\n        /* \"#utility.yul\":20383:20802   */\n      swap2\n      swap1\n      pop\n      jump\t// out\n        /* \"#utility.yul\":20808:20974   */\n    tag_240:\n        /* \"#utility.yul\":20948:20966   */\n      0x4e6f2076616c696420626f6f6b20696400000000000000000000000000000000\n        /* \"#utility.yul\":20944:20945   */\n      0x00\n        /* \"#utility.yul\":20936:20942   */\n      dup3\n        /* \"#utility.yul\":20932:20946   */\n      add\n        /* \"#utility.yul\":20925:20967   */\n      mstore\n        /* \"#utility.yul\":20808:20974   */\n      pop\n      jump\t// out\n        /* \"#utility.yul\":20980:21346   */\n    tag_241:\n        /* \"#utility.yul\":21122:21125   */\n      0x00\n        /* \"#utility.yul\":21143:21210   */\n      tag_449\n        /* \"#utility.yul\":21207:21209   */\n      0x10\n        /* \"#utility.yul\":21202:21205   */\n      dup4\n        /* \"#utility.yul\":21143:21210   */\n      tag_200\n      jump\t// in\n    tag_449:\n        /* \"#utility.yul\":21136:21210   */\n      swap2\n      pop\n        /* \"#utility.yul\":21219:21312   */\n      tag_450\n        /* \"#utility.yul\":21308:21311   */\n      dup3\n        /* \"#utility.yul\":21219:21312   */\n      tag_240\n      jump\t// in\n    tag_450:\n        /* \"#utility.yul\":21337:21339   */\n      0x20\n        /* \"#utility.yul\":21332:21335   */\n      dup3\n        /* \"#utility.yul\":21328:21340   */\n      add\n        /* \"#utility.yul\":21321:21340   */\n      swap1\n      pop\n        /* \"#utility.yul\":20980:21346   */\n      swap2\n      swap1\n      pop\n      jump\t// out\n        /* \"#utility.yul\":21352:21771   */\n    tag_134:\n        /* \"#utility.yul\":21518:21522   */\n      0x00\n        /* \"#utility.yul\":21556:21558   */\n      0x20\n        /* \"#utility.yul\":21545:21554   */\n      dup3\n        /* \"#utility.yul\":21541:21559   */\n      add\n        /* \"#utility.yul\":21533:21559   */\n      swap1\n      pop\n        /* \"#utility.yul\":21605:21614   */\n      dup2\n        /* \"#utility.yul\":21599:21603   */\n      dup2\n        /* \"#utility.yul\":21595:21615   */\n      sub\n        /* \"#utility.yul\":21591:21592   */\n      0x00\n        /* \"#utility.yul\":21580:21589   */\n      dup4\n        /* \"#utility.yul\":21576:21593   */\n      add\n        /* \"#utility.yul\":21569:21616   */\n      mstore\n        /* \"#utility.yul\":21633:21764   */\n      tag_452\n        /* \"#utility.yul\":21759:21763   */\n      dup2\n        /* \"#utility.yul\":21633:21764   */\n      tag_241\n      jump\t// in\n    tag_452:\n        /* \"#utility.yul\":21625:21764   */\n      swap1\n      pop\n        /* \"#utility.yul\":21352:21771   */\n      swap2\n      swap1\n      pop\n      jump\t// out\n        /* \"#utility.yul\":21777:21949   */\n    tag_242:\n        /* \"#utility.yul\":21917:21941   */\n      0x596f7520617265206e6f7420746865206d656d62657200000000000000000000\n        /* \"#utility.yul\":21913:21914   */\n      0x00\n        /* \"#utility.yul\":21905:21911   */\n      dup3\n        /* \"#utility.yul\":21901:21915   */\n      add\n        /* \"#utility.yul\":21894:21942   */\n      mstore\n        /* \"#utility.yul\":21777:21949   */\n      pop\n      jump\t// out\n        /* \"#utility.yul\":21955:22321   */\n    tag_243:\n        /* \"#utility.yul\":22097:22100   */\n      0x00\n        /* \"#utility.yul\":22118:22185   */\n      tag_455\n        /* \"#utility.yul\":22182:22184   */\n      0x16\n        /* \"#utility.yul\":22177:22180   */\n      dup4\n        /* \"#utility.yul\":22118:22185   */\n      tag_200\n      jump\t// in\n    tag_455:\n        /* \"#utility.yul\":22111:22185   */\n      swap2\n      pop\n        /* \"#utility.yul\":22194:22287   */\n      tag_456\n        /* \"#utility.yul\":22283:22286   */\n      dup3\n        /* \"#utility.yul\":22194:22287   */\n      tag_242\n      jump\t// in\n    tag_456:\n        /* \"#utility.yul\":22312:22314   */\n      0x20\n        /* \"#utility.yul\":22307:22310   */\n      dup3\n        /* \"#utility.yul\":22303:22315   */\n      add\n        /* \"#utility.yul\":22296:22315   */\n      swap1\n      pop\n        /* \"#utility.yul\":21955:22321   */\n      swap2\n      swap1\n      pop\n      jump\t// out\n        /* \"#utility.yul\":22327:22746   */\n    tag_146:\n        /* \"#utility.yul\":22493:22497   */\n      0x00\n        /* \"#utility.yul\":22531:22533   */\n      0x20\n        /* \"#utility.yul\":22520:22529   */\n      dup3\n        /* \"#utility.yul\":22516:22534   */\n      add\n        /* \"#utility.yul\":22508:22534   */\n      swap1\n      pop\n        /* \"#utility.yul\":22580:22589   */\n      dup2\n        /* \"#utility.yul\":22574:22578   */\n      dup2\n        /* \"#utility.yul\":22570:22590   */\n      sub\n        /* \"#utility.yul\":22566:22567   */\n      0x00\n        /* \"#utility.yul\":22555:22564   */\n      dup4\n        /* \"#utility.yul\":22551:22568   */\n      add\n        /* \"#utility.yul\":22544:22591   */\n      mstore\n        /* \"#utility.yul\":22608:22739   */\n      tag_458\n        /* \"#utility.yul\":22734:22738   */\n      dup2\n        /* \"#utility.yul\":22608:22739   */\n      tag_243\n      jump\t// in\n    tag_458:\n        /* \"#utility.yul\":22600:22739   */\n      swap1\n      pop\n        /* \"#utility.yul\":22327:22746   */\n      swap2\n      swap1\n      pop\n      jump\t// out\n        /* \"#utility.yul\":22752:22925   */\n    tag_244:\n        /* \"#utility.yul\":22892:22917   */\n      0x696e76616c696420696e646578206d656e74696f6e6564000000000000000000\n        /* \"#utility.yul\":22888:22889   */\n      0x00\n        /* \"#utility.yul\":22880:22886   */\n      dup3\n        /* \"#utility.yul\":22876:22890   */\n      add\n        /* \"#utility.yul\":22869:22918   */\n      mstore\n        /* \"#utility.yul\":22752:22925   */\n      pop\n      jump\t// out\n        /* \"#utility.yul\":22931:23297   */\n    tag_245:\n        /* \"#utility.yul\":23073:23076   */\n      0x00\n        /* \"#utility.yul\":23094:23161   */\n      tag_461\n        /* \"#utility.yul\":23158:23160   */\n      0x17\n        /* \"#utility.yul\":23153:23156   */\n      dup4\n        /* \"#utility.yul\":23094:23161   */\n      tag_200\n      jump\t// in\n    tag_461:\n        /* \"#utility.yul\":23087:23161   */\n      swap2\n      pop\n        /* \"#utility.yul\":23170:23263   */\n      tag_462\n        /* \"#utility.yul\":23259:23262   */\n      dup3\n        /* \"#utility.yul\":23170:23263   */\n      tag_244\n      jump\t// in\n    tag_462:\n        /* \"#utility.yul\":23288:23290   */\n      0x20\n        /* \"#utility.yul\":23283:23286   */\n      dup3\n        /* \"#utility.yul\":23279:23291   */\n      add\n        /* \"#utility.yul\":23272:23291   */\n      swap1\n      pop\n        /* \"#utility.yul\":22931:23297   */\n      swap2\n      swap1\n      pop\n      jump\t// out\n        /* \"#utility.yul\":23303:23722   */\n    tag_150:\n        /* \"#utility.yul\":23469:23473   */\n      0x00\n        /* \"#utility.yul\":23507:23509   */\n      0x20\n        /* \"#utility.yul\":23496:23505   */\n      dup3\n        /* \"#utility.yul\":23492:23510   */\n      add\n        /* \"#utility.yul\":23484:23510   */\n      swap1\n      pop\n        /* \"#utility.yul\":23556:23565   */\n      dup2\n        /* \"#utility.yul\":23550:23554   */\n      dup2\n        /* \"#utility.yul\":23546:23566   */\n      sub\n        /* \"#utility.yul\":23542:23543   */\n      0x00\n        /* \"#utility.yul\":23531:23540   */\n      dup4\n        /* \"#utility.yul\":23527:23544   */\n      add\n        /* \"#utility.yul\":23520:23567   */\n      mstore\n        /* \"#utility.yul\":23584:23715   */\n      tag_464\n        /* \"#utility.yul\":23710:23714   */\n      dup2\n        /* \"#utility.yul\":23584:23715   */\n      tag_245\n      jump\t// in\n    tag_464:\n        /* \"#utility.yul\":23576:23715   */\n      swap1\n      pop\n        /* \"#utility.yul\":23303:23722   */\n      swap2\n      swap1\n      pop\n      jump\t// out\n        /* \"#utility.yul\":23728:23893   */\n    tag_246:\n        /* \"#utility.yul\":23868:23885   */\n      0x496e76616c696420626f6f6b2069640000000000000000000000000000000000\n        /* \"#utility.yul\":23864:23865   */\n      0x00\n        /* \"#utility.yul\":23856:23862   */\n      dup3\n        /* \"#utility.yul\":23852:23866   */\n      add\n        /* \"#utility.yul\":23845:23886   */\n      mstore\n        /* \"#utility.yul\":23728:23893   */\n      pop\n      jump\t// out\n        /* \"#utility.yul\":23899:24265   */\n    tag_247:\n        /* \"#utility.yul\":24041:24044   */\n      0x00\n        /* \"#utility.yul\":24062:24129   */\n      tag_467\n        /* \"#utility.yul\":24126:24128   */\n      0x0f\n        /* \"#utility.yul\":24121:24124   */\n      dup4\n        /* \"#utility.yul\":24062:24129   */\n      tag_200\n      jump\t// in\n    tag_467:\n        /* \"#utility.yul\":24055:24129   */\n      swap2\n      pop\n        /* \"#utility.yul\":24138:24231   */\n      tag_468\n        /* \"#utility.yul\":24227:24230   */\n      dup3\n        /* \"#utility.yul\":24138:24231   */\n      tag_246\n      jump\t// in\n    tag_468:\n        /* \"#utility.yul\":24256:24258   */\n      0x20\n        /* \"#utility.yul\":24251:24254   */\n      dup3\n        /* \"#utility.yul\":24247:24259   */\n      add\n        /* \"#utility.yul\":24240:24259   */\n      swap1\n      pop\n        /* \"#utility.yul\":23899:24265   */\n      swap2\n      swap1\n      pop\n      jump\t// out\n        /* \"#utility.yul\":24271:24690   */\n    tag_153:\n        /* \"#utility.yul\":24437:24441   */\n      0x00\n        /* \"#utility.yul\":24475:24477   */\n      0x20\n        /* \"#utility.yul\":24464:24473   */\n      dup3\n        /* \"#utility.yul\":24460:24478   */\n      add\n        /* \"#utility.yul\":24452:24478   */\n      swap1\n      pop\n        /* \"#utility.yul\":24524:24533   */\n      dup2\n        /* \"#utility.yul\":24518:24522   */\n      dup2\n        /* \"#utility.yul\":24514:24534   */\n      sub\n        /* \"#utility.yul\":24510:24511   */\n      0x00\n        /* \"#utility.yul\":24499:24508   */\n      dup4\n        /* \"#utility.yul\":24495:24512   */\n      add\n        /* \"#utility.yul\":24488:24535   */\n      mstore\n        /* \"#utility.yul\":24552:24683   */\n      tag_470\n        /* \"#utility.yul\":24678:24682   */\n      dup2\n        /* \"#utility.yul\":24552:24683   */\n      tag_247\n      jump\t// in\n    tag_470:\n        /* \"#utility.yul\":24544:24683   */\n      swap1\n      pop\n        /* \"#utility.yul\":24271:24690   */\n      swap2\n      swap1\n      pop\n      jump\t// out\n        /* \"#utility.yul\":24696:24887   */\n    tag_155:\n        /* \"#utility.yul\":24736:24739   */\n      0x00\n        /* \"#utility.yul\":24755:24775   */\n      tag_472\n        /* \"#utility.yul\":24773:24774   */\n      dup3\n        /* \"#utility.yul\":24755:24775   */\n      tag_179\n      jump\t// in\n    tag_472:\n        /* \"#utility.yul\":24750:24775   */\n      swap2\n      pop\n        /* \"#utility.yul\":24789:24809   */\n      tag_473\n        /* \"#utility.yul\":24807:24808   */\n      dup4\n        /* \"#utility.yul\":24789:24809   */\n      tag_179\n      jump\t// in\n    tag_473:\n        /* \"#utility.yul\":24784:24809   */\n      swap3\n      pop\n        /* \"#utility.yul\":24832:24833   */\n      dup3\n        /* \"#utility.yul\":24829:24830   */\n      dup3\n        /* \"#utility.yul\":24825:24834   */\n      add\n        /* \"#utility.yul\":24818:24834   */\n      swap1\n      pop\n        /* \"#utility.yul\":24853:24856   */\n      dup1\n        /* \"#utility.yul\":24850:24851   */\n      dup3\n        /* \"#utility.yul\":24847:24857   */\n      gt\n        /* \"#utility.yul\":24844:24880   */\n      iszero\n      tag_474\n      jumpi\n        /* \"#utility.yul\":24860:24878   */\n      tag_475\n      tag_233\n      jump\t// in\n    tag_475:\n        /* \"#utility.yul\":24844:24880   */\n    tag_474:\n        /* \"#utility.yul\":24696:24887   */\n      swap3\n      swap2\n      pop\n      pop\n      jump\t// out\n        /* \"#utility.yul\":24893:25117   */\n    tag_248:\n        /* \"#utility.yul\":25033:25067   */\n      0x4e6f2073756666696369656e742062616c616e636520696e20796f7572206163\n        /* \"#utility.yul\":25029:25030   */\n      0x00\n        /* \"#utility.yul\":25021:25027   */\n      dup3\n        /* \"#utility.yul\":25017:25031   */\n      add\n        /* \"#utility.yul\":25010:25068   */\n      mstore\n        /* \"#utility.yul\":25102:25109   */\n      0x636f756e74000000000000000000000000000000000000000000000000000000\n        /* \"#utility.yul\":25097:25099   */\n      0x20\n        /* \"#utility.yul\":25089:25095   */\n      dup3\n        /* \"#utility.yul\":25085:25100   */\n      add\n        /* \"#utility.yul\":25078:25110   */\n      mstore\n        /* \"#utility.yul\":24893:25117   */\n      pop\n      jump\t// out\n        /* \"#utility.yul\":25123:25489   */\n    tag_249:\n        /* \"#utility.yul\":25265:25268   */\n      0x00\n        /* \"#utility.yul\":25286:25353   */\n      tag_478\n        /* \"#utility.yul\":25350:25352   */\n      0x25\n        /* \"#utility.yul\":25345:25348   */\n      dup4\n        /* \"#utility.yul\":25286:25353   */\n      tag_200\n      jump\t// in\n    tag_478:\n        /* \"#utility.yul\":25279:25353   */\n      swap2\n      pop\n        /* \"#utility.yul\":25362:25455   */\n      tag_479\n        /* \"#utility.yul\":25451:25454   */\n      dup3\n        /* \"#utility.yul\":25362:25455   */\n      tag_248\n      jump\t// in\n    tag_479:\n        /* \"#utility.yul\":25480:25482   */\n      0x40\n        /* \"#utility.yul\":25475:25478   */\n      dup3\n        /* \"#utility.yul\":25471:25483   */\n      add\n        /* \"#utility.yul\":25464:25483   */\n      swap1\n      pop\n        /* \"#utility.yul\":25123:25489   */\n      swap2\n      swap1\n      pop\n      jump\t// out\n        /* \"#utility.yul\":25495:25914   */\n    tag_162:\n        /* \"#utility.yul\":25661:25665   */\n      0x00\n        /* \"#utility.yul\":25699:25701   */\n      0x20\n        /* \"#utility.yul\":25688:25697   */\n      dup3\n        /* \"#utility.yul\":25684:25702   */\n      add\n        /* \"#utility.yul\":25676:25702   */\n      swap1\n      pop\n        /* \"#utility.yul\":25748:25757   */\n      dup2\n        /* \"#utility.yul\":25742:25746   */\n      dup2\n        /* \"#utility.yul\":25738:25758   */\n      sub\n        /* \"#utility.yul\":25734:25735   */\n      0x00\n        /* \"#utility.yul\":25723:25732   */\n      dup4\n        /* \"#utility.yul\":25719:25736   */\n      add\n        /* \"#utility.yul\":25712:25759   */\n      mstore\n        /* \"#utility.yul\":25776:25907   */\n      tag_481\n        /* \"#utility.yul\":25902:25906   */\n      dup2\n        /* \"#utility.yul\":25776:25907   */\n      tag_249\n      jump\t// in\n    tag_481:\n        /* \"#utility.yul\":25768:25907   */\n      swap1\n      pop\n        /* \"#utility.yul\":25495:25914   */\n      swap2\n      swap1\n      pop\n      jump\t// out\n        /* \"#utility.yul\":25920:26114   */\n    tag_173:\n        /* \"#utility.yul\":25960:25964   */\n      0x00\n        /* \"#utility.yul\":25980:26000   */\n      tag_483\n        /* \"#utility.yul\":25998:25999   */\n      dup3\n        /* \"#utility.yul\":25980:26000   */\n      tag_179\n      jump\t// in\n    tag_483:\n        /* \"#utility.yul\":25975:26000   */\n      swap2\n      pop\n        /* \"#utility.yul\":26014:26034   */\n      tag_484\n        /* \"#utility.yul\":26032:26033   */\n      dup4\n        /* \"#utility.yul\":26014:26034   */\n      tag_179\n      jump\t// in\n    tag_484:\n        /* \"#utility.yul\":26009:26034   */\n      swap3\n      pop\n        /* \"#utility.yul\":26058:26059   */\n      dup3\n        /* \"#utility.yul\":26055:26056   */\n      dup3\n        /* \"#utility.yul\":26051:26060   */\n      sub\n        /* \"#utility.yul\":26043:26060   */\n      swap1\n      pop\n        /* \"#utility.yul\":26082:26083   */\n      dup2\n        /* \"#utility.yul\":26076:26080   */\n      dup2\n        /* \"#utility.yul\":26073:26084   */\n      gt\n        /* \"#utility.yul\":26070:26107   */\n      iszero\n      tag_485\n      jumpi\n        /* \"#utility.yul\":26087:26105   */\n      tag_486\n      tag_233\n      jump\t// in\n    tag_486:\n        /* \"#utility.yul\":26070:26107   */\n    tag_485:\n        /* \"#utility.yul\":25920:26114   */\n      swap3\n      swap2\n      pop\n      pop\n      jump\t// out\n        /* \"#utility.yul\":26120:26291   */\n    tag_177:\n        /* \"#utility.yul\":26159:26162   */\n      0x00\n        /* \"#utility.yul\":26182:26206   */\n      tag_488\n        /* \"#utility.yul\":26200:26205   */\n      dup3\n        /* \"#utility.yul\":26182:26206   */\n      tag_179\n      jump\t// in\n    tag_488:\n        /* \"#utility.yul\":26173:26206   */\n      swap2\n      pop\n        /* \"#utility.yul\":26228:26232   */\n      0x00\n        /* \"#utility.yul\":26221:26226   */\n      dup3\n        /* \"#utility.yul\":26218:26233   */\n      sub\n        /* \"#utility.yul\":26215:26256   */\n      tag_489\n      jumpi\n        /* \"#utility.yul\":26236:26254   */\n      tag_490\n      tag_233\n      jump\t// in\n    tag_490:\n        /* \"#utility.yul\":26215:26256   */\n    tag_489:\n        /* \"#utility.yul\":26283:26284   */\n      0x01\n        /* \"#utility.yul\":26276:26281   */\n      dup3\n        /* \"#utility.yul\":26272:26285   */\n      sub\n        /* \"#utility.yul\":26265:26285   */\n      swap1\n      pop\n        /* \"#utility.yul\":26120:26291   */\n      swap2\n      swap1\n      pop\n      jump\t// out\n\n    auxdata: 0xa2646970667358221220fae45488e956ceebb7f3af453212a5ef1892d01818a594c736f0346cb51d0ce764736f6c634300081a0033\n}\n",
				"bytecode": {
					"linkReferences": {},
					"object": "6080604052670de0b6b3a764000060025534801561001b575f80fd5b5060405161214e38038061214e833981810160405281019061003d91906100cb565b335f806101000a81548173ffffffffffffffffffffffffffffffffffffffff021916908373ffffffffffffffffffffffffffffffffffffffff16021790555080426100889190610123565b60018190555050610156565b5f80fd5b5f819050919050565b6100aa81610098565b81146100b4575f80fd5b50565b5f815190506100c5816100a1565b92915050565b5f602082840312156100e0576100df610094565b5b5f6100ed848285016100b7565b91505092915050565b7f4e487b71000000000000000000000000000000000000000000000000000000005f52601160045260245ffd5b5f61012d82610098565b915061013883610098565b92508282019050808211156101505761014f6100f6565b5b92915050565b611feb806101635f395ff3fe6080604052600436106100aa575f3560e01c80636c343ffe116100635780636c343ffe146101bf5780639d083222146101d5578063a6c807a9146101df578063c609f68c1461021c578063ca5140c91461025a578063d6b2746114610282576100b1565b806329dcb0cf146100b3578063481c6a75146100dd5780634d9b3d5d14610107578063637a38721461013157806368744046146101595780636b21ffb614610197576100b1565b366100b157005b005b3480156100be575f80fd5b506100c76102ac565b6040516100d49190611219565b60405180910390f35b3480156100e8575f80fd5b506100f16102b2565b6040516100fe9190611271565b60405180910390f35b348015610112575f80fd5b5061011b6102d5565b6040516101289190611219565b60405180910390f35b34801561013c575f80fd5b5061015760048036038101906101529190611401565b61036a565b005b348015610164575f80fd5b5061017f600480360381019061017a919061145b565b610480565b60405161018e93929190611500565b60405180910390f35b3480156101a2575f80fd5b506101bd60048036038101906101b8919061145b565b610547565b005b3480156101ca575f80fd5b506101d3610819565b005b6101dd61094f565b005b3480156101ea575f80fd5b5061020560048036038101906102009190611566565b610abb565b604051610213929190611591565b60405180910390f35b348015610227575f80fd5b50610242600480360381019061023d919061145b565b610ae7565b60405161025193929190611500565b60405180910390f35b348015610265575f80fd5b50610280600480360381019061027b919061145b565b610c2f565b005b34801561028d575f80fd5b506102966111fb565b6040516102a39190611219565b60405180910390f35b60015481565b5f8054906101000a900473ffffffffffffffffffffffffffffffffffffffff1681565b5f805f9054906101000a900473ffffffffffffffffffffffffffffffffffffffff1673ffffffffffffffffffffffffffffffffffffffff163373ffffffffffffffffffffffffffffffffffffffff1614610364576040517f08c379a000000000000000000000000000000000000000000000000000000000815260040161035b90611628565b60405180910390fd5b47905090565b5f8054906101000a900473ffffffffffffffffffffffffffffffffffffffff1673ffffffffffffffffffffffffffffffffffffffff163373ffffffffffffffffffffffffffffffffffffffff16146103f7576040517f08c379a00000000000000000000000000000000000000000000000000000000081526004016103ee90611690565b60405180910390fd5b6003604051806060016040528084815260200183815260200160011515815250908060018154018082558091505060019003905f5260205f2090600302015f909190919091505f820151815f01908161045091906118a8565b50602082015181600101556040820151816002015f6101000a81548160ff02191690831515021790555050505050565b6003818154811061048f575f80fd5b905f5260205f2090600302015f91509050805f0180546104ae906116db565b80601f01602080910402602001604051908101604052809291908181526020018280546104da906116db565b80156105255780601f106104fc57610100808354040283529160200191610525565b820191905f5260205f20905b81548152906001019060200180831161050857829003601f168201915b505050505090806001015490806002015f9054906101000a900460ff16905083565b600380549050811061058e576040517f08c379a0000000000000000000000000000000000000000000000000000000008152600401610585906119c1565b60405180910390fd5b600381815481106105a2576105a16119df565b5b905f5260205f2090600302016002015f9054906101000a900460ff166105fd576040517f08c379a00000000000000000000000000000000000000000000000000000000081526004016105f490611a56565b60405180910390fd5b600260045f3373ffffffffffffffffffffffffffffffffffffffff1673ffffffffffffffffffffffffffffffffffffffff1681526020019081526020015f206001015410610680576040517f08c379a000000000000000000000000000000000000000000000000000000000815260040161067790611ae4565b60405180910390fd5b5f60038281548110610695576106946119df565b5b905f5260205f2090600302016002015f6101000a81548160ff02191690831515021790555060405180604001604052808281526020014281525060045f3373ffffffffffffffffffffffffffffffffffffffff1673ffffffffffffffffffffffffffffffffffffffff1681526020019081526020015f206002015f60045f3373ffffffffffffffffffffffffffffffffffffffff1673ffffffffffffffffffffffffffffffffffffffff1681526020019081526020015f206001015481526020019081526020015f205f820151815f01556020820151816001015590505060045f3373ffffffffffffffffffffffffffffffffffffffff1673ffffffffffffffffffffffffffffffffffffffff1681526020019081526020015f206001015f8154809291906107c390611b2f565b91905055503373ffffffffffffffffffffffffffffffffffffffff167f84edab31b887a66b8af059a2b9c3c53e440d8b54f65102ae6acc11bf485db9e28260405161080e9190611219565b60405180910390a250565b5f8054906101000a900473ffffffffffffffffffffffffffffffffffffffff1673ffffffffffffffffffffffffffffffffffffffff163373ffffffffffffffffffffffffffffffffffffffff16146108a6576040517f08c379a000000000000000000000000000000000000000000000000000000000815260040161089d90611690565b60405180910390fd5b60015442116108ea576040517f08c379a00000000000000000000000000000000000000000000000000000000081526004016108e190611be6565b60405180910390fd5b5f8054906101000a900473ffffffffffffffffffffffffffffffffffffffff1673ffffffffffffffffffffffffffffffffffffffff166108fc4790811502906040515f60405180830381858888f1935050505015801561094c573d5f803e3d5ffd5b50565b6002543414610993576040517f08c379a000000000000000000000000000000000000000000000000000000000815260040161098a90611c74565b60405180910390fd5b60045f3373ffffffffffffffffffffffffffffffffffffffff1673ffffffffffffffffffffffffffffffffffffffff1681526020019081526020015f205f015f9054906101000a900460ff1615610a1f576040517f08c379a0000000000000000000000000000000000000000000000000000000008152600401610a1690611cdc565b60405180910390fd5b600160045f3373ffffffffffffffffffffffffffffffffffffffff1673ffffffffffffffffffffffffffffffffffffffff1681526020019081526020015f205f015f6101000a81548160ff0219169083151502179055503373ffffffffffffffffffffffffffffffffffffffff167f59b0c23c5a97a8e6d0985d27b23833bae2e892eb6811832e87e369986372283860405160405180910390a2565b6004602052805f5260405f205f91509050805f015f9054906101000a900460ff16908060010154905082565b60605f806003805490508410610b32576040517f08c379a0000000000000000000000000000000000000000000000000000000008152600401610b2990611d44565b60405180910390fd5b5f60038581548110610b4757610b466119df565b5b905f5260205f2090600302016040518060600160405290815f82018054610b6d906116db565b80601f0160208091040260200160405190810160405280929190818152602001828054610b99906116db565b8015610be45780601f10610bbb57610100808354040283529160200191610be4565b820191905f5260205f20905b815481529060010190602001808311610bc757829003601f168201915b5050505050815260200160018201548152602001600282015f9054906101000a900460ff1615151515815250509050805f015181602001518260400151935093509350509193909250565b60045f3373ffffffffffffffffffffffffffffffffffffffff1673ffffffffffffffffffffffffffffffffffffffff1681526020019081526020015f205f015f9054906101000a900460ff16610cba576040517f08c379a0000000000000000000000000000000000000000000000000000000008152600401610cb190611dac565b60405180910390fd5b60045f3373ffffffffffffffffffffffffffffffffffffffff1673ffffffffffffffffffffffffffffffffffffffff1681526020019081526020015f20600101548110610d3c576040517f08c379a0000000000000000000000000000000000000000000000000000000008152600401610d3390611e14565b60405180910390fd5b5f60045f3373ffffffffffffffffffffffffffffffffffffffff1673ffffffffffffffffffffffffffffffffffffffff1681526020019081526020015f206002015f8381526020019081526020015f206040518060400160405290815f820154815260200160018201548152505090505f815f015190506003805490508110610dfa576040517f08c379a0000000000000000000000000000000000000000000000000000000008152600401610df190611e7c565b60405180910390fd5b6001548260200151610e0c9190611e9a565b421115610f47575f60038281548110610e2857610e276119df565b5b905f5260205f209060030201600101549050803373ffffffffffffffffffffffffffffffffffffffff16311015610e94576040517f08c379a0000000000000000000000000000000000000000000000000000000008152600401610e8b90611f3d565b60405180910390fd5b5f8054906101000a900473ffffffffffffffffffffffffffffffffffffffff1673ffffffffffffffffffffffffffffffffffffffff166108fc8290811502906040515f60405180830381858888f19350505050158015610ef6573d5f803e3d5ffd5b503373ffffffffffffffffffffffffffffffffffffffff167f1b4b1ab7aa7799c2071a3b350ab2454c23b380010dd29135206b1ea84b3600ab82604051610f3d9190611219565b60405180910390a2505b600160038281548110610f5d57610f5c6119df565b5b905f5260205f2090600302016002015f6101000a81548160ff0219169083151502179055505f8390505b600160045f3373ffffffffffffffffffffffffffffffffffffffff1673ffffffffffffffffffffffffffffffffffffffff1681526020019081526020015f2060010154610fd49190611f5b565b8110156110a75760045f3373ffffffffffffffffffffffffffffffffffffffff1673ffffffffffffffffffffffffffffffffffffffff1681526020019081526020015f206002015f6001836110299190611e9a565b81526020019081526020015f2060045f3373ffffffffffffffffffffffffffffffffffffffff1673ffffffffffffffffffffffffffffffffffffffff1681526020019081526020015f206002015f8381526020019081526020015f205f820154815f0155600182015481600101559050508080600101915050610f87565b5060045f3373ffffffffffffffffffffffffffffffffffffffff1673ffffffffffffffffffffffffffffffffffffffff1681526020019081526020015f206002015f600160045f3373ffffffffffffffffffffffffffffffffffffffff1673ffffffffffffffffffffffffffffffffffffffff1681526020019081526020015f20600101546111369190611f5b565b81526020019081526020015f205f8082015f9055600182015f9055505060045f3373ffffffffffffffffffffffffffffffffffffffff1673ffffffffffffffffffffffffffffffffffffffff1681526020019081526020015f206001015f8154809291906111a390611f8e565b91905055503373ffffffffffffffffffffffffffffffffffffffff167ffc4aa72d872118be90bd96befc9ca2d792220107618a078d83eef022995792d7826040516111ee9190611219565b60405180910390a2505050565b60025481565b5f819050919050565b61121381611201565b82525050565b5f60208201905061122c5f83018461120a565b92915050565b5f73ffffffffffffffffffffffffffffffffffffffff82169050919050565b5f61125b82611232565b9050919050565b61126b81611251565b82525050565b5f6020820190506112845f830184611262565b92915050565b5f604051905090565b5f80fd5b5f80fd5b5f80fd5b5f80fd5b5f601f19601f8301169050919050565b7f4e487b71000000000000000000000000000000000000000000000000000000005f52604160045260245ffd5b6112e9826112a3565b810181811067ffffffffffffffff82111715611308576113076112b3565b5b80604052505050565b5f61131a61128a565b905061132682826112e0565b919050565b5f67ffffffffffffffff821115611345576113446112b3565b5b61134e826112a3565b9050602081019050919050565b828183375f83830152505050565b5f61137b6113768461132b565b611311565b9050828152602081018484840111156113975761139661129f565b5b6113a284828561135b565b509392505050565b5f82601f8301126113be576113bd61129b565b5b81356113ce848260208601611369565b91505092915050565b6113e081611201565b81146113ea575f80fd5b50565b5f813590506113fb816113d7565b92915050565b5f806040838503121561141757611416611293565b5b5f83013567ffffffffffffffff81111561143457611433611297565b5b611440858286016113aa565b9250506020611451858286016113ed565b9150509250929050565b5f602082840312156114705761146f611293565b5b5f61147d848285016113ed565b91505092915050565b5f81519050919050565b5f82825260208201905092915050565b8281835e5f83830152505050565b5f6114b882611486565b6114c28185611490565b93506114d28185602086016114a0565b6114db816112a3565b840191505092915050565b5f8115159050919050565b6114fa816114e6565b82525050565b5f6060820190508181035f83015261151881866114ae565b9050611527602083018561120a565b61153460408301846114f1565b949350505050565b61154581611251565b811461154f575f80fd5b50565b5f813590506115608161153c565b92915050565b5f6020828403121561157b5761157a611293565b5b5f61158884828501611552565b91505092915050565b5f6040820190506115a45f8301856114f1565b6115b1602083018461120a565b9392505050565b7f796f752063616e6e6f742067657420616365737320746f207468652062616c615f8201527f6e63650000000000000000000000000000000000000000000000000000000000602082015250565b5f611612602383611490565b915061161d826115b8565b604082019050919050565b5f6020820190508181035f83015261163f81611606565b9050919050565b7f596f206469646e6f7420686176652074686520616365737300000000000000005f82015250565b5f61167a601883611490565b915061168582611646565b602082019050919050565b5f6020820190508181035f8301526116a78161166e565b9050919050565b7f4e487b71000000000000000000000000000000000000000000000000000000005f52602260045260245ffd5b5f60028204905060018216806116f257607f821691505b602082108103611705576117046116ae565b5b50919050565b5f819050815f5260205f209050919050565b5f6020601f8301049050919050565b5f82821b905092915050565b5f600883026117677fffffffffffffffffffffffffffffffffffffffffffffffffffffffffffffffff8261172c565b611771868361172c565b95508019841693508086168417925050509392505050565b5f819050919050565b5f6117ac6117a76117a284611201565b611789565b611201565b9050919050565b5f819050919050565b6117c583611792565b6117d96117d1826117b3565b848454611738565b825550505050565b5f90565b6117ed6117e1565b6117f88184846117bc565b505050565b5b8181101561181b576118105f826117e5565b6001810190506117fe565b5050565b601f821115611860576118318161170b565b61183a8461171d565b81016020851015611849578190505b61185d6118558561171d565b8301826117fd565b50505b505050565b5f82821c905092915050565b5f6118805f1984600802611865565b1980831691505092915050565b5f6118988383611871565b9150826002028217905092915050565b6118b182611486565b67ffffffffffffffff8111156118ca576118c96112b3565b5b6118d482546116db565b6118df82828561181f565b5f60209050601f831160018114611910575f84156118fe578287015190505b611908858261188d565b86555061196f565b601f19841661191e8661170b565b5f5b8281101561194557848901518255600182019150602085019450602081019050611920565b86831015611962578489015161195e601f891682611871565b8355505b6001600288020188555050505b505050505050565b7f4e6f20626f6f6b20617661696c61626c650000000000000000000000000000005f82015250565b5f6119ab601183611490565b91506119b682611977565b602082019050919050565b5f6020820190508181035f8301526119d88161199f565b9050919050565b7f4e487b71000000000000000000000000000000000000000000000000000000005f52603260045260245ffd5b7f54686520626f6f6b206973206e6f7420617661696c61626c65000000000000005f82015250565b5f611a40601983611490565b9150611a4b82611a0c565b602082019050919050565b5f6020820190508181035f830152611a6d81611a34565b9050919050565b7f596f75722063616e6e6f7420626f72726f77206d6f7265207468616e203220625f8201527f6f6f6b7300000000000000000000000000000000000000000000000000000000602082015250565b5f611ace602483611490565b9150611ad982611a74565b604082019050919050565b5f6020820190508181035f830152611afb81611ac2565b9050919050565b7f4e487b71000000000000000000000000000000000000000000000000000000005f52601160045260245ffd5b5f611b3982611201565b91507fffffffffffffffffffffffffffffffffffffffffffffffffffffffffffffffff8203611b6b57611b6a611b02565b5b600182019050919050565b7f497473206e6f742074696d6520746f20776974686472617720746865206d6f6e5f8201527f6579206d616e6167657200000000000000000000000000000000000000000000602082015250565b5f611bd0602a83611490565b9150611bdb82611b76565b604082019050919050565b5f6020820190508181035f830152611bfd81611bc4565b9050919050565b7f54686520616d6f756e74206973206e6f742073756666696369656e7420746f205f8201527f6265636f6d65206d656d62657200000000000000000000000000000000000000602082015250565b5f611c5e602d83611490565b9150611c6982611c04565b604082019050919050565b5f6020820190508181035f830152611c8b81611c52565b9050919050565b7f596f752061726520616c72656164792061206d656d62657200000000000000005f82015250565b5f611cc6601883611490565b9150611cd182611c92565b602082019050919050565b5f6020820190508181035f830152611cf381611cba565b9050919050565b7f4e6f2076616c696420626f6f6b206964000000000000000000000000000000005f82015250565b5f611d2e601083611490565b9150611d3982611cfa565b602082019050919050565b5f6020820190508181035f830152611d5b81611d22565b9050919050565b7f596f7520617265206e6f7420746865206d656d626572000000000000000000005f82015250565b5f611d96601683611490565b9150611da182611d62565b602082019050919050565b5f6020820190508181035f830152611dc381611d8a565b9050919050565b7f696e76616c696420696e646578206d656e74696f6e65640000000000000000005f82015250565b5f611dfe601783611490565b9150611e0982611dca565b602082019050919050565b5f6020820190508181035f830152611e2b81611df2565b9050919050565b7f496e76616c696420626f6f6b20696400000000000000000000000000000000005f82015250565b5f611e66600f83611490565b9150611e7182611e32565b602082019050919050565b5f6020820190508181035f830152611e9381611e5a565b9050919050565b5f611ea482611201565b9150611eaf83611201565b9250828201905080821115611ec757611ec6611b02565b5b92915050565b7f4e6f2073756666696369656e742062616c616e636520696e20796f75722061635f8201527f636f756e74000000000000000000000000000000000000000000000000000000602082015250565b5f611f27602583611490565b9150611f3282611ecd565b604082019050919050565b5f6020820190508181035f830152611f5481611f1b565b9050919050565b5f611f6582611201565b9150611f7083611201565b9250828203905081811115611f8857611f87611b02565b5b92915050565b5f611f9882611201565b91505f8203611faa57611fa9611b02565b5b60018203905091905056fea2646970667358221220fae45488e956ceebb7f3af453212a5ef1892d01818a594c736f0346cb51d0ce764736f6c634300081a0033",
					"opcodes": "PUSH1 0x80 PUSH1 0x40 MSTORE PUSH8 0xDE0B6B3A7640000 PUSH1 0x2 SSTORE CALLVALUE DUP1 ISZERO PUSH2 0x1B JUMPI PUSH0 DUP1 REVERT JUMPDEST POP PUSH1 0x40 MLOAD PUSH2 0x214E CODESIZE SUB DUP1 PUSH2 0x214E DUP4 CODECOPY DUP2 DUP2 ADD PUSH1 0x40 MSTORE DUP2 ADD SWAP1 PUSH2 0x3D SWAP2 SWAP1 PUSH2 0xCB JUMP JUMPDEST CALLER PUSH0 DUP1 PUSH2 0x100 EXP DUP2 SLOAD DUP2 PUSH20 0xFFFFFFFFFFFFFFFFFFFFFFFFFFFFFFFFFFFFFFFF MUL NOT AND SWAP1 DUP4 PUSH20 0xFFFFFFFFFFFFFFFFFFFFFFFFFFFFFFFFFFFFFFFF AND MUL OR SWAP1 SSTORE POP DUP1 TIMESTAMP PUSH2 0x88 SWAP2 SWAP1 PUSH2 0x123 JUMP JUMPDEST PUSH1 0x1 DUP2 SWAP1 SSTORE POP POP PUSH2 0x156 JUMP JUMPDEST PUSH0 DUP1 REVERT JUMPDEST PUSH0 DUP2 SWAP1 POP SWAP2 SWAP1 POP JUMP JUMPDEST PUSH2 0xAA DUP2 PUSH2 0x98 JUMP JUMPDEST DUP2 EQ PUSH2 0xB4 JUMPI PUSH0 DUP1 REVERT JUMPDEST POP JUMP JUMPDEST PUSH0 DUP2 MLOAD SWAP1 POP PUSH2 0xC5 DUP2 PUSH2 0xA1 JUMP JUMPDEST SWAP3 SWAP2 POP POP JUMP JUMPDEST PUSH0 PUSH1 0x20 DUP3 DUP5 SUB SLT ISZERO PUSH2 0xE0 JUMPI PUSH2 0xDF PUSH2 0x94 JUMP JUMPDEST JUMPDEST PUSH0 PUSH2 0xED DUP5 DUP3 DUP6 ADD PUSH2 0xB7 JUMP JUMPDEST SWAP2 POP POP SWAP3 SWAP2 POP POP JUMP JUMPDEST PUSH32 0x4E487B7100000000000000000000000000000000000000000000000000000000 PUSH0 MSTORE PUSH1 0x11 PUSH1 0x4 MSTORE PUSH1 0x24 PUSH0 REVERT JUMPDEST PUSH0 PUSH2 0x12D DUP3 PUSH2 0x98 JUMP JUMPDEST SWAP2 POP PUSH2 0x138 DUP4 PUSH2 0x98 JUMP JUMPDEST SWAP3 POP DUP3 DUP3 ADD SWAP1 POP DUP1 DUP3 GT ISZERO PUSH2 0x150 JUMPI PUSH2 0x14F PUSH2 0xF6 JUMP JUMPDEST JUMPDEST SWAP3 SWAP2 POP POP JUMP JUMPDEST PUSH2 0x1FEB DUP1 PUSH2 0x163 PUSH0 CODECOPY PUSH0 RETURN INVALID PUSH1 0x80 PUSH1 0x40 MSTORE PUSH1 0x4 CALLDATASIZE LT PUSH2 0xAA JUMPI PUSH0 CALLDATALOAD PUSH1 0xE0 SHR DUP1 PUSH4 0x6C343FFE GT PUSH2 0x63 JUMPI DUP1 PUSH4 0x6C343FFE EQ PUSH2 0x1BF JUMPI DUP1 PUSH4 0x9D083222 EQ PUSH2 0x1D5 JUMPI DUP1 PUSH4 0xA6C807A9 EQ PUSH2 0x1DF JUMPI DUP1 PUSH4 0xC609F68C EQ PUSH2 0x21C JUMPI DUP1 PUSH4 0xCA5140C9 EQ PUSH2 0x25A JUMPI DUP1 PUSH4 0xD6B27461 EQ PUSH2 0x282 JUMPI PUSH2 0xB1 JUMP JUMPDEST DUP1 PUSH4 0x29DCB0CF EQ PUSH2 0xB3 JUMPI DUP1 PUSH4 0x481C6A75 EQ PUSH2 0xDD JUMPI DUP1 PUSH4 0x4D9B3D5D EQ PUSH2 0x107 JUMPI DUP1 PUSH4 0x637A3872 EQ PUSH2 0x131 JUMPI DUP1 PUSH4 0x68744046 EQ PUSH2 0x159 JUMPI DUP1 PUSH4 0x6B21FFB6 EQ PUSH2 0x197 JUMPI PUSH2 0xB1 JUMP JUMPDEST CALLDATASIZE PUSH2 0xB1 JUMPI STOP JUMPDEST STOP JUMPDEST CALLVALUE DUP1 ISZERO PUSH2 0xBE JUMPI PUSH0 DUP1 REVERT JUMPDEST POP PUSH2 0xC7 PUSH2 0x2AC JUMP JUMPDEST PUSH1 0x40 MLOAD PUSH2 0xD4 SWAP2 SWAP1 PUSH2 0x1219 JUMP JUMPDEST PUSH1 0x40 MLOAD DUP1 SWAP2 SUB SWAP1 RETURN JUMPDEST CALLVALUE DUP1 ISZERO PUSH2 0xE8 JUMPI PUSH0 DUP1 REVERT JUMPDEST POP PUSH2 0xF1 PUSH2 0x2B2 JUMP JUMPDEST PUSH1 0x40 MLOAD PUSH2 0xFE SWAP2 SWAP1 PUSH2 0x1271 JUMP JUMPDEST PUSH1 0x40 MLOAD DUP1 SWAP2 SUB SWAP1 RETURN JUMPDEST CALLVALUE DUP1 ISZERO PUSH2 0x112 JUMPI PUSH0 DUP1 REVERT JUMPDEST POP PUSH2 0x11B PUSH2 0x2D5 JUMP JUMPDEST PUSH1 0x40 MLOAD PUSH2 0x128 SWAP2 SWAP1 PUSH2 0x1219 JUMP JUMPDEST PUSH1 0x40 MLOAD DUP1 SWAP2 SUB SWAP1 RETURN JUMPDEST CALLVALUE DUP1 ISZERO PUSH2 0x13C JUMPI PUSH0 DUP1 REVERT JUMPDEST POP PUSH2 0x157 PUSH1 0x4 DUP1 CALLDATASIZE SUB DUP2 ADD SWAP1 PUSH2 0x152 SWAP2 SWAP1 PUSH2 0x1401 JUMP JUMPDEST PUSH2 0x36A JUMP JUMPDEST STOP JUMPDEST CALLVALUE DUP1 ISZERO PUSH2 0x164 JUMPI PUSH0 DUP1 REVERT JUMPDEST POP PUSH2 0x17F PUSH1 0x4 DUP1 CALLDATASIZE SUB DUP2 ADD SWAP1 PUSH2 0x17A SWAP2 SWAP1 PUSH2 0x145B JUMP JUMPDEST PUSH2 0x480 JUMP JUMPDEST PUSH1 0x40 MLOAD PUSH2 0x18E SWAP4 SWAP3 SWAP2 SWAP1 PUSH2 0x1500 JUMP JUMPDEST PUSH1 0x40 MLOAD DUP1 SWAP2 SUB SWAP1 RETURN JUMPDEST CALLVALUE DUP1 ISZERO PUSH2 0x1A2 JUMPI PUSH0 DUP1 REVERT JUMPDEST POP PUSH2 0x1BD PUSH1 0x4 DUP1 CALLDATASIZE SUB DUP2 ADD SWAP1 PUSH2 0x1B8 SWAP2 SWAP1 PUSH2 0x145B JUMP JUMPDEST PUSH2 0x547 JUMP JUMPDEST STOP JUMPDEST CALLVALUE DUP1 ISZERO PUSH2 0x1CA JUMPI PUSH0 DUP1 REVERT JUMPDEST POP PUSH2 0x1D3 PUSH2 0x819 JUMP JUMPDEST STOP JUMPDEST PUSH2 0x1DD PUSH2 0x94F JUMP JUMPDEST STOP JUMPDEST CALLVALUE DUP1 ISZERO PUSH2 0x1EA JUMPI PUSH0 DUP1 REVERT JUMPDEST POP PUSH2 0x205 PUSH1 0x4 DUP1 CALLDATASIZE SUB DUP2 ADD SWAP1 PUSH2 0x200 SWAP2 SWAP1 PUSH2 0x1566 JUMP JUMPDEST PUSH2 0xABB JUMP JUMPDEST PUSH1 0x40 MLOAD PUSH2 0x213 SWAP3 SWAP2 SWAP1 PUSH2 0x1591 JUMP JUMPDEST PUSH1 0x40 MLOAD DUP1 SWAP2 SUB SWAP1 RETURN JUMPDEST CALLVALUE DUP1 ISZERO PUSH2 0x227 JUMPI PUSH0 DUP1 REVERT JUMPDEST POP PUSH2 0x242 PUSH1 0x4 DUP1 CALLDATASIZE SUB DUP2 ADD SWAP1 PUSH2 0x23D SWAP2 SWAP1 PUSH2 0x145B JUMP JUMPDEST PUSH2 0xAE7 JUMP JUMPDEST PUSH1 0x40 MLOAD PUSH2 0x251 SWAP4 SWAP3 SWAP2 SWAP1 PUSH2 0x1500 JUMP JUMPDEST PUSH1 0x40 MLOAD DUP1 SWAP2 SUB SWAP1 RETURN JUMPDEST CALLVALUE DUP1 ISZERO PUSH2 0x265 JUMPI PUSH0 DUP1 REVERT JUMPDEST POP PUSH2 0x280 PUSH1 0x4 DUP1 CALLDATASIZE SUB DUP2 ADD SWAP1 PUSH2 0x27B SWAP2 SWAP1 PUSH2 0x145B JUMP JUMPDEST PUSH2 0xC2F JUMP JUMPDEST STOP JUMPDEST CALLVALUE DUP1 ISZERO PUSH2 0x28D JUMPI PUSH0 DUP1 REVERT JUMPDEST POP PUSH2 0x296 PUSH2 0x11FB JUMP JUMPDEST PUSH1 0x40 MLOAD PUSH2 0x2A3 SWAP2 SWAP1 PUSH2 0x1219 JUMP JUMPDEST PUSH1 0x40 MLOAD DUP1 SWAP2 SUB SWAP1 RETURN JUMPDEST PUSH1 0x1 SLOAD DUP2 JUMP JUMPDEST PUSH0 DUP1 SLOAD SWAP1 PUSH2 0x100 EXP SWAP1 DIV PUSH20 0xFFFFFFFFFFFFFFFFFFFFFFFFFFFFFFFFFFFFFFFF AND DUP2 JUMP JUMPDEST PUSH0 DUP1 PUSH0 SWAP1 SLOAD SWAP1 PUSH2 0x100 EXP SWAP1 DIV PUSH20 0xFFFFFFFFFFFFFFFFFFFFFFFFFFFFFFFFFFFFFFFF AND PUSH20 0xFFFFFFFFFFFFFFFFFFFFFFFFFFFFFFFFFFFFFFFF AND CALLER PUSH20 0xFFFFFFFFFFFFFFFFFFFFFFFFFFFFFFFFFFFFFFFF AND EQ PUSH2 0x364 JUMPI PUSH1 0x40 MLOAD PUSH32 0x8C379A000000000000000000000000000000000000000000000000000000000 DUP2 MSTORE PUSH1 0x4 ADD PUSH2 0x35B SWAP1 PUSH2 0x1628 JUMP JUMPDEST PUSH1 0x40 MLOAD DUP1 SWAP2 SUB SWAP1 REVERT JUMPDEST SELFBALANCE SWAP1 POP SWAP1 JUMP JUMPDEST PUSH0 DUP1 SLOAD SWAP1 PUSH2 0x100 EXP SWAP1 DIV PUSH20 0xFFFFFFFFFFFFFFFFFFFFFFFFFFFFFFFFFFFFFFFF AND PUSH20 0xFFFFFFFFFFFFFFFFFFFFFFFFFFFFFFFFFFFFFFFF AND CALLER PUSH20 0xFFFFFFFFFFFFFFFFFFFFFFFFFFFFFFFFFFFFFFFF AND EQ PUSH2 0x3F7 JUMPI PUSH1 0x40 MLOAD PUSH32 0x8C379A000000000000000000000000000000000000000000000000000000000 DUP2 MSTORE PUSH1 0x4 ADD PUSH2 0x3EE SWAP1 PUSH2 0x1690 JUMP JUMPDEST PUSH1 0x40 MLOAD DUP1 SWAP2 SUB SWAP1 REVERT JUMPDEST PUSH1 0x3 PUSH1 0x40 MLOAD DUP1 PUSH1 0x60 ADD PUSH1 0x40 MSTORE DUP1 DUP5 DUP2 MSTORE PUSH1 0x20 ADD DUP4 DUP2 MSTORE PUSH1 0x20 ADD PUSH1 0x1 ISZERO ISZERO DUP2 MSTORE POP SWAP1 DUP1 PUSH1 0x1 DUP2 SLOAD ADD DUP1 DUP3 SSTORE DUP1 SWAP2 POP POP PUSH1 0x1 SWAP1 SUB SWAP1 PUSH0 MSTORE PUSH1 0x20 PUSH0 KECCAK256 SWAP1 PUSH1 0x3 MUL ADD PUSH0 SWAP1 SWAP2 SWAP1 SWAP2 SWAP1 SWAP2 POP PUSH0 DUP3 ADD MLOAD DUP2 PUSH0 ADD SWAP1 DUP2 PUSH2 0x450 SWAP2 SWAP1 PUSH2 0x18A8 JUMP JUMPDEST POP PUSH1 0x20 DUP3 ADD MLOAD DUP2 PUSH1 0x1 ADD SSTORE PUSH1 0x40 DUP3 ADD MLOAD DUP2 PUSH1 0x2 ADD PUSH0 PUSH2 0x100 EXP DUP2 SLOAD DUP2 PUSH1 0xFF MUL NOT AND SWAP1 DUP4 ISZERO ISZERO MUL OR SWAP1 SSTORE POP POP POP POP POP JUMP JUMPDEST PUSH1 0x3 DUP2 DUP2 SLOAD DUP2 LT PUSH2 0x48F JUMPI PUSH0 DUP1 REVERT JUMPDEST SWAP1 PUSH0 MSTORE PUSH1 0x20 PUSH0 KECCAK256 SWAP1 PUSH1 0x3 MUL ADD PUSH0 SWAP2 POP SWAP1 POP DUP1 PUSH0 ADD DUP1 SLOAD PUSH2 0x4AE SWAP1 PUSH2 0x16DB JUMP JUMPDEST DUP1 PUSH1 0x1F ADD PUSH1 0x20 DUP1 SWAP2 DIV MUL PUSH1 0x20 ADD PUSH1 0x40 MLOAD SWAP1 DUP2 ADD PUSH1 0x40 MSTORE DUP1 SWAP3 SWAP2 SWAP1 DUP2 DUP2 MSTORE PUSH1 0x20 ADD DUP3 DUP1 SLOAD PUSH2 0x4DA SWAP1 PUSH2 0x16DB JUMP JUMPDEST DUP1 ISZERO PUSH2 0x525 JUMPI DUP1 PUSH1 0x1F LT PUSH2 0x4FC JUMPI PUSH2 0x100 DUP1 DUP4 SLOAD DIV MUL DUP4 MSTORE SWAP2 PUSH1 0x20 ADD SWAP2 PUSH2 0x525 JUMP JUMPDEST DUP3 ADD SWAP2 SWAP1 PUSH0 MSTORE PUSH1 0x20 PUSH0 KECCAK256 SWAP1 JUMPDEST DUP2 SLOAD DUP2 MSTORE SWAP1 PUSH1 0x1 ADD SWAP1 PUSH1 0x20 ADD DUP1 DUP4 GT PUSH2 0x508 JUMPI DUP3 SWAP1 SUB PUSH1 0x1F AND DUP3 ADD SWAP2 JUMPDEST POP POP POP POP POP SWAP1 DUP1 PUSH1 0x1 ADD SLOAD SWAP1 DUP1 PUSH1 0x2 ADD PUSH0 SWAP1 SLOAD SWAP1 PUSH2 0x100 EXP SWAP1 DIV PUSH1 0xFF AND SWAP1 POP DUP4 JUMP JUMPDEST PUSH1 0x3 DUP1 SLOAD SWAP1 POP DUP2 LT PUSH2 0x58E JUMPI PUSH1 0x40 MLOAD PUSH32 0x8C379A000000000000000000000000000000000000000000000000000000000 DUP2 MSTORE PUSH1 0x4 ADD PUSH2 0x585 SWAP1 PUSH2 0x19C1 JUMP JUMPDEST PUSH1 0x40 MLOAD DUP1 SWAP2 SUB SWAP1 REVERT JUMPDEST PUSH1 0x3 DUP2 DUP2 SLOAD DUP2 LT PUSH2 0x5A2 JUMPI PUSH2 0x5A1 PUSH2 0x19DF JUMP JUMPDEST JUMPDEST SWAP1 PUSH0 MSTORE PUSH1 0x20 PUSH0 KECCAK256 SWAP1 PUSH1 0x3 MUL ADD PUSH1 0x2 ADD PUSH0 SWAP1 SLOAD SWAP1 PUSH2 0x100 EXP SWAP1 DIV PUSH1 0xFF AND PUSH2 0x5FD JUMPI PUSH1 0x40 MLOAD PUSH32 0x8C379A000000000000000000000000000000000000000000000000000000000 DUP2 MSTORE PUSH1 0x4 ADD PUSH2 0x5F4 SWAP1 PUSH2 0x1A56 JUMP JUMPDEST PUSH1 0x40 MLOAD DUP1 SWAP2 SUB SWAP1 REVERT JUMPDEST PUSH1 0x2 PUSH1 0x4 PUSH0 CALLER PUSH20 0xFFFFFFFFFFFFFFFFFFFFFFFFFFFFFFFFFFFFFFFF AND PUSH20 0xFFFFFFFFFFFFFFFFFFFFFFFFFFFFFFFFFFFFFFFF AND DUP2 MSTORE PUSH1 0x20 ADD SWAP1 DUP2 MSTORE PUSH1 0x20 ADD PUSH0 KECCAK256 PUSH1 0x1 ADD SLOAD LT PUSH2 0x680 JUMPI PUSH1 0x40 MLOAD PUSH32 0x8C379A000000000000000000000000000000000000000000000000000000000 DUP2 MSTORE PUSH1 0x4 ADD PUSH2 0x677 SWAP1 PUSH2 0x1AE4 JUMP JUMPDEST PUSH1 0x40 MLOAD DUP1 SWAP2 SUB SWAP1 REVERT JUMPDEST PUSH0 PUSH1 0x3 DUP3 DUP2 SLOAD DUP2 LT PUSH2 0x695 JUMPI PUSH2 0x694 PUSH2 0x19DF JUMP JUMPDEST JUMPDEST SWAP1 PUSH0 MSTORE PUSH1 0x20 PUSH0 KECCAK256 SWAP1 PUSH1 0x3 MUL ADD PUSH1 0x2 ADD PUSH0 PUSH2 0x100 EXP DUP2 SLOAD DUP2 PUSH1 0xFF MUL NOT AND SWAP1 DUP4 ISZERO ISZERO MUL OR SWAP1 SSTORE POP PUSH1 0x40 MLOAD DUP1 PUSH1 0x40 ADD PUSH1 0x40 MSTORE DUP1 DUP3 DUP2 MSTORE PUSH1 0x20 ADD TIMESTAMP DUP2 MSTORE POP PUSH1 0x4 PUSH0 CALLER PUSH20 0xFFFFFFFFFFFFFFFFFFFFFFFFFFFFFFFFFFFFFFFF AND PUSH20 0xFFFFFFFFFFFFFFFFFFFFFFFFFFFFFFFFFFFFFFFF AND DUP2 MSTORE PUSH1 0x20 ADD SWAP1 DUP2 MSTORE PUSH1 0x20 ADD PUSH0 KECCAK256 PUSH1 0x2 ADD PUSH0 PUSH1 0x4 PUSH0 CALLER PUSH20 0xFFFFFFFFFFFFFFFFFFFFFFFFFFFFFFFFFFFFFFFF AND PUSH20 0xFFFFFFFFFFFFFFFFFFFFFFFFFFFFFFFFFFFFFFFF AND DUP2 MSTORE PUSH1 0x20 ADD SWAP1 DUP2 MSTORE PUSH1 0x20 ADD PUSH0 KECCAK256 PUSH1 0x1 ADD SLOAD DUP2 MSTORE PUSH1 0x20 ADD SWAP1 DUP2 MSTORE PUSH1 0x20 ADD PUSH0 KECCAK256 PUSH0 DUP3 ADD MLOAD DUP2 PUSH0 ADD SSTORE PUSH1 0x20 DUP3 ADD MLOAD DUP2 PUSH1 0x1 ADD SSTORE SWAP1 POP POP PUSH1 0x4 PUSH0 CALLER PUSH20 0xFFFFFFFFFFFFFFFFFFFFFFFFFFFFFFFFFFFFFFFF AND PUSH20 0xFFFFFFFFFFFFFFFFFFFFFFFFFFFFFFFFFFFFFFFF AND DUP2 MSTORE PUSH1 0x20 ADD SWAP1 DUP2 MSTORE PUSH1 0x20 ADD PUSH0 KECCAK256 PUSH1 0x1 ADD PUSH0 DUP2 SLOAD DUP1 SWAP3 SWAP2 SWAP1 PUSH2 0x7C3 SWAP1 PUSH2 0x1B2F JUMP JUMPDEST SWAP2 SWAP1 POP SSTORE POP CALLER PUSH20 0xFFFFFFFFFFFFFFFFFFFFFFFFFFFFFFFFFFFFFFFF AND PUSH32 0x84EDAB31B887A66B8AF059A2B9C3C53E440D8B54F65102AE6ACC11BF485DB9E2 DUP3 PUSH1 0x40 MLOAD PUSH2 0x80E SWAP2 SWAP1 PUSH2 0x1219 JUMP JUMPDEST PUSH1 0x40 MLOAD DUP1 SWAP2 SUB SWAP1 LOG2 POP JUMP JUMPDEST PUSH0 DUP1 SLOAD SWAP1 PUSH2 0x100 EXP SWAP1 DIV PUSH20 0xFFFFFFFFFFFFFFFFFFFFFFFFFFFFFFFFFFFFFFFF AND PUSH20 0xFFFFFFFFFFFFFFFFFFFFFFFFFFFFFFFFFFFFFFFF AND CALLER PUSH20 0xFFFFFFFFFFFFFFFFFFFFFFFFFFFFFFFFFFFFFFFF AND EQ PUSH2 0x8A6 JUMPI PUSH1 0x40 MLOAD PUSH32 0x8C379A000000000000000000000000000000000000000000000000000000000 DUP2 MSTORE PUSH1 0x4 ADD PUSH2 0x89D SWAP1 PUSH2 0x1690 JUMP JUMPDEST PUSH1 0x40 MLOAD DUP1 SWAP2 SUB SWAP1 REVERT JUMPDEST PUSH1 0x1 SLOAD TIMESTAMP GT PUSH2 0x8EA JUMPI PUSH1 0x40 MLOAD PUSH32 0x8C379A000000000000000000000000000000000000000000000000000000000 DUP2 MSTORE PUSH1 0x4 ADD PUSH2 0x8E1 SWAP1 PUSH2 0x1BE6 JUMP JUMPDEST PUSH1 0x40 MLOAD DUP1 SWAP2 SUB SWAP1 REVERT JUMPDEST PUSH0 DUP1 SLOAD SWAP1 PUSH2 0x100 EXP SWAP1 DIV PUSH20 0xFFFFFFFFFFFFFFFFFFFFFFFFFFFFFFFFFFFFFFFF AND PUSH20 0xFFFFFFFFFFFFFFFFFFFFFFFFFFFFFFFFFFFFFFFF AND PUSH2 0x8FC SELFBALANCE SWAP1 DUP2 ISZERO MUL SWAP1 PUSH1 0x40 MLOAD PUSH0 PUSH1 0x40 MLOAD DUP1 DUP4 SUB DUP2 DUP6 DUP9 DUP9 CALL SWAP4 POP POP POP POP ISZERO DUP1 ISZERO PUSH2 0x94C JUMPI RETURNDATASIZE PUSH0 DUP1 RETURNDATACOPY RETURNDATASIZE PUSH0 REVERT JUMPDEST POP JUMP JUMPDEST PUSH1 0x2 SLOAD CALLVALUE EQ PUSH2 0x993 JUMPI PUSH1 0x40 MLOAD PUSH32 0x8C379A000000000000000000000000000000000000000000000000000000000 DUP2 MSTORE PUSH1 0x4 ADD PUSH2 0x98A SWAP1 PUSH2 0x1C74 JUMP JUMPDEST PUSH1 0x40 MLOAD DUP1 SWAP2 SUB SWAP1 REVERT JUMPDEST PUSH1 0x4 PUSH0 CALLER PUSH20 0xFFFFFFFFFFFFFFFFFFFFFFFFFFFFFFFFFFFFFFFF AND PUSH20 0xFFFFFFFFFFFFFFFFFFFFFFFFFFFFFFFFFFFFFFFF AND DUP2 MSTORE PUSH1 0x20 ADD SWAP1 DUP2 MSTORE PUSH1 0x20 ADD PUSH0 KECCAK256 PUSH0 ADD PUSH0 SWAP1 SLOAD SWAP1 PUSH2 0x100 EXP SWAP1 DIV PUSH1 0xFF AND ISZERO PUSH2 0xA1F JUMPI PUSH1 0x40 MLOAD PUSH32 0x8C379A000000000000000000000000000000000000000000000000000000000 DUP2 MSTORE PUSH1 0x4 ADD PUSH2 0xA16 SWAP1 PUSH2 0x1CDC JUMP JUMPDEST PUSH1 0x40 MLOAD DUP1 SWAP2 SUB SWAP1 REVERT JUMPDEST PUSH1 0x1 PUSH1 0x4 PUSH0 CALLER PUSH20 0xFFFFFFFFFFFFFFFFFFFFFFFFFFFFFFFFFFFFFFFF AND PUSH20 0xFFFFFFFFFFFFFFFFFFFFFFFFFFFFFFFFFFFFFFFF AND DUP2 MSTORE PUSH1 0x20 ADD SWAP1 DUP2 MSTORE PUSH1 0x20 ADD PUSH0 KECCAK256 PUSH0 ADD PUSH0 PUSH2 0x100 EXP DUP2 SLOAD DUP2 PUSH1 0xFF MUL NOT AND SWAP1 DUP4 ISZERO ISZERO MUL OR SWAP1 SSTORE POP CALLER PUSH20 0xFFFFFFFFFFFFFFFFFFFFFFFFFFFFFFFFFFFFFFFF AND PUSH32 0x59B0C23C5A97A8E6D0985D27B23833BAE2E892EB6811832E87E3699863722838 PUSH1 0x40 MLOAD PUSH1 0x40 MLOAD DUP1 SWAP2 SUB SWAP1 LOG2 JUMP JUMPDEST PUSH1 0x4 PUSH1 0x20 MSTORE DUP1 PUSH0 MSTORE PUSH1 0x40 PUSH0 KECCAK256 PUSH0 SWAP2 POP SWAP1 POP DUP1 PUSH0 ADD PUSH0 SWAP1 SLOAD SWAP1 PUSH2 0x100 EXP SWAP1 DIV PUSH1 0xFF AND SWAP1 DUP1 PUSH1 0x1 ADD SLOAD SWAP1 POP DUP3 JUMP JUMPDEST PUSH1 0x60 PUSH0 DUP1 PUSH1 0x3 DUP1 SLOAD SWAP1 POP DUP5 LT PUSH2 0xB32 JUMPI PUSH1 0x40 MLOAD PUSH32 0x8C379A000000000000000000000000000000000000000000000000000000000 DUP2 MSTORE PUSH1 0x4 ADD PUSH2 0xB29 SWAP1 PUSH2 0x1D44 JUMP JUMPDEST PUSH1 0x40 MLOAD DUP1 SWAP2 SUB SWAP1 REVERT JUMPDEST PUSH0 PUSH1 0x3 DUP6 DUP2 SLOAD DUP2 LT PUSH2 0xB47 JUMPI PUSH2 0xB46 PUSH2 0x19DF JUMP JUMPDEST JUMPDEST SWAP1 PUSH0 MSTORE PUSH1 0x20 PUSH0 KECCAK256 SWAP1 PUSH1 0x3 MUL ADD PUSH1 0x40 MLOAD DUP1 PUSH1 0x60 ADD PUSH1 0x40 MSTORE SWAP1 DUP2 PUSH0 DUP3 ADD DUP1 SLOAD PUSH2 0xB6D SWAP1 PUSH2 0x16DB JUMP JUMPDEST DUP1 PUSH1 0x1F ADD PUSH1 0x20 DUP1 SWAP2 DIV MUL PUSH1 0x20 ADD PUSH1 0x40 MLOAD SWAP1 DUP2 ADD PUSH1 0x40 MSTORE DUP1 SWAP3 SWAP2 SWAP1 DUP2 DUP2 MSTORE PUSH1 0x20 ADD DUP3 DUP1 SLOAD PUSH2 0xB99 SWAP1 PUSH2 0x16DB JUMP JUMPDEST DUP1 ISZERO PUSH2 0xBE4 JUMPI DUP1 PUSH1 0x1F LT PUSH2 0xBBB JUMPI PUSH2 0x100 DUP1 DUP4 SLOAD DIV MUL DUP4 MSTORE SWAP2 PUSH1 0x20 ADD SWAP2 PUSH2 0xBE4 JUMP JUMPDEST DUP3 ADD SWAP2 SWAP1 PUSH0 MSTORE PUSH1 0x20 PUSH0 KECCAK256 SWAP1 JUMPDEST DUP2 SLOAD DUP2 MSTORE SWAP1 PUSH1 0x1 ADD SWAP1 PUSH1 0x20 ADD DUP1 DUP4 GT PUSH2 0xBC7 JUMPI DUP3 SWAP1 SUB PUSH1 0x1F AND DUP3 ADD SWAP2 JUMPDEST POP POP POP POP POP DUP2 MSTORE PUSH1 0x20 ADD PUSH1 0x1 DUP3 ADD SLOAD DUP2 MSTORE PUSH1 0x20 ADD PUSH1 0x2 DUP3 ADD PUSH0 SWAP1 SLOAD SWAP1 PUSH2 0x100 EXP SWAP1 DIV PUSH1 0xFF AND ISZERO ISZERO ISZERO ISZERO DUP2 MSTORE POP POP SWAP1 POP DUP1 PUSH0 ADD MLOAD DUP2 PUSH1 0x20 ADD MLOAD DUP3 PUSH1 0x40 ADD MLOAD SWAP4 POP SWAP4 POP SWAP4 POP POP SWAP2 SWAP4 SWAP1 SWAP3 POP JUMP JUMPDEST PUSH1 0x4 PUSH0 CALLER PUSH20 0xFFFFFFFFFFFFFFFFFFFFFFFFFFFFFFFFFFFFFFFF AND PUSH20 0xFFFFFFFFFFFFFFFFFFFFFFFFFFFFFFFFFFFFFFFF AND DUP2 MSTORE PUSH1 0x20 ADD SWAP1 DUP2 MSTORE PUSH1 0x20 ADD PUSH0 KECCAK256 PUSH0 ADD PUSH0 SWAP1 SLOAD SWAP1 PUSH2 0x100 EXP SWAP1 DIV PUSH1 0xFF AND PUSH2 0xCBA JUMPI PUSH1 0x40 MLOAD PUSH32 0x8C379A000000000000000000000000000000000000000000000000000000000 DUP2 MSTORE PUSH1 0x4 ADD PUSH2 0xCB1 SWAP1 PUSH2 0x1DAC JUMP JUMPDEST PUSH1 0x40 MLOAD DUP1 SWAP2 SUB SWAP1 REVERT JUMPDEST PUSH1 0x4 PUSH0 CALLER PUSH20 0xFFFFFFFFFFFFFFFFFFFFFFFFFFFFFFFFFFFFFFFF AND PUSH20 0xFFFFFFFFFFFFFFFFFFFFFFFFFFFFFFFFFFFFFFFF AND DUP2 MSTORE PUSH1 0x20 ADD SWAP1 DUP2 MSTORE PUSH1 0x20 ADD PUSH0 KECCAK256 PUSH1 0x1 ADD SLOAD DUP2 LT PUSH2 0xD3C JUMPI PUSH1 0x40 MLOAD PUSH32 0x8C379A000000000000000000000000000000000000000000000000000000000 DUP2 MSTORE PUSH1 0x4 ADD PUSH2 0xD33 SWAP1 PUSH2 0x1E14 JUMP JUMPDEST PUSH1 0x40 MLOAD DUP1 SWAP2 SUB SWAP1 REVERT JUMPDEST PUSH0 PUSH1 0x4 PUSH0 CALLER PUSH20 0xFFFFFFFFFFFFFFFFFFFFFFFFFFFFFFFFFFFFFFFF AND PUSH20 0xFFFFFFFFFFFFFFFFFFFFFFFFFFFFFFFFFFFFFFFF AND DUP2 MSTORE PUSH1 0x20 ADD SWAP1 DUP2 MSTORE PUSH1 0x20 ADD PUSH0 KECCAK256 PUSH1 0x2 ADD PUSH0 DUP4 DUP2 MSTORE PUSH1 0x20 ADD SWAP1 DUP2 MSTORE PUSH1 0x20 ADD PUSH0 KECCAK256 PUSH1 0x40 MLOAD DUP1 PUSH1 0x40 ADD PUSH1 0x40 MSTORE SWAP1 DUP2 PUSH0 DUP3 ADD SLOAD DUP2 MSTORE PUSH1 0x20 ADD PUSH1 0x1 DUP3 ADD SLOAD DUP2 MSTORE POP POP SWAP1 POP PUSH0 DUP2 PUSH0 ADD MLOAD SWAP1 POP PUSH1 0x3 DUP1 SLOAD SWAP1 POP DUP2 LT PUSH2 0xDFA JUMPI PUSH1 0x40 MLOAD PUSH32 0x8C379A000000000000000000000000000000000000000000000000000000000 DUP2 MSTORE PUSH1 0x4 ADD PUSH2 0xDF1 SWAP1 PUSH2 0x1E7C JUMP JUMPDEST PUSH1 0x40 MLOAD DUP1 SWAP2 SUB SWAP1 REVERT JUMPDEST PUSH1 0x1 SLOAD DUP3 PUSH1 0x20 ADD MLOAD PUSH2 0xE0C SWAP2 SWAP1 PUSH2 0x1E9A JUMP JUMPDEST TIMESTAMP GT ISZERO PUSH2 0xF47 JUMPI PUSH0 PUSH1 0x3 DUP3 DUP2 SLOAD DUP2 LT PUSH2 0xE28 JUMPI PUSH2 0xE27 PUSH2 0x19DF JUMP JUMPDEST JUMPDEST SWAP1 PUSH0 MSTORE PUSH1 0x20 PUSH0 KECCAK256 SWAP1 PUSH1 0x3 MUL ADD PUSH1 0x1 ADD SLOAD SWAP1 POP DUP1 CALLER PUSH20 0xFFFFFFFFFFFFFFFFFFFFFFFFFFFFFFFFFFFFFFFF AND BALANCE LT ISZERO PUSH2 0xE94 JUMPI PUSH1 0x40 MLOAD PUSH32 0x8C379A000000000000000000000000000000000000000000000000000000000 DUP2 MSTORE PUSH1 0x4 ADD PUSH2 0xE8B SWAP1 PUSH2 0x1F3D JUMP JUMPDEST PUSH1 0x40 MLOAD DUP1 SWAP2 SUB SWAP1 REVERT JUMPDEST PUSH0 DUP1 SLOAD SWAP1 PUSH2 0x100 EXP SWAP1 DIV PUSH20 0xFFFFFFFFFFFFFFFFFFFFFFFFFFFFFFFFFFFFFFFF AND PUSH20 0xFFFFFFFFFFFFFFFFFFFFFFFFFFFFFFFFFFFFFFFF AND PUSH2 0x8FC DUP3 SWAP1 DUP2 ISZERO MUL SWAP1 PUSH1 0x40 MLOAD PUSH0 PUSH1 0x40 MLOAD DUP1 DUP4 SUB DUP2 DUP6 DUP9 DUP9 CALL SWAP4 POP POP POP POP ISZERO DUP1 ISZERO PUSH2 0xEF6 JUMPI RETURNDATASIZE PUSH0 DUP1 RETURNDATACOPY RETURNDATASIZE PUSH0 REVERT JUMPDEST POP CALLER PUSH20 0xFFFFFFFFFFFFFFFFFFFFFFFFFFFFFFFFFFFFFFFF AND PUSH32 0x1B4B1AB7AA7799C2071A3B350AB2454C23B380010DD29135206B1EA84B3600AB DUP3 PUSH1 0x40 MLOAD PUSH2 0xF3D SWAP2 SWAP1 PUSH2 0x1219 JUMP JUMPDEST PUSH1 0x40 MLOAD DUP1 SWAP2 SUB SWAP1 LOG2 POP JUMPDEST PUSH1 0x1 PUSH1 0x3 DUP3 DUP2 SLOAD DUP2 LT PUSH2 0xF5D JUMPI PUSH2 0xF5C PUSH2 0x19DF JUMP JUMPDEST JUMPDEST SWAP1 PUSH0 MSTORE PUSH1 0x20 PUSH0 KECCAK256 SWAP1 PUSH1 0x3 MUL ADD PUSH1 0x2 ADD PUSH0 PUSH2 0x100 EXP DUP2 SLOAD DUP2 PUSH1 0xFF MUL NOT AND SWAP1 DUP4 ISZERO ISZERO MUL OR SWAP1 SSTORE POP PUSH0 DUP4 SWAP1 POP JUMPDEST PUSH1 0x1 PUSH1 0x4 PUSH0 CALLER PUSH20 0xFFFFFFFFFFFFFFFFFFFFFFFFFFFFFFFFFFFFFFFF AND PUSH20 0xFFFFFFFFFFFFFFFFFFFFFFFFFFFFFFFFFFFFFFFF AND DUP2 MSTORE PUSH1 0x20 ADD SWAP1 DUP2 MSTORE PUSH1 0x20 ADD PUSH0 KECCAK256 PUSH1 0x1 ADD SLOAD PUSH2 0xFD4 SWAP2 SWAP1 PUSH2 0x1F5B JUMP JUMPDEST DUP2 LT ISZERO PUSH2 0x10A7 JUMPI PUSH1 0x4 PUSH0 CALLER PUSH20 0xFFFFFFFFFFFFFFFFFFFFFFFFFFFFFFFFFFFFFFFF AND PUSH20 0xFFFFFFFFFFFFFFFFFFFFFFFFFFFFFFFFFFFFFFFF AND DUP2 MSTORE PUSH1 0x20 ADD SWAP1 DUP2 MSTORE PUSH1 0x20 ADD PUSH0 KECCAK256 PUSH1 0x2 ADD PUSH0 PUSH1 0x1 DUP4 PUSH2 0x1029 SWAP2 SWAP1 PUSH2 0x1E9A JUMP JUMPDEST DUP2 MSTORE PUSH1 0x20 ADD SWAP1 DUP2 MSTORE PUSH1 0x20 ADD PUSH0 KECCAK256 PUSH1 0x4 PUSH0 CALLER PUSH20 0xFFFFFFFFFFFFFFFFFFFFFFFFFFFFFFFFFFFFFFFF AND PUSH20 0xFFFFFFFFFFFFFFFFFFFFFFFFFFFFFFFFFFFFFFFF AND DUP2 MSTORE PUSH1 0x20 ADD SWAP1 DUP2 MSTORE PUSH1 0x20 ADD PUSH0 KECCAK256 PUSH1 0x2 ADD PUSH0 DUP4 DUP2 MSTORE PUSH1 0x20 ADD SWAP1 DUP2 MSTORE PUSH1 0x20 ADD PUSH0 KECCAK256 PUSH0 DUP3 ADD SLOAD DUP2 PUSH0 ADD SSTORE PUSH1 0x1 DUP3 ADD SLOAD DUP2 PUSH1 0x1 ADD SSTORE SWAP1 POP POP DUP1 DUP1 PUSH1 0x1 ADD SWAP2 POP POP PUSH2 0xF87 JUMP JUMPDEST POP PUSH1 0x4 PUSH0 CALLER PUSH20 0xFFFFFFFFFFFFFFFFFFFFFFFFFFFFFFFFFFFFFFFF AND PUSH20 0xFFFFFFFFFFFFFFFFFFFFFFFFFFFFFFFFFFFFFFFF AND DUP2 MSTORE PUSH1 0x20 ADD SWAP1 DUP2 MSTORE PUSH1 0x20 ADD PUSH0 KECCAK256 PUSH1 0x2 ADD PUSH0 PUSH1 0x1 PUSH1 0x4 PUSH0 CALLER PUSH20 0xFFFFFFFFFFFFFFFFFFFFFFFFFFFFFFFFFFFFFFFF AND PUSH20 0xFFFFFFFFFFFFFFFFFFFFFFFFFFFFFFFFFFFFFFFF AND DUP2 MSTORE PUSH1 0x20 ADD SWAP1 DUP2 MSTORE PUSH1 0x20 ADD PUSH0 KECCAK256 PUSH1 0x1 ADD SLOAD PUSH2 0x1136 SWAP2 SWAP1 PUSH2 0x1F5B JUMP JUMPDEST DUP2 MSTORE PUSH1 0x20 ADD SWAP1 DUP2 MSTORE PUSH1 0x20 ADD PUSH0 KECCAK256 PUSH0 DUP1 DUP3 ADD PUSH0 SWAP1 SSTORE PUSH1 0x1 DUP3 ADD PUSH0 SWAP1 SSTORE POP POP PUSH1 0x4 PUSH0 CALLER PUSH20 0xFFFFFFFFFFFFFFFFFFFFFFFFFFFFFFFFFFFFFFFF AND PUSH20 0xFFFFFFFFFFFFFFFFFFFFFFFFFFFFFFFFFFFFFFFF AND DUP2 MSTORE PUSH1 0x20 ADD SWAP1 DUP2 MSTORE PUSH1 0x20 ADD PUSH0 KECCAK256 PUSH1 0x1 ADD PUSH0 DUP2 SLOAD DUP1 SWAP3 SWAP2 SWAP1 PUSH2 0x11A3 SWAP1 PUSH2 0x1F8E JUMP JUMPDEST SWAP2 SWAP1 POP SSTORE POP CALLER PUSH20 0xFFFFFFFFFFFFFFFFFFFFFFFFFFFFFFFFFFFFFFFF AND PUSH32 0xFC4AA72D872118BE90BD96BEFC9CA2D792220107618A078D83EEF022995792D7 DUP3 PUSH1 0x40 MLOAD PUSH2 0x11EE SWAP2 SWAP1 PUSH2 0x1219 JUMP JUMPDEST PUSH1 0x40 MLOAD DUP1 SWAP2 SUB SWAP1 LOG2 POP POP POP JUMP JUMPDEST PUSH1 0x2 SLOAD DUP2 JUMP JUMPDEST PUSH0 DUP2 SWAP1 POP SWAP2 SWAP1 POP JUMP JUMPDEST PUSH2 0x1213 DUP2 PUSH2 0x1201 JUMP JUMPDEST DUP3 MSTORE POP POP JUMP JUMPDEST PUSH0 PUSH1 0x20 DUP3 ADD SWAP1 POP PUSH2 0x122C PUSH0 DUP4 ADD DUP5 PUSH2 0x120A JUMP JUMPDEST SWAP3 SWAP2 POP POP JUMP JUMPDEST PUSH0 PUSH20 0xFFFFFFFFFFFFFFFFFFFFFFFFFFFFFFFFFFFFFFFF DUP3 AND SWAP1 POP SWAP2 SWAP1 POP JUMP JUMPDEST PUSH0 PUSH2 0x125B DUP3 PUSH2 0x1232 JUMP JUMPDEST SWAP1 POP SWAP2 SWAP1 POP JUMP JUMPDEST PUSH2 0x126B DUP2 PUSH2 0x1251 JUMP JUMPDEST DUP3 MSTORE POP POP JUMP JUMPDEST PUSH0 PUSH1 0x20 DUP3 ADD SWAP1 POP PUSH2 0x1284 PUSH0 DUP4 ADD DUP5 PUSH2 0x1262 JUMP JUMPDEST SWAP3 SWAP2 POP POP JUMP JUMPDEST PUSH0 PUSH1 0x40 MLOAD SWAP1 POP SWAP1 JUMP JUMPDEST PUSH0 DUP1 REVERT JUMPDEST PUSH0 DUP1 REVERT JUMPDEST PUSH0 DUP1 REVERT JUMPDEST PUSH0 DUP1 REVERT JUMPDEST PUSH0 PUSH1 0x1F NOT PUSH1 0x1F DUP4 ADD AND SWAP1 POP SWAP2 SWAP1 POP JUMP JUMPDEST PUSH32 0x4E487B7100000000000000000000000000000000000000000000000000000000 PUSH0 MSTORE PUSH1 0x41 PUSH1 0x4 MSTORE PUSH1 0x24 PUSH0 REVERT JUMPDEST PUSH2 0x12E9 DUP3 PUSH2 0x12A3 JUMP JUMPDEST DUP2 ADD DUP2 DUP2 LT PUSH8 0xFFFFFFFFFFFFFFFF DUP3 GT OR ISZERO PUSH2 0x1308 JUMPI PUSH2 0x1307 PUSH2 0x12B3 JUMP JUMPDEST JUMPDEST DUP1 PUSH1 0x40 MSTORE POP POP POP JUMP JUMPDEST PUSH0 PUSH2 0x131A PUSH2 0x128A JUMP JUMPDEST SWAP1 POP PUSH2 0x1326 DUP3 DUP3 PUSH2 0x12E0 JUMP JUMPDEST SWAP2 SWAP1 POP JUMP JUMPDEST PUSH0 PUSH8 0xFFFFFFFFFFFFFFFF DUP3 GT ISZERO PUSH2 0x1345 JUMPI PUSH2 0x1344 PUSH2 0x12B3 JUMP JUMPDEST JUMPDEST PUSH2 0x134E DUP3 PUSH2 0x12A3 JUMP JUMPDEST SWAP1 POP PUSH1 0x20 DUP2 ADD SWAP1 POP SWAP2 SWAP1 POP JUMP JUMPDEST DUP3 DUP2 DUP4 CALLDATACOPY PUSH0 DUP4 DUP4 ADD MSTORE POP POP POP JUMP JUMPDEST PUSH0 PUSH2 0x137B PUSH2 0x1376 DUP5 PUSH2 0x132B JUMP JUMPDEST PUSH2 0x1311 JUMP JUMPDEST SWAP1 POP DUP3 DUP2 MSTORE PUSH1 0x20 DUP2 ADD DUP5 DUP5 DUP5 ADD GT ISZERO PUSH2 0x1397 JUMPI PUSH2 0x1396 PUSH2 0x129F JUMP JUMPDEST JUMPDEST PUSH2 0x13A2 DUP5 DUP3 DUP6 PUSH2 0x135B JUMP JUMPDEST POP SWAP4 SWAP3 POP POP POP JUMP JUMPDEST PUSH0 DUP3 PUSH1 0x1F DUP4 ADD SLT PUSH2 0x13BE JUMPI PUSH2 0x13BD PUSH2 0x129B JUMP JUMPDEST JUMPDEST DUP2 CALLDATALOAD PUSH2 0x13CE DUP5 DUP3 PUSH1 0x20 DUP7 ADD PUSH2 0x1369 JUMP JUMPDEST SWAP2 POP POP SWAP3 SWAP2 POP POP JUMP JUMPDEST PUSH2 0x13E0 DUP2 PUSH2 0x1201 JUMP JUMPDEST DUP2 EQ PUSH2 0x13EA JUMPI PUSH0 DUP1 REVERT JUMPDEST POP JUMP JUMPDEST PUSH0 DUP2 CALLDATALOAD SWAP1 POP PUSH2 0x13FB DUP2 PUSH2 0x13D7 JUMP JUMPDEST SWAP3 SWAP2 POP POP JUMP JUMPDEST PUSH0 DUP1 PUSH1 0x40 DUP4 DUP6 SUB SLT ISZERO PUSH2 0x1417 JUMPI PUSH2 0x1416 PUSH2 0x1293 JUMP JUMPDEST JUMPDEST PUSH0 DUP4 ADD CALLDATALOAD PUSH8 0xFFFFFFFFFFFFFFFF DUP2 GT ISZERO PUSH2 0x1434 JUMPI PUSH2 0x1433 PUSH2 0x1297 JUMP JUMPDEST JUMPDEST PUSH2 0x1440 DUP6 DUP3 DUP7 ADD PUSH2 0x13AA JUMP JUMPDEST SWAP3 POP POP PUSH1 0x20 PUSH2 0x1451 DUP6 DUP3 DUP7 ADD PUSH2 0x13ED JUMP JUMPDEST SWAP2 POP POP SWAP3 POP SWAP3 SWAP1 POP JUMP JUMPDEST PUSH0 PUSH1 0x20 DUP3 DUP5 SUB SLT ISZERO PUSH2 0x1470 JUMPI PUSH2 0x146F PUSH2 0x1293 JUMP JUMPDEST JUMPDEST PUSH0 PUSH2 0x147D DUP5 DUP3 DUP6 ADD PUSH2 0x13ED JUMP JUMPDEST SWAP2 POP POP SWAP3 SWAP2 POP POP JUMP JUMPDEST PUSH0 DUP2 MLOAD SWAP1 POP SWAP2 SWAP1 POP JUMP JUMPDEST PUSH0 DUP3 DUP3 MSTORE PUSH1 0x20 DUP3 ADD SWAP1 POP SWAP3 SWAP2 POP POP JUMP JUMPDEST DUP3 DUP2 DUP4 MCOPY PUSH0 DUP4 DUP4 ADD MSTORE POP POP POP JUMP JUMPDEST PUSH0 PUSH2 0x14B8 DUP3 PUSH2 0x1486 JUMP JUMPDEST PUSH2 0x14C2 DUP2 DUP6 PUSH2 0x1490 JUMP JUMPDEST SWAP4 POP PUSH2 0x14D2 DUP2 DUP6 PUSH1 0x20 DUP7 ADD PUSH2 0x14A0 JUMP JUMPDEST PUSH2 0x14DB DUP2 PUSH2 0x12A3 JUMP JUMPDEST DUP5 ADD SWAP2 POP POP SWAP3 SWAP2 POP POP JUMP JUMPDEST PUSH0 DUP2 ISZERO ISZERO SWAP1 POP SWAP2 SWAP1 POP JUMP JUMPDEST PUSH2 0x14FA DUP2 PUSH2 0x14E6 JUMP JUMPDEST DUP3 MSTORE POP POP JUMP JUMPDEST PUSH0 PUSH1 0x60 DUP3 ADD SWAP1 POP DUP2 DUP2 SUB PUSH0 DUP4 ADD MSTORE PUSH2 0x1518 DUP2 DUP7 PUSH2 0x14AE JUMP JUMPDEST SWAP1 POP PUSH2 0x1527 PUSH1 0x20 DUP4 ADD DUP6 PUSH2 0x120A JUMP JUMPDEST PUSH2 0x1534 PUSH1 0x40 DUP4 ADD DUP5 PUSH2 0x14F1 JUMP JUMPDEST SWAP5 SWAP4 POP POP POP POP JUMP JUMPDEST PUSH2 0x1545 DUP2 PUSH2 0x1251 JUMP JUMPDEST DUP2 EQ PUSH2 0x154F JUMPI PUSH0 DUP1 REVERT JUMPDEST POP JUMP JUMPDEST PUSH0 DUP2 CALLDATALOAD SWAP1 POP PUSH2 0x1560 DUP2 PUSH2 0x153C JUMP JUMPDEST SWAP3 SWAP2 POP POP JUMP JUMPDEST PUSH0 PUSH1 0x20 DUP3 DUP5 SUB SLT ISZERO PUSH2 0x157B JUMPI PUSH2 0x157A PUSH2 0x1293 JUMP JUMPDEST JUMPDEST PUSH0 PUSH2 0x1588 DUP5 DUP3 DUP6 ADD PUSH2 0x1552 JUMP JUMPDEST SWAP2 POP POP SWAP3 SWAP2 POP POP JUMP JUMPDEST PUSH0 PUSH1 0x40 DUP3 ADD SWAP1 POP PUSH2 0x15A4 PUSH0 DUP4 ADD DUP6 PUSH2 0x14F1 JUMP JUMPDEST PUSH2 0x15B1 PUSH1 0x20 DUP4 ADD DUP5 PUSH2 0x120A JUMP JUMPDEST SWAP4 SWAP3 POP POP POP JUMP JUMPDEST PUSH32 0x796F752063616E6E6F742067657420616365737320746F207468652062616C61 PUSH0 DUP3 ADD MSTORE PUSH32 0x6E63650000000000000000000000000000000000000000000000000000000000 PUSH1 0x20 DUP3 ADD MSTORE POP JUMP JUMPDEST PUSH0 PUSH2 0x1612 PUSH1 0x23 DUP4 PUSH2 0x1490 JUMP JUMPDEST SWAP2 POP PUSH2 0x161D DUP3 PUSH2 0x15B8 JUMP JUMPDEST PUSH1 0x40 DUP3 ADD SWAP1 POP SWAP2 SWAP1 POP JUMP JUMPDEST PUSH0 PUSH1 0x20 DUP3 ADD SWAP1 POP DUP2 DUP2 SUB PUSH0 DUP4 ADD MSTORE PUSH2 0x163F DUP2 PUSH2 0x1606 JUMP JUMPDEST SWAP1 POP SWAP2 SWAP1 POP JUMP JUMPDEST PUSH32 0x596F206469646E6F742068617665207468652061636573730000000000000000 PUSH0 DUP3 ADD MSTORE POP JUMP JUMPDEST PUSH0 PUSH2 0x167A PUSH1 0x18 DUP4 PUSH2 0x1490 JUMP JUMPDEST SWAP2 POP PUSH2 0x1685 DUP3 PUSH2 0x1646 JUMP JUMPDEST PUSH1 0x20 DUP3 ADD SWAP1 POP SWAP2 SWAP1 POP JUMP JUMPDEST PUSH0 PUSH1 0x20 DUP3 ADD SWAP1 POP DUP2 DUP2 SUB PUSH0 DUP4 ADD MSTORE PUSH2 0x16A7 DUP2 PUSH2 0x166E JUMP JUMPDEST SWAP1 POP SWAP2 SWAP1 POP JUMP JUMPDEST PUSH32 0x4E487B7100000000000000000000000000000000000000000000000000000000 PUSH0 MSTORE PUSH1 0x22 PUSH1 0x4 MSTORE PUSH1 0x24 PUSH0 REVERT JUMPDEST PUSH0 PUSH1 0x2 DUP3 DIV SWAP1 POP PUSH1 0x1 DUP3 AND DUP1 PUSH2 0x16F2 JUMPI PUSH1 0x7F DUP3 AND SWAP2 POP JUMPDEST PUSH1 0x20 DUP3 LT DUP2 SUB PUSH2 0x1705 JUMPI PUSH2 0x1704 PUSH2 0x16AE JUMP JUMPDEST JUMPDEST POP SWAP2 SWAP1 POP JUMP JUMPDEST PUSH0 DUP2 SWAP1 POP DUP2 PUSH0 MSTORE PUSH1 0x20 PUSH0 KECCAK256 SWAP1 POP SWAP2 SWAP1 POP JUMP JUMPDEST PUSH0 PUSH1 0x20 PUSH1 0x1F DUP4 ADD DIV SWAP1 POP SWAP2 SWAP1 POP JUMP JUMPDEST PUSH0 DUP3 DUP3 SHL SWAP1 POP SWAP3 SWAP2 POP POP JUMP JUMPDEST PUSH0 PUSH1 0x8 DUP4 MUL PUSH2 0x1767 PUSH32 0xFFFFFFFFFFFFFFFFFFFFFFFFFFFFFFFFFFFFFFFFFFFFFFFFFFFFFFFFFFFFFFFF DUP3 PUSH2 0x172C JUMP JUMPDEST PUSH2 0x1771 DUP7 DUP4 PUSH2 0x172C JUMP JUMPDEST SWAP6 POP DUP1 NOT DUP5 AND SWAP4 POP DUP1 DUP7 AND DUP5 OR SWAP3 POP POP POP SWAP4 SWAP3 POP POP POP JUMP JUMPDEST PUSH0 DUP2 SWAP1 POP SWAP2 SWAP1 POP JUMP JUMPDEST PUSH0 PUSH2 0x17AC PUSH2 0x17A7 PUSH2 0x17A2 DUP5 PUSH2 0x1201 JUMP JUMPDEST PUSH2 0x1789 JUMP JUMPDEST PUSH2 0x1201 JUMP JUMPDEST SWAP1 POP SWAP2 SWAP1 POP JUMP JUMPDEST PUSH0 DUP2 SWAP1 POP SWAP2 SWAP1 POP JUMP JUMPDEST PUSH2 0x17C5 DUP4 PUSH2 0x1792 JUMP JUMPDEST PUSH2 0x17D9 PUSH2 0x17D1 DUP3 PUSH2 0x17B3 JUMP JUMPDEST DUP5 DUP5 SLOAD PUSH2 0x1738 JUMP JUMPDEST DUP3 SSTORE POP POP POP POP JUMP JUMPDEST PUSH0 SWAP1 JUMP JUMPDEST PUSH2 0x17ED PUSH2 0x17E1 JUMP JUMPDEST PUSH2 0x17F8 DUP2 DUP5 DUP5 PUSH2 0x17BC JUMP JUMPDEST POP POP POP JUMP JUMPDEST JUMPDEST DUP2 DUP2 LT ISZERO PUSH2 0x181B JUMPI PUSH2 0x1810 PUSH0 DUP3 PUSH2 0x17E5 JUMP JUMPDEST PUSH1 0x1 DUP2 ADD SWAP1 POP PUSH2 0x17FE JUMP JUMPDEST POP POP JUMP JUMPDEST PUSH1 0x1F DUP3 GT ISZERO PUSH2 0x1860 JUMPI PUSH2 0x1831 DUP2 PUSH2 0x170B JUMP JUMPDEST PUSH2 0x183A DUP5 PUSH2 0x171D JUMP JUMPDEST DUP2 ADD PUSH1 0x20 DUP6 LT ISZERO PUSH2 0x1849 JUMPI DUP2 SWAP1 POP JUMPDEST PUSH2 0x185D PUSH2 0x1855 DUP6 PUSH2 0x171D JUMP JUMPDEST DUP4 ADD DUP3 PUSH2 0x17FD JUMP JUMPDEST POP POP JUMPDEST POP POP POP JUMP JUMPDEST PUSH0 DUP3 DUP3 SHR SWAP1 POP SWAP3 SWAP2 POP POP JUMP JUMPDEST PUSH0 PUSH2 0x1880 PUSH0 NOT DUP5 PUSH1 0x8 MUL PUSH2 0x1865 JUMP JUMPDEST NOT DUP1 DUP4 AND SWAP2 POP POP SWAP3 SWAP2 POP POP JUMP JUMPDEST PUSH0 PUSH2 0x1898 DUP4 DUP4 PUSH2 0x1871 JUMP JUMPDEST SWAP2 POP DUP3 PUSH1 0x2 MUL DUP3 OR SWAP1 POP SWAP3 SWAP2 POP POP JUMP JUMPDEST PUSH2 0x18B1 DUP3 PUSH2 0x1486 JUMP JUMPDEST PUSH8 0xFFFFFFFFFFFFFFFF DUP2 GT ISZERO PUSH2 0x18CA JUMPI PUSH2 0x18C9 PUSH2 0x12B3 JUMP JUMPDEST JUMPDEST PUSH2 0x18D4 DUP3 SLOAD PUSH2 0x16DB JUMP JUMPDEST PUSH2 0x18DF DUP3 DUP3 DUP6 PUSH2 0x181F JUMP JUMPDEST PUSH0 PUSH1 0x20 SWAP1 POP PUSH1 0x1F DUP4 GT PUSH1 0x1 DUP2 EQ PUSH2 0x1910 JUMPI PUSH0 DUP5 ISZERO PUSH2 0x18FE JUMPI DUP3 DUP8 ADD MLOAD SWAP1 POP JUMPDEST PUSH2 0x1908 DUP6 DUP3 PUSH2 0x188D JUMP JUMPDEST DUP7 SSTORE POP PUSH2 0x196F JUMP JUMPDEST PUSH1 0x1F NOT DUP5 AND PUSH2 0x191E DUP7 PUSH2 0x170B JUMP JUMPDEST PUSH0 JUMPDEST DUP3 DUP2 LT ISZERO PUSH2 0x1945 JUMPI DUP5 DUP10 ADD MLOAD DUP3 SSTORE PUSH1 0x1 DUP3 ADD SWAP2 POP PUSH1 0x20 DUP6 ADD SWAP5 POP PUSH1 0x20 DUP2 ADD SWAP1 POP PUSH2 0x1920 JUMP JUMPDEST DUP7 DUP4 LT ISZERO PUSH2 0x1962 JUMPI DUP5 DUP10 ADD MLOAD PUSH2 0x195E PUSH1 0x1F DUP10 AND DUP3 PUSH2 0x1871 JUMP JUMPDEST DUP4 SSTORE POP JUMPDEST PUSH1 0x1 PUSH1 0x2 DUP9 MUL ADD DUP9 SSTORE POP POP POP JUMPDEST POP POP POP POP POP POP JUMP JUMPDEST PUSH32 0x4E6F20626F6F6B20617661696C61626C65000000000000000000000000000000 PUSH0 DUP3 ADD MSTORE POP JUMP JUMPDEST PUSH0 PUSH2 0x19AB PUSH1 0x11 DUP4 PUSH2 0x1490 JUMP JUMPDEST SWAP2 POP PUSH2 0x19B6 DUP3 PUSH2 0x1977 JUMP JUMPDEST PUSH1 0x20 DUP3 ADD SWAP1 POP SWAP2 SWAP1 POP JUMP JUMPDEST PUSH0 PUSH1 0x20 DUP3 ADD SWAP1 POP DUP2 DUP2 SUB PUSH0 DUP4 ADD MSTORE PUSH2 0x19D8 DUP2 PUSH2 0x199F JUMP JUMPDEST SWAP1 POP SWAP2 SWAP1 POP JUMP JUMPDEST PUSH32 0x4E487B7100000000000000000000000000000000000000000000000000000000 PUSH0 MSTORE PUSH1 0x32 PUSH1 0x4 MSTORE PUSH1 0x24 PUSH0 REVERT JUMPDEST PUSH32 0x54686520626F6F6B206973206E6F7420617661696C61626C6500000000000000 PUSH0 DUP3 ADD MSTORE POP JUMP JUMPDEST PUSH0 PUSH2 0x1A40 PUSH1 0x19 DUP4 PUSH2 0x1490 JUMP JUMPDEST SWAP2 POP PUSH2 0x1A4B DUP3 PUSH2 0x1A0C JUMP JUMPDEST PUSH1 0x20 DUP3 ADD SWAP1 POP SWAP2 SWAP1 POP JUMP JUMPDEST PUSH0 PUSH1 0x20 DUP3 ADD SWAP1 POP DUP2 DUP2 SUB PUSH0 DUP4 ADD MSTORE PUSH2 0x1A6D DUP2 PUSH2 0x1A34 JUMP JUMPDEST SWAP1 POP SWAP2 SWAP1 POP JUMP JUMPDEST PUSH32 0x596F75722063616E6E6F7420626F72726F77206D6F7265207468616E20322062 PUSH0 DUP3 ADD MSTORE PUSH32 0x6F6F6B7300000000000000000000000000000000000000000000000000000000 PUSH1 0x20 DUP3 ADD MSTORE POP JUMP JUMPDEST PUSH0 PUSH2 0x1ACE PUSH1 0x24 DUP4 PUSH2 0x1490 JUMP JUMPDEST SWAP2 POP PUSH2 0x1AD9 DUP3 PUSH2 0x1A74 JUMP JUMPDEST PUSH1 0x40 DUP3 ADD SWAP1 POP SWAP2 SWAP1 POP JUMP JUMPDEST PUSH0 PUSH1 0x20 DUP3 ADD SWAP1 POP DUP2 DUP2 SUB PUSH0 DUP4 ADD MSTORE PUSH2 0x1AFB DUP2 PUSH2 0x1AC2 JUMP JUMPDEST SWAP1 POP SWAP2 SWAP1 POP JUMP JUMPDEST PUSH32 0x4E487B7100000000000000000000000000000000000000000000000000000000 PUSH0 MSTORE PUSH1 0x11 PUSH1 0x4 MSTORE PUSH1 0x24 PUSH0 REVERT JUMPDEST PUSH0 PUSH2 0x1B39 DUP3 PUSH2 0x1201 JUMP JUMPDEST SWAP2 POP PUSH32 0xFFFFFFFFFFFFFFFFFFFFFFFFFFFFFFFFFFFFFFFFFFFFFFFFFFFFFFFFFFFFFFFF DUP3 SUB PUSH2 0x1B6B JUMPI PUSH2 0x1B6A PUSH2 0x1B02 JUMP JUMPDEST JUMPDEST PUSH1 0x1 DUP3 ADD SWAP1 POP SWAP2 SWAP1 POP JUMP JUMPDEST PUSH32 0x497473206E6F742074696D6520746F20776974686472617720746865206D6F6E PUSH0 DUP3 ADD MSTORE PUSH32 0x6579206D616E6167657200000000000000000000000000000000000000000000 PUSH1 0x20 DUP3 ADD MSTORE POP JUMP JUMPDEST PUSH0 PUSH2 0x1BD0 PUSH1 0x2A DUP4 PUSH2 0x1490 JUMP JUMPDEST SWAP2 POP PUSH2 0x1BDB DUP3 PUSH2 0x1B76 JUMP JUMPDEST PUSH1 0x40 DUP3 ADD SWAP1 POP SWAP2 SWAP1 POP JUMP JUMPDEST PUSH0 PUSH1 0x20 DUP3 ADD SWAP1 POP DUP2 DUP2 SUB PUSH0 DUP4 ADD MSTORE PUSH2 0x1BFD DUP2 PUSH2 0x1BC4 JUMP JUMPDEST SWAP1 POP SWAP2 SWAP1 POP JUMP JUMPDEST PUSH32 0x54686520616D6F756E74206973206E6F742073756666696369656E7420746F20 PUSH0 DUP3 ADD MSTORE PUSH32 0x6265636F6D65206D656D62657200000000000000000000000000000000000000 PUSH1 0x20 DUP3 ADD MSTORE POP JUMP JUMPDEST PUSH0 PUSH2 0x1C5E PUSH1 0x2D DUP4 PUSH2 0x1490 JUMP JUMPDEST SWAP2 POP PUSH2 0x1C69 DUP3 PUSH2 0x1C04 JUMP JUMPDEST PUSH1 0x40 DUP3 ADD SWAP1 POP SWAP2 SWAP1 POP JUMP JUMPDEST PUSH0 PUSH1 0x20 DUP3 ADD SWAP1 POP DUP2 DUP2 SUB PUSH0 DUP4 ADD MSTORE PUSH2 0x1C8B DUP2 PUSH2 0x1C52 JUMP JUMPDEST SWAP1 POP SWAP2 SWAP1 POP JUMP JUMPDEST PUSH32 0x596F752061726520616C72656164792061206D656D6265720000000000000000 PUSH0 DUP3 ADD MSTORE POP JUMP JUMPDEST PUSH0 PUSH2 0x1CC6 PUSH1 0x18 DUP4 PUSH2 0x1490 JUMP JUMPDEST SWAP2 POP PUSH2 0x1CD1 DUP3 PUSH2 0x1C92 JUMP JUMPDEST PUSH1 0x20 DUP3 ADD SWAP1 POP SWAP2 SWAP1 POP JUMP JUMPDEST PUSH0 PUSH1 0x20 DUP3 ADD SWAP1 POP DUP2 DUP2 SUB PUSH0 DUP4 ADD MSTORE PUSH2 0x1CF3 DUP2 PUSH2 0x1CBA JUMP JUMPDEST SWAP1 POP SWAP2 SWAP1 POP JUMP JUMPDEST PUSH32 0x4E6F2076616C696420626F6F6B20696400000000000000000000000000000000 PUSH0 DUP3 ADD MSTORE POP JUMP JUMPDEST PUSH0 PUSH2 0x1D2E PUSH1 0x10 DUP4 PUSH2 0x1490 JUMP JUMPDEST SWAP2 POP PUSH2 0x1D39 DUP3 PUSH2 0x1CFA JUMP JUMPDEST PUSH1 0x20 DUP3 ADD SWAP1 POP SWAP2 SWAP1 POP JUMP JUMPDEST PUSH0 PUSH1 0x20 DUP3 ADD SWAP1 POP DUP2 DUP2 SUB PUSH0 DUP4 ADD MSTORE PUSH2 0x1D5B DUP2 PUSH2 0x1D22 JUMP JUMPDEST SWAP1 POP SWAP2 SWAP1 POP JUMP JUMPDEST PUSH32 0x596F7520617265206E6F7420746865206D656D62657200000000000000000000 PUSH0 DUP3 ADD MSTORE POP JUMP JUMPDEST PUSH0 PUSH2 0x1D96 PUSH1 0x16 DUP4 PUSH2 0x1490 JUMP JUMPDEST SWAP2 POP PUSH2 0x1DA1 DUP3 PUSH2 0x1D62 JUMP JUMPDEST PUSH1 0x20 DUP3 ADD SWAP1 POP SWAP2 SWAP1 POP JUMP JUMPDEST PUSH0 PUSH1 0x20 DUP3 ADD SWAP1 POP DUP2 DUP2 SUB PUSH0 DUP4 ADD MSTORE PUSH2 0x1DC3 DUP2 PUSH2 0x1D8A JUMP JUMPDEST SWAP1 POP SWAP2 SWAP1 POP JUMP JUMPDEST PUSH32 0x696E76616C696420696E646578206D656E74696F6E6564000000000000000000 PUSH0 DUP3 ADD MSTORE POP JUMP JUMPDEST PUSH0 PUSH2 0x1DFE PUSH1 0x17 DUP4 PUSH2 0x1490 JUMP JUMPDEST SWAP2 POP PUSH2 0x1E09 DUP3 PUSH2 0x1DCA JUMP JUMPDEST PUSH1 0x20 DUP3 ADD SWAP1 POP SWAP2 SWAP1 POP JUMP JUMPDEST PUSH0 PUSH1 0x20 DUP3 ADD SWAP1 POP DUP2 DUP2 SUB PUSH0 DUP4 ADD MSTORE PUSH2 0x1E2B DUP2 PUSH2 0x1DF2 JUMP JUMPDEST SWAP1 POP SWAP2 SWAP1 POP JUMP JUMPDEST PUSH32 0x496E76616C696420626F6F6B2069640000000000000000000000000000000000 PUSH0 DUP3 ADD MSTORE POP JUMP JUMPDEST PUSH0 PUSH2 0x1E66 PUSH1 0xF DUP4 PUSH2 0x1490 JUMP JUMPDEST SWAP2 POP PUSH2 0x1E71 DUP3 PUSH2 0x1E32 JUMP JUMPDEST PUSH1 0x20 DUP3 ADD SWAP1 POP SWAP2 SWAP1 POP JUMP JUMPDEST PUSH0 PUSH1 0x20 DUP3 ADD SWAP1 POP DUP2 DUP2 SUB PUSH0 DUP4 ADD MSTORE PUSH2 0x1E93 DUP2 PUSH2 0x1E5A JUMP JUMPDEST SWAP1 POP SWAP2 SWAP1 POP JUMP JUMPDEST PUSH0 PUSH2 0x1EA4 DUP3 PUSH2 0x1201 JUMP JUMPDEST SWAP2 POP PUSH2 0x1EAF DUP4 PUSH2 0x1201 JUMP JUMPDEST SWAP3 POP DUP3 DUP3 ADD SWAP1 POP DUP1 DUP3 GT ISZERO PUSH2 0x1EC7 JUMPI PUSH2 0x1EC6 PUSH2 0x1B02 JUMP JUMPDEST JUMPDEST SWAP3 SWAP2 POP POP JUMP JUMPDEST PUSH32 0x4E6F2073756666696369656E742062616C616E636520696E20796F7572206163 PUSH0 DUP3 ADD MSTORE PUSH32 0x636F756E74000000000000000000000000000000000000000000000000000000 PUSH1 0x20 DUP3 ADD MSTORE POP JUMP JUMPDEST PUSH0 PUSH2 0x1F27 PUSH1 0x25 DUP4 PUSH2 0x1490 JUMP JUMPDEST SWAP2 POP PUSH2 0x1F32 DUP3 PUSH2 0x1ECD JUMP JUMPDEST PUSH1 0x40 DUP3 ADD SWAP1 POP SWAP2 SWAP1 POP JUMP JUMPDEST PUSH0 PUSH1 0x20 DUP3 ADD SWAP1 POP DUP2 DUP2 SUB PUSH0 DUP4 ADD MSTORE PUSH2 0x1F54 DUP2 PUSH2 0x1F1B JUMP JUMPDEST SWAP1 POP SWAP2 SWAP1 POP JUMP JUMPDEST PUSH0 PUSH2 0x1F65 DUP3 PUSH2 0x1201 JUMP JUMPDEST SWAP2 POP PUSH2 0x1F70 DUP4 PUSH2 0x1201 JUMP JUMPDEST SWAP3 POP DUP3 DUP3 SUB SWAP1 POP DUP2 DUP2 GT ISZERO PUSH2 0x1F88 JUMPI PUSH2 0x1F87 PUSH2 0x1B02 JUMP JUMPDEST JUMPDEST SWAP3 SWAP2 POP POP JUMP JUMPDEST PUSH0 PUSH2 0x1F98 DUP3 PUSH2 0x1201 JUMP JUMPDEST SWAP2 POP PUSH0 DUP3 SUB PUSH2 0x1FAA JUMPI PUSH2 0x1FA9 PUSH2 0x1B02 JUMP JUMPDEST JUMPDEST PUSH1 0x1 DUP3 SUB SWAP1 POP SWAP2 SWAP1 POP JUMP INVALID LOG2 PUSH5 0x6970667358 0x22 SLT KECCAK256 STATICCALL 0xE4 SLOAD DUP9 0xE9 JUMP 0xCE 0xEB 0xB7 RETURN 0xAF GASLIMIT ORIGIN SLT 0xA5 0xEF XOR SWAP3 0xD0 XOR XOR 0xA5 SWAP5 0xC7 CALLDATASIZE CREATE CALLVALUE PUSH13 0xB51D0CE764736F6C634300081A STOP CALLER "
				},
				"gasEstimates": {
					"creation": {
						"codeDepositCost": "1634200",
						"executionCost": "infinite",
						"totalCost": "infinite"
					},
					"external": {
						"": "217",
						"Borrowbook(uint256)": "infinite",
						"addBook(string,uint256)": "infinite",
						"becomeMember()": "30028",
						"books(uint256)": "infinite",
						"deadline()": "2426",
						"getBooksdetails(uint256)": "infinite",
						"getbalance()": "2661",
						"manager()": "2528",
						"membershipfee()": "2535",
						"returnBook(uint256)": "infinite",
						"students(address)": "5111",
						"withdrawfunds()": "infinite"
					}
				},
				"methodIdentifiers": {
					"Borrowbook(uint256)": "6b21ffb6",
					"addBook(string,uint256)": "637a3872",
					"becomeMember()": "9d083222",
					"books(uint256)": "68744046",
					"deadline()": "29dcb0cf",
					"getBooksdetails(uint256)": "c609f68c",
					"getbalance()": "4d9b3d5d",
					"manager()": "481c6a75",
					"membershipfee()": "d6b27461",
					"returnBook(uint256)": "ca5140c9",
					"students(address)": "a6c807a9",
					"withdrawfunds()": "6c343ffe"
				}
			},
			"storageLayout": {
				"storage": [
					{
						"astId": 3,
						"contract": "lib.sol:libraryManagemnet",
						"label": "manager",
						"offset": 0,
						"slot": "0",
						"type": "t_address"
					},
					{
						"astId": 5,
						"contract": "lib.sol:libraryManagemnet",
						"label": "deadline",
						"offset": 0,
						"slot": "1",
						"type": "t_uint256"
					},
					{
						"astId": 8,
						"contract": "lib.sol:libraryManagemnet",
						"label": "membershipfee",
						"offset": 0,
						"slot": "2",
						"type": "t_uint256"
					},
					{
						"astId": 34,
						"contract": "lib.sol:libraryManagemnet",
						"label": "books",
						"offset": 0,
						"slot": "3",
						"type": "t_array(t_struct(Book)15_storage)dyn_storage"
					},
					{
						"astId": 39,
						"contract": "lib.sol:libraryManagemnet",
						"label": "students",
						"offset": 0,
						"slot": "4",
						"type": "t_mapping(t_address,t_struct(student)30_storage)"
					}
				],
				"types": {
					"t_address": {
						"encoding": "inplace",
						"label": "address",
						"numberOfBytes": "20"
					},
					"t_array(t_struct(Book)15_storage)dyn_storage": {
						"base": "t_struct(Book)15_storage",
						"encoding": "dynamic_array",
						"label": "struct libraryManagemnet.Book[]",
						"numberOfBytes": "32"
					},
					"t_bool": {
						"encoding": "inplace",
						"label": "bool",
						"numberOfBytes": "1"
					},
					"t_mapping(t_address,t_struct(student)30_storage)": {
						"encoding": "mapping",
						"key": "t_address",
						"label": "mapping(address => struct libraryManagemnet.student)",
						"numberOfBytes": "32",
						"value": "t_struct(student)30_storage"
					},
					"t_mapping(t_uint256,t_struct(Borrowedbook)20_storage)": {
						"encoding": "mapping",
						"key": "t_uint256",
						"label": "mapping(uint256 => struct libraryManagemnet.Borrowedbook)",
						"numberOfBytes": "32",
						"value": "t_struct(Borrowedbook)20_storage"
					},
					"t_string_storage": {
						"encoding": "bytes",
						"label": "string",
						"numberOfBytes": "32"
					},
					"t_struct(Book)15_storage": {
						"encoding": "inplace",
						"label": "struct libraryManagemnet.Book",
						"members": [
							{
								"astId": 10,
								"contract": "lib.sol:libraryManagemnet",
								"label": "title",
								"offset": 0,
								"slot": "0",
								"type": "t_string_storage"
							},
							{
								"astId": 12,
								"contract": "lib.sol:libraryManagemnet",
								"label": "price",
								"offset": 0,
								"slot": "1",
								"type": "t_uint256"
							},
							{
								"astId": 14,
								"contract": "lib.sol:libraryManagemnet",
								"label": "isAvailable",
								"offset": 0,
								"slot": "2",
								"type": "t_bool"
							}
						],
						"numberOfBytes": "96"
					},
					"t_struct(Borrowedbook)20_storage": {
						"encoding": "inplace",
						"label": "struct libraryManagemnet.Borrowedbook",
						"members": [
							{
								"astId": 17,
								"contract": "lib.sol:libraryManagemnet",
								"label": "bookid",
								"offset": 0,
								"slot": "0",
								"type": "t_uint256"
							},
							{
								"astId": 19,
								"contract": "lib.sol:libraryManagemnet",
								"label": "borrowedTime",
								"offset": 0,
								"slot": "1",
								"type": "t_uint256"
							}
						],
						"numberOfBytes": "64"
					},
					"t_struct(student)30_storage": {
						"encoding": "inplace",
						"label": "struct libraryManagemnet.student",
						"members": [
							{
								"astId": 22,
								"contract": "lib.sol:libraryManagemnet",
								"label": "isMember",
								"offset": 0,
								"slot": "0",
								"type": "t_bool"
							},
							{
								"astId": 24,
								"contract": "lib.sol:libraryManagemnet",
								"label": "borrowedcount",
								"offset": 0,
								"slot": "1",
								"type": "t_uint256"
							},
							{
								"astId": 29,
								"contract": "lib.sol:libraryManagemnet",
								"label": "borrowedbooks",
								"offset": 0,
								"slot": "2",
								"type": "t_mapping(t_uint256,t_struct(Borrowedbook)20_storage)"
							}
						],
						"numberOfBytes": "96"
					},
					"t_uint256": {
						"encoding": "inplace",
						"label": "uint256",
						"numberOfBytes": "32"
					}
				}
			},
			"userdoc": {
				"kind": "user",
				"methods": {},
				"version": 1
			}
		}
	}
}