{
	"election.sol": {
		"election": {
			"abi": [
				{
					"inputs": [
						{
							"internalType": "uint256",
							"name": "_deadline",
							"type": "uint256"
						}
					],
					"stateMutability": "nonpayable",
					"type": "constructor"
				},
				{
					"inputs": [
						{
							"internalType": "string",
							"name": "_name",
							"type": "string"
						}
					],
					"name": "addcandidate",
					"outputs": [],
					"stateMutability": "nonpayable",
					"type": "function"
				},
				{
					"inputs": [
						{
							"internalType": "uint256",
							"name": "",
							"type": "uint256"
						}
					],
					"name": "candidates",
					"outputs": [
						{
							"internalType": "string",
							"name": "name",
							"type": "string"
						},
						{
							"internalType": "uint256",
							"name": "votecount",
							"type": "uint256"
						}
					],
					"stateMutability": "view",
					"type": "function"
				},
				{
					"inputs": [],
					"name": "deadline",
					"outputs": [
						{
							"internalType": "uint256",
							"name": "",
							"type": "uint256"
						}
					],
					"stateMutability": "view",
					"type": "function"
				},
				{
					"inputs": [
						{
							"internalType": "uint256",
							"name": "_candidateindex",
							"type": "uint256"
						}
					],
					"name": "getname",
					"outputs": [
						{
							"internalType": "string",
							"name": "",
							"type": "string"
						}
					],
					"stateMutability": "view",
					"type": "function"
				},
				{
					"inputs": [
						{
							"internalType": "uint256",
							"name": "_candidateindex",
							"type": "uint256"
						}
					],
					"name": "getvotecount",
					"outputs": [
						{
							"internalType": "uint256",
							"name": "",
							"type": "uint256"
						}
					],
					"stateMutability": "view",
					"type": "function"
				},
				{
					"inputs": [],
					"name": "manager",
					"outputs": [
						{
							"internalType": "address",
							"name": "",
							"type": "address"
						}
					],
					"stateMutability": "view",
					"type": "function"
				},
				{
					"inputs": [
						{
							"internalType": "uint256",
							"name": "_candidateindex",
							"type": "uint256"
						}
					],
					"name": "vote",
					"outputs": [],
					"stateMutability": "nonpayable",
					"type": "function"
				},
				{
					"inputs": [
						{
							"internalType": "address",
							"name": "",
							"type": "address"
						}
					],
					"name": "voters",
					"outputs": [
						{
							"internalType": "bool",
							"name": "",
							"type": "bool"
						}
					],
					"stateMutability": "view",
					"type": "function"
				}
			],
			"devdoc": {
				"kind": "dev",
				"methods": {},
				"version": 1
			},
			"evm": {
				"assembly": "    /* \"election.sol\":60:1508  contract election{... */\n  mstore(0x40, 0x80)\n    /* \"election.sol\":298:408  constructor(uint _deadline){... */\n  callvalue\n  dup1\n  iszero\n  tag_1\n  jumpi\n  0x00\n  dup1\n  revert\ntag_1:\n  pop\n  mload(0x40)\n  sub(codesize, bytecodeSize)\n  dup1\n  bytecodeSize\n  dup4\n  codecopy\n  dup2\n  dup2\n  add\n  0x40\n  mstore\n  dup2\n  add\n  swap1\n  tag_2\n  swap2\n  swap1\n  tag_3\n  jump\t// in\ntag_2:\n    /* \"election.sol\":344:354  msg.sender */\n  caller\n    /* \"election.sol\":336:343  manager */\n  0x00\n  dup1\n    /* \"election.sol\":336:354  manager=msg.sender */\n  0x0100\n  exp\n  dup2\n  sload\n  dup2\n  0xffffffffffffffffffffffffffffffffffffffff\n  mul\n  not\n  and\n  swap1\n  dup4\n  0xffffffffffffffffffffffffffffffffffffffff\n  and\n  mul\n  or\n  swap1\n  sstore\n  pop\n    /* \"election.sol\":391:400  _deadline */\n  dup1\n    /* \"election.sol\":374:389  block.timestamp */\n  timestamp\n    /* \"election.sol\":374:400  block.timestamp +_deadline */\n  tag_6\n  swap2\n  swap1\n  tag_7\n  jump\t// in\ntag_6:\n    /* \"election.sol\":365:373  deadline */\n  0x03\n    /* \"election.sol\":365:400  deadline=block.timestamp +_deadline */\n  dup2\n  swap1\n  sstore\n  pop\n    /* \"election.sol\":298:408  constructor(uint _deadline){... */\n  pop\n    /* \"election.sol\":60:1508  contract election{... */\n  jump(tag_8)\n    /* \"#utility.yul\":88:205   */\ntag_10:\n    /* \"#utility.yul\":197:198   */\n  0x00\n    /* \"#utility.yul\":194:195   */\n  dup1\n    /* \"#utility.yul\":187:199   */\n  revert\n    /* \"#utility.yul\":334:411   */\ntag_12:\n    /* \"#utility.yul\":371:378   */\n  0x00\n    /* \"#utility.yul\":400:405   */\n  dup2\n    /* \"#utility.yul\":389:405   */\n  swap1\n  pop\n    /* \"#utility.yul\":334:411   */\n  swap2\n  swap1\n  pop\n  jump\t// out\n    /* \"#utility.yul\":417:539   */\ntag_13:\n    /* \"#utility.yul\":490:514   */\n  tag_22\n    /* \"#utility.yul\":508:513   */\n  dup2\n    /* \"#utility.yul\":490:514   */\n  tag_12\n  jump\t// in\ntag_22:\n    /* \"#utility.yul\":483:488   */\n  dup2\n    /* \"#utility.yul\":480:515   */\n  eq\n    /* \"#utility.yul\":470:533   */\n  tag_23\n  jumpi\n    /* \"#utility.yul\":529:530   */\n  0x00\n    /* \"#utility.yul\":526:527   */\n  dup1\n    /* \"#utility.yul\":519:531   */\n  revert\n    /* \"#utility.yul\":470:533   */\ntag_23:\n    /* \"#utility.yul\":417:539   */\n  pop\n  jump\t// out\n    /* \"#utility.yul\":545:688   */\ntag_14:\n    /* \"#utility.yul\":602:607   */\n  0x00\n    /* \"#utility.yul\":633:639   */\n  dup2\n    /* \"#utility.yul\":627:640   */\n  mload\n    /* \"#utility.yul\":618:640   */\n  swap1\n  pop\n    /* \"#utility.yul\":649:682   */\n  tag_25\n    /* \"#utility.yul\":676:681   */\n  dup2\n    /* \"#utility.yul\":649:682   */\n  tag_13\n  jump\t// in\ntag_25:\n    /* \"#utility.yul\":545:688   */\n  swap3\n  swap2\n  pop\n  pop\n  jump\t// out\n    /* \"#utility.yul\":694:1045   */\ntag_3:\n    /* \"#utility.yul\":764:770   */\n  0x00\n    /* \"#utility.yul\":813:815   */\n  0x20\n    /* \"#utility.yul\":801:810   */\n  dup3\n    /* \"#utility.yul\":792:799   */\n  dup5\n    /* \"#utility.yul\":788:811   */\n  sub\n    /* \"#utility.yul\":784:816   */\n  slt\n    /* \"#utility.yul\":781:900   */\n  iszero\n  tag_27\n  jumpi\n    /* \"#utility.yul\":819:898   */\n  tag_28\n  tag_10\n  jump\t// in\ntag_28:\n    /* \"#utility.yul\":781:900   */\ntag_27:\n    /* \"#utility.yul\":939:940   */\n  0x00\n    /* \"#utility.yul\":964:1028   */\n  tag_29\n    /* \"#utility.yul\":1020:1027   */\n  dup5\n    /* \"#utility.yul\":1011:1017   */\n  dup3\n    /* \"#utility.yul\":1000:1009   */\n  dup6\n    /* \"#utility.yul\":996:1018   */\n  add\n    /* \"#utility.yul\":964:1028   */\n  tag_14\n  jump\t// in\ntag_29:\n    /* \"#utility.yul\":954:1028   */\n  swap2\n  pop\n    /* \"#utility.yul\":910:1038   */\n  pop\n    /* \"#utility.yul\":694:1045   */\n  swap3\n  swap2\n  pop\n  pop\n  jump\t// out\n    /* \"#utility.yul\":1051:1231   */\ntag_15:\n    /* \"#utility.yul\":1099:1176   */\n  0x4e487b7100000000000000000000000000000000000000000000000000000000\n    /* \"#utility.yul\":1096:1097   */\n  0x00\n    /* \"#utility.yul\":1089:1177   */\n  mstore\n    /* \"#utility.yul\":1196:1200   */\n  0x11\n    /* \"#utility.yul\":1193:1194   */\n  0x04\n    /* \"#utility.yul\":1186:1201   */\n  mstore\n    /* \"#utility.yul\":1220:1224   */\n  0x24\n    /* \"#utility.yul\":1217:1218   */\n  0x00\n    /* \"#utility.yul\":1210:1225   */\n  revert\n    /* \"#utility.yul\":1237:1428   */\ntag_7:\n    /* \"#utility.yul\":1277:1280   */\n  0x00\n    /* \"#utility.yul\":1296:1316   */\n  tag_32\n    /* \"#utility.yul\":1314:1315   */\n  dup3\n    /* \"#utility.yul\":1296:1316   */\n  tag_12\n  jump\t// in\ntag_32:\n    /* \"#utility.yul\":1291:1316   */\n  swap2\n  pop\n    /* \"#utility.yul\":1330:1350   */\n  tag_33\n    /* \"#utility.yul\":1348:1349   */\n  dup4\n    /* \"#utility.yul\":1330:1350   */\n  tag_12\n  jump\t// in\ntag_33:\n    /* \"#utility.yul\":1325:1350   */\n  swap3\n  pop\n    /* \"#utility.yul\":1373:1374   */\n  dup3\n    /* \"#utility.yul\":1370:1371   */\n  dup3\n    /* \"#utility.yul\":1366:1375   */\n  add\n    /* \"#utility.yul\":1359:1375   */\n  swap1\n  pop\n    /* \"#utility.yul\":1394:1397   */\n  dup1\n    /* \"#utility.yul\":1391:1392   */\n  dup3\n    /* \"#utility.yul\":1388:1398   */\n  gt\n    /* \"#utility.yul\":1385:1421   */\n  iszero\n  tag_34\n  jumpi\n    /* \"#utility.yul\":1401:1419   */\n  tag_35\n  tag_15\n  jump\t// in\ntag_35:\n    /* \"#utility.yul\":1385:1421   */\ntag_34:\n    /* \"#utility.yul\":1237:1428   */\n  swap3\n  swap2\n  pop\n  pop\n  jump\t// out\n    /* \"election.sol\":60:1508  contract election{... */\ntag_8:\n  dataSize(sub_0)\n  dup1\n  dataOffset(sub_0)\n  0x00\n  codecopy\n  0x00\n  return\nstop\n\nsub_0: assembly {\n        /* \"election.sol\":60:1508  contract election{... */\n      mstore(0x40, 0x80)\n      callvalue\n      dup1\n      iszero\n      tag_1\n      jumpi\n      0x00\n      dup1\n      revert\n    tag_1:\n      pop\n      jumpi(tag_2, lt(calldatasize, 0x04))\n      shr(0xe0, calldataload(0x00))\n      dup1\n      0x481c6a75\n      gt\n      tag_11\n      jumpi\n      dup1\n      0x481c6a75\n      eq\n      tag_7\n      jumpi\n      dup1\n      0x8305abd9\n      eq\n      tag_8\n      jumpi\n      dup1\n      0xa3ec138d\n      eq\n      tag_9\n      jumpi\n      dup1\n      0xefe89ff9\n      eq\n      tag_10\n      jumpi\n      jump(tag_2)\n    tag_11:\n      dup1\n      0x0121b93f\n      eq\n      tag_3\n      jumpi\n      dup1\n      0x0202ace1\n      eq\n      tag_4\n      jumpi\n      dup1\n      0x29dcb0cf\n      eq\n      tag_5\n      jumpi\n      dup1\n      0x3477ee2e\n      eq\n      tag_6\n      jumpi\n    tag_2:\n      0x00\n      dup1\n      revert\n        /* \"election.sol\":718:1071  function vote(uint _candidateindex)public{... */\n    tag_3:\n      tag_12\n      0x04\n      dup1\n      calldatasize\n      sub\n      dup2\n      add\n      swap1\n      tag_13\n      swap2\n      swap1\n      tag_14\n      jump\t// in\n    tag_13:\n      tag_15\n      jump\t// in\n    tag_12:\n      stop\n        /* \"election.sol\":1294:1505  function getname(uint _candidateindex)public view returns(string memory){... */\n    tag_4:\n      tag_16\n      0x04\n      dup1\n      calldatasize\n      sub\n      dup2\n      add\n      swap1\n      tag_17\n      swap2\n      swap1\n      tag_14\n      jump\t// in\n    tag_17:\n      tag_18\n      jump\t// in\n    tag_16:\n      mload(0x40)\n      tag_19\n      swap2\n      swap1\n      tag_20\n      jump\t// in\n    tag_19:\n      mload(0x40)\n      dup1\n      swap2\n      sub\n      swap1\n      return\n        /* \"election.sol\":269:289  uint public deadline */\n    tag_5:\n      tag_21\n      tag_22\n      jump\t// in\n    tag_21:\n      mload(0x40)\n      tag_23\n      swap2\n      swap1\n      tag_24\n      jump\t// in\n    tag_23:\n      mload(0x40)\n      dup1\n      swap2\n      sub\n      swap1\n      return\n        /* \"election.sol\":190:219  candidate[] public candidates */\n    tag_6:\n      tag_25\n      0x04\n      dup1\n      calldatasize\n      sub\n      dup2\n      add\n      swap1\n      tag_26\n      swap2\n      swap1\n      tag_14\n      jump\t// in\n    tag_26:\n      tag_27\n      jump\t// in\n    tag_25:\n      mload(0x40)\n      tag_28\n      swap3\n      swap2\n      swap1\n      tag_29\n      jump\t// in\n    tag_28:\n      mload(0x40)\n      dup1\n      swap2\n      sub\n      swap1\n      return\n        /* \"election.sol\":84:106  address public manager */\n    tag_7:\n      tag_30\n      tag_31\n      jump\t// in\n    tag_30:\n      mload(0x40)\n      tag_32\n      swap2\n      swap1\n      tag_33\n      jump\t// in\n    tag_32:\n      mload(0x40)\n      dup1\n      swap2\n      sub\n      swap1\n      return\n        /* \"election.sol\":526:712  function addcandidate(string memory _name)public OnlyManager{... */\n    tag_8:\n      tag_34\n      0x04\n      dup1\n      calldatasize\n      sub\n      dup2\n      add\n      swap1\n      tag_35\n      swap2\n      swap1\n      tag_36\n      jump\t// in\n    tag_35:\n      tag_37\n      jump\t// in\n    tag_34:\n      stop\n        /* \"election.sol\":226:262  mapping(address=>bool) public voters */\n    tag_9:\n      tag_38\n      0x04\n      dup1\n      calldatasize\n      sub\n      dup2\n      add\n      swap1\n      tag_39\n      swap2\n      swap1\n      tag_40\n      jump\t// in\n    tag_39:\n      tag_41\n      jump\t// in\n    tag_38:\n      mload(0x40)\n      tag_42\n      swap2\n      swap1\n      tag_43\n      jump\t// in\n    tag_42:\n      mload(0x40)\n      dup1\n      swap2\n      sub\n      swap1\n      return\n        /* \"election.sol\":1077:1286  function getvotecount(uint _candidateindex)public view returns(uint){... */\n    tag_10:\n      tag_44\n      0x04\n      dup1\n      calldatasize\n      sub\n      dup2\n      add\n      swap1\n      tag_45\n      swap2\n      swap1\n      tag_14\n      jump\t// in\n    tag_45:\n      tag_46\n      jump\t// in\n    tag_44:\n      mload(0x40)\n      tag_47\n      swap2\n      swap1\n      tag_24\n      jump\t// in\n    tag_47:\n      mload(0x40)\n      dup1\n      swap2\n      sub\n      swap1\n      return\n        /* \"election.sol\":718:1071  function vote(uint _candidateindex)public{... */\n    tag_15:\n        /* \"election.sol\":795:803  deadline */\n      sload(0x03)\n        /* \"election.sol\":778:793  block.timestamp */\n      timestamp\n        /* \"election.sol\":778:803  block.timestamp<=deadline */\n      gt\n      iszero\n        /* \"election.sol\":770:834  require(block.timestamp<=deadline,\"your voting time is expired\") */\n      tag_49\n      jumpi\n      mload(0x40)\n      0x08c379a000000000000000000000000000000000000000000000000000000000\n      dup2\n      mstore\n      0x04\n      add\n      tag_50\n      swap1\n      tag_51\n      jump\t// in\n    tag_50:\n      mload(0x40)\n      dup1\n      swap2\n      sub\n      swap1\n      revert\n    tag_49:\n        /* \"election.sol\":854:860  voters */\n      0x02\n        /* \"election.sol\":854:872  voters[msg.sender] */\n      0x00\n        /* \"election.sol\":861:871  msg.sender */\n      caller\n        /* \"election.sol\":854:872  voters[msg.sender] */\n      0xffffffffffffffffffffffffffffffffffffffff\n      and\n      0xffffffffffffffffffffffffffffffffffffffff\n      and\n      dup2\n      mstore\n      0x20\n      add\n      swap1\n      dup2\n      mstore\n      0x20\n      add\n      0x00\n      keccak256\n      0x00\n      swap1\n      sload\n      swap1\n      0x0100\n      exp\n      swap1\n      div\n      0xff\n      and\n        /* \"election.sol\":853:872  !voters[msg.sender] */\n      iszero\n        /* \"election.sol\":845:898  require(!voters[msg.sender],\"you have already voted\") */\n      tag_52\n      jumpi\n      mload(0x40)\n      0x08c379a000000000000000000000000000000000000000000000000000000000\n      dup2\n      mstore\n      0x04\n      add\n      tag_53\n      swap1\n      tag_54\n      jump\t// in\n    tag_53:\n      mload(0x40)\n      dup1\n      swap2\n      sub\n      swap1\n      revert\n    tag_52:\n        /* \"election.sol\":933:943  candidates */\n      0x01\n        /* \"election.sol\":933:950  candidates.length */\n      dup1\n      sload\n      swap1\n      pop\n        /* \"election.sol\":917:932  _candidateindex */\n      dup2\n        /* \"election.sol\":917:950  _candidateindex<candidates.length */\n      lt\n        /* \"election.sol\":909:975  require(_candidateindex<candidates.length,\"No candidates to vote\") */\n      tag_55\n      jumpi\n      mload(0x40)\n      0x08c379a000000000000000000000000000000000000000000000000000000000\n      dup2\n      mstore\n      0x04\n      add\n      tag_56\n      swap1\n      tag_57\n      jump\t// in\n    tag_56:\n      mload(0x40)\n      dup1\n      swap2\n      sub\n      swap1\n      revert\n    tag_55:\n        /* \"election.sol\":1005:1009  true */\n      0x01\n        /* \"election.sol\":986:992  voters */\n      0x02\n        /* \"election.sol\":986:1004  voters[msg.sender] */\n      0x00\n        /* \"election.sol\":993:1003  msg.sender */\n      caller\n        /* \"election.sol\":986:1004  voters[msg.sender] */\n      0xffffffffffffffffffffffffffffffffffffffff\n      and\n      0xffffffffffffffffffffffffffffffffffffffff\n      and\n      dup2\n      mstore\n      0x20\n      add\n      swap1\n      dup2\n      mstore\n      0x20\n      add\n      0x00\n      keccak256\n      0x00\n        /* \"election.sol\":986:1009  voters[msg.sender]=true */\n      0x0100\n      exp\n      dup2\n      sload\n      dup2\n      0xff\n      mul\n      not\n      and\n      swap1\n      dup4\n      iszero\n      iszero\n      mul\n      or\n      swap1\n      sstore\n      pop\n        /* \"election.sol\":1020:1030  candidates */\n      0x01\n        /* \"election.sol\":1031:1046  _candidateindex */\n      dup2\n        /* \"election.sol\":1020:1047  candidates[_candidateindex] */\n      dup2\n      sload\n      dup2\n      lt\n      tag_58\n      jumpi\n      tag_59\n      tag_60\n      jump\t// in\n    tag_59:\n    tag_58:\n      swap1\n      0x00\n      mstore\n      keccak256(0x00, 0x20)\n      swap1\n      0x02\n      mul\n      add\n        /* \"election.sol\":1020:1057  candidates[_candidateindex].votecount */\n      0x01\n      add\n      0x00\n        /* \"election.sol\":1020:1059  candidates[_candidateindex].votecount++ */\n      dup2\n      sload\n      dup1\n      swap3\n      swap2\n      swap1\n      tag_62\n      swap1\n      tag_63\n      jump\t// in\n    tag_62:\n      swap2\n      swap1\n      pop\n      sstore\n      pop\n        /* \"election.sol\":718:1071  function vote(uint _candidateindex)public{... */\n      pop\n      jump\t// out\n        /* \"election.sol\":1294:1505  function getname(uint _candidateindex)public view returns(string memory){... */\n    tag_18:\n        /* \"election.sol\":1352:1365  string memory */\n      0x60\n        /* \"election.sol\":1401:1411  candidates */\n      0x01\n        /* \"election.sol\":1401:1418  candidates.length */\n      dup1\n      sload\n      swap1\n      pop\n        /* \"election.sol\":1385:1400  _candidateindex */\n      dup3\n        /* \"election.sol\":1385:1418  _candidateindex<candidates.length */\n      lt\n        /* \"election.sol\":1377:1445  require(_candidateindex<candidates.length,\"No candidates available\") */\n      tag_65\n      jumpi\n      mload(0x40)\n      0x08c379a000000000000000000000000000000000000000000000000000000000\n      dup2\n      mstore\n      0x04\n      add\n      tag_66\n      swap1\n      tag_67\n      jump\t// in\n    tag_66:\n      mload(0x40)\n      dup1\n      swap2\n      sub\n      swap1\n      revert\n    tag_65:\n        /* \"election.sol\":1463:1473  candidates */\n      0x01\n        /* \"election.sol\":1474:1489  _candidateindex */\n      dup3\n        /* \"election.sol\":1463:1490  candidates[_candidateindex] */\n      dup2\n      sload\n      dup2\n      lt\n      tag_68\n      jumpi\n      tag_69\n      tag_60\n      jump\t// in\n    tag_69:\n    tag_68:\n      swap1\n      0x00\n      mstore\n      keccak256(0x00, 0x20)\n      swap1\n      0x02\n      mul\n      add\n        /* \"election.sol\":1463:1495  candidates[_candidateindex].name */\n      0x00\n      add\n        /* \"election.sol\":1456:1495  return candidates[_candidateindex].name */\n      dup1\n      sload\n      tag_71\n      swap1\n      tag_72\n      jump\t// in\n    tag_71:\n      dup1\n      0x1f\n      add\n      0x20\n      dup1\n      swap2\n      div\n      mul\n      0x20\n      add\n      mload(0x40)\n      swap1\n      dup2\n      add\n      0x40\n      mstore\n      dup1\n      swap3\n      swap2\n      swap1\n      dup2\n      dup2\n      mstore\n      0x20\n      add\n      dup3\n      dup1\n      sload\n      tag_73\n      swap1\n      tag_72\n      jump\t// in\n    tag_73:\n      dup1\n      iszero\n      tag_74\n      jumpi\n      dup1\n      0x1f\n      lt\n      tag_75\n      jumpi\n      0x0100\n      dup1\n      dup4\n      sload\n      div\n      mul\n      dup4\n      mstore\n      swap2\n      0x20\n      add\n      swap2\n      jump(tag_74)\n    tag_75:\n      dup3\n      add\n      swap2\n      swap1\n      0x00\n      mstore\n      keccak256(0x00, 0x20)\n      swap1\n    tag_76:\n      dup2\n      sload\n      dup2\n      mstore\n      swap1\n      0x01\n      add\n      swap1\n      0x20\n      add\n      dup1\n      dup4\n      gt\n      tag_76\n      jumpi\n      dup3\n      swap1\n      sub\n      0x1f\n      and\n      dup3\n      add\n      swap2\n    tag_74:\n      pop\n      pop\n      pop\n      pop\n      pop\n      swap1\n      pop\n        /* \"election.sol\":1294:1505  function getname(uint _candidateindex)public view returns(string memory){... */\n      swap2\n      swap1\n      pop\n      jump\t// out\n        /* \"election.sol\":269:289  uint public deadline */\n    tag_22:\n      sload(0x03)\n      dup2\n      jump\t// out\n        /* \"election.sol\":190:219  candidate[] public candidates */\n    tag_27:\n      0x01\n      dup2\n      dup2\n      sload\n      dup2\n      lt\n      tag_77\n      jumpi\n      0x00\n      dup1\n      revert\n    tag_77:\n      swap1\n      0x00\n      mstore\n      keccak256(0x00, 0x20)\n      swap1\n      0x02\n      mul\n      add\n      0x00\n      swap2\n      pop\n      swap1\n      pop\n      dup1\n      0x00\n      add\n      dup1\n      sload\n      tag_79\n      swap1\n      tag_72\n      jump\t// in\n    tag_79:\n      dup1\n      0x1f\n      add\n      0x20\n      dup1\n      swap2\n      div\n      mul\n      0x20\n      add\n      mload(0x40)\n      swap1\n      dup2\n      add\n      0x40\n      mstore\n      dup1\n      swap3\n      swap2\n      swap1\n      dup2\n      dup2\n      mstore\n      0x20\n      add\n      dup3\n      dup1\n      sload\n      tag_80\n      swap1\n      tag_72\n      jump\t// in\n    tag_80:\n      dup1\n      iszero\n      tag_81\n      jumpi\n      dup1\n      0x1f\n      lt\n      tag_82\n      jumpi\n      0x0100\n      dup1\n      dup4\n      sload\n      div\n      mul\n      dup4\n      mstore\n      swap2\n      0x20\n      add\n      swap2\n      jump(tag_81)\n    tag_82:\n      dup3\n      add\n      swap2\n      swap1\n      0x00\n      mstore\n      keccak256(0x00, 0x20)\n      swap1\n    tag_83:\n      dup2\n      sload\n      dup2\n      mstore\n      swap1\n      0x01\n      add\n      swap1\n      0x20\n      add\n      dup1\n      dup4\n      gt\n      tag_83\n      jumpi\n      dup3\n      swap1\n      sub\n      0x1f\n      and\n      dup3\n      add\n      swap2\n    tag_81:\n      pop\n      pop\n      pop\n      pop\n      pop\n      swap1\n      dup1\n      0x01\n      add\n      sload\n      swap1\n      pop\n      dup3\n      jump\t// out\n        /* \"election.sol\":84:106  address public manager */\n    tag_31:\n      0x00\n      dup1\n      sload\n      swap1\n      0x0100\n      exp\n      swap1\n      div\n      0xffffffffffffffffffffffffffffffffffffffff\n      and\n      dup2\n      jump\t// out\n        /* \"election.sol\":526:712  function addcandidate(string memory _name)public OnlyManager{... */\n    tag_37:\n        /* \"election.sol\":467:474  manager */\n      0x00\n      dup1\n      sload\n      swap1\n      0x0100\n      exp\n      swap1\n      div\n      0xffffffffffffffffffffffffffffffffffffffff\n      and\n        /* \"election.sol\":455:474  msg.sender==manager */\n      0xffffffffffffffffffffffffffffffffffffffff\n      and\n        /* \"election.sol\":455:465  msg.sender */\n      caller\n        /* \"election.sol\":455:474  msg.sender==manager */\n      0xffffffffffffffffffffffffffffffffffffffff\n      and\n      eq\n        /* \"election.sol\":447:500  require(msg.sender==manager,\"you cant acess to this\") */\n      tag_85\n      jumpi\n      mload(0x40)\n      0x08c379a000000000000000000000000000000000000000000000000000000000\n      dup2\n      mstore\n      0x04\n      add\n      tag_86\n      swap1\n      tag_87\n      jump\t// in\n    tag_86:\n      mload(0x40)\n      dup1\n      swap2\n      sub\n      swap1\n      revert\n    tag_85:\n        /* \"election.sol\":622:630  deadline */\n      sload(0x03)\n        /* \"election.sol\":605:620  block.timestamp */\n      timestamp\n        /* \"election.sol\":605:630  block.timestamp<=deadline */\n      gt\n      iszero\n        /* \"election.sol\":597:654  require(block.timestamp<=deadline,\"deadline is finished\") */\n      tag_89\n      jumpi\n      mload(0x40)\n      0x08c379a000000000000000000000000000000000000000000000000000000000\n      dup2\n      mstore\n      0x04\n      add\n      tag_90\n      swap1\n      tag_91\n      jump\t// in\n    tag_90:\n      mload(0x40)\n      dup1\n      swap2\n      sub\n      swap1\n      revert\n    tag_89:\n        /* \"election.sol\":665:675  candidates */\n      0x01\n        /* \"election.sol\":681:699  candidate(_name,0) */\n      mload(0x40)\n      dup1\n      0x40\n      add\n      0x40\n      mstore\n      dup1\n        /* \"election.sol\":691:696  _name */\n      dup4\n        /* \"election.sol\":681:699  candidate(_name,0) */\n      dup2\n      mstore\n      0x20\n      add\n        /* \"election.sol\":697:698  0 */\n      0x00\n        /* \"election.sol\":681:699  candidate(_name,0) */\n      dup2\n      mstore\n      pop\n        /* \"election.sol\":665:700  candidates.push(candidate(_name,0)) */\n      swap1\n      dup1\n      0x01\n      dup2\n      sload\n      add\n      dup1\n      dup3\n      sstore\n      dup1\n      swap2\n      pop\n      pop\n      0x01\n      swap1\n      sub\n      swap1\n      0x00\n      mstore\n      keccak256(0x00, 0x20)\n      swap1\n      0x02\n      mul\n      add\n      0x00\n      swap1\n      swap2\n      swap1\n      swap2\n      swap1\n      swap2\n      pop\n      0x00\n      dup3\n      add\n      mload\n      dup2\n      0x00\n      add\n      swap1\n      dup2\n      tag_93\n      swap2\n      swap1\n      tag_94\n      jump\t// in\n    tag_93:\n      pop\n      0x20\n      dup3\n      add\n      mload\n      dup2\n      0x01\n      add\n      sstore\n      pop\n      pop\n        /* \"election.sol\":526:712  function addcandidate(string memory _name)public OnlyManager{... */\n      pop\n      jump\t// out\n        /* \"election.sol\":226:262  mapping(address=>bool) public voters */\n    tag_41:\n      mstore(0x20, 0x02)\n      dup1\n      0x00\n      mstore\n      keccak256(0x00, 0x40)\n      0x00\n      swap2\n      pop\n      sload\n      swap1\n      0x0100\n      exp\n      swap1\n      div\n      0xff\n      and\n      dup2\n      jump\t// out\n        /* \"election.sol\":1077:1286  function getvotecount(uint _candidateindex)public view returns(uint){... */\n    tag_46:\n        /* \"election.sol\":1140:1144  uint */\n      0x00\n        /* \"election.sol\":1180:1190  candidates */\n      0x01\n        /* \"election.sol\":1180:1197  candidates.length */\n      dup1\n      sload\n      swap1\n      pop\n        /* \"election.sol\":1164:1179  _candidateindex */\n      dup3\n        /* \"election.sol\":1164:1197  _candidateindex<candidates.length */\n      lt\n        /* \"election.sol\":1156:1223  require(_candidateindex<candidates.length,\"No candidate available\") */\n      tag_96\n      jumpi\n      mload(0x40)\n      0x08c379a000000000000000000000000000000000000000000000000000000000\n      dup2\n      mstore\n      0x04\n      add\n      tag_97\n      swap1\n      tag_98\n      jump\t// in\n    tag_97:\n      mload(0x40)\n      dup1\n      swap2\n      sub\n      swap1\n      revert\n    tag_96:\n        /* \"election.sol\":1241:1251  candidates */\n      0x01\n        /* \"election.sol\":1252:1267  _candidateindex */\n      dup3\n        /* \"election.sol\":1241:1268  candidates[_candidateindex] */\n      dup2\n      sload\n      dup2\n      lt\n      tag_99\n      jumpi\n      tag_100\n      tag_60\n      jump\t// in\n    tag_100:\n    tag_99:\n      swap1\n      0x00\n      mstore\n      keccak256(0x00, 0x20)\n      swap1\n      0x02\n      mul\n      add\n        /* \"election.sol\":1241:1278  candidates[_candidateindex].votecount */\n      0x01\n      add\n      sload\n        /* \"election.sol\":1234:1278  return candidates[_candidateindex].votecount */\n      swap1\n      pop\n        /* \"election.sol\":1077:1286  function getvotecount(uint _candidateindex)public view returns(uint){... */\n      swap2\n      swap1\n      pop\n      jump\t// out\n        /* \"#utility.yul\":7:82   */\n    tag_102:\n        /* \"#utility.yul\":40:46   */\n      0x00\n        /* \"#utility.yul\":73:75   */\n      0x40\n        /* \"#utility.yul\":67:76   */\n      mload\n        /* \"#utility.yul\":57:76   */\n      swap1\n      pop\n        /* \"#utility.yul\":7:82   */\n      swap1\n      jump\t// out\n        /* \"#utility.yul\":88:205   */\n    tag_103:\n        /* \"#utility.yul\":197:198   */\n      0x00\n        /* \"#utility.yul\":194:195   */\n      dup1\n        /* \"#utility.yul\":187:199   */\n      revert\n        /* \"#utility.yul\":211:328   */\n    tag_104:\n        /* \"#utility.yul\":320:321   */\n      0x00\n        /* \"#utility.yul\":317:318   */\n      dup1\n        /* \"#utility.yul\":310:322   */\n      revert\n        /* \"#utility.yul\":334:411   */\n    tag_105:\n        /* \"#utility.yul\":371:378   */\n      0x00\n        /* \"#utility.yul\":400:405   */\n      dup2\n        /* \"#utility.yul\":389:405   */\n      swap1\n      pop\n        /* \"#utility.yul\":334:411   */\n      swap2\n      swap1\n      pop\n      jump\t// out\n        /* \"#utility.yul\":417:539   */\n    tag_106:\n        /* \"#utility.yul\":490:514   */\n      tag_167\n        /* \"#utility.yul\":508:513   */\n      dup2\n        /* \"#utility.yul\":490:514   */\n      tag_105\n      jump\t// in\n    tag_167:\n        /* \"#utility.yul\":483:488   */\n      dup2\n        /* \"#utility.yul\":480:515   */\n      eq\n        /* \"#utility.yul\":470:533   */\n      tag_168\n      jumpi\n        /* \"#utility.yul\":529:530   */\n      0x00\n        /* \"#utility.yul\":526:527   */\n      dup1\n        /* \"#utility.yul\":519:531   */\n      revert\n        /* \"#utility.yul\":470:533   */\n    tag_168:\n        /* \"#utility.yul\":417:539   */\n      pop\n      jump\t// out\n        /* \"#utility.yul\":545:684   */\n    tag_107:\n        /* \"#utility.yul\":591:596   */\n      0x00\n        /* \"#utility.yul\":629:635   */\n      dup2\n        /* \"#utility.yul\":616:636   */\n      calldataload\n        /* \"#utility.yul\":607:636   */\n      swap1\n      pop\n        /* \"#utility.yul\":645:678   */\n      tag_170\n        /* \"#utility.yul\":672:677   */\n      dup2\n        /* \"#utility.yul\":645:678   */\n      tag_106\n      jump\t// in\n    tag_170:\n        /* \"#utility.yul\":545:684   */\n      swap3\n      swap2\n      pop\n      pop\n      jump\t// out\n        /* \"#utility.yul\":690:1019   */\n    tag_14:\n        /* \"#utility.yul\":749:755   */\n      0x00\n        /* \"#utility.yul\":798:800   */\n      0x20\n        /* \"#utility.yul\":786:795   */\n      dup3\n        /* \"#utility.yul\":777:784   */\n      dup5\n        /* \"#utility.yul\":773:796   */\n      sub\n        /* \"#utility.yul\":769:801   */\n      slt\n        /* \"#utility.yul\":766:885   */\n      iszero\n      tag_172\n      jumpi\n        /* \"#utility.yul\":804:883   */\n      tag_173\n      tag_103\n      jump\t// in\n    tag_173:\n        /* \"#utility.yul\":766:885   */\n    tag_172:\n        /* \"#utility.yul\":924:925   */\n      0x00\n        /* \"#utility.yul\":949:1002   */\n      tag_174\n        /* \"#utility.yul\":994:1001   */\n      dup5\n        /* \"#utility.yul\":985:991   */\n      dup3\n        /* \"#utility.yul\":974:983   */\n      dup6\n        /* \"#utility.yul\":970:992   */\n      add\n        /* \"#utility.yul\":949:1002   */\n      tag_107\n      jump\t// in\n    tag_174:\n        /* \"#utility.yul\":939:1002   */\n      swap2\n      pop\n        /* \"#utility.yul\":895:1012   */\n      pop\n        /* \"#utility.yul\":690:1019   */\n      swap3\n      swap2\n      pop\n      pop\n      jump\t// out\n        /* \"#utility.yul\":1025:1124   */\n    tag_108:\n        /* \"#utility.yul\":1077:1083   */\n      0x00\n        /* \"#utility.yul\":1111:1116   */\n      dup2\n        /* \"#utility.yul\":1105:1117   */\n      mload\n        /* \"#utility.yul\":1095:1117   */\n      swap1\n      pop\n        /* \"#utility.yul\":1025:1124   */\n      swap2\n      swap1\n      pop\n      jump\t// out\n        /* \"#utility.yul\":1130:1299   */\n    tag_109:\n        /* \"#utility.yul\":1214:1225   */\n      0x00\n        /* \"#utility.yul\":1248:1254   */\n      dup3\n        /* \"#utility.yul\":1243:1246   */\n      dup3\n        /* \"#utility.yul\":1236:1255   */\n      mstore\n        /* \"#utility.yul\":1288:1292   */\n      0x20\n        /* \"#utility.yul\":1283:1286   */\n      dup3\n        /* \"#utility.yul\":1279:1293   */\n      add\n        /* \"#utility.yul\":1264:1293   */\n      swap1\n      pop\n        /* \"#utility.yul\":1130:1299   */\n      swap3\n      swap2\n      pop\n      pop\n      jump\t// out\n        /* \"#utility.yul\":1305:1444   */\n    tag_110:\n        /* \"#utility.yul\":1394:1400   */\n      dup3\n        /* \"#utility.yul\":1389:1392   */\n      dup2\n        /* \"#utility.yul\":1384:1387   */\n      dup4\n        /* \"#utility.yul\":1378:1401   */\n      mcopy\n        /* \"#utility.yul\":1435:1436   */\n      0x00\n        /* \"#utility.yul\":1426:1432   */\n      dup4\n        /* \"#utility.yul\":1421:1424   */\n      dup4\n        /* \"#utility.yul\":1417:1433   */\n      add\n        /* \"#utility.yul\":1410:1437   */\n      mstore\n        /* \"#utility.yul\":1305:1444   */\n      pop\n      pop\n      pop\n      jump\t// out\n        /* \"#utility.yul\":1450:1552   */\n    tag_111:\n        /* \"#utility.yul\":1491:1497   */\n      0x00\n        /* \"#utility.yul\":1542:1544   */\n      0x1f\n        /* \"#utility.yul\":1538:1545   */\n      not\n        /* \"#utility.yul\":1533:1535   */\n      0x1f\n        /* \"#utility.yul\":1526:1531   */\n      dup4\n        /* \"#utility.yul\":1522:1536   */\n      add\n        /* \"#utility.yul\":1518:1546   */\n      and\n        /* \"#utility.yul\":1508:1546   */\n      swap1\n      pop\n        /* \"#utility.yul\":1450:1552   */\n      swap2\n      swap1\n      pop\n      jump\t// out\n        /* \"#utility.yul\":1558:1935   */\n    tag_112:\n        /* \"#utility.yul\":1646:1649   */\n      0x00\n        /* \"#utility.yul\":1674:1713   */\n      tag_180\n        /* \"#utility.yul\":1707:1712   */\n      dup3\n        /* \"#utility.yul\":1674:1713   */\n      tag_108\n      jump\t// in\n    tag_180:\n        /* \"#utility.yul\":1729:1800   */\n      tag_181\n        /* \"#utility.yul\":1793:1799   */\n      dup2\n        /* \"#utility.yul\":1788:1791   */\n      dup6\n        /* \"#utility.yul\":1729:1800   */\n      tag_109\n      jump\t// in\n    tag_181:\n        /* \"#utility.yul\":1722:1800   */\n      swap4\n      pop\n        /* \"#utility.yul\":1809:1874   */\n      tag_182\n        /* \"#utility.yul\":1867:1873   */\n      dup2\n        /* \"#utility.yul\":1862:1865   */\n      dup6\n        /* \"#utility.yul\":1855:1859   */\n      0x20\n        /* \"#utility.yul\":1848:1853   */\n      dup7\n        /* \"#utility.yul\":1844:1860   */\n      add\n        /* \"#utility.yul\":1809:1874   */\n      tag_110\n      jump\t// in\n    tag_182:\n        /* \"#utility.yul\":1899:1928   */\n      tag_183\n        /* \"#utility.yul\":1921:1927   */\n      dup2\n        /* \"#utility.yul\":1899:1928   */\n      tag_111\n      jump\t// in\n    tag_183:\n        /* \"#utility.yul\":1894:1897   */\n      dup5\n        /* \"#utility.yul\":1890:1929   */\n      add\n        /* \"#utility.yul\":1883:1929   */\n      swap2\n      pop\n        /* \"#utility.yul\":1650:1935   */\n      pop\n        /* \"#utility.yul\":1558:1935   */\n      swap3\n      swap2\n      pop\n      pop\n      jump\t// out\n        /* \"#utility.yul\":1941:2254   */\n    tag_20:\n        /* \"#utility.yul\":2054:2058   */\n      0x00\n        /* \"#utility.yul\":2092:2094   */\n      0x20\n        /* \"#utility.yul\":2081:2090   */\n      dup3\n        /* \"#utility.yul\":2077:2095   */\n      add\n        /* \"#utility.yul\":2069:2095   */\n      swap1\n      pop\n        /* \"#utility.yul\":2141:2150   */\n      dup2\n        /* \"#utility.yul\":2135:2139   */\n      dup2\n        /* \"#utility.yul\":2131:2151   */\n      sub\n        /* \"#utility.yul\":2127:2128   */\n      0x00\n        /* \"#utility.yul\":2116:2125   */\n      dup4\n        /* \"#utility.yul\":2112:2129   */\n      add\n        /* \"#utility.yul\":2105:2152   */\n      mstore\n        /* \"#utility.yul\":2169:2247   */\n      tag_185\n        /* \"#utility.yul\":2242:2246   */\n      dup2\n        /* \"#utility.yul\":2233:2239   */\n      dup5\n        /* \"#utility.yul\":2169:2247   */\n      tag_112\n      jump\t// in\n    tag_185:\n        /* \"#utility.yul\":2161:2247   */\n      swap1\n      pop\n        /* \"#utility.yul\":1941:2254   */\n      swap3\n      swap2\n      pop\n      pop\n      jump\t// out\n        /* \"#utility.yul\":2260:2378   */\n    tag_113:\n        /* \"#utility.yul\":2347:2371   */\n      tag_187\n        /* \"#utility.yul\":2365:2370   */\n      dup2\n        /* \"#utility.yul\":2347:2371   */\n      tag_105\n      jump\t// in\n    tag_187:\n        /* \"#utility.yul\":2342:2345   */\n      dup3\n        /* \"#utility.yul\":2335:2372   */\n      mstore\n        /* \"#utility.yul\":2260:2378   */\n      pop\n      pop\n      jump\t// out\n        /* \"#utility.yul\":2384:2606   */\n    tag_24:\n        /* \"#utility.yul\":2477:2481   */\n      0x00\n        /* \"#utility.yul\":2515:2517   */\n      0x20\n        /* \"#utility.yul\":2504:2513   */\n      dup3\n        /* \"#utility.yul\":2500:2518   */\n      add\n        /* \"#utility.yul\":2492:2518   */\n      swap1\n      pop\n        /* \"#utility.yul\":2528:2599   */\n      tag_189\n        /* \"#utility.yul\":2596:2597   */\n      0x00\n        /* \"#utility.yul\":2585:2594   */\n      dup4\n        /* \"#utility.yul\":2581:2598   */\n      add\n        /* \"#utility.yul\":2572:2578   */\n      dup5\n        /* \"#utility.yul\":2528:2599   */\n      tag_113\n      jump\t// in\n    tag_189:\n        /* \"#utility.yul\":2384:2606   */\n      swap3\n      swap2\n      pop\n      pop\n      jump\t// out\n        /* \"#utility.yul\":2612:3035   */\n    tag_29:\n        /* \"#utility.yul\":2753:2757   */\n      0x00\n        /* \"#utility.yul\":2791:2793   */\n      0x40\n        /* \"#utility.yul\":2780:2789   */\n      dup3\n        /* \"#utility.yul\":2776:2794   */\n      add\n        /* \"#utility.yul\":2768:2794   */\n      swap1\n      pop\n        /* \"#utility.yul\":2840:2849   */\n      dup2\n        /* \"#utility.yul\":2834:2838   */\n      dup2\n        /* \"#utility.yul\":2830:2850   */\n      sub\n        /* \"#utility.yul\":2826:2827   */\n      0x00\n        /* \"#utility.yul\":2815:2824   */\n      dup4\n        /* \"#utility.yul\":2811:2828   */\n      add\n        /* \"#utility.yul\":2804:2851   */\n      mstore\n        /* \"#utility.yul\":2868:2946   */\n      tag_191\n        /* \"#utility.yul\":2941:2945   */\n      dup2\n        /* \"#utility.yul\":2932:2938   */\n      dup6\n        /* \"#utility.yul\":2868:2946   */\n      tag_112\n      jump\t// in\n    tag_191:\n        /* \"#utility.yul\":2860:2946   */\n      swap1\n      pop\n        /* \"#utility.yul\":2956:3028   */\n      tag_192\n        /* \"#utility.yul\":3024:3026   */\n      0x20\n        /* \"#utility.yul\":3013:3022   */\n      dup4\n        /* \"#utility.yul\":3009:3027   */\n      add\n        /* \"#utility.yul\":3000:3006   */\n      dup5\n        /* \"#utility.yul\":2956:3028   */\n      tag_113\n      jump\t// in\n    tag_192:\n        /* \"#utility.yul\":2612:3035   */\n      swap4\n      swap3\n      pop\n      pop\n      pop\n      jump\t// out\n        /* \"#utility.yul\":3041:3167   */\n    tag_114:\n        /* \"#utility.yul\":3078:3085   */\n      0x00\n        /* \"#utility.yul\":3118:3160   */\n      0xffffffffffffffffffffffffffffffffffffffff\n        /* \"#utility.yul\":3111:3116   */\n      dup3\n        /* \"#utility.yul\":3107:3161   */\n      and\n        /* \"#utility.yul\":3096:3161   */\n      swap1\n      pop\n        /* \"#utility.yul\":3041:3167   */\n      swap2\n      swap1\n      pop\n      jump\t// out\n        /* \"#utility.yul\":3173:3269   */\n    tag_115:\n        /* \"#utility.yul\":3210:3217   */\n      0x00\n        /* \"#utility.yul\":3239:3263   */\n      tag_195\n        /* \"#utility.yul\":3257:3262   */\n      dup3\n        /* \"#utility.yul\":3239:3263   */\n      tag_114\n      jump\t// in\n    tag_195:\n        /* \"#utility.yul\":3228:3263   */\n      swap1\n      pop\n        /* \"#utility.yul\":3173:3269   */\n      swap2\n      swap1\n      pop\n      jump\t// out\n        /* \"#utility.yul\":3275:3393   */\n    tag_116:\n        /* \"#utility.yul\":3362:3386   */\n      tag_197\n        /* \"#utility.yul\":3380:3385   */\n      dup2\n        /* \"#utility.yul\":3362:3386   */\n      tag_115\n      jump\t// in\n    tag_197:\n        /* \"#utility.yul\":3357:3360   */\n      dup3\n        /* \"#utility.yul\":3350:3387   */\n      mstore\n        /* \"#utility.yul\":3275:3393   */\n      pop\n      pop\n      jump\t// out\n        /* \"#utility.yul\":3399:3621   */\n    tag_33:\n        /* \"#utility.yul\":3492:3496   */\n      0x00\n        /* \"#utility.yul\":3530:3532   */\n      0x20\n        /* \"#utility.yul\":3519:3528   */\n      dup3\n        /* \"#utility.yul\":3515:3533   */\n      add\n        /* \"#utility.yul\":3507:3533   */\n      swap1\n      pop\n        /* \"#utility.yul\":3543:3614   */\n      tag_199\n        /* \"#utility.yul\":3611:3612   */\n      0x00\n        /* \"#utility.yul\":3600:3609   */\n      dup4\n        /* \"#utility.yul\":3596:3613   */\n      add\n        /* \"#utility.yul\":3587:3593   */\n      dup5\n        /* \"#utility.yul\":3543:3614   */\n      tag_116\n      jump\t// in\n    tag_199:\n        /* \"#utility.yul\":3399:3621   */\n      swap3\n      swap2\n      pop\n      pop\n      jump\t// out\n        /* \"#utility.yul\":3627:3744   */\n    tag_117:\n        /* \"#utility.yul\":3736:3737   */\n      0x00\n        /* \"#utility.yul\":3733:3734   */\n      dup1\n        /* \"#utility.yul\":3726:3738   */\n      revert\n        /* \"#utility.yul\":3750:3867   */\n    tag_118:\n        /* \"#utility.yul\":3859:3860   */\n      0x00\n        /* \"#utility.yul\":3856:3857   */\n      dup1\n        /* \"#utility.yul\":3849:3861   */\n      revert\n        /* \"#utility.yul\":3873:4053   */\n    tag_119:\n        /* \"#utility.yul\":3921:3998   */\n      0x4e487b7100000000000000000000000000000000000000000000000000000000\n        /* \"#utility.yul\":3918:3919   */\n      0x00\n        /* \"#utility.yul\":3911:3999   */\n      mstore\n        /* \"#utility.yul\":4018:4022   */\n      0x41\n        /* \"#utility.yul\":4015:4016   */\n      0x04\n        /* \"#utility.yul\":4008:4023   */\n      mstore\n        /* \"#utility.yul\":4042:4046   */\n      0x24\n        /* \"#utility.yul\":4039:4040   */\n      0x00\n        /* \"#utility.yul\":4032:4047   */\n      revert\n        /* \"#utility.yul\":4059:4340   */\n    tag_120:\n        /* \"#utility.yul\":4142:4169   */\n      tag_204\n        /* \"#utility.yul\":4164:4168   */\n      dup3\n        /* \"#utility.yul\":4142:4169   */\n      tag_111\n      jump\t// in\n    tag_204:\n        /* \"#utility.yul\":4134:4140   */\n      dup2\n        /* \"#utility.yul\":4130:4170   */\n      add\n        /* \"#utility.yul\":4272:4278   */\n      dup2\n        /* \"#utility.yul\":4260:4270   */\n      dup2\n        /* \"#utility.yul\":4257:4279   */\n      lt\n        /* \"#utility.yul\":4236:4254   */\n      0xffffffffffffffff\n        /* \"#utility.yul\":4224:4234   */\n      dup3\n        /* \"#utility.yul\":4221:4255   */\n      gt\n        /* \"#utility.yul\":4218:4280   */\n      or\n        /* \"#utility.yul\":4215:4303   */\n      iszero\n      tag_205\n      jumpi\n        /* \"#utility.yul\":4283:4301   */\n      tag_206\n      tag_119\n      jump\t// in\n    tag_206:\n        /* \"#utility.yul\":4215:4303   */\n    tag_205:\n        /* \"#utility.yul\":4323:4333   */\n      dup1\n        /* \"#utility.yul\":4319:4321   */\n      0x40\n        /* \"#utility.yul\":4312:4334   */\n      mstore\n        /* \"#utility.yul\":4102:4340   */\n      pop\n        /* \"#utility.yul\":4059:4340   */\n      pop\n      pop\n      jump\t// out\n        /* \"#utility.yul\":4346:4475   */\n    tag_121:\n        /* \"#utility.yul\":4380:4386   */\n      0x00\n        /* \"#utility.yul\":4407:4427   */\n      tag_208\n      tag_102\n      jump\t// in\n    tag_208:\n        /* \"#utility.yul\":4397:4427   */\n      swap1\n      pop\n        /* \"#utility.yul\":4436:4469   */\n      tag_209\n        /* \"#utility.yul\":4464:4468   */\n      dup3\n        /* \"#utility.yul\":4456:4462   */\n      dup3\n        /* \"#utility.yul\":4436:4469   */\n      tag_120\n      jump\t// in\n    tag_209:\n        /* \"#utility.yul\":4346:4475   */\n      swap2\n      swap1\n      pop\n      jump\t// out\n        /* \"#utility.yul\":4481:4789   */\n    tag_122:\n        /* \"#utility.yul\":4543:4547   */\n      0x00\n        /* \"#utility.yul\":4633:4651   */\n      0xffffffffffffffff\n        /* \"#utility.yul\":4625:4631   */\n      dup3\n        /* \"#utility.yul\":4622:4652   */\n      gt\n        /* \"#utility.yul\":4619:4675   */\n      iszero\n      tag_211\n      jumpi\n        /* \"#utility.yul\":4655:4673   */\n      tag_212\n      tag_119\n      jump\t// in\n    tag_212:\n        /* \"#utility.yul\":4619:4675   */\n    tag_211:\n        /* \"#utility.yul\":4693:4722   */\n      tag_213\n        /* \"#utility.yul\":4715:4721   */\n      dup3\n        /* \"#utility.yul\":4693:4722   */\n      tag_111\n      jump\t// in\n    tag_213:\n        /* \"#utility.yul\":4685:4722   */\n      swap1\n      pop\n        /* \"#utility.yul\":4777:4781   */\n      0x20\n        /* \"#utility.yul\":4771:4775   */\n      dup2\n        /* \"#utility.yul\":4767:4782   */\n      add\n        /* \"#utility.yul\":4759:4782   */\n      swap1\n      pop\n        /* \"#utility.yul\":4481:4789   */\n      swap2\n      swap1\n      pop\n      jump\t// out\n        /* \"#utility.yul\":4795:4943   */\n    tag_123:\n        /* \"#utility.yul\":4893:4899   */\n      dup3\n        /* \"#utility.yul\":4888:4891   */\n      dup2\n        /* \"#utility.yul\":4883:4886   */\n      dup4\n        /* \"#utility.yul\":4870:4900   */\n      calldatacopy\n        /* \"#utility.yul\":4934:4935   */\n      0x00\n        /* \"#utility.yul\":4925:4931   */\n      dup4\n        /* \"#utility.yul\":4920:4923   */\n      dup4\n        /* \"#utility.yul\":4916:4932   */\n      add\n        /* \"#utility.yul\":4909:4936   */\n      mstore\n        /* \"#utility.yul\":4795:4943   */\n      pop\n      pop\n      pop\n      jump\t// out\n        /* \"#utility.yul\":4949:5374   */\n    tag_124:\n        /* \"#utility.yul\":5027:5032   */\n      0x00\n        /* \"#utility.yul\":5052:5118   */\n      tag_216\n        /* \"#utility.yul\":5068:5117   */\n      tag_217\n        /* \"#utility.yul\":5110:5116   */\n      dup5\n        /* \"#utility.yul\":5068:5117   */\n      tag_122\n      jump\t// in\n    tag_217:\n        /* \"#utility.yul\":5052:5118   */\n      tag_121\n      jump\t// in\n    tag_216:\n        /* \"#utility.yul\":5043:5118   */\n      swap1\n      pop\n        /* \"#utility.yul\":5141:5147   */\n      dup3\n        /* \"#utility.yul\":5134:5139   */\n      dup2\n        /* \"#utility.yul\":5127:5148   */\n      mstore\n        /* \"#utility.yul\":5179:5183   */\n      0x20\n        /* \"#utility.yul\":5172:5177   */\n      dup2\n        /* \"#utility.yul\":5168:5184   */\n      add\n        /* \"#utility.yul\":5217:5220   */\n      dup5\n        /* \"#utility.yul\":5208:5214   */\n      dup5\n        /* \"#utility.yul\":5203:5206   */\n      dup5\n        /* \"#utility.yul\":5199:5215   */\n      add\n        /* \"#utility.yul\":5196:5221   */\n      gt\n        /* \"#utility.yul\":5193:5305   */\n      iszero\n      tag_218\n      jumpi\n        /* \"#utility.yul\":5224:5303   */\n      tag_219\n      tag_118\n      jump\t// in\n    tag_219:\n        /* \"#utility.yul\":5193:5305   */\n    tag_218:\n        /* \"#utility.yul\":5314:5368   */\n      tag_220\n        /* \"#utility.yul\":5361:5367   */\n      dup5\n        /* \"#utility.yul\":5356:5359   */\n      dup3\n        /* \"#utility.yul\":5351:5354   */\n      dup6\n        /* \"#utility.yul\":5314:5368   */\n      tag_123\n      jump\t// in\n    tag_220:\n        /* \"#utility.yul\":5033:5374   */\n      pop\n        /* \"#utility.yul\":4949:5374   */\n      swap4\n      swap3\n      pop\n      pop\n      pop\n      jump\t// out\n        /* \"#utility.yul\":5394:5734   */\n    tag_125:\n        /* \"#utility.yul\":5450:5455   */\n      0x00\n        /* \"#utility.yul\":5499:5502   */\n      dup3\n        /* \"#utility.yul\":5492:5496   */\n      0x1f\n        /* \"#utility.yul\":5484:5490   */\n      dup4\n        /* \"#utility.yul\":5480:5497   */\n      add\n        /* \"#utility.yul\":5476:5503   */\n      slt\n        /* \"#utility.yul\":5466:5588   */\n      tag_222\n      jumpi\n        /* \"#utility.yul\":5507:5586   */\n      tag_223\n      tag_117\n      jump\t// in\n    tag_223:\n        /* \"#utility.yul\":5466:5588   */\n    tag_222:\n        /* \"#utility.yul\":5624:5630   */\n      dup2\n        /* \"#utility.yul\":5611:5631   */\n      calldataload\n        /* \"#utility.yul\":5649:5728   */\n      tag_224\n        /* \"#utility.yul\":5724:5727   */\n      dup5\n        /* \"#utility.yul\":5716:5722   */\n      dup3\n        /* \"#utility.yul\":5709:5713   */\n      0x20\n        /* \"#utility.yul\":5701:5707   */\n      dup7\n        /* \"#utility.yul\":5697:5714   */\n      add\n        /* \"#utility.yul\":5649:5728   */\n      tag_124\n      jump\t// in\n    tag_224:\n        /* \"#utility.yul\":5640:5728   */\n      swap2\n      pop\n        /* \"#utility.yul\":5456:5734   */\n      pop\n        /* \"#utility.yul\":5394:5734   */\n      swap3\n      swap2\n      pop\n      pop\n      jump\t// out\n        /* \"#utility.yul\":5740:6249   */\n    tag_36:\n        /* \"#utility.yul\":5809:5815   */\n      0x00\n        /* \"#utility.yul\":5858:5860   */\n      0x20\n        /* \"#utility.yul\":5846:5855   */\n      dup3\n        /* \"#utility.yul\":5837:5844   */\n      dup5\n        /* \"#utility.yul\":5833:5856   */\n      sub\n        /* \"#utility.yul\":5829:5861   */\n      slt\n        /* \"#utility.yul\":5826:5945   */\n      iszero\n      tag_226\n      jumpi\n        /* \"#utility.yul\":5864:5943   */\n      tag_227\n      tag_103\n      jump\t// in\n    tag_227:\n        /* \"#utility.yul\":5826:5945   */\n    tag_226:\n        /* \"#utility.yul\":6012:6013   */\n      0x00\n        /* \"#utility.yul\":6001:6010   */\n      dup3\n        /* \"#utility.yul\":5997:6014   */\n      add\n        /* \"#utility.yul\":5984:6015   */\n      calldataload\n        /* \"#utility.yul\":6042:6060   */\n      0xffffffffffffffff\n        /* \"#utility.yul\":6034:6040   */\n      dup2\n        /* \"#utility.yul\":6031:6061   */\n      gt\n        /* \"#utility.yul\":6028:6145   */\n      iszero\n      tag_228\n      jumpi\n        /* \"#utility.yul\":6064:6143   */\n      tag_229\n      tag_104\n      jump\t// in\n    tag_229:\n        /* \"#utility.yul\":6028:6145   */\n    tag_228:\n        /* \"#utility.yul\":6169:6232   */\n      tag_230\n        /* \"#utility.yul\":6224:6231   */\n      dup5\n        /* \"#utility.yul\":6215:6221   */\n      dup3\n        /* \"#utility.yul\":6204:6213   */\n      dup6\n        /* \"#utility.yul\":6200:6222   */\n      add\n        /* \"#utility.yul\":6169:6232   */\n      tag_125\n      jump\t// in\n    tag_230:\n        /* \"#utility.yul\":6159:6232   */\n      swap2\n      pop\n        /* \"#utility.yul\":5955:6242   */\n      pop\n        /* \"#utility.yul\":5740:6249   */\n      swap3\n      swap2\n      pop\n      pop\n      jump\t// out\n        /* \"#utility.yul\":6255:6377   */\n    tag_126:\n        /* \"#utility.yul\":6328:6352   */\n      tag_232\n        /* \"#utility.yul\":6346:6351   */\n      dup2\n        /* \"#utility.yul\":6328:6352   */\n      tag_115\n      jump\t// in\n    tag_232:\n        /* \"#utility.yul\":6321:6326   */\n      dup2\n        /* \"#utility.yul\":6318:6353   */\n      eq\n        /* \"#utility.yul\":6308:6371   */\n      tag_233\n      jumpi\n        /* \"#utility.yul\":6367:6368   */\n      0x00\n        /* \"#utility.yul\":6364:6365   */\n      dup1\n        /* \"#utility.yul\":6357:6369   */\n      revert\n        /* \"#utility.yul\":6308:6371   */\n    tag_233:\n        /* \"#utility.yul\":6255:6377   */\n      pop\n      jump\t// out\n        /* \"#utility.yul\":6383:6522   */\n    tag_127:\n        /* \"#utility.yul\":6429:6434   */\n      0x00\n        /* \"#utility.yul\":6467:6473   */\n      dup2\n        /* \"#utility.yul\":6454:6474   */\n      calldataload\n        /* \"#utility.yul\":6445:6474   */\n      swap1\n      pop\n        /* \"#utility.yul\":6483:6516   */\n      tag_235\n        /* \"#utility.yul\":6510:6515   */\n      dup2\n        /* \"#utility.yul\":6483:6516   */\n      tag_126\n      jump\t// in\n    tag_235:\n        /* \"#utility.yul\":6383:6522   */\n      swap3\n      swap2\n      pop\n      pop\n      jump\t// out\n        /* \"#utility.yul\":6528:6857   */\n    tag_40:\n        /* \"#utility.yul\":6587:6593   */\n      0x00\n        /* \"#utility.yul\":6636:6638   */\n      0x20\n        /* \"#utility.yul\":6624:6633   */\n      dup3\n        /* \"#utility.yul\":6615:6622   */\n      dup5\n        /* \"#utility.yul\":6611:6634   */\n      sub\n        /* \"#utility.yul\":6607:6639   */\n      slt\n        /* \"#utility.yul\":6604:6723   */\n      iszero\n      tag_237\n      jumpi\n        /* \"#utility.yul\":6642:6721   */\n      tag_238\n      tag_103\n      jump\t// in\n    tag_238:\n        /* \"#utility.yul\":6604:6723   */\n    tag_237:\n        /* \"#utility.yul\":6762:6763   */\n      0x00\n        /* \"#utility.yul\":6787:6840   */\n      tag_239\n        /* \"#utility.yul\":6832:6839   */\n      dup5\n        /* \"#utility.yul\":6823:6829   */\n      dup3\n        /* \"#utility.yul\":6812:6821   */\n      dup6\n        /* \"#utility.yul\":6808:6830   */\n      add\n        /* \"#utility.yul\":6787:6840   */\n      tag_127\n      jump\t// in\n    tag_239:\n        /* \"#utility.yul\":6777:6840   */\n      swap2\n      pop\n        /* \"#utility.yul\":6733:6850   */\n      pop\n        /* \"#utility.yul\":6528:6857   */\n      swap3\n      swap2\n      pop\n      pop\n      jump\t// out\n        /* \"#utility.yul\":6863:6953   */\n    tag_128:\n        /* \"#utility.yul\":6897:6904   */\n      0x00\n        /* \"#utility.yul\":6940:6945   */\n      dup2\n        /* \"#utility.yul\":6933:6946   */\n      iszero\n        /* \"#utility.yul\":6926:6947   */\n      iszero\n        /* \"#utility.yul\":6915:6947   */\n      swap1\n      pop\n        /* \"#utility.yul\":6863:6953   */\n      swap2\n      swap1\n      pop\n      jump\t// out\n        /* \"#utility.yul\":6959:7068   */\n    tag_129:\n        /* \"#utility.yul\":7040:7061   */\n      tag_242\n        /* \"#utility.yul\":7055:7060   */\n      dup2\n        /* \"#utility.yul\":7040:7061   */\n      tag_128\n      jump\t// in\n    tag_242:\n        /* \"#utility.yul\":7035:7038   */\n      dup3\n        /* \"#utility.yul\":7028:7062   */\n      mstore\n        /* \"#utility.yul\":6959:7068   */\n      pop\n      pop\n      jump\t// out\n        /* \"#utility.yul\":7074:7284   */\n    tag_43:\n        /* \"#utility.yul\":7161:7165   */\n      0x00\n        /* \"#utility.yul\":7199:7201   */\n      0x20\n        /* \"#utility.yul\":7188:7197   */\n      dup3\n        /* \"#utility.yul\":7184:7202   */\n      add\n        /* \"#utility.yul\":7176:7202   */\n      swap1\n      pop\n        /* \"#utility.yul\":7212:7277   */\n      tag_244\n        /* \"#utility.yul\":7274:7275   */\n      0x00\n        /* \"#utility.yul\":7263:7272   */\n      dup4\n        /* \"#utility.yul\":7259:7276   */\n      add\n        /* \"#utility.yul\":7250:7256   */\n      dup5\n        /* \"#utility.yul\":7212:7277   */\n      tag_129\n      jump\t// in\n    tag_244:\n        /* \"#utility.yul\":7074:7284   */\n      swap3\n      swap2\n      pop\n      pop\n      jump\t// out\n        /* \"#utility.yul\":7290:7467   */\n    tag_130:\n        /* \"#utility.yul\":7430:7459   */\n      0x796f757220766f74696e672074696d6520697320657870697265640000000000\n        /* \"#utility.yul\":7426:7427   */\n      0x00\n        /* \"#utility.yul\":7418:7424   */\n      dup3\n        /* \"#utility.yul\":7414:7428   */\n      add\n        /* \"#utility.yul\":7407:7460   */\n      mstore\n        /* \"#utility.yul\":7290:7467   */\n      pop\n      jump\t// out\n        /* \"#utility.yul\":7473:7839   */\n    tag_131:\n        /* \"#utility.yul\":7615:7618   */\n      0x00\n        /* \"#utility.yul\":7636:7703   */\n      tag_247\n        /* \"#utility.yul\":7700:7702   */\n      0x1b\n        /* \"#utility.yul\":7695:7698   */\n      dup4\n        /* \"#utility.yul\":7636:7703   */\n      tag_109\n      jump\t// in\n    tag_247:\n        /* \"#utility.yul\":7629:7703   */\n      swap2\n      pop\n        /* \"#utility.yul\":7712:7805   */\n      tag_248\n        /* \"#utility.yul\":7801:7804   */\n      dup3\n        /* \"#utility.yul\":7712:7805   */\n      tag_130\n      jump\t// in\n    tag_248:\n        /* \"#utility.yul\":7830:7832   */\n      0x20\n        /* \"#utility.yul\":7825:7828   */\n      dup3\n        /* \"#utility.yul\":7821:7833   */\n      add\n        /* \"#utility.yul\":7814:7833   */\n      swap1\n      pop\n        /* \"#utility.yul\":7473:7839   */\n      swap2\n      swap1\n      pop\n      jump\t// out\n        /* \"#utility.yul\":7845:8264   */\n    tag_51:\n        /* \"#utility.yul\":8011:8015   */\n      0x00\n        /* \"#utility.yul\":8049:8051   */\n      0x20\n        /* \"#utility.yul\":8038:8047   */\n      dup3\n        /* \"#utility.yul\":8034:8052   */\n      add\n        /* \"#utility.yul\":8026:8052   */\n      swap1\n      pop\n        /* \"#utility.yul\":8098:8107   */\n      dup2\n        /* \"#utility.yul\":8092:8096   */\n      dup2\n        /* \"#utility.yul\":8088:8108   */\n      sub\n        /* \"#utility.yul\":8084:8085   */\n      0x00\n        /* \"#utility.yul\":8073:8082   */\n      dup4\n        /* \"#utility.yul\":8069:8086   */\n      add\n        /* \"#utility.yul\":8062:8109   */\n      mstore\n        /* \"#utility.yul\":8126:8257   */\n      tag_250\n        /* \"#utility.yul\":8252:8256   */\n      dup2\n        /* \"#utility.yul\":8126:8257   */\n      tag_131\n      jump\t// in\n    tag_250:\n        /* \"#utility.yul\":8118:8257   */\n      swap1\n      pop\n        /* \"#utility.yul\":7845:8264   */\n      swap2\n      swap1\n      pop\n      jump\t// out\n        /* \"#utility.yul\":8270:8442   */\n    tag_132:\n        /* \"#utility.yul\":8410:8434   */\n      0x796f75206861766520616c726561647920766f74656400000000000000000000\n        /* \"#utility.yul\":8406:8407   */\n      0x00\n        /* \"#utility.yul\":8398:8404   */\n      dup3\n        /* \"#utility.yul\":8394:8408   */\n      add\n        /* \"#utility.yul\":8387:8435   */\n      mstore\n        /* \"#utility.yul\":8270:8442   */\n      pop\n      jump\t// out\n        /* \"#utility.yul\":8448:8814   */\n    tag_133:\n        /* \"#utility.yul\":8590:8593   */\n      0x00\n        /* \"#utility.yul\":8611:8678   */\n      tag_253\n        /* \"#utility.yul\":8675:8677   */\n      0x16\n        /* \"#utility.yul\":8670:8673   */\n      dup4\n        /* \"#utility.yul\":8611:8678   */\n      tag_109\n      jump\t// in\n    tag_253:\n        /* \"#utility.yul\":8604:8678   */\n      swap2\n      pop\n        /* \"#utility.yul\":8687:8780   */\n      tag_254\n        /* \"#utility.yul\":8776:8779   */\n      dup3\n        /* \"#utility.yul\":8687:8780   */\n      tag_132\n      jump\t// in\n    tag_254:\n        /* \"#utility.yul\":8805:8807   */\n      0x20\n        /* \"#utility.yul\":8800:8803   */\n      dup3\n        /* \"#utility.yul\":8796:8808   */\n      add\n        /* \"#utility.yul\":8789:8808   */\n      swap1\n      pop\n        /* \"#utility.yul\":8448:8814   */\n      swap2\n      swap1\n      pop\n      jump\t// out\n        /* \"#utility.yul\":8820:9239   */\n    tag_54:\n        /* \"#utility.yul\":8986:8990   */\n      0x00\n        /* \"#utility.yul\":9024:9026   */\n      0x20\n        /* \"#utility.yul\":9013:9022   */\n      dup3\n        /* \"#utility.yul\":9009:9027   */\n      add\n        /* \"#utility.yul\":9001:9027   */\n      swap1\n      pop\n        /* \"#utility.yul\":9073:9082   */\n      dup2\n        /* \"#utility.yul\":9067:9071   */\n      dup2\n        /* \"#utility.yul\":9063:9083   */\n      sub\n        /* \"#utility.yul\":9059:9060   */\n      0x00\n        /* \"#utility.yul\":9048:9057   */\n      dup4\n        /* \"#utility.yul\":9044:9061   */\n      add\n        /* \"#utility.yul\":9037:9084   */\n      mstore\n        /* \"#utility.yul\":9101:9232   */\n      tag_256\n        /* \"#utility.yul\":9227:9231   */\n      dup2\n        /* \"#utility.yul\":9101:9232   */\n      tag_133\n      jump\t// in\n    tag_256:\n        /* \"#utility.yul\":9093:9232   */\n      swap1\n      pop\n        /* \"#utility.yul\":8820:9239   */\n      swap2\n      swap1\n      pop\n      jump\t// out\n        /* \"#utility.yul\":9245:9416   */\n    tag_134:\n        /* \"#utility.yul\":9385:9408   */\n      0x4e6f2063616e6469646174657320746f20766f74650000000000000000000000\n        /* \"#utility.yul\":9381:9382   */\n      0x00\n        /* \"#utility.yul\":9373:9379   */\n      dup3\n        /* \"#utility.yul\":9369:9383   */\n      add\n        /* \"#utility.yul\":9362:9409   */\n      mstore\n        /* \"#utility.yul\":9245:9416   */\n      pop\n      jump\t// out\n        /* \"#utility.yul\":9422:9788   */\n    tag_135:\n        /* \"#utility.yul\":9564:9567   */\n      0x00\n        /* \"#utility.yul\":9585:9652   */\n      tag_259\n        /* \"#utility.yul\":9649:9651   */\n      0x15\n        /* \"#utility.yul\":9644:9647   */\n      dup4\n        /* \"#utility.yul\":9585:9652   */\n      tag_109\n      jump\t// in\n    tag_259:\n        /* \"#utility.yul\":9578:9652   */\n      swap2\n      pop\n        /* \"#utility.yul\":9661:9754   */\n      tag_260\n        /* \"#utility.yul\":9750:9753   */\n      dup3\n        /* \"#utility.yul\":9661:9754   */\n      tag_134\n      jump\t// in\n    tag_260:\n        /* \"#utility.yul\":9779:9781   */\n      0x20\n        /* \"#utility.yul\":9774:9777   */\n      dup3\n        /* \"#utility.yul\":9770:9782   */\n      add\n        /* \"#utility.yul\":9763:9782   */\n      swap1\n      pop\n        /* \"#utility.yul\":9422:9788   */\n      swap2\n      swap1\n      pop\n      jump\t// out\n        /* \"#utility.yul\":9794:10213   */\n    tag_57:\n        /* \"#utility.yul\":9960:9964   */\n      0x00\n        /* \"#utility.yul\":9998:10000   */\n      0x20\n        /* \"#utility.yul\":9987:9996   */\n      dup3\n        /* \"#utility.yul\":9983:10001   */\n      add\n        /* \"#utility.yul\":9975:10001   */\n      swap1\n      pop\n        /* \"#utility.yul\":10047:10056   */\n      dup2\n        /* \"#utility.yul\":10041:10045   */\n      dup2\n        /* \"#utility.yul\":10037:10057   */\n      sub\n        /* \"#utility.yul\":10033:10034   */\n      0x00\n        /* \"#utility.yul\":10022:10031   */\n      dup4\n        /* \"#utility.yul\":10018:10035   */\n      add\n        /* \"#utility.yul\":10011:10058   */\n      mstore\n        /* \"#utility.yul\":10075:10206   */\n      tag_262\n        /* \"#utility.yul\":10201:10205   */\n      dup2\n        /* \"#utility.yul\":10075:10206   */\n      tag_135\n      jump\t// in\n    tag_262:\n        /* \"#utility.yul\":10067:10206   */\n      swap1\n      pop\n        /* \"#utility.yul\":9794:10213   */\n      swap2\n      swap1\n      pop\n      jump\t// out\n        /* \"#utility.yul\":10219:10399   */\n    tag_60:\n        /* \"#utility.yul\":10267:10344   */\n      0x4e487b7100000000000000000000000000000000000000000000000000000000\n        /* \"#utility.yul\":10264:10265   */\n      0x00\n        /* \"#utility.yul\":10257:10345   */\n      mstore\n        /* \"#utility.yul\":10364:10368   */\n      0x32\n        /* \"#utility.yul\":10361:10362   */\n      0x04\n        /* \"#utility.yul\":10354:10369   */\n      mstore\n        /* \"#utility.yul\":10388:10392   */\n      0x24\n        /* \"#utility.yul\":10385:10386   */\n      0x00\n        /* \"#utility.yul\":10378:10393   */\n      revert\n        /* \"#utility.yul\":10405:10585   */\n    tag_136:\n        /* \"#utility.yul\":10453:10530   */\n      0x4e487b7100000000000000000000000000000000000000000000000000000000\n        /* \"#utility.yul\":10450:10451   */\n      0x00\n        /* \"#utility.yul\":10443:10531   */\n      mstore\n        /* \"#utility.yul\":10550:10554   */\n      0x11\n        /* \"#utility.yul\":10547:10548   */\n      0x04\n        /* \"#utility.yul\":10540:10555   */\n      mstore\n        /* \"#utility.yul\":10574:10578   */\n      0x24\n        /* \"#utility.yul\":10571:10572   */\n      0x00\n        /* \"#utility.yul\":10564:10579   */\n      revert\n        /* \"#utility.yul\":10591:10824   */\n    tag_63:\n        /* \"#utility.yul\":10630:10633   */\n      0x00\n        /* \"#utility.yul\":10653:10677   */\n      tag_266\n        /* \"#utility.yul\":10671:10676   */\n      dup3\n        /* \"#utility.yul\":10653:10677   */\n      tag_105\n      jump\t// in\n    tag_266:\n        /* \"#utility.yul\":10644:10677   */\n      swap2\n      pop\n        /* \"#utility.yul\":10699:10765   */\n      0xffffffffffffffffffffffffffffffffffffffffffffffffffffffffffffffff\n        /* \"#utility.yul\":10692:10697   */\n      dup3\n        /* \"#utility.yul\":10689:10766   */\n      sub\n        /* \"#utility.yul\":10686:10789   */\n      tag_267\n      jumpi\n        /* \"#utility.yul\":10769:10787   */\n      tag_268\n      tag_136\n      jump\t// in\n    tag_268:\n        /* \"#utility.yul\":10686:10789   */\n    tag_267:\n        /* \"#utility.yul\":10816:10817   */\n      0x01\n        /* \"#utility.yul\":10809:10814   */\n      dup3\n        /* \"#utility.yul\":10805:10818   */\n      add\n        /* \"#utility.yul\":10798:10818   */\n      swap1\n      pop\n        /* \"#utility.yul\":10591:10824   */\n      swap2\n      swap1\n      pop\n      jump\t// out\n        /* \"#utility.yul\":10830:11003   */\n    tag_137:\n        /* \"#utility.yul\":10970:10995   */\n      0x4e6f2063616e6469646174657320617661696c61626c65000000000000000000\n        /* \"#utility.yul\":10966:10967   */\n      0x00\n        /* \"#utility.yul\":10958:10964   */\n      dup3\n        /* \"#utility.yul\":10954:10968   */\n      add\n        /* \"#utility.yul\":10947:10996   */\n      mstore\n        /* \"#utility.yul\":10830:11003   */\n      pop\n      jump\t// out\n        /* \"#utility.yul\":11009:11375   */\n    tag_138:\n        /* \"#utility.yul\":11151:11154   */\n      0x00\n        /* \"#utility.yul\":11172:11239   */\n      tag_271\n        /* \"#utility.yul\":11236:11238   */\n      0x17\n        /* \"#utility.yul\":11231:11234   */\n      dup4\n        /* \"#utility.yul\":11172:11239   */\n      tag_109\n      jump\t// in\n    tag_271:\n        /* \"#utility.yul\":11165:11239   */\n      swap2\n      pop\n        /* \"#utility.yul\":11248:11341   */\n      tag_272\n        /* \"#utility.yul\":11337:11340   */\n      dup3\n        /* \"#utility.yul\":11248:11341   */\n      tag_137\n      jump\t// in\n    tag_272:\n        /* \"#utility.yul\":11366:11368   */\n      0x20\n        /* \"#utility.yul\":11361:11364   */\n      dup3\n        /* \"#utility.yul\":11357:11369   */\n      add\n        /* \"#utility.yul\":11350:11369   */\n      swap1\n      pop\n        /* \"#utility.yul\":11009:11375   */\n      swap2\n      swap1\n      pop\n      jump\t// out\n        /* \"#utility.yul\":11381:11800   */\n    tag_67:\n        /* \"#utility.yul\":11547:11551   */\n      0x00\n        /* \"#utility.yul\":11585:11587   */\n      0x20\n        /* \"#utility.yul\":11574:11583   */\n      dup3\n        /* \"#utility.yul\":11570:11588   */\n      add\n        /* \"#utility.yul\":11562:11588   */\n      swap1\n      pop\n        /* \"#utility.yul\":11634:11643   */\n      dup2\n        /* \"#utility.yul\":11628:11632   */\n      dup2\n        /* \"#utility.yul\":11624:11644   */\n      sub\n        /* \"#utility.yul\":11620:11621   */\n      0x00\n        /* \"#utility.yul\":11609:11618   */\n      dup4\n        /* \"#utility.yul\":11605:11622   */\n      add\n        /* \"#utility.yul\":11598:11645   */\n      mstore\n        /* \"#utility.yul\":11662:11793   */\n      tag_274\n        /* \"#utility.yul\":11788:11792   */\n      dup2\n        /* \"#utility.yul\":11662:11793   */\n      tag_138\n      jump\t// in\n    tag_274:\n        /* \"#utility.yul\":11654:11793   */\n      swap1\n      pop\n        /* \"#utility.yul\":11381:11800   */\n      swap2\n      swap1\n      pop\n      jump\t// out\n        /* \"#utility.yul\":11806:11986   */\n    tag_139:\n        /* \"#utility.yul\":11854:11931   */\n      0x4e487b7100000000000000000000000000000000000000000000000000000000\n        /* \"#utility.yul\":11851:11852   */\n      0x00\n        /* \"#utility.yul\":11844:11932   */\n      mstore\n        /* \"#utility.yul\":11951:11955   */\n      0x22\n        /* \"#utility.yul\":11948:11949   */\n      0x04\n        /* \"#utility.yul\":11941:11956   */\n      mstore\n        /* \"#utility.yul\":11975:11979   */\n      0x24\n        /* \"#utility.yul\":11972:11973   */\n      0x00\n        /* \"#utility.yul\":11965:11980   */\n      revert\n        /* \"#utility.yul\":11992:12312   */\n    tag_72:\n        /* \"#utility.yul\":12036:12042   */\n      0x00\n        /* \"#utility.yul\":12073:12074   */\n      0x02\n        /* \"#utility.yul\":12067:12071   */\n      dup3\n        /* \"#utility.yul\":12063:12075   */\n      div\n        /* \"#utility.yul\":12053:12075   */\n      swap1\n      pop\n        /* \"#utility.yul\":12120:12121   */\n      0x01\n        /* \"#utility.yul\":12114:12118   */\n      dup3\n        /* \"#utility.yul\":12110:12122   */\n      and\n        /* \"#utility.yul\":12141:12159   */\n      dup1\n        /* \"#utility.yul\":12131:12212   */\n      tag_277\n      jumpi\n        /* \"#utility.yul\":12197:12201   */\n      0x7f\n        /* \"#utility.yul\":12189:12195   */\n      dup3\n        /* \"#utility.yul\":12185:12202   */\n      and\n        /* \"#utility.yul\":12175:12202   */\n      swap2\n      pop\n        /* \"#utility.yul\":12131:12212   */\n    tag_277:\n        /* \"#utility.yul\":12259:12261   */\n      0x20\n        /* \"#utility.yul\":12251:12257   */\n      dup3\n        /* \"#utility.yul\":12248:12262   */\n      lt\n        /* \"#utility.yul\":12228:12246   */\n      dup2\n        /* \"#utility.yul\":12225:12263   */\n      sub\n        /* \"#utility.yul\":12222:12306   */\n      tag_278\n      jumpi\n        /* \"#utility.yul\":12278:12296   */\n      tag_279\n      tag_139\n      jump\t// in\n    tag_279:\n        /* \"#utility.yul\":12222:12306   */\n    tag_278:\n        /* \"#utility.yul\":12043:12312   */\n      pop\n        /* \"#utility.yul\":11992:12312   */\n      swap2\n      swap1\n      pop\n      jump\t// out\n        /* \"#utility.yul\":12318:12490   */\n    tag_140:\n        /* \"#utility.yul\":12458:12482   */\n      0x796f752063616e7420616365737320746f207468697300000000000000000000\n        /* \"#utility.yul\":12454:12455   */\n      0x00\n        /* \"#utility.yul\":12446:12452   */\n      dup3\n        /* \"#utility.yul\":12442:12456   */\n      add\n        /* \"#utility.yul\":12435:12483   */\n      mstore\n        /* \"#utility.yul\":12318:12490   */\n      pop\n      jump\t// out\n        /* \"#utility.yul\":12496:12862   */\n    tag_141:\n        /* \"#utility.yul\":12638:12641   */\n      0x00\n        /* \"#utility.yul\":12659:12726   */\n      tag_282\n        /* \"#utility.yul\":12723:12725   */\n      0x16\n        /* \"#utility.yul\":12718:12721   */\n      dup4\n        /* \"#utility.yul\":12659:12726   */\n      tag_109\n      jump\t// in\n    tag_282:\n        /* \"#utility.yul\":12652:12726   */\n      swap2\n      pop\n        /* \"#utility.yul\":12735:12828   */\n      tag_283\n        /* \"#utility.yul\":12824:12827   */\n      dup3\n        /* \"#utility.yul\":12735:12828   */\n      tag_140\n      jump\t// in\n    tag_283:\n        /* \"#utility.yul\":12853:12855   */\n      0x20\n        /* \"#utility.yul\":12848:12851   */\n      dup3\n        /* \"#utility.yul\":12844:12856   */\n      add\n        /* \"#utility.yul\":12837:12856   */\n      swap1\n      pop\n        /* \"#utility.yul\":12496:12862   */\n      swap2\n      swap1\n      pop\n      jump\t// out\n        /* \"#utility.yul\":12868:13287   */\n    tag_87:\n        /* \"#utility.yul\":13034:13038   */\n      0x00\n        /* \"#utility.yul\":13072:13074   */\n      0x20\n        /* \"#utility.yul\":13061:13070   */\n      dup3\n        /* \"#utility.yul\":13057:13075   */\n      add\n        /* \"#utility.yul\":13049:13075   */\n      swap1\n      pop\n        /* \"#utility.yul\":13121:13130   */\n      dup2\n        /* \"#utility.yul\":13115:13119   */\n      dup2\n        /* \"#utility.yul\":13111:13131   */\n      sub\n        /* \"#utility.yul\":13107:13108   */\n      0x00\n        /* \"#utility.yul\":13096:13105   */\n      dup4\n        /* \"#utility.yul\":13092:13109   */\n      add\n        /* \"#utility.yul\":13085:13132   */\n      mstore\n        /* \"#utility.yul\":13149:13280   */\n      tag_285\n        /* \"#utility.yul\":13275:13279   */\n      dup2\n        /* \"#utility.yul\":13149:13280   */\n      tag_141\n      jump\t// in\n    tag_285:\n        /* \"#utility.yul\":13141:13280   */\n      swap1\n      pop\n        /* \"#utility.yul\":12868:13287   */\n      swap2\n      swap1\n      pop\n      jump\t// out\n        /* \"#utility.yul\":13293:13463   */\n    tag_142:\n        /* \"#utility.yul\":13433:13455   */\n      0x646561646c696e652069732066696e6973686564000000000000000000000000\n        /* \"#utility.yul\":13429:13430   */\n      0x00\n        /* \"#utility.yul\":13421:13427   */\n      dup3\n        /* \"#utility.yul\":13417:13431   */\n      add\n        /* \"#utility.yul\":13410:13456   */\n      mstore\n        /* \"#utility.yul\":13293:13463   */\n      pop\n      jump\t// out\n        /* \"#utility.yul\":13469:13835   */\n    tag_143:\n        /* \"#utility.yul\":13611:13614   */\n      0x00\n        /* \"#utility.yul\":13632:13699   */\n      tag_288\n        /* \"#utility.yul\":13696:13698   */\n      0x14\n        /* \"#utility.yul\":13691:13694   */\n      dup4\n        /* \"#utility.yul\":13632:13699   */\n      tag_109\n      jump\t// in\n    tag_288:\n        /* \"#utility.yul\":13625:13699   */\n      swap2\n      pop\n        /* \"#utility.yul\":13708:13801   */\n      tag_289\n        /* \"#utility.yul\":13797:13800   */\n      dup3\n        /* \"#utility.yul\":13708:13801   */\n      tag_142\n      jump\t// in\n    tag_289:\n        /* \"#utility.yul\":13826:13828   */\n      0x20\n        /* \"#utility.yul\":13821:13824   */\n      dup3\n        /* \"#utility.yul\":13817:13829   */\n      add\n        /* \"#utility.yul\":13810:13829   */\n      swap1\n      pop\n        /* \"#utility.yul\":13469:13835   */\n      swap2\n      swap1\n      pop\n      jump\t// out\n        /* \"#utility.yul\":13841:14260   */\n    tag_91:\n        /* \"#utility.yul\":14007:14011   */\n      0x00\n        /* \"#utility.yul\":14045:14047   */\n      0x20\n        /* \"#utility.yul\":14034:14043   */\n      dup3\n        /* \"#utility.yul\":14030:14048   */\n      add\n        /* \"#utility.yul\":14022:14048   */\n      swap1\n      pop\n        /* \"#utility.yul\":14094:14103   */\n      dup2\n        /* \"#utility.yul\":14088:14092   */\n      dup2\n        /* \"#utility.yul\":14084:14104   */\n      sub\n        /* \"#utility.yul\":14080:14081   */\n      0x00\n        /* \"#utility.yul\":14069:14078   */\n      dup4\n        /* \"#utility.yul\":14065:14082   */\n      add\n        /* \"#utility.yul\":14058:14105   */\n      mstore\n        /* \"#utility.yul\":14122:14253   */\n      tag_291\n        /* \"#utility.yul\":14248:14252   */\n      dup2\n        /* \"#utility.yul\":14122:14253   */\n      tag_143\n      jump\t// in\n    tag_291:\n        /* \"#utility.yul\":14114:14253   */\n      swap1\n      pop\n        /* \"#utility.yul\":13841:14260   */\n      swap2\n      swap1\n      pop\n      jump\t// out\n        /* \"#utility.yul\":14266:14407   */\n    tag_144:\n        /* \"#utility.yul\":14315:14319   */\n      0x00\n        /* \"#utility.yul\":14338:14341   */\n      dup2\n        /* \"#utility.yul\":14330:14341   */\n      swap1\n      pop\n        /* \"#utility.yul\":14361:14364   */\n      dup2\n        /* \"#utility.yul\":14358:14359   */\n      0x00\n        /* \"#utility.yul\":14351:14365   */\n      mstore\n        /* \"#utility.yul\":14395:14399   */\n      0x20\n        /* \"#utility.yul\":14392:14393   */\n      0x00\n        /* \"#utility.yul\":14382:14400   */\n      keccak256\n        /* \"#utility.yul\":14374:14400   */\n      swap1\n      pop\n        /* \"#utility.yul\":14266:14407   */\n      swap2\n      swap1\n      pop\n      jump\t// out\n        /* \"#utility.yul\":14413:14506   */\n    tag_145:\n        /* \"#utility.yul\":14450:14456   */\n      0x00\n        /* \"#utility.yul\":14497:14499   */\n      0x20\n        /* \"#utility.yul\":14492:14494   */\n      0x1f\n        /* \"#utility.yul\":14485:14490   */\n      dup4\n        /* \"#utility.yul\":14481:14495   */\n      add\n        /* \"#utility.yul\":14477:14500   */\n      div\n        /* \"#utility.yul\":14467:14500   */\n      swap1\n      pop\n        /* \"#utility.yul\":14413:14506   */\n      swap2\n      swap1\n      pop\n      jump\t// out\n        /* \"#utility.yul\":14512:14619   */\n    tag_146:\n        /* \"#utility.yul\":14556:14564   */\n      0x00\n        /* \"#utility.yul\":14606:14611   */\n      dup3\n        /* \"#utility.yul\":14600:14604   */\n      dup3\n        /* \"#utility.yul\":14596:14612   */\n      shl\n        /* \"#utility.yul\":14575:14612   */\n      swap1\n      pop\n        /* \"#utility.yul\":14512:14619   */\n      swap3\n      swap2\n      pop\n      pop\n      jump\t// out\n        /* \"#utility.yul\":14625:15018   */\n    tag_147:\n        /* \"#utility.yul\":14694:14700   */\n      0x00\n        /* \"#utility.yul\":14744:14745   */\n      0x08\n        /* \"#utility.yul\":14732:14742   */\n      dup4\n        /* \"#utility.yul\":14728:14746   */\n      mul\n        /* \"#utility.yul\":14767:14864   */\n      tag_296\n        /* \"#utility.yul\":14797:14863   */\n      0xffffffffffffffffffffffffffffffffffffffffffffffffffffffffffffffff\n        /* \"#utility.yul\":14786:14795   */\n      dup3\n        /* \"#utility.yul\":14767:14864   */\n      tag_146\n      jump\t// in\n    tag_296:\n        /* \"#utility.yul\":14885:14924   */\n      tag_297\n        /* \"#utility.yul\":14915:14923   */\n      dup7\n        /* \"#utility.yul\":14904:14913   */\n      dup4\n        /* \"#utility.yul\":14885:14924   */\n      tag_146\n      jump\t// in\n    tag_297:\n        /* \"#utility.yul\":14873:14924   */\n      swap6\n      pop\n        /* \"#utility.yul\":14957:14961   */\n      dup1\n        /* \"#utility.yul\":14953:14962   */\n      not\n        /* \"#utility.yul\":14946:14951   */\n      dup5\n        /* \"#utility.yul\":14942:14963   */\n      and\n        /* \"#utility.yul\":14933:14963   */\n      swap4\n      pop\n        /* \"#utility.yul\":15006:15010   */\n      dup1\n        /* \"#utility.yul\":14996:15004   */\n      dup7\n        /* \"#utility.yul\":14992:15011   */\n      and\n        /* \"#utility.yul\":14985:14990   */\n      dup5\n        /* \"#utility.yul\":14982:15012   */\n      or\n        /* \"#utility.yul\":14972:15012   */\n      swap3\n      pop\n        /* \"#utility.yul\":14701:15018   */\n      pop\n      pop\n        /* \"#utility.yul\":14625:15018   */\n      swap4\n      swap3\n      pop\n      pop\n      pop\n      jump\t// out\n        /* \"#utility.yul\":15024:15084   */\n    tag_148:\n        /* \"#utility.yul\":15052:15055   */\n      0x00\n        /* \"#utility.yul\":15073:15078   */\n      dup2\n        /* \"#utility.yul\":15066:15078   */\n      swap1\n      pop\n        /* \"#utility.yul\":15024:15084   */\n      swap2\n      swap1\n      pop\n      jump\t// out\n        /* \"#utility.yul\":15090:15232   */\n    tag_149:\n        /* \"#utility.yul\":15140:15149   */\n      0x00\n        /* \"#utility.yul\":15173:15226   */\n      tag_300\n        /* \"#utility.yul\":15191:15225   */\n      tag_301\n        /* \"#utility.yul\":15200:15224   */\n      tag_302\n        /* \"#utility.yul\":15218:15223   */\n      dup5\n        /* \"#utility.yul\":15200:15224   */\n      tag_105\n      jump\t// in\n    tag_302:\n        /* \"#utility.yul\":15191:15225   */\n      tag_148\n      jump\t// in\n    tag_301:\n        /* \"#utility.yul\":15173:15226   */\n      tag_105\n      jump\t// in\n    tag_300:\n        /* \"#utility.yul\":15160:15226   */\n      swap1\n      pop\n        /* \"#utility.yul\":15090:15232   */\n      swap2\n      swap1\n      pop\n      jump\t// out\n        /* \"#utility.yul\":15238:15313   */\n    tag_150:\n        /* \"#utility.yul\":15281:15284   */\n      0x00\n        /* \"#utility.yul\":15302:15307   */\n      dup2\n        /* \"#utility.yul\":15295:15307   */\n      swap1\n      pop\n        /* \"#utility.yul\":15238:15313   */\n      swap2\n      swap1\n      pop\n      jump\t// out\n        /* \"#utility.yul\":15319:15588   */\n    tag_151:\n        /* \"#utility.yul\":15429:15468   */\n      tag_305\n        /* \"#utility.yul\":15460:15467   */\n      dup4\n        /* \"#utility.yul\":15429:15468   */\n      tag_149\n      jump\t// in\n    tag_305:\n        /* \"#utility.yul\":15490:15581   */\n      tag_306\n        /* \"#utility.yul\":15539:15580   */\n      tag_307\n        /* \"#utility.yul\":15563:15579   */\n      dup3\n        /* \"#utility.yul\":15539:15580   */\n      tag_150\n      jump\t// in\n    tag_307:\n        /* \"#utility.yul\":15531:15537   */\n      dup5\n        /* \"#utility.yul\":15524:15528   */\n      dup5\n        /* \"#utility.yul\":15518:15529   */\n      sload\n        /* \"#utility.yul\":15490:15581   */\n      tag_147\n      jump\t// in\n    tag_306:\n        /* \"#utility.yul\":15484:15488   */\n      dup3\n        /* \"#utility.yul\":15477:15582   */\n      sstore\n        /* \"#utility.yul\":15395:15588   */\n      pop\n        /* \"#utility.yul\":15319:15588   */\n      pop\n      pop\n      pop\n      jump\t// out\n        /* \"#utility.yul\":15594:15667   */\n    tag_152:\n        /* \"#utility.yul\":15639:15642   */\n      0x00\n        /* \"#utility.yul\":15594:15667   */\n      swap1\n      jump\t// out\n        /* \"#utility.yul\":15673:15862   */\n    tag_153:\n        /* \"#utility.yul\":15750:15782   */\n      tag_310\n      tag_152\n      jump\t// in\n    tag_310:\n        /* \"#utility.yul\":15791:15856   */\n      tag_311\n        /* \"#utility.yul\":15849:15855   */\n      dup2\n        /* \"#utility.yul\":15841:15847   */\n      dup5\n        /* \"#utility.yul\":15835:15839   */\n      dup5\n        /* \"#utility.yul\":15791:15856   */\n      tag_151\n      jump\t// in\n    tag_311:\n        /* \"#utility.yul\":15726:15862   */\n      pop\n        /* \"#utility.yul\":15673:15862   */\n      pop\n      pop\n      jump\t// out\n        /* \"#utility.yul\":15868:16054   */\n    tag_154:\n        /* \"#utility.yul\":15928:16048   */\n    tag_313:\n        /* \"#utility.yul\":15945:15948   */\n      dup2\n        /* \"#utility.yul\":15938:15943   */\n      dup2\n        /* \"#utility.yul\":15935:15949   */\n      lt\n        /* \"#utility.yul\":15928:16048   */\n      iszero\n      tag_315\n      jumpi\n        /* \"#utility.yul\":15999:16038   */\n      tag_316\n        /* \"#utility.yul\":16036:16037   */\n      0x00\n        /* \"#utility.yul\":16029:16034   */\n      dup3\n        /* \"#utility.yul\":15999:16038   */\n      tag_153\n      jump\t// in\n    tag_316:\n        /* \"#utility.yul\":15972:15973   */\n      0x01\n        /* \"#utility.yul\":15965:15970   */\n      dup2\n        /* \"#utility.yul\":15961:15974   */\n      add\n        /* \"#utility.yul\":15952:15974   */\n      swap1\n      pop\n        /* \"#utility.yul\":15928:16048   */\n      jump(tag_313)\n    tag_315:\n        /* \"#utility.yul\":15868:16054   */\n      pop\n      pop\n      jump\t// out\n        /* \"#utility.yul\":16060:16603   */\n    tag_155:\n        /* \"#utility.yul\":16161:16163   */\n      0x1f\n        /* \"#utility.yul\":16156:16159   */\n      dup3\n        /* \"#utility.yul\":16153:16164   */\n      gt\n        /* \"#utility.yul\":16150:16596   */\n      iszero\n      tag_318\n      jumpi\n        /* \"#utility.yul\":16195:16233   */\n      tag_319\n        /* \"#utility.yul\":16227:16232   */\n      dup2\n        /* \"#utility.yul\":16195:16233   */\n      tag_144\n      jump\t// in\n    tag_319:\n        /* \"#utility.yul\":16279:16308   */\n      tag_320\n        /* \"#utility.yul\":16297:16307   */\n      dup5\n        /* \"#utility.yul\":16279:16308   */\n      tag_145\n      jump\t// in\n    tag_320:\n        /* \"#utility.yul\":16269:16277   */\n      dup2\n        /* \"#utility.yul\":16265:16309   */\n      add\n        /* \"#utility.yul\":16462:16464   */\n      0x20\n        /* \"#utility.yul\":16450:16460   */\n      dup6\n        /* \"#utility.yul\":16447:16465   */\n      lt\n        /* \"#utility.yul\":16444:16493   */\n      iszero\n      tag_321\n      jumpi\n        /* \"#utility.yul\":16483:16491   */\n      dup2\n        /* \"#utility.yul\":16468:16491   */\n      swap1\n      pop\n        /* \"#utility.yul\":16444:16493   */\n    tag_321:\n        /* \"#utility.yul\":16506:16586   */\n      tag_322\n        /* \"#utility.yul\":16562:16584   */\n      tag_323\n        /* \"#utility.yul\":16580:16583   */\n      dup6\n        /* \"#utility.yul\":16562:16584   */\n      tag_145\n      jump\t// in\n    tag_323:\n        /* \"#utility.yul\":16552:16560   */\n      dup4\n        /* \"#utility.yul\":16548:16585   */\n      add\n        /* \"#utility.yul\":16535:16546   */\n      dup3\n        /* \"#utility.yul\":16506:16586   */\n      tag_154\n      jump\t// in\n    tag_322:\n        /* \"#utility.yul\":16165:16596   */\n      pop\n      pop\n        /* \"#utility.yul\":16150:16596   */\n    tag_318:\n        /* \"#utility.yul\":16060:16603   */\n      pop\n      pop\n      pop\n      jump\t// out\n        /* \"#utility.yul\":16609:16726   */\n    tag_156:\n        /* \"#utility.yul\":16663:16671   */\n      0x00\n        /* \"#utility.yul\":16713:16718   */\n      dup3\n        /* \"#utility.yul\":16707:16711   */\n      dup3\n        /* \"#utility.yul\":16703:16719   */\n      shr\n        /* \"#utility.yul\":16682:16719   */\n      swap1\n      pop\n        /* \"#utility.yul\":16609:16726   */\n      swap3\n      swap2\n      pop\n      pop\n      jump\t// out\n        /* \"#utility.yul\":16732:16901   */\n    tag_157:\n        /* \"#utility.yul\":16776:16782   */\n      0x00\n        /* \"#utility.yul\":16809:16860   */\n      tag_326\n        /* \"#utility.yul\":16857:16858   */\n      0x00\n        /* \"#utility.yul\":16853:16859   */\n      not\n        /* \"#utility.yul\":16845:16850   */\n      dup5\n        /* \"#utility.yul\":16842:16843   */\n      0x08\n        /* \"#utility.yul\":16838:16851   */\n      mul\n        /* \"#utility.yul\":16809:16860   */\n      tag_156\n      jump\t// in\n    tag_326:\n        /* \"#utility.yul\":16805:16861   */\n      not\n        /* \"#utility.yul\":16890:16894   */\n      dup1\n        /* \"#utility.yul\":16884:16888   */\n      dup4\n        /* \"#utility.yul\":16880:16895   */\n      and\n        /* \"#utility.yul\":16870:16895   */\n      swap2\n      pop\n        /* \"#utility.yul\":16783:16901   */\n      pop\n        /* \"#utility.yul\":16732:16901   */\n      swap3\n      swap2\n      pop\n      pop\n      jump\t// out\n        /* \"#utility.yul\":16906:17201   */\n    tag_158:\n        /* \"#utility.yul\":16982:16986   */\n      0x00\n        /* \"#utility.yul\":17128:17157   */\n      tag_328\n        /* \"#utility.yul\":17153:17156   */\n      dup4\n        /* \"#utility.yul\":17147:17151   */\n      dup4\n        /* \"#utility.yul\":17128:17157   */\n      tag_157\n      jump\t// in\n    tag_328:\n        /* \"#utility.yul\":17120:17157   */\n      swap2\n      pop\n        /* \"#utility.yul\":17190:17193   */\n      dup3\n        /* \"#utility.yul\":17187:17188   */\n      0x02\n        /* \"#utility.yul\":17183:17194   */\n      mul\n        /* \"#utility.yul\":17177:17181   */\n      dup3\n        /* \"#utility.yul\":17174:17195   */\n      or\n        /* \"#utility.yul\":17166:17195   */\n      swap1\n      pop\n        /* \"#utility.yul\":16906:17201   */\n      swap3\n      swap2\n      pop\n      pop\n      jump\t// out\n        /* \"#utility.yul\":17206:18601   */\n    tag_94:\n        /* \"#utility.yul\":17323:17360   */\n      tag_330\n        /* \"#utility.yul\":17356:17359   */\n      dup3\n        /* \"#utility.yul\":17323:17360   */\n      tag_108\n      jump\t// in\n    tag_330:\n        /* \"#utility.yul\":17425:17443   */\n      0xffffffffffffffff\n        /* \"#utility.yul\":17417:17423   */\n      dup2\n        /* \"#utility.yul\":17414:17444   */\n      gt\n        /* \"#utility.yul\":17411:17467   */\n      iszero\n      tag_331\n      jumpi\n        /* \"#utility.yul\":17447:17465   */\n      tag_332\n      tag_119\n      jump\t// in\n    tag_332:\n        /* \"#utility.yul\":17411:17467   */\n    tag_331:\n        /* \"#utility.yul\":17491:17529   */\n      tag_333\n        /* \"#utility.yul\":17523:17527   */\n      dup3\n        /* \"#utility.yul\":17517:17528   */\n      sload\n        /* \"#utility.yul\":17491:17529   */\n      tag_72\n      jump\t// in\n    tag_333:\n        /* \"#utility.yul\":17576:17643   */\n      tag_334\n        /* \"#utility.yul\":17636:17642   */\n      dup3\n        /* \"#utility.yul\":17628:17634   */\n      dup3\n        /* \"#utility.yul\":17622:17626   */\n      dup6\n        /* \"#utility.yul\":17576:17643   */\n      tag_155\n      jump\t// in\n    tag_334:\n        /* \"#utility.yul\":17670:17671   */\n      0x00\n        /* \"#utility.yul\":17694:17698   */\n      0x20\n        /* \"#utility.yul\":17681:17698   */\n      swap1\n      pop\n        /* \"#utility.yul\":17726:17728   */\n      0x1f\n        /* \"#utility.yul\":17718:17724   */\n      dup4\n        /* \"#utility.yul\":17715:17729   */\n      gt\n        /* \"#utility.yul\":17743:17744   */\n      0x01\n        /* \"#utility.yul\":17738:18356   */\n      dup2\n      eq\n      tag_336\n      jumpi\n        /* \"#utility.yul\":18400:18401   */\n      0x00\n        /* \"#utility.yul\":18417:18423   */\n      dup5\n        /* \"#utility.yul\":18414:18491   */\n      iszero\n      tag_337\n      jumpi\n        /* \"#utility.yul\":18466:18475   */\n      dup3\n        /* \"#utility.yul\":18461:18464   */\n      dup8\n        /* \"#utility.yul\":18457:18476   */\n      add\n        /* \"#utility.yul\":18451:18477   */\n      mload\n        /* \"#utility.yul\":18442:18477   */\n      swap1\n      pop\n        /* \"#utility.yul\":18414:18491   */\n    tag_337:\n        /* \"#utility.yul\":18517:18584   */\n      tag_338\n        /* \"#utility.yul\":18577:18583   */\n      dup6\n        /* \"#utility.yul\":18570:18575   */\n      dup3\n        /* \"#utility.yul\":18517:18584   */\n      tag_158\n      jump\t// in\n    tag_338:\n        /* \"#utility.yul\":18511:18515   */\n      dup7\n        /* \"#utility.yul\":18504:18585   */\n      sstore\n        /* \"#utility.yul\":18373:18595   */\n      pop\n        /* \"#utility.yul\":17708:18595   */\n      jump(tag_335)\n        /* \"#utility.yul\":17738:18356   */\n    tag_336:\n        /* \"#utility.yul\":17790:17794   */\n      0x1f\n        /* \"#utility.yul\":17786:17795   */\n      not\n        /* \"#utility.yul\":17778:17784   */\n      dup5\n        /* \"#utility.yul\":17774:17796   */\n      and\n        /* \"#utility.yul\":17824:17861   */\n      tag_339\n        /* \"#utility.yul\":17856:17860   */\n      dup7\n        /* \"#utility.yul\":17824:17861   */\n      tag_144\n      jump\t// in\n    tag_339:\n        /* \"#utility.yul\":17883:17884   */\n      0x00\n        /* \"#utility.yul\":17897:18105   */\n    tag_340:\n        /* \"#utility.yul\":17911:17918   */\n      dup3\n        /* \"#utility.yul\":17908:17909   */\n      dup2\n        /* \"#utility.yul\":17905:17919   */\n      lt\n        /* \"#utility.yul\":17897:18105   */\n      iszero\n      tag_342\n      jumpi\n        /* \"#utility.yul\":17990:17999   */\n      dup5\n        /* \"#utility.yul\":17985:17988   */\n      dup10\n        /* \"#utility.yul\":17981:18000   */\n      add\n        /* \"#utility.yul\":17975:18001   */\n      mload\n        /* \"#utility.yul\":17967:17973   */\n      dup3\n        /* \"#utility.yul\":17960:18002   */\n      sstore\n        /* \"#utility.yul\":18041:18042   */\n      0x01\n        /* \"#utility.yul\":18033:18039   */\n      dup3\n        /* \"#utility.yul\":18029:18043   */\n      add\n        /* \"#utility.yul\":18019:18043   */\n      swap2\n      pop\n        /* \"#utility.yul\":18088:18090   */\n      0x20\n        /* \"#utility.yul\":18077:18086   */\n      dup6\n        /* \"#utility.yul\":18073:18091   */\n      add\n        /* \"#utility.yul\":18060:18091   */\n      swap5\n      pop\n        /* \"#utility.yul\":17934:17938   */\n      0x20\n        /* \"#utility.yul\":17931:17932   */\n      dup2\n        /* \"#utility.yul\":17927:17939   */\n      add\n        /* \"#utility.yul\":17922:17939   */\n      swap1\n      pop\n        /* \"#utility.yul\":17897:18105   */\n      jump(tag_340)\n    tag_342:\n        /* \"#utility.yul\":18133:18139   */\n      dup7\n        /* \"#utility.yul\":18124:18131   */\n      dup4\n        /* \"#utility.yul\":18121:18140   */\n      lt\n        /* \"#utility.yul\":18118:18297   */\n      iszero\n      tag_343\n      jumpi\n        /* \"#utility.yul\":18191:18200   */\n      dup5\n        /* \"#utility.yul\":18186:18189   */\n      dup10\n        /* \"#utility.yul\":18182:18201   */\n      add\n        /* \"#utility.yul\":18176:18202   */\n      mload\n        /* \"#utility.yul\":18234:18282   */\n      tag_344\n        /* \"#utility.yul\":18276:18280   */\n      0x1f\n        /* \"#utility.yul\":18268:18274   */\n      dup10\n        /* \"#utility.yul\":18264:18281   */\n      and\n        /* \"#utility.yul\":18253:18262   */\n      dup3\n        /* \"#utility.yul\":18234:18282   */\n      tag_157\n      jump\t// in\n    tag_344:\n        /* \"#utility.yul\":18226:18232   */\n      dup4\n        /* \"#utility.yul\":18219:18283   */\n      sstore\n        /* \"#utility.yul\":18141:18297   */\n      pop\n        /* \"#utility.yul\":18118:18297   */\n    tag_343:\n        /* \"#utility.yul\":18343:18344   */\n      0x01\n        /* \"#utility.yul\":18339:18340   */\n      0x02\n        /* \"#utility.yul\":18331:18337   */\n      dup9\n        /* \"#utility.yul\":18327:18341   */\n      mul\n        /* \"#utility.yul\":18323:18345   */\n      add\n        /* \"#utility.yul\":18317:18321   */\n      dup9\n        /* \"#utility.yul\":18310:18346   */\n      sstore\n        /* \"#utility.yul\":17745:18356   */\n      pop\n      pop\n      pop\n        /* \"#utility.yul\":17708:18595   */\n    tag_335:\n      pop\n        /* \"#utility.yul\":17298:18601   */\n      pop\n      pop\n      pop\n        /* \"#utility.yul\":17206:18601   */\n      pop\n      pop\n      jump\t// out\n        /* \"#utility.yul\":18607:18779   */\n    tag_159:\n        /* \"#utility.yul\":18747:18771   */\n      0x4e6f2063616e64696461746520617661696c61626c6500000000000000000000\n        /* \"#utility.yul\":18743:18744   */\n      0x00\n        /* \"#utility.yul\":18735:18741   */\n      dup3\n        /* \"#utility.yul\":18731:18745   */\n      add\n        /* \"#utility.yul\":18724:18772   */\n      mstore\n        /* \"#utility.yul\":18607:18779   */\n      pop\n      jump\t// out\n        /* \"#utility.yul\":18785:19151   */\n    tag_160:\n        /* \"#utility.yul\":18927:18930   */\n      0x00\n        /* \"#utility.yul\":18948:19015   */\n      tag_347\n        /* \"#utility.yul\":19012:19014   */\n      0x16\n        /* \"#utility.yul\":19007:19010   */\n      dup4\n        /* \"#utility.yul\":18948:19015   */\n      tag_109\n      jump\t// in\n    tag_347:\n        /* \"#utility.yul\":18941:19015   */\n      swap2\n      pop\n        /* \"#utility.yul\":19024:19117   */\n      tag_348\n        /* \"#utility.yul\":19113:19116   */\n      dup3\n        /* \"#utility.yul\":19024:19117   */\n      tag_159\n      jump\t// in\n    tag_348:\n        /* \"#utility.yul\":19142:19144   */\n      0x20\n        /* \"#utility.yul\":19137:19140   */\n      dup3\n        /* \"#utility.yul\":19133:19145   */\n      add\n        /* \"#utility.yul\":19126:19145   */\n      swap1\n      pop\n        /* \"#utility.yul\":18785:19151   */\n      swap2\n      swap1\n      pop\n      jump\t// out\n        /* \"#utility.yul\":19157:19576   */\n    tag_98:\n        /* \"#utility.yul\":19323:19327   */\n      0x00\n        /* \"#utility.yul\":19361:19363   */\n      0x20\n        /* \"#utility.yul\":19350:19359   */\n      dup3\n        /* \"#utility.yul\":19346:19364   */\n      add\n        /* \"#utility.yul\":19338:19364   */\n      swap1\n      pop\n        /* \"#utility.yul\":19410:19419   */\n      dup2\n        /* \"#utility.yul\":19404:19408   */\n      dup2\n        /* \"#utility.yul\":19400:19420   */\n      sub\n        /* \"#utility.yul\":19396:19397   */\n      0x00\n        /* \"#utility.yul\":19385:19394   */\n      dup4\n        /* \"#utility.yul\":19381:19398   */\n      add\n        /* \"#utility.yul\":19374:19421   */\n      mstore\n        /* \"#utility.yul\":19438:19569   */\n      tag_350\n        /* \"#utility.yul\":19564:19568   */\n      dup2\n        /* \"#utility.yul\":19438:19569   */\n      tag_160\n      jump\t// in\n    tag_350:\n        /* \"#utility.yul\":19430:19569   */\n      swap1\n      pop\n        /* \"#utility.yul\":19157:19576   */\n      swap2\n      swap1\n      pop\n      jump\t// out\n\n    auxdata: 0xa26469706673582212205dec44070d38cdfb5215ff80a669a9d83c2a92e4974f45de33a0501d7b8b215a64736f6c634300081a0033\n}\n",
				"bytecode": {
					"linkReferences": {},
					"object": "608060405234801561000f575f80fd5b50604051611275380380611275833981810160405281019061003191906100bf565b335f806101000a81548173ffffffffffffffffffffffffffffffffffffffff021916908373ffffffffffffffffffffffffffffffffffffffff160217905550804261007c9190610117565b6003819055505061014a565b5f80fd5b5f819050919050565b61009e8161008c565b81146100a8575f80fd5b50565b5f815190506100b981610095565b92915050565b5f602082840312156100d4576100d3610088565b5b5f6100e1848285016100ab565b91505092915050565b7f4e487b71000000000000000000000000000000000000000000000000000000005f52601160045260245ffd5b5f6101218261008c565b915061012c8361008c565b9250828201905080821115610144576101436100ea565b5b92915050565b61111e806101575f395ff3fe608060405234801561000f575f80fd5b5060043610610086575f3560e01c8063481c6a7511610059578063481c6a75146101255780638305abd914610143578063a3ec138d1461015f578063efe89ff91461018f57610086565b80630121b93f1461008a5780630202ace1146100a657806329dcb0cf146100d65780633477ee2e146100f4575b5f80fd5b6100a4600480360381019061009f9190610742565b6101bf565b005b6100c060048036038101906100bb9190610742565b610365565b6040516100cd91906107dd565b60405180910390f35b6100de61045e565b6040516100eb919061080c565b60405180910390f35b61010e60048036038101906101099190610742565b610464565b60405161011c929190610825565b60405180910390f35b61012d610519565b60405161013a9190610892565b60405180910390f35b61015d600480360381019061015891906109d7565b61053c565b005b61017960048036038101906101749190610a48565b61066e565b6040516101869190610a8d565b60405180910390f35b6101a960048036038101906101a49190610742565b61068b565b6040516101b6919061080c565b60405180910390f35b600354421115610204576040517f08c379a00000000000000000000000000000000000000000000000000000000081526004016101fb90610af0565b60405180910390fd5b60025f3373ffffffffffffffffffffffffffffffffffffffff1673ffffffffffffffffffffffffffffffffffffffff1681526020019081526020015f205f9054906101000a900460ff161561028e576040517f08c379a000000000000000000000000000000000000000000000000000000000815260040161028590610b58565b60405180910390fd5b60018054905081106102d5576040517f08c379a00000000000000000000000000000000000000000000000000000000081526004016102cc90610bc0565b60405180910390fd5b600160025f3373ffffffffffffffffffffffffffffffffffffffff1673ffffffffffffffffffffffffffffffffffffffff1681526020019081526020015f205f6101000a81548160ff0219169083151502179055506001818154811061033e5761033d610bde565b5b905f5260205f2090600202016001015f81548092919061035d90610c38565b919050555050565b606060018054905082106103ae576040517f08c379a00000000000000000000000000000000000000000000000000000000081526004016103a590610cc9565b60405180910390fd5b600182815481106103c2576103c1610bde565b5b905f5260205f2090600202015f0180546103db90610d14565b80601f016020809104026020016040519081016040528092919081815260200182805461040790610d14565b80156104525780601f1061042957610100808354040283529160200191610452565b820191905f5260205f20905b81548152906001019060200180831161043557829003601f168201915b50505050509050919050565b60035481565b60018181548110610473575f80fd5b905f5260205f2090600202015f91509050805f01805461049290610d14565b80601f01602080910402602001604051908101604052809291908181526020018280546104be90610d14565b80156105095780601f106104e057610100808354040283529160200191610509565b820191905f5260205f20905b8154815290600101906020018083116104ec57829003601f168201915b5050505050908060010154905082565b5f8054906101000a900473ffffffffffffffffffffffffffffffffffffffff1681565b5f8054906101000a900473ffffffffffffffffffffffffffffffffffffffff1673ffffffffffffffffffffffffffffffffffffffff163373ffffffffffffffffffffffffffffffffffffffff16146105c9576040517f08c379a00000000000000000000000000000000000000000000000000000000081526004016105c090610d8e565b60405180910390fd5b60035442111561060e576040517f08c379a000000000000000000000000000000000000000000000000000000000815260040161060590610df6565b60405180910390fd5b600160405180604001604052808381526020015f815250908060018154018082558091505060019003905f5260205f2090600202015f909190919091505f820151815f01908161065e9190610fb1565b5060208201518160010155505050565b6002602052805f5260405f205f915054906101000a900460ff1681565b5f60018054905082106106d3576040517f08c379a00000000000000000000000000000000000000000000000000000000081526004016106ca906110ca565b60405180910390fd5b600182815481106106e7576106e6610bde565b5b905f5260205f209060020201600101549050919050565b5f604051905090565b5f80fd5b5f80fd5b5f819050919050565b6107218161070f565b811461072b575f80fd5b50565b5f8135905061073c81610718565b92915050565b5f6020828403121561075757610756610707565b5b5f6107648482850161072e565b91505092915050565b5f81519050919050565b5f82825260208201905092915050565b8281835e5f83830152505050565b5f601f19601f8301169050919050565b5f6107af8261076d565b6107b98185610777565b93506107c9818560208601610787565b6107d281610795565b840191505092915050565b5f6020820190508181035f8301526107f581846107a5565b905092915050565b6108068161070f565b82525050565b5f60208201905061081f5f8301846107fd565b92915050565b5f6040820190508181035f83015261083d81856107a5565b905061084c60208301846107fd565b9392505050565b5f73ffffffffffffffffffffffffffffffffffffffff82169050919050565b5f61087c82610853565b9050919050565b61088c81610872565b82525050565b5f6020820190506108a55f830184610883565b92915050565b5f80fd5b5f80fd5b7f4e487b71000000000000000000000000000000000000000000000000000000005f52604160045260245ffd5b6108e982610795565b810181811067ffffffffffffffff82111715610908576109076108b3565b5b80604052505050565b5f61091a6106fe565b905061092682826108e0565b919050565b5f67ffffffffffffffff821115610945576109446108b3565b5b61094e82610795565b9050602081019050919050565b828183375f83830152505050565b5f61097b6109768461092b565b610911565b905082815260208101848484011115610997576109966108af565b5b6109a284828561095b565b509392505050565b5f82601f8301126109be576109bd6108ab565b5b81356109ce848260208601610969565b91505092915050565b5f602082840312156109ec576109eb610707565b5b5f82013567ffffffffffffffff811115610a0957610a0861070b565b5b610a15848285016109aa565b91505092915050565b610a2781610872565b8114610a31575f80fd5b50565b5f81359050610a4281610a1e565b92915050565b5f60208284031215610a5d57610a5c610707565b5b5f610a6a84828501610a34565b91505092915050565b5f8115159050919050565b610a8781610a73565b82525050565b5f602082019050610aa05f830184610a7e565b92915050565b7f796f757220766f74696e672074696d65206973206578706972656400000000005f82015250565b5f610ada601b83610777565b9150610ae582610aa6565b602082019050919050565b5f6020820190508181035f830152610b0781610ace565b9050919050565b7f796f75206861766520616c726561647920766f746564000000000000000000005f82015250565b5f610b42601683610777565b9150610b4d82610b0e565b602082019050919050565b5f6020820190508181035f830152610b6f81610b36565b9050919050565b7f4e6f2063616e6469646174657320746f20766f746500000000000000000000005f82015250565b5f610baa601583610777565b9150610bb582610b76565b602082019050919050565b5f6020820190508181035f830152610bd781610b9e565b9050919050565b7f4e487b71000000000000000000000000000000000000000000000000000000005f52603260045260245ffd5b7f4e487b71000000000000000000000000000000000000000000000000000000005f52601160045260245ffd5b5f610c428261070f565b91507fffffffffffffffffffffffffffffffffffffffffffffffffffffffffffffffff8203610c7457610c73610c0b565b5b600182019050919050565b7f4e6f2063616e6469646174657320617661696c61626c650000000000000000005f82015250565b5f610cb3601783610777565b9150610cbe82610c7f565b602082019050919050565b5f6020820190508181035f830152610ce081610ca7565b9050919050565b7f4e487b71000000000000000000000000000000000000000000000000000000005f52602260045260245ffd5b5f6002820490506001821680610d2b57607f821691505b602082108103610d3e57610d3d610ce7565b5b50919050565b7f796f752063616e7420616365737320746f2074686973000000000000000000005f82015250565b5f610d78601683610777565b9150610d8382610d44565b602082019050919050565b5f6020820190508181035f830152610da581610d6c565b9050919050565b7f646561646c696e652069732066696e69736865640000000000000000000000005f82015250565b5f610de0601483610777565b9150610deb82610dac565b602082019050919050565b5f6020820190508181035f830152610e0d81610dd4565b9050919050565b5f819050815f5260205f209050919050565b5f6020601f8301049050919050565b5f82821b905092915050565b5f60088302610e707fffffffffffffffffffffffffffffffffffffffffffffffffffffffffffffffff82610e35565b610e7a8683610e35565b95508019841693508086168417925050509392505050565b5f819050919050565b5f610eb5610eb0610eab8461070f565b610e92565b61070f565b9050919050565b5f819050919050565b610ece83610e9b565b610ee2610eda82610ebc565b848454610e41565b825550505050565b5f90565b610ef6610eea565b610f01818484610ec5565b505050565b5b81811015610f2457610f195f82610eee565b600181019050610f07565b5050565b601f821115610f6957610f3a81610e14565b610f4384610e26565b81016020851015610f52578190505b610f66610f5e85610e26565b830182610f06565b50505b505050565b5f82821c905092915050565b5f610f895f1984600802610f6e565b1980831691505092915050565b5f610fa18383610f7a565b9150826002028217905092915050565b610fba8261076d565b67ffffffffffffffff811115610fd357610fd26108b3565b5b610fdd8254610d14565b610fe8828285610f28565b5f60209050601f831160018114611019575f8415611007578287015190505b6110118582610f96565b865550611078565b601f19841661102786610e14565b5f5b8281101561104e57848901518255600182019150602085019450602081019050611029565b8683101561106b5784890151611067601f891682610f7a565b8355505b6001600288020188555050505b505050505050565b7f4e6f2063616e64696461746520617661696c61626c65000000000000000000005f82015250565b5f6110b4601683610777565b91506110bf82611080565b602082019050919050565b5f6020820190508181035f8301526110e1816110a8565b905091905056fea26469706673582212205dec44070d38cdfb5215ff80a669a9d83c2a92e4974f45de33a0501d7b8b215a64736f6c634300081a0033",
					"opcodes": "PUSH1 0x80 PUSH1 0x40 MSTORE CALLVALUE DUP1 ISZERO PUSH2 0xF JUMPI PUSH0 DUP1 REVERT JUMPDEST POP PUSH1 0x40 MLOAD PUSH2 0x1275 CODESIZE SUB DUP1 PUSH2 0x1275 DUP4 CODECOPY DUP2 DUP2 ADD PUSH1 0x40 MSTORE DUP2 ADD SWAP1 PUSH2 0x31 SWAP2 SWAP1 PUSH2 0xBF JUMP JUMPDEST CALLER PUSH0 DUP1 PUSH2 0x100 EXP DUP2 SLOAD DUP2 PUSH20 0xFFFFFFFFFFFFFFFFFFFFFFFFFFFFFFFFFFFFFFFF MUL NOT AND SWAP1 DUP4 PUSH20 0xFFFFFFFFFFFFFFFFFFFFFFFFFFFFFFFFFFFFFFFF AND MUL OR SWAP1 SSTORE POP DUP1 TIMESTAMP PUSH2 0x7C SWAP2 SWAP1 PUSH2 0x117 JUMP JUMPDEST PUSH1 0x3 DUP2 SWAP1 SSTORE POP POP PUSH2 0x14A JUMP JUMPDEST PUSH0 DUP1 REVERT JUMPDEST PUSH0 DUP2 SWAP1 POP SWAP2 SWAP1 POP JUMP JUMPDEST PUSH2 0x9E DUP2 PUSH2 0x8C JUMP JUMPDEST DUP2 EQ PUSH2 0xA8 JUMPI PUSH0 DUP1 REVERT JUMPDEST POP JUMP JUMPDEST PUSH0 DUP2 MLOAD SWAP1 POP PUSH2 0xB9 DUP2 PUSH2 0x95 JUMP JUMPDEST SWAP3 SWAP2 POP POP JUMP JUMPDEST PUSH0 PUSH1 0x20 DUP3 DUP5 SUB SLT ISZERO PUSH2 0xD4 JUMPI PUSH2 0xD3 PUSH2 0x88 JUMP JUMPDEST JUMPDEST PUSH0 PUSH2 0xE1 DUP5 DUP3 DUP6 ADD PUSH2 0xAB JUMP JUMPDEST SWAP2 POP POP SWAP3 SWAP2 POP POP JUMP JUMPDEST PUSH32 0x4E487B7100000000000000000000000000000000000000000000000000000000 PUSH0 MSTORE PUSH1 0x11 PUSH1 0x4 MSTORE PUSH1 0x24 PUSH0 REVERT JUMPDEST PUSH0 PUSH2 0x121 DUP3 PUSH2 0x8C JUMP JUMPDEST SWAP2 POP PUSH2 0x12C DUP4 PUSH2 0x8C JUMP JUMPDEST SWAP3 POP DUP3 DUP3 ADD SWAP1 POP DUP1 DUP3 GT ISZERO PUSH2 0x144 JUMPI PUSH2 0x143 PUSH2 0xEA JUMP JUMPDEST JUMPDEST SWAP3 SWAP2 POP POP JUMP JUMPDEST PUSH2 0x111E DUP1 PUSH2 0x157 PUSH0 CODECOPY PUSH0 RETURN INVALID PUSH1 0x80 PUSH1 0x40 MSTORE CALLVALUE DUP1 ISZERO PUSH2 0xF JUMPI PUSH0 DUP1 REVERT JUMPDEST POP PUSH1 0x4 CALLDATASIZE LT PUSH2 0x86 JUMPI PUSH0 CALLDATALOAD PUSH1 0xE0 SHR DUP1 PUSH4 0x481C6A75 GT PUSH2 0x59 JUMPI DUP1 PUSH4 0x481C6A75 EQ PUSH2 0x125 JUMPI DUP1 PUSH4 0x8305ABD9 EQ PUSH2 0x143 JUMPI DUP1 PUSH4 0xA3EC138D EQ PUSH2 0x15F JUMPI DUP1 PUSH4 0xEFE89FF9 EQ PUSH2 0x18F JUMPI PUSH2 0x86 JUMP JUMPDEST DUP1 PUSH4 0x121B93F EQ PUSH2 0x8A JUMPI DUP1 PUSH4 0x202ACE1 EQ PUSH2 0xA6 JUMPI DUP1 PUSH4 0x29DCB0CF EQ PUSH2 0xD6 JUMPI DUP1 PUSH4 0x3477EE2E EQ PUSH2 0xF4 JUMPI JUMPDEST PUSH0 DUP1 REVERT JUMPDEST PUSH2 0xA4 PUSH1 0x4 DUP1 CALLDATASIZE SUB DUP2 ADD SWAP1 PUSH2 0x9F SWAP2 SWAP1 PUSH2 0x742 JUMP JUMPDEST PUSH2 0x1BF JUMP JUMPDEST STOP JUMPDEST PUSH2 0xC0 PUSH1 0x4 DUP1 CALLDATASIZE SUB DUP2 ADD SWAP1 PUSH2 0xBB SWAP2 SWAP1 PUSH2 0x742 JUMP JUMPDEST PUSH2 0x365 JUMP JUMPDEST PUSH1 0x40 MLOAD PUSH2 0xCD SWAP2 SWAP1 PUSH2 0x7DD JUMP JUMPDEST PUSH1 0x40 MLOAD DUP1 SWAP2 SUB SWAP1 RETURN JUMPDEST PUSH2 0xDE PUSH2 0x45E JUMP JUMPDEST PUSH1 0x40 MLOAD PUSH2 0xEB SWAP2 SWAP1 PUSH2 0x80C JUMP JUMPDEST PUSH1 0x40 MLOAD DUP1 SWAP2 SUB SWAP1 RETURN JUMPDEST PUSH2 0x10E PUSH1 0x4 DUP1 CALLDATASIZE SUB DUP2 ADD SWAP1 PUSH2 0x109 SWAP2 SWAP1 PUSH2 0x742 JUMP JUMPDEST PUSH2 0x464 JUMP JUMPDEST PUSH1 0x40 MLOAD PUSH2 0x11C SWAP3 SWAP2 SWAP1 PUSH2 0x825 JUMP JUMPDEST PUSH1 0x40 MLOAD DUP1 SWAP2 SUB SWAP1 RETURN JUMPDEST PUSH2 0x12D PUSH2 0x519 JUMP JUMPDEST PUSH1 0x40 MLOAD PUSH2 0x13A SWAP2 SWAP1 PUSH2 0x892 JUMP JUMPDEST PUSH1 0x40 MLOAD DUP1 SWAP2 SUB SWAP1 RETURN JUMPDEST PUSH2 0x15D PUSH1 0x4 DUP1 CALLDATASIZE SUB DUP2 ADD SWAP1 PUSH2 0x158 SWAP2 SWAP1 PUSH2 0x9D7 JUMP JUMPDEST PUSH2 0x53C JUMP JUMPDEST STOP JUMPDEST PUSH2 0x179 PUSH1 0x4 DUP1 CALLDATASIZE SUB DUP2 ADD SWAP1 PUSH2 0x174 SWAP2 SWAP1 PUSH2 0xA48 JUMP JUMPDEST PUSH2 0x66E JUMP JUMPDEST PUSH1 0x40 MLOAD PUSH2 0x186 SWAP2 SWAP1 PUSH2 0xA8D JUMP JUMPDEST PUSH1 0x40 MLOAD DUP1 SWAP2 SUB SWAP1 RETURN JUMPDEST PUSH2 0x1A9 PUSH1 0x4 DUP1 CALLDATASIZE SUB DUP2 ADD SWAP1 PUSH2 0x1A4 SWAP2 SWAP1 PUSH2 0x742 JUMP JUMPDEST PUSH2 0x68B JUMP JUMPDEST PUSH1 0x40 MLOAD PUSH2 0x1B6 SWAP2 SWAP1 PUSH2 0x80C JUMP JUMPDEST PUSH1 0x40 MLOAD DUP1 SWAP2 SUB SWAP1 RETURN JUMPDEST PUSH1 0x3 SLOAD TIMESTAMP GT ISZERO PUSH2 0x204 JUMPI PUSH1 0x40 MLOAD PUSH32 0x8C379A000000000000000000000000000000000000000000000000000000000 DUP2 MSTORE PUSH1 0x4 ADD PUSH2 0x1FB SWAP1 PUSH2 0xAF0 JUMP JUMPDEST PUSH1 0x40 MLOAD DUP1 SWAP2 SUB SWAP1 REVERT JUMPDEST PUSH1 0x2 PUSH0 CALLER PUSH20 0xFFFFFFFFFFFFFFFFFFFFFFFFFFFFFFFFFFFFFFFF AND PUSH20 0xFFFFFFFFFFFFFFFFFFFFFFFFFFFFFFFFFFFFFFFF AND DUP2 MSTORE PUSH1 0x20 ADD SWAP1 DUP2 MSTORE PUSH1 0x20 ADD PUSH0 KECCAK256 PUSH0 SWAP1 SLOAD SWAP1 PUSH2 0x100 EXP SWAP1 DIV PUSH1 0xFF AND ISZERO PUSH2 0x28E JUMPI PUSH1 0x40 MLOAD PUSH32 0x8C379A000000000000000000000000000000000000000000000000000000000 DUP2 MSTORE PUSH1 0x4 ADD PUSH2 0x285 SWAP1 PUSH2 0xB58 JUMP JUMPDEST PUSH1 0x40 MLOAD DUP1 SWAP2 SUB SWAP1 REVERT JUMPDEST PUSH1 0x1 DUP1 SLOAD SWAP1 POP DUP2 LT PUSH2 0x2D5 JUMPI PUSH1 0x40 MLOAD PUSH32 0x8C379A000000000000000000000000000000000000000000000000000000000 DUP2 MSTORE PUSH1 0x4 ADD PUSH2 0x2CC SWAP1 PUSH2 0xBC0 JUMP JUMPDEST PUSH1 0x40 MLOAD DUP1 SWAP2 SUB SWAP1 REVERT JUMPDEST PUSH1 0x1 PUSH1 0x2 PUSH0 CALLER PUSH20 0xFFFFFFFFFFFFFFFFFFFFFFFFFFFFFFFFFFFFFFFF AND PUSH20 0xFFFFFFFFFFFFFFFFFFFFFFFFFFFFFFFFFFFFFFFF AND DUP2 MSTORE PUSH1 0x20 ADD SWAP1 DUP2 MSTORE PUSH1 0x20 ADD PUSH0 KECCAK256 PUSH0 PUSH2 0x100 EXP DUP2 SLOAD DUP2 PUSH1 0xFF MUL NOT AND SWAP1 DUP4 ISZERO ISZERO MUL OR SWAP1 SSTORE POP PUSH1 0x1 DUP2 DUP2 SLOAD DUP2 LT PUSH2 0x33E JUMPI PUSH2 0x33D PUSH2 0xBDE JUMP JUMPDEST JUMPDEST SWAP1 PUSH0 MSTORE PUSH1 0x20 PUSH0 KECCAK256 SWAP1 PUSH1 0x2 MUL ADD PUSH1 0x1 ADD PUSH0 DUP2 SLOAD DUP1 SWAP3 SWAP2 SWAP1 PUSH2 0x35D SWAP1 PUSH2 0xC38 JUMP JUMPDEST SWAP2 SWAP1 POP SSTORE POP POP JUMP JUMPDEST PUSH1 0x60 PUSH1 0x1 DUP1 SLOAD SWAP1 POP DUP3 LT PUSH2 0x3AE JUMPI PUSH1 0x40 MLOAD PUSH32 0x8C379A000000000000000000000000000000000000000000000000000000000 DUP2 MSTORE PUSH1 0x4 ADD PUSH2 0x3A5 SWAP1 PUSH2 0xCC9 JUMP JUMPDEST PUSH1 0x40 MLOAD DUP1 SWAP2 SUB SWAP1 REVERT JUMPDEST PUSH1 0x1 DUP3 DUP2 SLOAD DUP2 LT PUSH2 0x3C2 JUMPI PUSH2 0x3C1 PUSH2 0xBDE JUMP JUMPDEST JUMPDEST SWAP1 PUSH0 MSTORE PUSH1 0x20 PUSH0 KECCAK256 SWAP1 PUSH1 0x2 MUL ADD PUSH0 ADD DUP1 SLOAD PUSH2 0x3DB SWAP1 PUSH2 0xD14 JUMP JUMPDEST DUP1 PUSH1 0x1F ADD PUSH1 0x20 DUP1 SWAP2 DIV MUL PUSH1 0x20 ADD PUSH1 0x40 MLOAD SWAP1 DUP2 ADD PUSH1 0x40 MSTORE DUP1 SWAP3 SWAP2 SWAP1 DUP2 DUP2 MSTORE PUSH1 0x20 ADD DUP3 DUP1 SLOAD PUSH2 0x407 SWAP1 PUSH2 0xD14 JUMP JUMPDEST DUP1 ISZERO PUSH2 0x452 JUMPI DUP1 PUSH1 0x1F LT PUSH2 0x429 JUMPI PUSH2 0x100 DUP1 DUP4 SLOAD DIV MUL DUP4 MSTORE SWAP2 PUSH1 0x20 ADD SWAP2 PUSH2 0x452 JUMP JUMPDEST DUP3 ADD SWAP2 SWAP1 PUSH0 MSTORE PUSH1 0x20 PUSH0 KECCAK256 SWAP1 JUMPDEST DUP2 SLOAD DUP2 MSTORE SWAP1 PUSH1 0x1 ADD SWAP1 PUSH1 0x20 ADD DUP1 DUP4 GT PUSH2 0x435 JUMPI DUP3 SWAP1 SUB PUSH1 0x1F AND DUP3 ADD SWAP2 JUMPDEST POP POP POP POP POP SWAP1 POP SWAP2 SWAP1 POP JUMP JUMPDEST PUSH1 0x3 SLOAD DUP2 JUMP JUMPDEST PUSH1 0x1 DUP2 DUP2 SLOAD DUP2 LT PUSH2 0x473 JUMPI PUSH0 DUP1 REVERT JUMPDEST SWAP1 PUSH0 MSTORE PUSH1 0x20 PUSH0 KECCAK256 SWAP1 PUSH1 0x2 MUL ADD PUSH0 SWAP2 POP SWAP1 POP DUP1 PUSH0 ADD DUP1 SLOAD PUSH2 0x492 SWAP1 PUSH2 0xD14 JUMP JUMPDEST DUP1 PUSH1 0x1F ADD PUSH1 0x20 DUP1 SWAP2 DIV MUL PUSH1 0x20 ADD PUSH1 0x40 MLOAD SWAP1 DUP2 ADD PUSH1 0x40 MSTORE DUP1 SWAP3 SWAP2 SWAP1 DUP2 DUP2 MSTORE PUSH1 0x20 ADD DUP3 DUP1 SLOAD PUSH2 0x4BE SWAP1 PUSH2 0xD14 JUMP JUMPDEST DUP1 ISZERO PUSH2 0x509 JUMPI DUP1 PUSH1 0x1F LT PUSH2 0x4E0 JUMPI PUSH2 0x100 DUP1 DUP4 SLOAD DIV MUL DUP4 MSTORE SWAP2 PUSH1 0x20 ADD SWAP2 PUSH2 0x509 JUMP JUMPDEST DUP3 ADD SWAP2 SWAP1 PUSH0 MSTORE PUSH1 0x20 PUSH0 KECCAK256 SWAP1 JUMPDEST DUP2 SLOAD DUP2 MSTORE SWAP1 PUSH1 0x1 ADD SWAP1 PUSH1 0x20 ADD DUP1 DUP4 GT PUSH2 0x4EC JUMPI DUP3 SWAP1 SUB PUSH1 0x1F AND DUP3 ADD SWAP2 JUMPDEST POP POP POP POP POP SWAP1 DUP1 PUSH1 0x1 ADD SLOAD SWAP1 POP DUP3 JUMP JUMPDEST PUSH0 DUP1 SLOAD SWAP1 PUSH2 0x100 EXP SWAP1 DIV PUSH20 0xFFFFFFFFFFFFFFFFFFFFFFFFFFFFFFFFFFFFFFFF AND DUP2 JUMP JUMPDEST PUSH0 DUP1 SLOAD SWAP1 PUSH2 0x100 EXP SWAP1 DIV PUSH20 0xFFFFFFFFFFFFFFFFFFFFFFFFFFFFFFFFFFFFFFFF AND PUSH20 0xFFFFFFFFFFFFFFFFFFFFFFFFFFFFFFFFFFFFFFFF AND CALLER PUSH20 0xFFFFFFFFFFFFFFFFFFFFFFFFFFFFFFFFFFFFFFFF AND EQ PUSH2 0x5C9 JUMPI PUSH1 0x40 MLOAD PUSH32 0x8C379A000000000000000000000000000000000000000000000000000000000 DUP2 MSTORE PUSH1 0x4 ADD PUSH2 0x5C0 SWAP1 PUSH2 0xD8E JUMP JUMPDEST PUSH1 0x40 MLOAD DUP1 SWAP2 SUB SWAP1 REVERT JUMPDEST PUSH1 0x3 SLOAD TIMESTAMP GT ISZERO PUSH2 0x60E JUMPI PUSH1 0x40 MLOAD PUSH32 0x8C379A000000000000000000000000000000000000000000000000000000000 DUP2 MSTORE PUSH1 0x4 ADD PUSH2 0x605 SWAP1 PUSH2 0xDF6 JUMP JUMPDEST PUSH1 0x40 MLOAD DUP1 SWAP2 SUB SWAP1 REVERT JUMPDEST PUSH1 0x1 PUSH1 0x40 MLOAD DUP1 PUSH1 0x40 ADD PUSH1 0x40 MSTORE DUP1 DUP4 DUP2 MSTORE PUSH1 0x20 ADD PUSH0 DUP2 MSTORE POP SWAP1 DUP1 PUSH1 0x1 DUP2 SLOAD ADD DUP1 DUP3 SSTORE DUP1 SWAP2 POP POP PUSH1 0x1 SWAP1 SUB SWAP1 PUSH0 MSTORE PUSH1 0x20 PUSH0 KECCAK256 SWAP1 PUSH1 0x2 MUL ADD PUSH0 SWAP1 SWAP2 SWAP1 SWAP2 SWAP1 SWAP2 POP PUSH0 DUP3 ADD MLOAD DUP2 PUSH0 ADD SWAP1 DUP2 PUSH2 0x65E SWAP2 SWAP1 PUSH2 0xFB1 JUMP JUMPDEST POP PUSH1 0x20 DUP3 ADD MLOAD DUP2 PUSH1 0x1 ADD SSTORE POP POP POP JUMP JUMPDEST PUSH1 0x2 PUSH1 0x20 MSTORE DUP1 PUSH0 MSTORE PUSH1 0x40 PUSH0 KECCAK256 PUSH0 SWAP2 POP SLOAD SWAP1 PUSH2 0x100 EXP SWAP1 DIV PUSH1 0xFF AND DUP2 JUMP JUMPDEST PUSH0 PUSH1 0x1 DUP1 SLOAD SWAP1 POP DUP3 LT PUSH2 0x6D3 JUMPI PUSH1 0x40 MLOAD PUSH32 0x8C379A000000000000000000000000000000000000000000000000000000000 DUP2 MSTORE PUSH1 0x4 ADD PUSH2 0x6CA SWAP1 PUSH2 0x10CA JUMP JUMPDEST PUSH1 0x40 MLOAD DUP1 SWAP2 SUB SWAP1 REVERT JUMPDEST PUSH1 0x1 DUP3 DUP2 SLOAD DUP2 LT PUSH2 0x6E7 JUMPI PUSH2 0x6E6 PUSH2 0xBDE JUMP JUMPDEST JUMPDEST SWAP1 PUSH0 MSTORE PUSH1 0x20 PUSH0 KECCAK256 SWAP1 PUSH1 0x2 MUL ADD PUSH1 0x1 ADD SLOAD SWAP1 POP SWAP2 SWAP1 POP JUMP JUMPDEST PUSH0 PUSH1 0x40 MLOAD SWAP1 POP SWAP1 JUMP JUMPDEST PUSH0 DUP1 REVERT JUMPDEST PUSH0 DUP1 REVERT JUMPDEST PUSH0 DUP2 SWAP1 POP SWAP2 SWAP1 POP JUMP JUMPDEST PUSH2 0x721 DUP2 PUSH2 0x70F JUMP JUMPDEST DUP2 EQ PUSH2 0x72B JUMPI PUSH0 DUP1 REVERT JUMPDEST POP JUMP JUMPDEST PUSH0 DUP2 CALLDATALOAD SWAP1 POP PUSH2 0x73C DUP2 PUSH2 0x718 JUMP JUMPDEST SWAP3 SWAP2 POP POP JUMP JUMPDEST PUSH0 PUSH1 0x20 DUP3 DUP5 SUB SLT ISZERO PUSH2 0x757 JUMPI PUSH2 0x756 PUSH2 0x707 JUMP JUMPDEST JUMPDEST PUSH0 PUSH2 0x764 DUP5 DUP3 DUP6 ADD PUSH2 0x72E JUMP JUMPDEST SWAP2 POP POP SWAP3 SWAP2 POP POP JUMP JUMPDEST PUSH0 DUP2 MLOAD SWAP1 POP SWAP2 SWAP1 POP JUMP JUMPDEST PUSH0 DUP3 DUP3 MSTORE PUSH1 0x20 DUP3 ADD SWAP1 POP SWAP3 SWAP2 POP POP JUMP JUMPDEST DUP3 DUP2 DUP4 MCOPY PUSH0 DUP4 DUP4 ADD MSTORE POP POP POP JUMP JUMPDEST PUSH0 PUSH1 0x1F NOT PUSH1 0x1F DUP4 ADD AND SWAP1 POP SWAP2 SWAP1 POP JUMP JUMPDEST PUSH0 PUSH2 0x7AF DUP3 PUSH2 0x76D JUMP JUMPDEST PUSH2 0x7B9 DUP2 DUP6 PUSH2 0x777 JUMP JUMPDEST SWAP4 POP PUSH2 0x7C9 DUP2 DUP6 PUSH1 0x20 DUP7 ADD PUSH2 0x787 JUMP JUMPDEST PUSH2 0x7D2 DUP2 PUSH2 0x795 JUMP JUMPDEST DUP5 ADD SWAP2 POP POP SWAP3 SWAP2 POP POP JUMP JUMPDEST PUSH0 PUSH1 0x20 DUP3 ADD SWAP1 POP DUP2 DUP2 SUB PUSH0 DUP4 ADD MSTORE PUSH2 0x7F5 DUP2 DUP5 PUSH2 0x7A5 JUMP JUMPDEST SWAP1 POP SWAP3 SWAP2 POP POP JUMP JUMPDEST PUSH2 0x806 DUP2 PUSH2 0x70F JUMP JUMPDEST DUP3 MSTORE POP POP JUMP JUMPDEST PUSH0 PUSH1 0x20 DUP3 ADD SWAP1 POP PUSH2 0x81F PUSH0 DUP4 ADD DUP5 PUSH2 0x7FD JUMP JUMPDEST SWAP3 SWAP2 POP POP JUMP JUMPDEST PUSH0 PUSH1 0x40 DUP3 ADD SWAP1 POP DUP2 DUP2 SUB PUSH0 DUP4 ADD MSTORE PUSH2 0x83D DUP2 DUP6 PUSH2 0x7A5 JUMP JUMPDEST SWAP1 POP PUSH2 0x84C PUSH1 0x20 DUP4 ADD DUP5 PUSH2 0x7FD JUMP JUMPDEST SWAP4 SWAP3 POP POP POP JUMP JUMPDEST PUSH0 PUSH20 0xFFFFFFFFFFFFFFFFFFFFFFFFFFFFFFFFFFFFFFFF DUP3 AND SWAP1 POP SWAP2 SWAP1 POP JUMP JUMPDEST PUSH0 PUSH2 0x87C DUP3 PUSH2 0x853 JUMP JUMPDEST SWAP1 POP SWAP2 SWAP1 POP JUMP JUMPDEST PUSH2 0x88C DUP2 PUSH2 0x872 JUMP JUMPDEST DUP3 MSTORE POP POP JUMP JUMPDEST PUSH0 PUSH1 0x20 DUP3 ADD SWAP1 POP PUSH2 0x8A5 PUSH0 DUP4 ADD DUP5 PUSH2 0x883 JUMP JUMPDEST SWAP3 SWAP2 POP POP JUMP JUMPDEST PUSH0 DUP1 REVERT JUMPDEST PUSH0 DUP1 REVERT JUMPDEST PUSH32 0x4E487B7100000000000000000000000000000000000000000000000000000000 PUSH0 MSTORE PUSH1 0x41 PUSH1 0x4 MSTORE PUSH1 0x24 PUSH0 REVERT JUMPDEST PUSH2 0x8E9 DUP3 PUSH2 0x795 JUMP JUMPDEST DUP2 ADD DUP2 DUP2 LT PUSH8 0xFFFFFFFFFFFFFFFF DUP3 GT OR ISZERO PUSH2 0x908 JUMPI PUSH2 0x907 PUSH2 0x8B3 JUMP JUMPDEST JUMPDEST DUP1 PUSH1 0x40 MSTORE POP POP POP JUMP JUMPDEST PUSH0 PUSH2 0x91A PUSH2 0x6FE JUMP JUMPDEST SWAP1 POP PUSH2 0x926 DUP3 DUP3 PUSH2 0x8E0 JUMP JUMPDEST SWAP2 SWAP1 POP JUMP JUMPDEST PUSH0 PUSH8 0xFFFFFFFFFFFFFFFF DUP3 GT ISZERO PUSH2 0x945 JUMPI PUSH2 0x944 PUSH2 0x8B3 JUMP JUMPDEST JUMPDEST PUSH2 0x94E DUP3 PUSH2 0x795 JUMP JUMPDEST SWAP1 POP PUSH1 0x20 DUP2 ADD SWAP1 POP SWAP2 SWAP1 POP JUMP JUMPDEST DUP3 DUP2 DUP4 CALLDATACOPY PUSH0 DUP4 DUP4 ADD MSTORE POP POP POP JUMP JUMPDEST PUSH0 PUSH2 0x97B PUSH2 0x976 DUP5 PUSH2 0x92B JUMP JUMPDEST PUSH2 0x911 JUMP JUMPDEST SWAP1 POP DUP3 DUP2 MSTORE PUSH1 0x20 DUP2 ADD DUP5 DUP5 DUP5 ADD GT ISZERO PUSH2 0x997 JUMPI PUSH2 0x996 PUSH2 0x8AF JUMP JUMPDEST JUMPDEST PUSH2 0x9A2 DUP5 DUP3 DUP6 PUSH2 0x95B JUMP JUMPDEST POP SWAP4 SWAP3 POP POP POP JUMP JUMPDEST PUSH0 DUP3 PUSH1 0x1F DUP4 ADD SLT PUSH2 0x9BE JUMPI PUSH2 0x9BD PUSH2 0x8AB JUMP JUMPDEST JUMPDEST DUP2 CALLDATALOAD PUSH2 0x9CE DUP5 DUP3 PUSH1 0x20 DUP7 ADD PUSH2 0x969 JUMP JUMPDEST SWAP2 POP POP SWAP3 SWAP2 POP POP JUMP JUMPDEST PUSH0 PUSH1 0x20 DUP3 DUP5 SUB SLT ISZERO PUSH2 0x9EC JUMPI PUSH2 0x9EB PUSH2 0x707 JUMP JUMPDEST JUMPDEST PUSH0 DUP3 ADD CALLDATALOAD PUSH8 0xFFFFFFFFFFFFFFFF DUP2 GT ISZERO PUSH2 0xA09 JUMPI PUSH2 0xA08 PUSH2 0x70B JUMP JUMPDEST JUMPDEST PUSH2 0xA15 DUP5 DUP3 DUP6 ADD PUSH2 0x9AA JUMP JUMPDEST SWAP2 POP POP SWAP3 SWAP2 POP POP JUMP JUMPDEST PUSH2 0xA27 DUP2 PUSH2 0x872 JUMP JUMPDEST DUP2 EQ PUSH2 0xA31 JUMPI PUSH0 DUP1 REVERT JUMPDEST POP JUMP JUMPDEST PUSH0 DUP2 CALLDATALOAD SWAP1 POP PUSH2 0xA42 DUP2 PUSH2 0xA1E JUMP JUMPDEST SWAP3 SWAP2 POP POP JUMP JUMPDEST PUSH0 PUSH1 0x20 DUP3 DUP5 SUB SLT ISZERO PUSH2 0xA5D JUMPI PUSH2 0xA5C PUSH2 0x707 JUMP JUMPDEST JUMPDEST PUSH0 PUSH2 0xA6A DUP5 DUP3 DUP6 ADD PUSH2 0xA34 JUMP JUMPDEST SWAP2 POP POP SWAP3 SWAP2 POP POP JUMP JUMPDEST PUSH0 DUP2 ISZERO ISZERO SWAP1 POP SWAP2 SWAP1 POP JUMP JUMPDEST PUSH2 0xA87 DUP2 PUSH2 0xA73 JUMP JUMPDEST DUP3 MSTORE POP POP JUMP JUMPDEST PUSH0 PUSH1 0x20 DUP3 ADD SWAP1 POP PUSH2 0xAA0 PUSH0 DUP4 ADD DUP5 PUSH2 0xA7E JUMP JUMPDEST SWAP3 SWAP2 POP POP JUMP JUMPDEST PUSH32 0x796F757220766F74696E672074696D6520697320657870697265640000000000 PUSH0 DUP3 ADD MSTORE POP JUMP JUMPDEST PUSH0 PUSH2 0xADA PUSH1 0x1B DUP4 PUSH2 0x777 JUMP JUMPDEST SWAP2 POP PUSH2 0xAE5 DUP3 PUSH2 0xAA6 JUMP JUMPDEST PUSH1 0x20 DUP3 ADD SWAP1 POP SWAP2 SWAP1 POP JUMP JUMPDEST PUSH0 PUSH1 0x20 DUP3 ADD SWAP1 POP DUP2 DUP2 SUB PUSH0 DUP4 ADD MSTORE PUSH2 0xB07 DUP2 PUSH2 0xACE JUMP JUMPDEST SWAP1 POP SWAP2 SWAP1 POP JUMP JUMPDEST PUSH32 0x796F75206861766520616C726561647920766F74656400000000000000000000 PUSH0 DUP3 ADD MSTORE POP JUMP JUMPDEST PUSH0 PUSH2 0xB42 PUSH1 0x16 DUP4 PUSH2 0x777 JUMP JUMPDEST SWAP2 POP PUSH2 0xB4D DUP3 PUSH2 0xB0E JUMP JUMPDEST PUSH1 0x20 DUP3 ADD SWAP1 POP SWAP2 SWAP1 POP JUMP JUMPDEST PUSH0 PUSH1 0x20 DUP3 ADD SWAP1 POP DUP2 DUP2 SUB PUSH0 DUP4 ADD MSTORE PUSH2 0xB6F DUP2 PUSH2 0xB36 JUMP JUMPDEST SWAP1 POP SWAP2 SWAP1 POP JUMP JUMPDEST PUSH32 0x4E6F2063616E6469646174657320746F20766F74650000000000000000000000 PUSH0 DUP3 ADD MSTORE POP JUMP JUMPDEST PUSH0 PUSH2 0xBAA PUSH1 0x15 DUP4 PUSH2 0x777 JUMP JUMPDEST SWAP2 POP PUSH2 0xBB5 DUP3 PUSH2 0xB76 JUMP JUMPDEST PUSH1 0x20 DUP3 ADD SWAP1 POP SWAP2 SWAP1 POP JUMP JUMPDEST PUSH0 PUSH1 0x20 DUP3 ADD SWAP1 POP DUP2 DUP2 SUB PUSH0 DUP4 ADD MSTORE PUSH2 0xBD7 DUP2 PUSH2 0xB9E JUMP JUMPDEST SWAP1 POP SWAP2 SWAP1 POP JUMP JUMPDEST PUSH32 0x4E487B7100000000000000000000000000000000000000000000000000000000 PUSH0 MSTORE PUSH1 0x32 PUSH1 0x4 MSTORE PUSH1 0x24 PUSH0 REVERT JUMPDEST PUSH32 0x4E487B7100000000000000000000000000000000000000000000000000000000 PUSH0 MSTORE PUSH1 0x11 PUSH1 0x4 MSTORE PUSH1 0x24 PUSH0 REVERT JUMPDEST PUSH0 PUSH2 0xC42 DUP3 PUSH2 0x70F JUMP JUMPDEST SWAP2 POP PUSH32 0xFFFFFFFFFFFFFFFFFFFFFFFFFFFFFFFFFFFFFFFFFFFFFFFFFFFFFFFFFFFFFFFF DUP3 SUB PUSH2 0xC74 JUMPI PUSH2 0xC73 PUSH2 0xC0B JUMP JUMPDEST JUMPDEST PUSH1 0x1 DUP3 ADD SWAP1 POP SWAP2 SWAP1 POP JUMP JUMPDEST PUSH32 0x4E6F2063616E6469646174657320617661696C61626C65000000000000000000 PUSH0 DUP3 ADD MSTORE POP JUMP JUMPDEST PUSH0 PUSH2 0xCB3 PUSH1 0x17 DUP4 PUSH2 0x777 JUMP JUMPDEST SWAP2 POP PUSH2 0xCBE DUP3 PUSH2 0xC7F JUMP JUMPDEST PUSH1 0x20 DUP3 ADD SWAP1 POP SWAP2 SWAP1 POP JUMP JUMPDEST PUSH0 PUSH1 0x20 DUP3 ADD SWAP1 POP DUP2 DUP2 SUB PUSH0 DUP4 ADD MSTORE PUSH2 0xCE0 DUP2 PUSH2 0xCA7 JUMP JUMPDEST SWAP1 POP SWAP2 SWAP1 POP JUMP JUMPDEST PUSH32 0x4E487B7100000000000000000000000000000000000000000000000000000000 PUSH0 MSTORE PUSH1 0x22 PUSH1 0x4 MSTORE PUSH1 0x24 PUSH0 REVERT JUMPDEST PUSH0 PUSH1 0x2 DUP3 DIV SWAP1 POP PUSH1 0x1 DUP3 AND DUP1 PUSH2 0xD2B JUMPI PUSH1 0x7F DUP3 AND SWAP2 POP JUMPDEST PUSH1 0x20 DUP3 LT DUP2 SUB PUSH2 0xD3E JUMPI PUSH2 0xD3D PUSH2 0xCE7 JUMP JUMPDEST JUMPDEST POP SWAP2 SWAP1 POP JUMP JUMPDEST PUSH32 0x796F752063616E7420616365737320746F207468697300000000000000000000 PUSH0 DUP3 ADD MSTORE POP JUMP JUMPDEST PUSH0 PUSH2 0xD78 PUSH1 0x16 DUP4 PUSH2 0x777 JUMP JUMPDEST SWAP2 POP PUSH2 0xD83 DUP3 PUSH2 0xD44 JUMP JUMPDEST PUSH1 0x20 DUP3 ADD SWAP1 POP SWAP2 SWAP1 POP JUMP JUMPDEST PUSH0 PUSH1 0x20 DUP3 ADD SWAP1 POP DUP2 DUP2 SUB PUSH0 DUP4 ADD MSTORE PUSH2 0xDA5 DUP2 PUSH2 0xD6C JUMP JUMPDEST SWAP1 POP SWAP2 SWAP1 POP JUMP JUMPDEST PUSH32 0x646561646C696E652069732066696E6973686564000000000000000000000000 PUSH0 DUP3 ADD MSTORE POP JUMP JUMPDEST PUSH0 PUSH2 0xDE0 PUSH1 0x14 DUP4 PUSH2 0x777 JUMP JUMPDEST SWAP2 POP PUSH2 0xDEB DUP3 PUSH2 0xDAC JUMP JUMPDEST PUSH1 0x20 DUP3 ADD SWAP1 POP SWAP2 SWAP1 POP JUMP JUMPDEST PUSH0 PUSH1 0x20 DUP3 ADD SWAP1 POP DUP2 DUP2 SUB PUSH0 DUP4 ADD MSTORE PUSH2 0xE0D DUP2 PUSH2 0xDD4 JUMP JUMPDEST SWAP1 POP SWAP2 SWAP1 POP JUMP JUMPDEST PUSH0 DUP2 SWAP1 POP DUP2 PUSH0 MSTORE PUSH1 0x20 PUSH0 KECCAK256 SWAP1 POP SWAP2 SWAP1 POP JUMP JUMPDEST PUSH0 PUSH1 0x20 PUSH1 0x1F DUP4 ADD DIV SWAP1 POP SWAP2 SWAP1 POP JUMP JUMPDEST PUSH0 DUP3 DUP3 SHL SWAP1 POP SWAP3 SWAP2 POP POP JUMP JUMPDEST PUSH0 PUSH1 0x8 DUP4 MUL PUSH2 0xE70 PUSH32 0xFFFFFFFFFFFFFFFFFFFFFFFFFFFFFFFFFFFFFFFFFFFFFFFFFFFFFFFFFFFFFFFF DUP3 PUSH2 0xE35 JUMP JUMPDEST PUSH2 0xE7A DUP7 DUP4 PUSH2 0xE35 JUMP JUMPDEST SWAP6 POP DUP1 NOT DUP5 AND SWAP4 POP DUP1 DUP7 AND DUP5 OR SWAP3 POP POP POP SWAP4 SWAP3 POP POP POP JUMP JUMPDEST PUSH0 DUP2 SWAP1 POP SWAP2 SWAP1 POP JUMP JUMPDEST PUSH0 PUSH2 0xEB5 PUSH2 0xEB0 PUSH2 0xEAB DUP5 PUSH2 0x70F JUMP JUMPDEST PUSH2 0xE92 JUMP JUMPDEST PUSH2 0x70F JUMP JUMPDEST SWAP1 POP SWAP2 SWAP1 POP JUMP JUMPDEST PUSH0 DUP2 SWAP1 POP SWAP2 SWAP1 POP JUMP JUMPDEST PUSH2 0xECE DUP4 PUSH2 0xE9B JUMP JUMPDEST PUSH2 0xEE2 PUSH2 0xEDA DUP3 PUSH2 0xEBC JUMP JUMPDEST DUP5 DUP5 SLOAD PUSH2 0xE41 JUMP JUMPDEST DUP3 SSTORE POP POP POP POP JUMP JUMPDEST PUSH0 SWAP1 JUMP JUMPDEST PUSH2 0xEF6 PUSH2 0xEEA JUMP JUMPDEST PUSH2 0xF01 DUP2 DUP5 DUP5 PUSH2 0xEC5 JUMP JUMPDEST POP POP POP JUMP JUMPDEST JUMPDEST DUP2 DUP2 LT ISZERO PUSH2 0xF24 JUMPI PUSH2 0xF19 PUSH0 DUP3 PUSH2 0xEEE JUMP JUMPDEST PUSH1 0x1 DUP2 ADD SWAP1 POP PUSH2 0xF07 JUMP JUMPDEST POP POP JUMP JUMPDEST PUSH1 0x1F DUP3 GT ISZERO PUSH2 0xF69 JUMPI PUSH2 0xF3A DUP2 PUSH2 0xE14 JUMP JUMPDEST PUSH2 0xF43 DUP5 PUSH2 0xE26 JUMP JUMPDEST DUP2 ADD PUSH1 0x20 DUP6 LT ISZERO PUSH2 0xF52 JUMPI DUP2 SWAP1 POP JUMPDEST PUSH2 0xF66 PUSH2 0xF5E DUP6 PUSH2 0xE26 JUMP JUMPDEST DUP4 ADD DUP3 PUSH2 0xF06 JUMP JUMPDEST POP POP JUMPDEST POP POP POP JUMP JUMPDEST PUSH0 DUP3 DUP3 SHR SWAP1 POP SWAP3 SWAP2 POP POP JUMP JUMPDEST PUSH0 PUSH2 0xF89 PUSH0 NOT DUP5 PUSH1 0x8 MUL PUSH2 0xF6E JUMP JUMPDEST NOT DUP1 DUP4 AND SWAP2 POP POP SWAP3 SWAP2 POP POP JUMP JUMPDEST PUSH0 PUSH2 0xFA1 DUP4 DUP4 PUSH2 0xF7A JUMP JUMPDEST SWAP2 POP DUP3 PUSH1 0x2 MUL DUP3 OR SWAP1 POP SWAP3 SWAP2 POP POP JUMP JUMPDEST PUSH2 0xFBA DUP3 PUSH2 0x76D JUMP JUMPDEST PUSH8 0xFFFFFFFFFFFFFFFF DUP2 GT ISZERO PUSH2 0xFD3 JUMPI PUSH2 0xFD2 PUSH2 0x8B3 JUMP JUMPDEST JUMPDEST PUSH2 0xFDD DUP3 SLOAD PUSH2 0xD14 JUMP JUMPDEST PUSH2 0xFE8 DUP3 DUP3 DUP6 PUSH2 0xF28 JUMP JUMPDEST PUSH0 PUSH1 0x20 SWAP1 POP PUSH1 0x1F DUP4 GT PUSH1 0x1 DUP2 EQ PUSH2 0x1019 JUMPI PUSH0 DUP5 ISZERO PUSH2 0x1007 JUMPI DUP3 DUP8 ADD MLOAD SWAP1 POP JUMPDEST PUSH2 0x1011 DUP6 DUP3 PUSH2 0xF96 JUMP JUMPDEST DUP7 SSTORE POP PUSH2 0x1078 JUMP JUMPDEST PUSH1 0x1F NOT DUP5 AND PUSH2 0x1027 DUP7 PUSH2 0xE14 JUMP JUMPDEST PUSH0 JUMPDEST DUP3 DUP2 LT ISZERO PUSH2 0x104E JUMPI DUP5 DUP10 ADD MLOAD DUP3 SSTORE PUSH1 0x1 DUP3 ADD SWAP2 POP PUSH1 0x20 DUP6 ADD SWAP5 POP PUSH1 0x20 DUP2 ADD SWAP1 POP PUSH2 0x1029 JUMP JUMPDEST DUP7 DUP4 LT ISZERO PUSH2 0x106B JUMPI DUP5 DUP10 ADD MLOAD PUSH2 0x1067 PUSH1 0x1F DUP10 AND DUP3 PUSH2 0xF7A JUMP JUMPDEST DUP4 SSTORE POP JUMPDEST PUSH1 0x1 PUSH1 0x2 DUP9 MUL ADD DUP9 SSTORE POP POP POP JUMPDEST POP POP POP POP POP POP JUMP JUMPDEST PUSH32 0x4E6F2063616E64696461746520617661696C61626C6500000000000000000000 PUSH0 DUP3 ADD MSTORE POP JUMP JUMPDEST PUSH0 PUSH2 0x10B4 PUSH1 0x16 DUP4 PUSH2 0x777 JUMP JUMPDEST SWAP2 POP PUSH2 0x10BF DUP3 PUSH2 0x1080 JUMP JUMPDEST PUSH1 0x20 DUP3 ADD SWAP1 POP SWAP2 SWAP1 POP JUMP JUMPDEST PUSH0 PUSH1 0x20 DUP3 ADD SWAP1 POP DUP2 DUP2 SUB PUSH0 DUP4 ADD MSTORE PUSH2 0x10E1 DUP2 PUSH2 0x10A8 JUMP JUMPDEST SWAP1 POP SWAP2 SWAP1 POP JUMP INVALID LOG2 PUSH5 0x6970667358 0x22 SLT KECCAK256 TSTORE 0xEC PREVRANDAO SMOD 0xD CODESIZE 0xCD 0xFB MSTORE ISZERO SELFDESTRUCT DUP1 0xA6 PUSH10 0xA9D83C2A92E4974F45DE CALLER LOG0 POP SAR PUSH28 0x8B215A64736F6C634300081A00330000000000000000000000000000 "
				},
				"gasEstimates": {
					"creation": {
						"codeDepositCost": "876400",
						"executionCost": "infinite",
						"totalCost": "infinite"
					},
					"external": {
						"addcandidate(string)": "infinite",
						"candidates(uint256)": "infinite",
						"deadline()": "2470",
						"getname(uint256)": "infinite",
						"getvotecount(uint256)": "infinite",
						"manager()": "2505",
						"vote(uint256)": "infinite",
						"voters(address)": "2877"
					}
				},
				"methodIdentifiers": {
					"addcandidate(string)": "8305abd9",
					"candidates(uint256)": "3477ee2e",
					"deadline()": "29dcb0cf",
					"getname(uint256)": "0202ace1",
					"getvotecount(uint256)": "efe89ff9",
					"manager()": "481c6a75",
					"vote(uint256)": "0121b93f",
					"voters(address)": "a3ec138d"
				}
			},
			"storageLayout": {
				"storage": [
					{
						"astId": 3,
						"contract": "election.sol:election",
						"label": "manager",
						"offset": 0,
						"slot": "0",
						"type": "t_address"
					},
					{
						"astId": 12,
						"contract": "election.sol:election",
						"label": "candidates",
						"offset": 0,
						"slot": "1",
						"type": "t_array(t_struct(candidate)8_storage)dyn_storage"
					},
					{
						"astId": 16,
						"contract": "election.sol:election",
						"label": "voters",
						"offset": 0,
						"slot": "2",
						"type": "t_mapping(t_address,t_bool)"
					},
					{
						"astId": 18,
						"contract": "election.sol:election",
						"label": "deadline",
						"offset": 0,
						"slot": "3",
						"type": "t_uint256"
					}
				],
				"types": {
					"t_address": {
						"encoding": "inplace",
						"label": "address",
						"numberOfBytes": "20"
					},
					"t_array(t_struct(candidate)8_storage)dyn_storage": {
						"base": "t_struct(candidate)8_storage",
						"encoding": "dynamic_array",
						"label": "struct election.candidate[]",
						"numberOfBytes": "32"
					},
					"t_bool": {
						"encoding": "inplace",
						"label": "bool",
						"numberOfBytes": "1"
					},
					"t_mapping(t_address,t_bool)": {
						"encoding": "mapping",
						"key": "t_address",
						"label": "mapping(address => bool)",
						"numberOfBytes": "32",
						"value": "t_bool"
					},
					"t_string_storage": {
						"encoding": "bytes",
						"label": "string",
						"numberOfBytes": "32"
					},
					"t_struct(candidate)8_storage": {
						"encoding": "inplace",
						"label": "struct election.candidate",
						"members": [
							{
								"astId": 5,
								"contract": "election.sol:election",
								"label": "name",
								"offset": 0,
								"slot": "0",
								"type": "t_string_storage"
							},
							{
								"astId": 7,
								"contract": "election.sol:election",
								"label": "votecount",
								"offset": 0,
								"slot": "1",
								"type": "t_uint256"
							}
						],
						"numberOfBytes": "64"
					},
					"t_uint256": {
						"encoding": "inplace",
						"label": "uint256",
						"numberOfBytes": "32"
					}
				}
			},
			"userdoc": {
				"kind": "user",
				"methods": {},
				"version": 1
			}
		}
	}
}