{
	"crowdfunding.sol": {
		"crowdfund": {
			"abi": [
				{
					"inputs": [
						{
							"internalType": "uint256",
							"name": "_target",
							"type": "uint256"
						},
						{
							"internalType": "uint256",
							"name": "_deadline",
							"type": "uint256"
						}
					],
					"stateMutability": "nonpayable",
					"type": "constructor"
				},
				{
					"inputs": [
						{
							"internalType": "address",
							"name": "",
							"type": "address"
						}
					],
					"name": "contributors",
					"outputs": [
						{
							"internalType": "uint256",
							"name": "",
							"type": "uint256"
						}
					],
					"stateMutability": "view",
					"type": "function"
				},
				{
					"inputs": [
						{
							"internalType": "string",
							"name": "_description",
							"type": "string"
						},
						{
							"internalType": "address payable",
							"name": "_recipient",
							"type": "address"
						},
						{
							"internalType": "uint256",
							"name": "_value",
							"type": "uint256"
						}
					],
					"name": "createRequest",
					"outputs": [],
					"stateMutability": "nonpayable",
					"type": "function"
				},
				{
					"inputs": [],
					"name": "deadline",
					"outputs": [
						{
							"internalType": "uint256",
							"name": "",
							"type": "uint256"
						}
					],
					"stateMutability": "view",
					"type": "function"
				},
				{
					"inputs": [],
					"name": "getbalance",
					"outputs": [
						{
							"internalType": "uint256",
							"name": "",
							"type": "uint256"
						}
					],
					"stateMutability": "view",
					"type": "function"
				},
				{
					"inputs": [
						{
							"internalType": "uint256",
							"name": "_requestNo",
							"type": "uint256"
						}
					],
					"name": "makepayment",
					"outputs": [],
					"stateMutability": "nonpayable",
					"type": "function"
				},
				{
					"inputs": [],
					"name": "manager",
					"outputs": [
						{
							"internalType": "address",
							"name": "",
							"type": "address"
						}
					],
					"stateMutability": "view",
					"type": "function"
				},
				{
					"inputs": [],
					"name": "mincontributions",
					"outputs": [
						{
							"internalType": "uint256",
							"name": "",
							"type": "uint256"
						}
					],
					"stateMutability": "view",
					"type": "function"
				},
				{
					"inputs": [],
					"name": "noofcontributors",
					"outputs": [
						{
							"internalType": "uint256",
							"name": "",
							"type": "uint256"
						}
					],
					"stateMutability": "view",
					"type": "function"
				},
				{
					"inputs": [],
					"name": "numRequest",
					"outputs": [
						{
							"internalType": "uint256",
							"name": "",
							"type": "uint256"
						}
					],
					"stateMutability": "view",
					"type": "function"
				},
				{
					"inputs": [],
					"name": "raisedamount",
					"outputs": [
						{
							"internalType": "uint256",
							"name": "",
							"type": "uint256"
						}
					],
					"stateMutability": "view",
					"type": "function"
				},
				{
					"inputs": [],
					"name": "refund",
					"outputs": [],
					"stateMutability": "nonpayable",
					"type": "function"
				},
				{
					"inputs": [
						{
							"internalType": "uint256",
							"name": "",
							"type": "uint256"
						}
					],
					"name": "requests",
					"outputs": [
						{
							"internalType": "string",
							"name": "description",
							"type": "string"
						},
						{
							"internalType": "address payable",
							"name": "recipient",
							"type": "address"
						},
						{
							"internalType": "uint256",
							"name": "value",
							"type": "uint256"
						},
						{
							"internalType": "bool",
							"name": "completed",
							"type": "bool"
						},
						{
							"internalType": "uint256",
							"name": "noofvoters",
							"type": "uint256"
						}
					],
					"stateMutability": "view",
					"type": "function"
				},
				{
					"inputs": [],
					"name": "sendeth",
					"outputs": [],
					"stateMutability": "payable",
					"type": "function"
				},
				{
					"inputs": [],
					"name": "target",
					"outputs": [
						{
							"internalType": "uint256",
							"name": "",
							"type": "uint256"
						}
					],
					"stateMutability": "view",
					"type": "function"
				},
				{
					"inputs": [
						{
							"internalType": "uint256",
							"name": "_requestNo",
							"type": "uint256"
						}
					],
					"name": "voterequest",
					"outputs": [],
					"stateMutability": "nonpayable",
					"type": "function"
				}
			],
			"devdoc": {
				"kind": "dev",
				"methods": {},
				"version": 1
			},
			"evm": {
				"assembly": "    /* \"crowdfunding.sol\":69:3003  contract crowdfund{... */\n  mstore(0x40, 0x80)\n    /* \"crowdfunding.sol\":613:799  constructor(uint _target,uint _deadline){... */\n  callvalue\n  dup1\n  iszero\n  tag_1\n  jumpi\n  0x00\n  dup1\n  revert\ntag_1:\n  pop\n  mload(0x40)\n  sub(codesize, bytecodeSize)\n  dup1\n  bytecodeSize\n  dup4\n  codecopy\n  dup2\n  dup2\n  add\n  0x40\n  mstore\n  dup2\n  add\n  swap1\n  tag_2\n  swap2\n  swap1\n  tag_3\n  jump\t// in\ntag_2:\n    /* \"crowdfunding.sol\":671:678  _target */\n  dup2\n    /* \"crowdfunding.sol\":664:670  target */\n  0x02\n    /* \"crowdfunding.sol\":664:678  target=_target */\n  dup2\n  swap1\n  sstore\n  pop\n    /* \"crowdfunding.sol\":716:725  _deadline */\n  dup1\n    /* \"crowdfunding.sol\":698:713  block.timestamp */\n  timestamp\n    /* \"crowdfunding.sol\":698:725  block.timestamp + _deadline */\n  tag_6\n  swap2\n  swap1\n  tag_7\n  jump\t// in\ntag_6:\n    /* \"crowdfunding.sol\":689:697  deadline */\n  0x03\n    /* \"crowdfunding.sol\":689:725  deadline=block.timestamp + _deadline */\n  dup2\n  swap1\n  sstore\n  pop\n    /* \"crowdfunding.sol\":753:760  100 wei */\n  0x64\n    /* \"crowdfunding.sol\":736:752  mincontributions */\n  0x05\n    /* \"crowdfunding.sol\":736:760  mincontributions=100 wei */\n  dup2\n  swap1\n  sstore\n  pop\n    /* \"crowdfunding.sol\":779:789  msg.sender */\n  caller\n    /* \"crowdfunding.sol\":771:778  manager */\n  0x01\n  0x00\n    /* \"crowdfunding.sol\":771:789  manager=msg.sender */\n  0x0100\n  exp\n  dup2\n  sload\n  dup2\n  0xffffffffffffffffffffffffffffffffffffffff\n  mul\n  not\n  and\n  swap1\n  dup4\n  0xffffffffffffffffffffffffffffffffffffffff\n  and\n  mul\n  or\n  swap1\n  sstore\n  pop\n    /* \"crowdfunding.sol\":613:799  constructor(uint _target,uint _deadline){... */\n  pop\n  pop\n    /* \"crowdfunding.sol\":69:3003  contract crowdfund{... */\n  jump(tag_8)\n    /* \"#utility.yul\":88:205   */\ntag_10:\n    /* \"#utility.yul\":197:198   */\n  0x00\n    /* \"#utility.yul\":194:195   */\n  dup1\n    /* \"#utility.yul\":187:199   */\n  revert\n    /* \"#utility.yul\":334:411   */\ntag_12:\n    /* \"#utility.yul\":371:378   */\n  0x00\n    /* \"#utility.yul\":400:405   */\n  dup2\n    /* \"#utility.yul\":389:405   */\n  swap1\n  pop\n    /* \"#utility.yul\":334:411   */\n  swap2\n  swap1\n  pop\n  jump\t// out\n    /* \"#utility.yul\":417:539   */\ntag_13:\n    /* \"#utility.yul\":490:514   */\n  tag_22\n    /* \"#utility.yul\":508:513   */\n  dup2\n    /* \"#utility.yul\":490:514   */\n  tag_12\n  jump\t// in\ntag_22:\n    /* \"#utility.yul\":483:488   */\n  dup2\n    /* \"#utility.yul\":480:515   */\n  eq\n    /* \"#utility.yul\":470:533   */\n  tag_23\n  jumpi\n    /* \"#utility.yul\":529:530   */\n  0x00\n    /* \"#utility.yul\":526:527   */\n  dup1\n    /* \"#utility.yul\":519:531   */\n  revert\n    /* \"#utility.yul\":470:533   */\ntag_23:\n    /* \"#utility.yul\":417:539   */\n  pop\n  jump\t// out\n    /* \"#utility.yul\":545:688   */\ntag_14:\n    /* \"#utility.yul\":602:607   */\n  0x00\n    /* \"#utility.yul\":633:639   */\n  dup2\n    /* \"#utility.yul\":627:640   */\n  mload\n    /* \"#utility.yul\":618:640   */\n  swap1\n  pop\n    /* \"#utility.yul\":649:682   */\n  tag_25\n    /* \"#utility.yul\":676:681   */\n  dup2\n    /* \"#utility.yul\":649:682   */\n  tag_13\n  jump\t// in\ntag_25:\n    /* \"#utility.yul\":545:688   */\n  swap3\n  swap2\n  pop\n  pop\n  jump\t// out\n    /* \"#utility.yul\":694:1201   */\ntag_3:\n    /* \"#utility.yul\":773:779   */\n  0x00\n    /* \"#utility.yul\":781:787   */\n  dup1\n    /* \"#utility.yul\":830:832   */\n  0x40\n    /* \"#utility.yul\":818:827   */\n  dup4\n    /* \"#utility.yul\":809:816   */\n  dup6\n    /* \"#utility.yul\":805:828   */\n  sub\n    /* \"#utility.yul\":801:833   */\n  slt\n    /* \"#utility.yul\":798:917   */\n  iszero\n  tag_27\n  jumpi\n    /* \"#utility.yul\":836:915   */\n  tag_28\n  tag_10\n  jump\t// in\ntag_28:\n    /* \"#utility.yul\":798:917   */\ntag_27:\n    /* \"#utility.yul\":956:957   */\n  0x00\n    /* \"#utility.yul\":981:1045   */\n  tag_29\n    /* \"#utility.yul\":1037:1044   */\n  dup6\n    /* \"#utility.yul\":1028:1034   */\n  dup3\n    /* \"#utility.yul\":1017:1026   */\n  dup7\n    /* \"#utility.yul\":1013:1035   */\n  add\n    /* \"#utility.yul\":981:1045   */\n  tag_14\n  jump\t// in\ntag_29:\n    /* \"#utility.yul\":971:1045   */\n  swap3\n  pop\n    /* \"#utility.yul\":927:1055   */\n  pop\n    /* \"#utility.yul\":1094:1096   */\n  0x20\n    /* \"#utility.yul\":1120:1184   */\n  tag_30\n    /* \"#utility.yul\":1176:1183   */\n  dup6\n    /* \"#utility.yul\":1167:1173   */\n  dup3\n    /* \"#utility.yul\":1156:1165   */\n  dup7\n    /* \"#utility.yul\":1152:1174   */\n  add\n    /* \"#utility.yul\":1120:1184   */\n  tag_14\n  jump\t// in\ntag_30:\n    /* \"#utility.yul\":1110:1184   */\n  swap2\n  pop\n    /* \"#utility.yul\":1065:1194   */\n  pop\n    /* \"#utility.yul\":694:1201   */\n  swap3\n  pop\n  swap3\n  swap1\n  pop\n  jump\t// out\n    /* \"#utility.yul\":1207:1387   */\ntag_15:\n    /* \"#utility.yul\":1255:1332   */\n  0x4e487b7100000000000000000000000000000000000000000000000000000000\n    /* \"#utility.yul\":1252:1253   */\n  0x00\n    /* \"#utility.yul\":1245:1333   */\n  mstore\n    /* \"#utility.yul\":1352:1356   */\n  0x11\n    /* \"#utility.yul\":1349:1350   */\n  0x04\n    /* \"#utility.yul\":1342:1357   */\n  mstore\n    /* \"#utility.yul\":1376:1380   */\n  0x24\n    /* \"#utility.yul\":1373:1374   */\n  0x00\n    /* \"#utility.yul\":1366:1381   */\n  revert\n    /* \"#utility.yul\":1393:1584   */\ntag_7:\n    /* \"#utility.yul\":1433:1436   */\n  0x00\n    /* \"#utility.yul\":1452:1472   */\n  tag_33\n    /* \"#utility.yul\":1470:1471   */\n  dup3\n    /* \"#utility.yul\":1452:1472   */\n  tag_12\n  jump\t// in\ntag_33:\n    /* \"#utility.yul\":1447:1472   */\n  swap2\n  pop\n    /* \"#utility.yul\":1486:1506   */\n  tag_34\n    /* \"#utility.yul\":1504:1505   */\n  dup4\n    /* \"#utility.yul\":1486:1506   */\n  tag_12\n  jump\t// in\ntag_34:\n    /* \"#utility.yul\":1481:1506   */\n  swap3\n  pop\n    /* \"#utility.yul\":1529:1530   */\n  dup3\n    /* \"#utility.yul\":1526:1527   */\n  dup3\n    /* \"#utility.yul\":1522:1531   */\n  add\n    /* \"#utility.yul\":1515:1531   */\n  swap1\n  pop\n    /* \"#utility.yul\":1550:1553   */\n  dup1\n    /* \"#utility.yul\":1547:1548   */\n  dup3\n    /* \"#utility.yul\":1544:1554   */\n  gt\n    /* \"#utility.yul\":1541:1577   */\n  iszero\n  tag_35\n  jumpi\n    /* \"#utility.yul\":1557:1575   */\n  tag_36\n  tag_15\n  jump\t// in\ntag_36:\n    /* \"#utility.yul\":1541:1577   */\ntag_35:\n    /* \"#utility.yul\":1393:1584   */\n  swap3\n  swap2\n  pop\n  pop\n  jump\t// out\n    /* \"crowdfunding.sol\":69:3003  contract crowdfund{... */\ntag_8:\n  dataSize(sub_0)\n  dup1\n  dataOffset(sub_0)\n  0x00\n  codecopy\n  0x00\n  return\nstop\n\nsub_0: assembly {\n        /* \"crowdfunding.sol\":69:3003  contract crowdfund{... */\n      mstore(0x40, 0x80)\n      jumpi(tag_1, lt(calldatasize, 0x04))\n      shr(0xe0, calldataload(0x00))\n      dup1\n      0x590e1ae3\n      gt\n      tag_17\n      jumpi\n      dup1\n      0xb1b16431\n      gt\n      tag_18\n      jumpi\n      dup1\n      0xb1b16431\n      eq\n      tag_13\n      jumpi\n      dup1\n      0xb22c39f0\n      eq\n      tag_14\n      jumpi\n      dup1\n      0xcbaf8671\n      eq\n      tag_15\n      jumpi\n      dup1\n      0xd4b83992\n      eq\n      tag_16\n      jumpi\n      jump(tag_1)\n    tag_18:\n      dup1\n      0x590e1ae3\n      eq\n      tag_9\n      jumpi\n      dup1\n      0x81d12c58\n      eq\n      tag_10\n      jumpi\n      dup1\n      0x83238798\n      eq\n      tag_11\n      jumpi\n      dup1\n      0x967c67ce\n      eq\n      tag_12\n      jumpi\n      jump(tag_1)\n    tag_17:\n      dup1\n      0x29dcb0cf\n      gt\n      tag_19\n      jumpi\n      dup1\n      0x29dcb0cf\n      eq\n      tag_5\n      jumpi\n      dup1\n      0x3b644d18\n      eq\n      tag_6\n      jumpi\n      dup1\n      0x481c6a75\n      eq\n      tag_7\n      jumpi\n      dup1\n      0x4d9b3d5d\n      eq\n      tag_8\n      jumpi\n      jump(tag_1)\n    tag_19:\n      dup1\n      0x15ce85fb\n      eq\n      tag_2\n      jumpi\n      dup1\n      0x1b16bb5c\n      eq\n      tag_3\n      jumpi\n      dup1\n      0x1f6d4942\n      eq\n      tag_4\n      jumpi\n    tag_1:\n      0x00\n      dup1\n      revert\n        /* \"crowdfunding.sol\":805:1201  function sendeth() public payable {... */\n    tag_2:\n      tag_20\n      tag_21\n      jump\t// in\n    tag_20:\n      stop\n        /* \"crowdfunding.sol\":1767:2157  function createRequest(string memory _description,address payable  _recipient,uint _value)public onlyManager{... */\n    tag_3:\n      callvalue\n      dup1\n      iszero\n      tag_22\n      jumpi\n      0x00\n      dup1\n      revert\n    tag_22:\n      pop\n      tag_23\n      0x04\n      dup1\n      calldatasize\n      sub\n      dup2\n      add\n      swap1\n      tag_24\n      swap2\n      swap1\n      tag_25\n      jump\t// in\n    tag_24:\n      tag_26\n      jump\t// in\n    tag_23:\n      stop\n        /* \"crowdfunding.sol\":96:139  mapping(address=> uint) public contributors */\n    tag_4:\n      callvalue\n      dup1\n      iszero\n      tag_27\n      jumpi\n      0x00\n      dup1\n      revert\n    tag_27:\n      pop\n      tag_28\n      0x04\n      dup1\n      calldatasize\n      sub\n      dup2\n      add\n      swap1\n      tag_29\n      swap2\n      swap1\n      tag_30\n      jump\t// in\n    tag_29:\n      tag_31\n      jump\t// in\n    tag_28:\n      mload(0x40)\n      tag_32\n      swap2\n      swap1\n      tag_33\n      jump\t// in\n    tag_32:\n      mload(0x40)\n      dup1\n      swap2\n      sub\n      swap1\n      return\n        /* \"crowdfunding.sol\":200:220  uint public deadline */\n    tag_5:\n      callvalue\n      dup1\n      iszero\n      tag_34\n      jumpi\n      0x00\n      dup1\n      revert\n    tag_34:\n      pop\n      tag_35\n      tag_36\n      jump\t// in\n    tag_35:\n      mload(0x40)\n      tag_37\n      swap2\n      swap1\n      tag_33\n      jump\t// in\n    tag_37:\n      mload(0x40)\n      dup1\n      swap2\n      sub\n      swap1\n      return\n        /* \"crowdfunding.sol\":298:322  uint public raisedamount */\n    tag_6:\n      callvalue\n      dup1\n      iszero\n      tag_38\n      jumpi\n      0x00\n      dup1\n      revert\n    tag_38:\n      pop\n      tag_39\n      tag_40\n      jump\t// in\n    tag_39:\n      mload(0x40)\n      tag_41\n      swap2\n      swap1\n      tag_33\n      jump\t// in\n    tag_41:\n      mload(0x40)\n      dup1\n      swap2\n      sub\n      swap1\n      return\n        /* \"crowdfunding.sol\":146:168  address public manager */\n    tag_7:\n      callvalue\n      dup1\n      iszero\n      tag_42\n      jumpi\n      0x00\n      dup1\n      revert\n    tag_42:\n      pop\n      tag_43\n      tag_44\n      jump\t// in\n    tag_43:\n      mload(0x40)\n      tag_45\n      swap2\n      swap1\n      tag_46\n      jump\t// in\n    tag_45:\n      mload(0x40)\n      dup1\n      swap2\n      sub\n      swap1\n      return\n        /* \"crowdfunding.sol\":1207:1300  function getbalance()public view returns(uint){... */\n    tag_8:\n      callvalue\n      dup1\n      iszero\n      tag_47\n      jumpi\n      0x00\n      dup1\n      revert\n    tag_47:\n      pop\n      tag_48\n      tag_49\n      jump\t// in\n    tag_48:\n      mload(0x40)\n      tag_50\n      swap2\n      swap1\n      tag_33\n      jump\t// in\n    tag_50:\n      mload(0x40)\n      dup1\n      swap2\n      sub\n      swap1\n      return\n        /* \"crowdfunding.sol\":1308:1634  function refund() public{... */\n    tag_9:\n      callvalue\n      dup1\n      iszero\n      tag_51\n      jumpi\n      0x00\n      dup1\n      revert\n    tag_51:\n      pop\n      tag_52\n      tag_53\n      jump\t// in\n    tag_52:\n      stop\n        /* \"crowdfunding.sol\":536:575  mapping(uint=>Request) public  requests */\n    tag_10:\n      callvalue\n      dup1\n      iszero\n      tag_54\n      jumpi\n      0x00\n      dup1\n      revert\n    tag_54:\n      pop\n      tag_55\n      0x04\n      dup1\n      calldatasize\n      sub\n      dup2\n      add\n      swap1\n      tag_56\n      swap2\n      swap1\n      tag_57\n      jump\t// in\n    tag_56:\n      tag_58\n      jump\t// in\n    tag_55:\n      mload(0x40)\n      tag_59\n      swap6\n      swap5\n      swap4\n      swap3\n      swap2\n      swap1\n      tag_60\n      jump\t// in\n    tag_59:\n      mload(0x40)\n      dup1\n      swap2\n      sub\n      swap1\n      return\n        /* \"crowdfunding.sol\":227:255  uint public noofcontributors */\n    tag_11:\n      callvalue\n      dup1\n      iszero\n      tag_61\n      jumpi\n      0x00\n      dup1\n      revert\n    tag_61:\n      pop\n      tag_62\n      tag_63\n      jump\t// in\n    tag_62:\n      mload(0x40)\n      tag_64\n      swap2\n      swap1\n      tag_33\n      jump\t// in\n    tag_64:\n      mload(0x40)\n      dup1\n      swap2\n      sub\n      swap1\n      return\n        /* \"crowdfunding.sol\":2163:2536  function voterequest(uint _requestNo)public {... */\n    tag_12:\n      callvalue\n      dup1\n      iszero\n      tag_65\n      jumpi\n      0x00\n      dup1\n      revert\n    tag_65:\n      pop\n      tag_66\n      0x04\n      dup1\n      calldatasize\n      sub\n      dup2\n      add\n      swap1\n      tag_67\n      swap2\n      swap1\n      tag_57\n      jump\t// in\n    tag_67:\n      tag_68\n      jump\t// in\n    tag_66:\n      stop\n        /* \"crowdfunding.sol\":582:604  uint public numRequest */\n    tag_13:\n      callvalue\n      dup1\n      iszero\n      tag_69\n      jumpi\n      0x00\n      dup1\n      revert\n    tag_69:\n      pop\n      tag_70\n      tag_71\n      jump\t// in\n    tag_70:\n      mload(0x40)\n      tag_72\n      swap2\n      swap1\n      tag_33\n      jump\t// in\n    tag_72:\n      mload(0x40)\n      dup1\n      swap2\n      sub\n      swap1\n      return\n        /* \"crowdfunding.sol\":262:291  uint public  mincontributions */\n    tag_14:\n      callvalue\n      dup1\n      iszero\n      tag_73\n      jumpi\n      0x00\n      dup1\n      revert\n    tag_73:\n      pop\n      tag_74\n      tag_75\n      jump\t// in\n    tag_74:\n      mload(0x40)\n      tag_76\n      swap2\n      swap1\n      tag_33\n      jump\t// in\n    tag_76:\n      mload(0x40)\n      dup1\n      swap2\n      sub\n      swap1\n      return\n        /* \"crowdfunding.sol\":2544:2999  function makepayment(uint _requestNo)public onlyManager{... */\n    tag_15:\n      callvalue\n      dup1\n      iszero\n      tag_77\n      jumpi\n      0x00\n      dup1\n      revert\n    tag_77:\n      pop\n      tag_78\n      0x04\n      dup1\n      calldatasize\n      sub\n      dup2\n      add\n      swap1\n      tag_79\n      swap2\n      swap1\n      tag_57\n      jump\t// in\n    tag_79:\n      tag_80\n      jump\t// in\n    tag_78:\n      stop\n        /* \"crowdfunding.sol\":175:193  uint public target */\n    tag_16:\n      callvalue\n      dup1\n      iszero\n      tag_81\n      jumpi\n      0x00\n      dup1\n      revert\n    tag_81:\n      pop\n      tag_82\n      tag_83\n      jump\t// in\n    tag_82:\n      mload(0x40)\n      tag_84\n      swap2\n      swap1\n      tag_33\n      jump\t// in\n    tag_84:\n      mload(0x40)\n      dup1\n      swap2\n      sub\n      swap1\n      return\n        /* \"crowdfunding.sol\":805:1201  function sendeth() public payable {... */\n    tag_21:\n        /* \"crowdfunding.sol\":876:884  deadline */\n      sload(0x03)\n        /* \"crowdfunding.sol\":858:873  block.timestamp */\n      timestamp\n        /* \"crowdfunding.sol\":858:884  block.timestamp<= deadline */\n      gt\n      iszero\n        /* \"crowdfunding.sol\":850:928  require(block.timestamp<= deadline,\"The deadline has passed for this funding\") */\n      tag_86\n      jumpi\n      mload(0x40)\n      0x08c379a000000000000000000000000000000000000000000000000000000000\n      dup2\n      mstore\n      0x04\n      add\n      tag_87\n      swap1\n      tag_88\n      jump\t// in\n    tag_87:\n      mload(0x40)\n      dup1\n      swap2\n      sub\n      swap1\n      revert\n    tag_86:\n        /* \"crowdfunding.sol\":959:975  mincontributions */\n      sload(0x05)\n        /* \"crowdfunding.sol\":947:956  msg.value */\n      callvalue\n        /* \"crowdfunding.sol\":947:975  msg.value < mincontributions */\n      lt\n        /* \"crowdfunding.sol\":939:1025  require(msg.value < mincontributions,\"You must pay minimum of 100 wei to participate\") */\n      tag_89\n      jumpi\n      mload(0x40)\n      0x08c379a000000000000000000000000000000000000000000000000000000000\n      dup2\n      mstore\n      0x04\n      add\n      tag_90\n      swap1\n      tag_91\n      jump\t// in\n    tag_90:\n      mload(0x40)\n      dup1\n      swap2\n      sub\n      swap1\n      revert\n    tag_89:\n        /* \"crowdfunding.sol\":1065:1066  0 */\n      0x00\n        /* \"crowdfunding.sol\":1039:1051  contributors */\n      dup1\n        /* \"crowdfunding.sol\":1039:1063  contributors[msg.sender] */\n      0x00\n        /* \"crowdfunding.sol\":1052:1062  msg.sender */\n      caller\n        /* \"crowdfunding.sol\":1039:1063  contributors[msg.sender] */\n      0xffffffffffffffffffffffffffffffffffffffff\n      and\n      0xffffffffffffffffffffffffffffffffffffffff\n      and\n      dup2\n      mstore\n      0x20\n      add\n      swap1\n      dup2\n      mstore\n      0x20\n      add\n      0x00\n      keccak256\n      sload\n        /* \"crowdfunding.sol\":1039:1066  contributors[msg.sender]==0 */\n      sub\n        /* \"crowdfunding.sol\":1036:1114  if(contributors[msg.sender]==0){... */\n      tag_92\n      jumpi\n        /* \"crowdfunding.sol\":1082:1098  noofcontributors */\n      0x04\n      0x00\n        /* \"crowdfunding.sol\":1082:1100  noofcontributors++ */\n      dup2\n      sload\n      dup1\n      swap3\n      swap2\n      swap1\n      tag_93\n      swap1\n      tag_94\n      jump\t// in\n    tag_93:\n      swap2\n      swap1\n      pop\n      sstore\n      pop\n        /* \"crowdfunding.sol\":1036:1114  if(contributors[msg.sender]==0){... */\n    tag_92:\n        /* \"crowdfunding.sol\":1150:1159  msg.value */\n      callvalue\n        /* \"crowdfunding.sol\":1124:1136  contributors */\n      0x00\n        /* \"crowdfunding.sol\":1124:1148  contributors[msg.sender] */\n      dup1\n        /* \"crowdfunding.sol\":1137:1147  msg.sender */\n      caller\n        /* \"crowdfunding.sol\":1124:1148  contributors[msg.sender] */\n      0xffffffffffffffffffffffffffffffffffffffff\n      and\n      0xffffffffffffffffffffffffffffffffffffffff\n      and\n      dup2\n      mstore\n      0x20\n      add\n      swap1\n      dup2\n      mstore\n      0x20\n      add\n      0x00\n      keccak256\n      0x00\n        /* \"crowdfunding.sol\":1124:1159  contributors[msg.sender]+=msg.value */\n      dup3\n      dup3\n      sload\n      tag_95\n      swap2\n      swap1\n      tag_96\n      jump\t// in\n    tag_95:\n      swap3\n      pop\n      pop\n      dup2\n      swap1\n      sstore\n      pop\n        /* \"crowdfunding.sol\":1184:1193  msg.value */\n      callvalue\n        /* \"crowdfunding.sol\":1170:1182  raisedamount */\n      0x06\n      0x00\n        /* \"crowdfunding.sol\":1170:1193  raisedamount+=msg.value */\n      dup3\n      dup3\n      sload\n      tag_97\n      swap2\n      swap1\n      tag_96\n      jump\t// in\n    tag_97:\n      swap3\n      pop\n      pop\n      dup2\n      swap1\n      sstore\n      pop\n        /* \"crowdfunding.sol\":805:1201  function sendeth() public payable {... */\n      jump\t// out\n        /* \"crowdfunding.sol\":1767:2157  function createRequest(string memory _description,address payable  _recipient,uint _value)public onlyManager{... */\n    tag_26:\n        /* \"crowdfunding.sol\":1693:1700  manager */\n      0x01\n      0x00\n      swap1\n      sload\n      swap1\n      0x0100\n      exp\n      swap1\n      div\n      0xffffffffffffffffffffffffffffffffffffffff\n      and\n        /* \"crowdfunding.sol\":1681:1700  msg.sender==manager */\n      0xffffffffffffffffffffffffffffffffffffffff\n      and\n        /* \"crowdfunding.sol\":1681:1691  msg.sender */\n      caller\n        /* \"crowdfunding.sol\":1681:1700  msg.sender==manager */\n      0xffffffffffffffffffffffffffffffffffffffff\n      and\n      eq\n        /* \"crowdfunding.sol\":1673:1739  require(msg.sender==manager,\"Only manager can acess the function\") */\n      tag_99\n      jumpi\n      mload(0x40)\n      0x08c379a000000000000000000000000000000000000000000000000000000000\n      dup2\n      mstore\n      0x04\n      add\n      tag_100\n      swap1\n      tag_101\n      jump\t// in\n    tag_100:\n      mload(0x40)\n      dup1\n      swap2\n      sub\n      swap1\n      revert\n    tag_99:\n        /* \"crowdfunding.sol\":1886:1912  Request storage newrequest */\n      0x00\n        /* \"crowdfunding.sol\":1913:1921  requests */\n      0x07\n        /* \"crowdfunding.sol\":1913:1933  requests[numRequest] */\n      0x00\n        /* \"crowdfunding.sol\":1922:1932  numRequest */\n      sload(0x08)\n        /* \"crowdfunding.sol\":1913:1933  requests[numRequest] */\n      dup2\n      mstore\n      0x20\n      add\n      swap1\n      dup2\n      mstore\n      0x20\n      add\n      0x00\n      keccak256\n        /* \"crowdfunding.sol\":1886:1933  Request storage newrequest=requests[numRequest] */\n      swap1\n      pop\n        /* \"crowdfunding.sol\":1944:1954  numRequest */\n      0x08\n      0x00\n        /* \"crowdfunding.sol\":1944:1956  numRequest++ */\n      dup2\n      sload\n      dup1\n      swap3\n      swap2\n      swap1\n      tag_103\n      swap1\n      tag_94\n      jump\t// in\n    tag_103:\n      swap2\n      swap1\n      pop\n      sstore\n      pop\n        /* \"crowdfunding.sol\":1990:2002  _description */\n      dup4\n        /* \"crowdfunding.sol\":1967:1977  newrequest */\n      dup2\n        /* \"crowdfunding.sol\":1967:1989  newrequest.description */\n      0x00\n      add\n        /* \"crowdfunding.sol\":1967:2002  newrequest.description=_description */\n      swap1\n      dup2\n      tag_104\n      swap2\n      swap1\n      tag_105\n      jump\t// in\n    tag_104:\n      pop\n        /* \"crowdfunding.sol\":2034:2044  _recipient */\n      dup3\n        /* \"crowdfunding.sol\":2013:2023  newrequest */\n      dup2\n        /* \"crowdfunding.sol\":2013:2033  newrequest.recipient */\n      0x01\n      add\n      0x00\n        /* \"crowdfunding.sol\":2013:2044  newrequest.recipient=_recipient */\n      0x0100\n      exp\n      dup2\n      sload\n      dup2\n      0xffffffffffffffffffffffffffffffffffffffff\n      mul\n      not\n      and\n      swap1\n      dup4\n      0xffffffffffffffffffffffffffffffffffffffff\n      and\n      mul\n      or\n      swap1\n      sstore\n      pop\n        /* \"crowdfunding.sol\":2072:2078  _value */\n      dup2\n        /* \"crowdfunding.sol\":2055:2065  newrequest */\n      dup2\n        /* \"crowdfunding.sol\":2055:2071  newrequest.value */\n      0x02\n      add\n        /* \"crowdfunding.sol\":2055:2078  newrequest.value=_value */\n      dup2\n      swap1\n      sstore\n      pop\n        /* \"crowdfunding.sol\":2110:2115  false */\n      0x00\n        /* \"crowdfunding.sol\":2089:2099  newrequest */\n      dup2\n        /* \"crowdfunding.sol\":2089:2109  newrequest.completed */\n      0x03\n      add\n      0x00\n        /* \"crowdfunding.sol\":2089:2115  newrequest.completed=false */\n      0x0100\n      exp\n      dup2\n      sload\n      dup2\n      0xff\n      mul\n      not\n      and\n      swap1\n      dup4\n      iszero\n      iszero\n      mul\n      or\n      swap1\n      sstore\n      pop\n        /* \"crowdfunding.sol\":2148:2149  0 */\n      0x00\n        /* \"crowdfunding.sol\":2126:2136  newrequest */\n      dup2\n        /* \"crowdfunding.sol\":2126:2147  newrequest.noofvoters */\n      0x04\n      add\n        /* \"crowdfunding.sol\":2126:2149  newrequest.noofvoters=0 */\n      dup2\n      swap1\n      sstore\n      pop\n        /* \"crowdfunding.sol\":1875:2157  {... */\n      pop\n        /* \"crowdfunding.sol\":1767:2157  function createRequest(string memory _description,address payable  _recipient,uint _value)public onlyManager{... */\n      pop\n      pop\n      pop\n      jump\t// out\n        /* \"crowdfunding.sol\":96:139  mapping(address=> uint) public contributors */\n    tag_31:\n      mstore(0x20, 0x00)\n      dup1\n      0x00\n      mstore\n      keccak256(0x00, 0x40)\n      0x00\n      swap2\n      pop\n      swap1\n      pop\n      sload\n      dup2\n      jump\t// out\n        /* \"crowdfunding.sol\":200:220  uint public deadline */\n    tag_36:\n      sload(0x03)\n      dup2\n      jump\t// out\n        /* \"crowdfunding.sol\":298:322  uint public raisedamount */\n    tag_40:\n      sload(0x06)\n      dup2\n      jump\t// out\n        /* \"crowdfunding.sol\":146:168  address public manager */\n    tag_44:\n      0x01\n      0x00\n      swap1\n      sload\n      swap1\n      0x0100\n      exp\n      swap1\n      div\n      0xffffffffffffffffffffffffffffffffffffffff\n      and\n      dup2\n      jump\t// out\n        /* \"crowdfunding.sol\":1207:1300  function getbalance()public view returns(uint){... */\n    tag_49:\n        /* \"crowdfunding.sol\":1248:1252  uint */\n      0x00\n        /* \"crowdfunding.sol\":1271:1292  address(this).balance */\n      selfbalance\n        /* \"crowdfunding.sol\":1264:1292  return address(this).balance */\n      swap1\n      pop\n        /* \"crowdfunding.sol\":1207:1300  function getbalance()public view returns(uint){... */\n      swap1\n      jump\t// out\n        /* \"crowdfunding.sol\":1308:1634  function refund() public{... */\n    tag_53:\n        /* \"crowdfunding.sol\":1367:1375  deadline */\n      sload(0x03)\n        /* \"crowdfunding.sol\":1351:1366  block.timestamp */\n      timestamp\n        /* \"crowdfunding.sol\":1351:1375  block.timestamp>deadline */\n      gt\n        /* \"crowdfunding.sol\":1351:1398  block.timestamp>deadline && raisedamount<target */\n      dup1\n      iszero\n      tag_108\n      jumpi\n      pop\n        /* \"crowdfunding.sol\":1392:1398  target */\n      sload(0x02)\n        /* \"crowdfunding.sol\":1379:1391  raisedamount */\n      sload(0x06)\n        /* \"crowdfunding.sol\":1379:1398  raisedamount<target */\n      lt\n        /* \"crowdfunding.sol\":1351:1398  block.timestamp>deadline && raisedamount<target */\n    tag_108:\n        /* \"crowdfunding.sol\":1343:1436  require(block.timestamp>deadline && raisedamount<target,\"You are not eligible to get refund\") */\n      tag_109\n      jumpi\n      mload(0x40)\n      0x08c379a000000000000000000000000000000000000000000000000000000000\n      dup2\n      mstore\n      0x04\n      add\n      tag_110\n      swap1\n      tag_111\n      jump\t// in\n    tag_110:\n      mload(0x40)\n      dup1\n      swap2\n      sub\n      swap1\n      revert\n    tag_109:\n        /* \"crowdfunding.sol\":1480:1481  0 */\n      0x00\n        /* \"crowdfunding.sol\":1455:1467  contributors */\n      dup1\n        /* \"crowdfunding.sol\":1455:1479  contributors[msg.sender] */\n      0x00\n        /* \"crowdfunding.sol\":1468:1478  msg.sender */\n      caller\n        /* \"crowdfunding.sol\":1455:1479  contributors[msg.sender] */\n      0xffffffffffffffffffffffffffffffffffffffff\n      and\n      0xffffffffffffffffffffffffffffffffffffffff\n      and\n      dup2\n      mstore\n      0x20\n      add\n      swap1\n      dup2\n      mstore\n      0x20\n      add\n      0x00\n      keccak256\n      sload\n        /* \"crowdfunding.sol\":1455:1481  contributors[msg.sender]>0 */\n      gt\n        /* \"crowdfunding.sol\":1447:1482  require(contributors[msg.sender]>0) */\n      tag_112\n      jumpi\n      0x00\n      dup1\n      revert\n    tag_112:\n        /* \"crowdfunding.sol\":1493:1513  address payable user */\n      0x00\n        /* \"crowdfunding.sol\":1522:1532  msg.sender */\n      caller\n        /* \"crowdfunding.sol\":1493:1533  address payable user=payable(msg.sender) */\n      swap1\n      pop\n        /* \"crowdfunding.sol\":1544:1548  user */\n      dup1\n        /* \"crowdfunding.sol\":1544:1557  user.transfer */\n      0xffffffffffffffffffffffffffffffffffffffff\n      and\n        /* \"crowdfunding.sol\":1544:1583  user.transfer(contributors[msg.sender]) */\n      0x08fc\n        /* \"crowdfunding.sol\":1558:1570  contributors */\n      0x00\n        /* \"crowdfunding.sol\":1558:1582  contributors[msg.sender] */\n      dup1\n        /* \"crowdfunding.sol\":1571:1581  msg.sender */\n      caller\n        /* \"crowdfunding.sol\":1558:1582  contributors[msg.sender] */\n      0xffffffffffffffffffffffffffffffffffffffff\n      and\n      0xffffffffffffffffffffffffffffffffffffffff\n      and\n      dup2\n      mstore\n      0x20\n      add\n      swap1\n      dup2\n      mstore\n      0x20\n      add\n      0x00\n      keccak256\n      sload\n        /* \"crowdfunding.sol\":1544:1583  user.transfer(contributors[msg.sender]) */\n      swap1\n      dup2\n      iszero\n      mul\n      swap1\n      mload(0x40)\n      0x00\n      mload(0x40)\n      dup1\n      dup4\n      sub\n      dup2\n      dup6\n      dup9\n      dup9\n      call\n      swap4\n      pop\n      pop\n      pop\n      pop\n      iszero\n      dup1\n      iszero\n      tag_114\n      jumpi\n      returndatasize\n      0x00\n      dup1\n      returndatacopy\n      revert(0x00, returndatasize)\n    tag_114:\n      pop\n        /* \"crowdfunding.sol\":1619:1620  0 */\n      0x00\n        /* \"crowdfunding.sol\":1594:1606  contributors */\n      dup1\n        /* \"crowdfunding.sol\":1594:1618  contributors[msg.sender] */\n      0x00\n        /* \"crowdfunding.sol\":1607:1617  msg.sender */\n      caller\n        /* \"crowdfunding.sol\":1594:1618  contributors[msg.sender] */\n      0xffffffffffffffffffffffffffffffffffffffff\n      and\n      0xffffffffffffffffffffffffffffffffffffffff\n      and\n      dup2\n      mstore\n      0x20\n      add\n      swap1\n      dup2\n      mstore\n      0x20\n      add\n      0x00\n      keccak256\n        /* \"crowdfunding.sol\":1594:1620  contributors[msg.sender]=0 */\n      dup2\n      swap1\n      sstore\n      pop\n        /* \"crowdfunding.sol\":1332:1634  {... */\n      pop\n        /* \"crowdfunding.sol\":1308:1634  function refund() public{... */\n      jump\t// out\n        /* \"crowdfunding.sol\":536:575  mapping(uint=>Request) public  requests */\n    tag_58:\n      mstore(0x20, 0x07)\n      dup1\n      0x00\n      mstore\n      keccak256(0x00, 0x40)\n      0x00\n      swap2\n      pop\n      swap1\n      pop\n      dup1\n      0x00\n      add\n      dup1\n      sload\n      tag_115\n      swap1\n      tag_116\n      jump\t// in\n    tag_115:\n      dup1\n      0x1f\n      add\n      0x20\n      dup1\n      swap2\n      div\n      mul\n      0x20\n      add\n      mload(0x40)\n      swap1\n      dup2\n      add\n      0x40\n      mstore\n      dup1\n      swap3\n      swap2\n      swap1\n      dup2\n      dup2\n      mstore\n      0x20\n      add\n      dup3\n      dup1\n      sload\n      tag_117\n      swap1\n      tag_116\n      jump\t// in\n    tag_117:\n      dup1\n      iszero\n      tag_118\n      jumpi\n      dup1\n      0x1f\n      lt\n      tag_119\n      jumpi\n      0x0100\n      dup1\n      dup4\n      sload\n      div\n      mul\n      dup4\n      mstore\n      swap2\n      0x20\n      add\n      swap2\n      jump(tag_118)\n    tag_119:\n      dup3\n      add\n      swap2\n      swap1\n      0x00\n      mstore\n      keccak256(0x00, 0x20)\n      swap1\n    tag_120:\n      dup2\n      sload\n      dup2\n      mstore\n      swap1\n      0x01\n      add\n      swap1\n      0x20\n      add\n      dup1\n      dup4\n      gt\n      tag_120\n      jumpi\n      dup3\n      swap1\n      sub\n      0x1f\n      and\n      dup3\n      add\n      swap2\n    tag_118:\n      pop\n      pop\n      pop\n      pop\n      pop\n      swap1\n      dup1\n      0x01\n      add\n      0x00\n      swap1\n      sload\n      swap1\n      0x0100\n      exp\n      swap1\n      div\n      0xffffffffffffffffffffffffffffffffffffffff\n      and\n      swap1\n      dup1\n      0x02\n      add\n      sload\n      swap1\n      dup1\n      0x03\n      add\n      0x00\n      swap1\n      sload\n      swap1\n      0x0100\n      exp\n      swap1\n      div\n      0xff\n      and\n      swap1\n      dup1\n      0x04\n      add\n      sload\n      swap1\n      pop\n      dup6\n      jump\t// out\n        /* \"crowdfunding.sol\":227:255  uint public noofcontributors */\n    tag_63:\n      sload(0x04)\n      dup2\n      jump\t// out\n        /* \"crowdfunding.sol\":2163:2536  function voterequest(uint _requestNo)public {... */\n    tag_68:\n        /* \"crowdfunding.sol\":2251:2252  0 */\n      0x00\n        /* \"crowdfunding.sol\":2226:2238  contributors */\n      dup1\n        /* \"crowdfunding.sol\":2226:2250  contributors[msg.sender] */\n      0x00\n        /* \"crowdfunding.sol\":2239:2249  msg.sender */\n      caller\n        /* \"crowdfunding.sol\":2226:2250  contributors[msg.sender] */\n      0xffffffffffffffffffffffffffffffffffffffff\n      and\n      0xffffffffffffffffffffffffffffffffffffffff\n      and\n      dup2\n      mstore\n      0x20\n      add\n      swap1\n      dup2\n      mstore\n      0x20\n      add\n      0x00\n      keccak256\n      sload\n        /* \"crowdfunding.sol\":2226:2252  contributors[msg.sender]>0 */\n      gt\n        /* \"crowdfunding.sol\":2218:2305  require(contributors[msg.sender]>0,\"You must be the contributor to request for voting\") */\n      tag_122\n      jumpi\n      mload(0x40)\n      0x08c379a000000000000000000000000000000000000000000000000000000000\n      dup2\n      mstore\n      0x04\n      add\n      tag_123\n      swap1\n      tag_124\n      jump\t// in\n    tag_123:\n      mload(0x40)\n      dup1\n      swap2\n      sub\n      swap1\n      revert\n    tag_122:\n        /* \"crowdfunding.sol\":2316:2343  Request storage thisrequest */\n      0x00\n        /* \"crowdfunding.sol\":2344:2352  requests */\n      0x07\n        /* \"crowdfunding.sol\":2344:2364  requests[_requestNo] */\n      0x00\n        /* \"crowdfunding.sol\":2353:2363  _requestNo */\n      dup4\n        /* \"crowdfunding.sol\":2344:2364  requests[_requestNo] */\n      dup2\n      mstore\n      0x20\n      add\n      swap1\n      dup2\n      mstore\n      0x20\n      add\n      0x00\n      keccak256\n        /* \"crowdfunding.sol\":2316:2364  Request storage thisrequest=requests[_requestNo] */\n      swap1\n      pop\n        /* \"crowdfunding.sol\":2415:2420  false */\n      0x00\n        /* \"crowdfunding.sol\":2383:2420  thisrequest.voters[msg.sender]==false */\n      iszero\n      iszero\n        /* \"crowdfunding.sol\":2383:2394  thisrequest */\n      dup2\n        /* \"crowdfunding.sol\":2383:2401  thisrequest.voters */\n      0x05\n      add\n        /* \"crowdfunding.sol\":2383:2413  thisrequest.voters[msg.sender] */\n      0x00\n        /* \"crowdfunding.sol\":2402:2412  msg.sender */\n      caller\n        /* \"crowdfunding.sol\":2383:2413  thisrequest.voters[msg.sender] */\n      0xffffffffffffffffffffffffffffffffffffffff\n      and\n      0xffffffffffffffffffffffffffffffffffffffff\n      and\n      dup2\n      mstore\n      0x20\n      add\n      swap1\n      dup2\n      mstore\n      0x20\n      add\n      0x00\n      keccak256\n      0x00\n      swap1\n      sload\n      swap1\n      0x0100\n      exp\n      swap1\n      div\n      0xff\n      and\n        /* \"crowdfunding.sol\":2383:2420  thisrequest.voters[msg.sender]==false */\n      iszero\n      iszero\n      eq\n        /* \"crowdfunding.sol\":2375:2447  require(thisrequest.voters[msg.sender]==false,\"You have already voted \") */\n      tag_125\n      jumpi\n      mload(0x40)\n      0x08c379a000000000000000000000000000000000000000000000000000000000\n      dup2\n      mstore\n      0x04\n      add\n      tag_126\n      swap1\n      tag_127\n      jump\t// in\n    tag_126:\n      mload(0x40)\n      dup1\n      swap2\n      sub\n      swap1\n      revert\n    tag_125:\n        /* \"crowdfunding.sol\":2489:2493  true */\n      0x01\n        /* \"crowdfunding.sol\":2458:2469  thisrequest */\n      dup2\n        /* \"crowdfunding.sol\":2458:2476  thisrequest.voters */\n      0x05\n      add\n        /* \"crowdfunding.sol\":2458:2488  thisrequest.voters[msg.sender] */\n      0x00\n        /* \"crowdfunding.sol\":2477:2487  msg.sender */\n      caller\n        /* \"crowdfunding.sol\":2458:2488  thisrequest.voters[msg.sender] */\n      0xffffffffffffffffffffffffffffffffffffffff\n      and\n      0xffffffffffffffffffffffffffffffffffffffff\n      and\n      dup2\n      mstore\n      0x20\n      add\n      swap1\n      dup2\n      mstore\n      0x20\n      add\n      0x00\n      keccak256\n      0x00\n        /* \"crowdfunding.sol\":2458:2493  thisrequest.voters[msg.sender]=true */\n      0x0100\n      exp\n      dup2\n      sload\n      dup2\n      0xff\n      mul\n      not\n      and\n      swap1\n      dup4\n      iszero\n      iszero\n      mul\n      or\n      swap1\n      sstore\n      pop\n        /* \"crowdfunding.sol\":2504:2515  thisrequest */\n      dup1\n        /* \"crowdfunding.sol\":2504:2526  thisrequest.noofvoters */\n      0x04\n      add\n      0x00\n        /* \"crowdfunding.sol\":2504:2528  thisrequest.noofvoters++ */\n      dup2\n      sload\n      dup1\n      swap3\n      swap2\n      swap1\n      tag_128\n      swap1\n      tag_94\n      jump\t// in\n    tag_128:\n      swap2\n      swap1\n      pop\n      sstore\n      pop\n        /* \"crowdfunding.sol\":2207:2536  {... */\n      pop\n        /* \"crowdfunding.sol\":2163:2536  function voterequest(uint _requestNo)public {... */\n      pop\n      jump\t// out\n        /* \"crowdfunding.sol\":582:604  uint public numRequest */\n    tag_71:\n      sload(0x08)\n      dup2\n      jump\t// out\n        /* \"crowdfunding.sol\":262:291  uint public  mincontributions */\n    tag_75:\n      sload(0x05)\n      dup2\n      jump\t// out\n        /* \"crowdfunding.sol\":2544:2999  function makepayment(uint _requestNo)public onlyManager{... */\n    tag_80:\n        /* \"crowdfunding.sol\":1693:1700  manager */\n      0x01\n      0x00\n      swap1\n      sload\n      swap1\n      0x0100\n      exp\n      swap1\n      div\n      0xffffffffffffffffffffffffffffffffffffffff\n      and\n        /* \"crowdfunding.sol\":1681:1700  msg.sender==manager */\n      0xffffffffffffffffffffffffffffffffffffffff\n      and\n        /* \"crowdfunding.sol\":1681:1691  msg.sender */\n      caller\n        /* \"crowdfunding.sol\":1681:1700  msg.sender==manager */\n      0xffffffffffffffffffffffffffffffffffffffff\n      and\n      eq\n        /* \"crowdfunding.sol\":1673:1739  require(msg.sender==manager,\"Only manager can acess the function\") */\n      tag_130\n      jumpi\n      mload(0x40)\n      0x08c379a000000000000000000000000000000000000000000000000000000000\n      dup2\n      mstore\n      0x04\n      add\n      tag_131\n      swap1\n      tag_101\n      jump\t// in\n    tag_131:\n      mload(0x40)\n      dup1\n      swap2\n      sub\n      swap1\n      revert\n    tag_130:\n        /* \"crowdfunding.sol\":2632:2638  target */\n      sload(0x02)\n        /* \"crowdfunding.sol\":2618:2630  raisedamount */\n      sload(0x06)\n        /* \"crowdfunding.sol\":2618:2638  raisedamount>=target */\n      lt\n      iszero\n        /* \"crowdfunding.sol\":2610:2639  require(raisedamount>=target) */\n      tag_133\n      jumpi\n      0x00\n      dup1\n      revert\n    tag_133:\n        /* \"crowdfunding.sol\":2650:2677  Request storage thisrequest */\n      0x00\n        /* \"crowdfunding.sol\":2678:2686  requests */\n      0x07\n        /* \"crowdfunding.sol\":2678:2698  requests[_requestNo] */\n      0x00\n        /* \"crowdfunding.sol\":2687:2697  _requestNo */\n      dup4\n        /* \"crowdfunding.sol\":2678:2698  requests[_requestNo] */\n      dup2\n      mstore\n      0x20\n      add\n      swap1\n      dup2\n      mstore\n      0x20\n      add\n      0x00\n      keccak256\n        /* \"crowdfunding.sol\":2650:2698  Request storage thisrequest=requests[_requestNo] */\n      swap1\n      pop\n        /* \"crowdfunding.sol\":2739:2744  false */\n      0x00\n        /* \"crowdfunding.sol\":2717:2728  thisrequest */\n      dup2\n        /* \"crowdfunding.sol\":2717:2738  thisrequest.completed */\n      0x03\n      add\n      0x00\n        /* \"crowdfunding.sol\":2717:2744  thisrequest.completed=false */\n      0x0100\n      exp\n      dup2\n      sload\n      dup2\n      0xff\n      mul\n      not\n      and\n      swap1\n      dup4\n      iszero\n      iszero\n      mul\n      or\n      swap1\n      sstore\n        /* \"crowdfunding.sol\":2709:2786  require(thisrequest.completed=false,\"The request has been already completed\") */\n      tag_134\n      jumpi\n      mload(0x40)\n      0x08c379a000000000000000000000000000000000000000000000000000000000\n      dup2\n      mstore\n      0x04\n      add\n      tag_135\n      swap1\n      tag_136\n      jump\t// in\n    tag_135:\n      mload(0x40)\n      dup1\n      swap2\n      sub\n      swap1\n      revert\n    tag_134:\n        /* \"crowdfunding.sol\":2845:2846  2 */\n      0x02\n        /* \"crowdfunding.sol\":2828:2844  noofcontributors */\n      sload(0x04)\n        /* \"crowdfunding.sol\":2828:2846  noofcontributors/2 */\n      tag_137\n      swap2\n      swap1\n      tag_138\n      jump\t// in\n    tag_137:\n        /* \"crowdfunding.sol\":2805:2816  thisrequest */\n      dup2\n        /* \"crowdfunding.sol\":2805:2827  thisrequest.noofvoters */\n      0x04\n      add\n      sload\n        /* \"crowdfunding.sol\":2805:2846  thisrequest.noofvoters>noofcontributors/2 */\n      gt\n        /* \"crowdfunding.sol\":2797:2890  require(thisrequest.noofvoters>noofcontributors/2,\"Majority doesnot support for the request\") */\n      tag_139\n      jumpi\n      mload(0x40)\n      0x08c379a000000000000000000000000000000000000000000000000000000000\n      dup2\n      mstore\n      0x04\n      add\n      tag_140\n      swap1\n      tag_141\n      jump\t// in\n    tag_140:\n      mload(0x40)\n      dup1\n      swap2\n      sub\n      swap1\n      revert\n    tag_139:\n        /* \"crowdfunding.sol\":2901:2912  thisrequest */\n      dup1\n        /* \"crowdfunding.sol\":2901:2922  thisrequest.recipient */\n      0x01\n      add\n      0x00\n      swap1\n      sload\n      swap1\n      0x0100\n      exp\n      swap1\n      div\n      0xffffffffffffffffffffffffffffffffffffffff\n      and\n        /* \"crowdfunding.sol\":2901:2931  thisrequest.recipient.transfer */\n      0xffffffffffffffffffffffffffffffffffffffff\n      and\n        /* \"crowdfunding.sol\":2901:2950  thisrequest.recipient.transfer(thisrequest.value) */\n      0x08fc\n        /* \"crowdfunding.sol\":2932:2943  thisrequest */\n      dup3\n        /* \"crowdfunding.sol\":2932:2949  thisrequest.value */\n      0x02\n      add\n      sload\n        /* \"crowdfunding.sol\":2901:2950  thisrequest.recipient.transfer(thisrequest.value) */\n      swap1\n      dup2\n      iszero\n      mul\n      swap1\n      mload(0x40)\n      0x00\n      mload(0x40)\n      dup1\n      dup4\n      sub\n      dup2\n      dup6\n      dup9\n      dup9\n      call\n      swap4\n      pop\n      pop\n      pop\n      pop\n      iszero\n      dup1\n      iszero\n      tag_143\n      jumpi\n      returndatasize\n      0x00\n      dup1\n      returndatacopy\n      revert(0x00, returndatasize)\n    tag_143:\n      pop\n        /* \"crowdfunding.sol\":2983:2987  true */\n      0x01\n        /* \"crowdfunding.sol\":2961:2972  thisrequest */\n      dup2\n        /* \"crowdfunding.sol\":2961:2982  thisrequest.completed */\n      0x03\n      add\n      0x00\n        /* \"crowdfunding.sol\":2961:2987  thisrequest.completed=true */\n      0x0100\n      exp\n      dup2\n      sload\n      dup2\n      0xff\n      mul\n      not\n      and\n      swap1\n      dup4\n      iszero\n      iszero\n      mul\n      or\n      swap1\n      sstore\n      pop\n        /* \"crowdfunding.sol\":2599:2999  {... */\n      pop\n        /* \"crowdfunding.sol\":2544:2999  function makepayment(uint _requestNo)public onlyManager{... */\n      pop\n      jump\t// out\n        /* \"crowdfunding.sol\":175:193  uint public target */\n    tag_83:\n      sload(0x02)\n      dup2\n      jump\t// out\n        /* \"#utility.yul\":7:82   */\n    tag_144:\n        /* \"#utility.yul\":40:46   */\n      0x00\n        /* \"#utility.yul\":73:75   */\n      0x40\n        /* \"#utility.yul\":67:76   */\n      mload\n        /* \"#utility.yul\":57:76   */\n      swap1\n      pop\n        /* \"#utility.yul\":7:82   */\n      swap1\n      jump\t// out\n        /* \"#utility.yul\":88:205   */\n    tag_145:\n        /* \"#utility.yul\":197:198   */\n      0x00\n        /* \"#utility.yul\":194:195   */\n      dup1\n        /* \"#utility.yul\":187:199   */\n      revert\n        /* \"#utility.yul\":211:328   */\n    tag_146:\n        /* \"#utility.yul\":320:321   */\n      0x00\n        /* \"#utility.yul\":317:318   */\n      dup1\n        /* \"#utility.yul\":310:322   */\n      revert\n        /* \"#utility.yul\":334:451   */\n    tag_147:\n        /* \"#utility.yul\":443:444   */\n      0x00\n        /* \"#utility.yul\":440:441   */\n      dup1\n        /* \"#utility.yul\":433:445   */\n      revert\n        /* \"#utility.yul\":457:574   */\n    tag_148:\n        /* \"#utility.yul\":566:567   */\n      0x00\n        /* \"#utility.yul\":563:564   */\n      dup1\n        /* \"#utility.yul\":556:568   */\n      revert\n        /* \"#utility.yul\":580:682   */\n    tag_149:\n        /* \"#utility.yul\":621:627   */\n      0x00\n        /* \"#utility.yul\":672:674   */\n      0x1f\n        /* \"#utility.yul\":668:675   */\n      not\n        /* \"#utility.yul\":663:665   */\n      0x1f\n        /* \"#utility.yul\":656:661   */\n      dup4\n        /* \"#utility.yul\":652:666   */\n      add\n        /* \"#utility.yul\":648:676   */\n      and\n        /* \"#utility.yul\":638:676   */\n      swap1\n      pop\n        /* \"#utility.yul\":580:682   */\n      swap2\n      swap1\n      pop\n      jump\t// out\n        /* \"#utility.yul\":688:868   */\n    tag_150:\n        /* \"#utility.yul\":736:813   */\n      0x4e487b7100000000000000000000000000000000000000000000000000000000\n        /* \"#utility.yul\":733:734   */\n      0x00\n        /* \"#utility.yul\":726:814   */\n      mstore\n        /* \"#utility.yul\":833:837   */\n      0x41\n        /* \"#utility.yul\":830:831   */\n      0x04\n        /* \"#utility.yul\":823:838   */\n      mstore\n        /* \"#utility.yul\":857:861   */\n      0x24\n        /* \"#utility.yul\":854:855   */\n      0x00\n        /* \"#utility.yul\":847:862   */\n      revert\n        /* \"#utility.yul\":874:1155   */\n    tag_151:\n        /* \"#utility.yul\":957:984   */\n      tag_219\n        /* \"#utility.yul\":979:983   */\n      dup3\n        /* \"#utility.yul\":957:984   */\n      tag_149\n      jump\t// in\n    tag_219:\n        /* \"#utility.yul\":949:955   */\n      dup2\n        /* \"#utility.yul\":945:985   */\n      add\n        /* \"#utility.yul\":1087:1093   */\n      dup2\n        /* \"#utility.yul\":1075:1085   */\n      dup2\n        /* \"#utility.yul\":1072:1094   */\n      lt\n        /* \"#utility.yul\":1051:1069   */\n      0xffffffffffffffff\n        /* \"#utility.yul\":1039:1049   */\n      dup3\n        /* \"#utility.yul\":1036:1070   */\n      gt\n        /* \"#utility.yul\":1033:1095   */\n      or\n        /* \"#utility.yul\":1030:1118   */\n      iszero\n      tag_220\n      jumpi\n        /* \"#utility.yul\":1098:1116   */\n      tag_221\n      tag_150\n      jump\t// in\n    tag_221:\n        /* \"#utility.yul\":1030:1118   */\n    tag_220:\n        /* \"#utility.yul\":1138:1148   */\n      dup1\n        /* \"#utility.yul\":1134:1136   */\n      0x40\n        /* \"#utility.yul\":1127:1149   */\n      mstore\n        /* \"#utility.yul\":917:1155   */\n      pop\n        /* \"#utility.yul\":874:1155   */\n      pop\n      pop\n      jump\t// out\n        /* \"#utility.yul\":1161:1290   */\n    tag_152:\n        /* \"#utility.yul\":1195:1201   */\n      0x00\n        /* \"#utility.yul\":1222:1242   */\n      tag_223\n      tag_144\n      jump\t// in\n    tag_223:\n        /* \"#utility.yul\":1212:1242   */\n      swap1\n      pop\n        /* \"#utility.yul\":1251:1284   */\n      tag_224\n        /* \"#utility.yul\":1279:1283   */\n      dup3\n        /* \"#utility.yul\":1271:1277   */\n      dup3\n        /* \"#utility.yul\":1251:1284   */\n      tag_151\n      jump\t// in\n    tag_224:\n        /* \"#utility.yul\":1161:1290   */\n      swap2\n      swap1\n      pop\n      jump\t// out\n        /* \"#utility.yul\":1296:1604   */\n    tag_153:\n        /* \"#utility.yul\":1358:1362   */\n      0x00\n        /* \"#utility.yul\":1448:1466   */\n      0xffffffffffffffff\n        /* \"#utility.yul\":1440:1446   */\n      dup3\n        /* \"#utility.yul\":1437:1467   */\n      gt\n        /* \"#utility.yul\":1434:1490   */\n      iszero\n      tag_226\n      jumpi\n        /* \"#utility.yul\":1470:1488   */\n      tag_227\n      tag_150\n      jump\t// in\n    tag_227:\n        /* \"#utility.yul\":1434:1490   */\n    tag_226:\n        /* \"#utility.yul\":1508:1537   */\n      tag_228\n        /* \"#utility.yul\":1530:1536   */\n      dup3\n        /* \"#utility.yul\":1508:1537   */\n      tag_149\n      jump\t// in\n    tag_228:\n        /* \"#utility.yul\":1500:1537   */\n      swap1\n      pop\n        /* \"#utility.yul\":1592:1596   */\n      0x20\n        /* \"#utility.yul\":1586:1590   */\n      dup2\n        /* \"#utility.yul\":1582:1597   */\n      add\n        /* \"#utility.yul\":1574:1597   */\n      swap1\n      pop\n        /* \"#utility.yul\":1296:1604   */\n      swap2\n      swap1\n      pop\n      jump\t// out\n        /* \"#utility.yul\":1610:1758   */\n    tag_154:\n        /* \"#utility.yul\":1708:1714   */\n      dup3\n        /* \"#utility.yul\":1703:1706   */\n      dup2\n        /* \"#utility.yul\":1698:1701   */\n      dup4\n        /* \"#utility.yul\":1685:1715   */\n      calldatacopy\n        /* \"#utility.yul\":1749:1750   */\n      0x00\n        /* \"#utility.yul\":1740:1746   */\n      dup4\n        /* \"#utility.yul\":1735:1738   */\n      dup4\n        /* \"#utility.yul\":1731:1747   */\n      add\n        /* \"#utility.yul\":1724:1751   */\n      mstore\n        /* \"#utility.yul\":1610:1758   */\n      pop\n      pop\n      pop\n      jump\t// out\n        /* \"#utility.yul\":1764:2189   */\n    tag_155:\n        /* \"#utility.yul\":1842:1847   */\n      0x00\n        /* \"#utility.yul\":1867:1933   */\n      tag_231\n        /* \"#utility.yul\":1883:1932   */\n      tag_232\n        /* \"#utility.yul\":1925:1931   */\n      dup5\n        /* \"#utility.yul\":1883:1932   */\n      tag_153\n      jump\t// in\n    tag_232:\n        /* \"#utility.yul\":1867:1933   */\n      tag_152\n      jump\t// in\n    tag_231:\n        /* \"#utility.yul\":1858:1933   */\n      swap1\n      pop\n        /* \"#utility.yul\":1956:1962   */\n      dup3\n        /* \"#utility.yul\":1949:1954   */\n      dup2\n        /* \"#utility.yul\":1942:1963   */\n      mstore\n        /* \"#utility.yul\":1994:1998   */\n      0x20\n        /* \"#utility.yul\":1987:1992   */\n      dup2\n        /* \"#utility.yul\":1983:1999   */\n      add\n        /* \"#utility.yul\":2032:2035   */\n      dup5\n        /* \"#utility.yul\":2023:2029   */\n      dup5\n        /* \"#utility.yul\":2018:2021   */\n      dup5\n        /* \"#utility.yul\":2014:2030   */\n      add\n        /* \"#utility.yul\":2011:2036   */\n      gt\n        /* \"#utility.yul\":2008:2120   */\n      iszero\n      tag_233\n      jumpi\n        /* \"#utility.yul\":2039:2118   */\n      tag_234\n      tag_148\n      jump\t// in\n    tag_234:\n        /* \"#utility.yul\":2008:2120   */\n    tag_233:\n        /* \"#utility.yul\":2129:2183   */\n      tag_235\n        /* \"#utility.yul\":2176:2182   */\n      dup5\n        /* \"#utility.yul\":2171:2174   */\n      dup3\n        /* \"#utility.yul\":2166:2169   */\n      dup6\n        /* \"#utility.yul\":2129:2183   */\n      tag_154\n      jump\t// in\n    tag_235:\n        /* \"#utility.yul\":1848:2189   */\n      pop\n        /* \"#utility.yul\":1764:2189   */\n      swap4\n      swap3\n      pop\n      pop\n      pop\n      jump\t// out\n        /* \"#utility.yul\":2209:2549   */\n    tag_156:\n        /* \"#utility.yul\":2265:2270   */\n      0x00\n        /* \"#utility.yul\":2314:2317   */\n      dup3\n        /* \"#utility.yul\":2307:2311   */\n      0x1f\n        /* \"#utility.yul\":2299:2305   */\n      dup4\n        /* \"#utility.yul\":2295:2312   */\n      add\n        /* \"#utility.yul\":2291:2318   */\n      slt\n        /* \"#utility.yul\":2281:2403   */\n      tag_237\n      jumpi\n        /* \"#utility.yul\":2322:2401   */\n      tag_238\n      tag_147\n      jump\t// in\n    tag_238:\n        /* \"#utility.yul\":2281:2403   */\n    tag_237:\n        /* \"#utility.yul\":2439:2445   */\n      dup2\n        /* \"#utility.yul\":2426:2446   */\n      calldataload\n        /* \"#utility.yul\":2464:2543   */\n      tag_239\n        /* \"#utility.yul\":2539:2542   */\n      dup5\n        /* \"#utility.yul\":2531:2537   */\n      dup3\n        /* \"#utility.yul\":2524:2528   */\n      0x20\n        /* \"#utility.yul\":2516:2522   */\n      dup7\n        /* \"#utility.yul\":2512:2529   */\n      add\n        /* \"#utility.yul\":2464:2543   */\n      tag_155\n      jump\t// in\n    tag_239:\n        /* \"#utility.yul\":2455:2543   */\n      swap2\n      pop\n        /* \"#utility.yul\":2271:2549   */\n      pop\n        /* \"#utility.yul\":2209:2549   */\n      swap3\n      swap2\n      pop\n      pop\n      jump\t// out\n        /* \"#utility.yul\":2555:2681   */\n    tag_157:\n        /* \"#utility.yul\":2592:2599   */\n      0x00\n        /* \"#utility.yul\":2632:2674   */\n      0xffffffffffffffffffffffffffffffffffffffff\n        /* \"#utility.yul\":2625:2630   */\n      dup3\n        /* \"#utility.yul\":2621:2675   */\n      and\n        /* \"#utility.yul\":2610:2675   */\n      swap1\n      pop\n        /* \"#utility.yul\":2555:2681   */\n      swap2\n      swap1\n      pop\n      jump\t// out\n        /* \"#utility.yul\":2687:2791   */\n    tag_158:\n        /* \"#utility.yul\":2732:2739   */\n      0x00\n        /* \"#utility.yul\":2761:2785   */\n      tag_242\n        /* \"#utility.yul\":2779:2784   */\n      dup3\n        /* \"#utility.yul\":2761:2785   */\n      tag_157\n      jump\t// in\n    tag_242:\n        /* \"#utility.yul\":2750:2785   */\n      swap1\n      pop\n        /* \"#utility.yul\":2687:2791   */\n      swap2\n      swap1\n      pop\n      jump\t// out\n        /* \"#utility.yul\":2797:2935   */\n    tag_159:\n        /* \"#utility.yul\":2878:2910   */\n      tag_244\n        /* \"#utility.yul\":2904:2909   */\n      dup2\n        /* \"#utility.yul\":2878:2910   */\n      tag_158\n      jump\t// in\n    tag_244:\n        /* \"#utility.yul\":2871:2876   */\n      dup2\n        /* \"#utility.yul\":2868:2911   */\n      eq\n        /* \"#utility.yul\":2858:2929   */\n      tag_245\n      jumpi\n        /* \"#utility.yul\":2925:2926   */\n      0x00\n        /* \"#utility.yul\":2922:2923   */\n      dup1\n        /* \"#utility.yul\":2915:2927   */\n      revert\n        /* \"#utility.yul\":2858:2929   */\n    tag_245:\n        /* \"#utility.yul\":2797:2935   */\n      pop\n      jump\t// out\n        /* \"#utility.yul\":2941:3096   */\n    tag_160:\n        /* \"#utility.yul\":2995:3000   */\n      0x00\n        /* \"#utility.yul\":3033:3039   */\n      dup2\n        /* \"#utility.yul\":3020:3040   */\n      calldataload\n        /* \"#utility.yul\":3011:3040   */\n      swap1\n      pop\n        /* \"#utility.yul\":3049:3090   */\n      tag_247\n        /* \"#utility.yul\":3084:3089   */\n      dup2\n        /* \"#utility.yul\":3049:3090   */\n      tag_159\n      jump\t// in\n    tag_247:\n        /* \"#utility.yul\":2941:3096   */\n      swap3\n      swap2\n      pop\n      pop\n      jump\t// out\n        /* \"#utility.yul\":3102:3179   */\n    tag_161:\n        /* \"#utility.yul\":3139:3146   */\n      0x00\n        /* \"#utility.yul\":3168:3173   */\n      dup2\n        /* \"#utility.yul\":3157:3173   */\n      swap1\n      pop\n        /* \"#utility.yul\":3102:3179   */\n      swap2\n      swap1\n      pop\n      jump\t// out\n        /* \"#utility.yul\":3185:3307   */\n    tag_162:\n        /* \"#utility.yul\":3258:3282   */\n      tag_250\n        /* \"#utility.yul\":3276:3281   */\n      dup2\n        /* \"#utility.yul\":3258:3282   */\n      tag_161\n      jump\t// in\n    tag_250:\n        /* \"#utility.yul\":3251:3256   */\n      dup2\n        /* \"#utility.yul\":3248:3283   */\n      eq\n        /* \"#utility.yul\":3238:3301   */\n      tag_251\n      jumpi\n        /* \"#utility.yul\":3297:3298   */\n      0x00\n        /* \"#utility.yul\":3294:3295   */\n      dup1\n        /* \"#utility.yul\":3287:3299   */\n      revert\n        /* \"#utility.yul\":3238:3301   */\n    tag_251:\n        /* \"#utility.yul\":3185:3307   */\n      pop\n      jump\t// out\n        /* \"#utility.yul\":3313:3452   */\n    tag_163:\n        /* \"#utility.yul\":3359:3364   */\n      0x00\n        /* \"#utility.yul\":3397:3403   */\n      dup2\n        /* \"#utility.yul\":3384:3404   */\n      calldataload\n        /* \"#utility.yul\":3375:3404   */\n      swap1\n      pop\n        /* \"#utility.yul\":3413:3446   */\n      tag_253\n        /* \"#utility.yul\":3440:3445   */\n      dup2\n        /* \"#utility.yul\":3413:3446   */\n      tag_162\n      jump\t// in\n    tag_253:\n        /* \"#utility.yul\":3313:3452   */\n      swap3\n      swap2\n      pop\n      pop\n      jump\t// out\n        /* \"#utility.yul\":3458:4273   */\n    tag_25:\n        /* \"#utility.yul\":3553:3559   */\n      0x00\n        /* \"#utility.yul\":3561:3567   */\n      dup1\n        /* \"#utility.yul\":3569:3575   */\n      0x00\n        /* \"#utility.yul\":3618:3620   */\n      0x60\n        /* \"#utility.yul\":3606:3615   */\n      dup5\n        /* \"#utility.yul\":3597:3604   */\n      dup7\n        /* \"#utility.yul\":3593:3616   */\n      sub\n        /* \"#utility.yul\":3589:3621   */\n      slt\n        /* \"#utility.yul\":3586:3705   */\n      iszero\n      tag_255\n      jumpi\n        /* \"#utility.yul\":3624:3703   */\n      tag_256\n      tag_145\n      jump\t// in\n    tag_256:\n        /* \"#utility.yul\":3586:3705   */\n    tag_255:\n        /* \"#utility.yul\":3772:3773   */\n      0x00\n        /* \"#utility.yul\":3761:3770   */\n      dup5\n        /* \"#utility.yul\":3757:3774   */\n      add\n        /* \"#utility.yul\":3744:3775   */\n      calldataload\n        /* \"#utility.yul\":3802:3820   */\n      0xffffffffffffffff\n        /* \"#utility.yul\":3794:3800   */\n      dup2\n        /* \"#utility.yul\":3791:3821   */\n      gt\n        /* \"#utility.yul\":3788:3905   */\n      iszero\n      tag_257\n      jumpi\n        /* \"#utility.yul\":3824:3903   */\n      tag_258\n      tag_146\n      jump\t// in\n    tag_258:\n        /* \"#utility.yul\":3788:3905   */\n    tag_257:\n        /* \"#utility.yul\":3929:3992   */\n      tag_259\n        /* \"#utility.yul\":3984:3991   */\n      dup7\n        /* \"#utility.yul\":3975:3981   */\n      dup3\n        /* \"#utility.yul\":3964:3973   */\n      dup8\n        /* \"#utility.yul\":3960:3982   */\n      add\n        /* \"#utility.yul\":3929:3992   */\n      tag_156\n      jump\t// in\n    tag_259:\n        /* \"#utility.yul\":3919:3992   */\n      swap4\n      pop\n        /* \"#utility.yul\":3715:4002   */\n      pop\n        /* \"#utility.yul\":4041:4043   */\n      0x20\n        /* \"#utility.yul\":4067:4128   */\n      tag_260\n        /* \"#utility.yul\":4120:4127   */\n      dup7\n        /* \"#utility.yul\":4111:4117   */\n      dup3\n        /* \"#utility.yul\":4100:4109   */\n      dup8\n        /* \"#utility.yul\":4096:4118   */\n      add\n        /* \"#utility.yul\":4067:4128   */\n      tag_160\n      jump\t// in\n    tag_260:\n        /* \"#utility.yul\":4057:4128   */\n      swap3\n      pop\n        /* \"#utility.yul\":4012:4138   */\n      pop\n        /* \"#utility.yul\":4177:4179   */\n      0x40\n        /* \"#utility.yul\":4203:4256   */\n      tag_261\n        /* \"#utility.yul\":4248:4255   */\n      dup7\n        /* \"#utility.yul\":4239:4245   */\n      dup3\n        /* \"#utility.yul\":4228:4237   */\n      dup8\n        /* \"#utility.yul\":4224:4246   */\n      add\n        /* \"#utility.yul\":4203:4256   */\n      tag_163\n      jump\t// in\n    tag_261:\n        /* \"#utility.yul\":4193:4256   */\n      swap2\n      pop\n        /* \"#utility.yul\":4148:4266   */\n      pop\n        /* \"#utility.yul\":3458:4273   */\n      swap3\n      pop\n      swap3\n      pop\n      swap3\n      jump\t// out\n        /* \"#utility.yul\":4279:4375   */\n    tag_164:\n        /* \"#utility.yul\":4316:4323   */\n      0x00\n        /* \"#utility.yul\":4345:4369   */\n      tag_263\n        /* \"#utility.yul\":4363:4368   */\n      dup3\n        /* \"#utility.yul\":4345:4369   */\n      tag_157\n      jump\t// in\n    tag_263:\n        /* \"#utility.yul\":4334:4369   */\n      swap1\n      pop\n        /* \"#utility.yul\":4279:4375   */\n      swap2\n      swap1\n      pop\n      jump\t// out\n        /* \"#utility.yul\":4381:4503   */\n    tag_165:\n        /* \"#utility.yul\":4454:4478   */\n      tag_265\n        /* \"#utility.yul\":4472:4477   */\n      dup2\n        /* \"#utility.yul\":4454:4478   */\n      tag_164\n      jump\t// in\n    tag_265:\n        /* \"#utility.yul\":4447:4452   */\n      dup2\n        /* \"#utility.yul\":4444:4479   */\n      eq\n        /* \"#utility.yul\":4434:4497   */\n      tag_266\n      jumpi\n        /* \"#utility.yul\":4493:4494   */\n      0x00\n        /* \"#utility.yul\":4490:4491   */\n      dup1\n        /* \"#utility.yul\":4483:4495   */\n      revert\n        /* \"#utility.yul\":4434:4497   */\n    tag_266:\n        /* \"#utility.yul\":4381:4503   */\n      pop\n      jump\t// out\n        /* \"#utility.yul\":4509:4648   */\n    tag_166:\n        /* \"#utility.yul\":4555:4560   */\n      0x00\n        /* \"#utility.yul\":4593:4599   */\n      dup2\n        /* \"#utility.yul\":4580:4600   */\n      calldataload\n        /* \"#utility.yul\":4571:4600   */\n      swap1\n      pop\n        /* \"#utility.yul\":4609:4642   */\n      tag_268\n        /* \"#utility.yul\":4636:4641   */\n      dup2\n        /* \"#utility.yul\":4609:4642   */\n      tag_165\n      jump\t// in\n    tag_268:\n        /* \"#utility.yul\":4509:4648   */\n      swap3\n      swap2\n      pop\n      pop\n      jump\t// out\n        /* \"#utility.yul\":4654:4983   */\n    tag_30:\n        /* \"#utility.yul\":4713:4719   */\n      0x00\n        /* \"#utility.yul\":4762:4764   */\n      0x20\n        /* \"#utility.yul\":4750:4759   */\n      dup3\n        /* \"#utility.yul\":4741:4748   */\n      dup5\n        /* \"#utility.yul\":4737:4760   */\n      sub\n        /* \"#utility.yul\":4733:4765   */\n      slt\n        /* \"#utility.yul\":4730:4849   */\n      iszero\n      tag_270\n      jumpi\n        /* \"#utility.yul\":4768:4847   */\n      tag_271\n      tag_145\n      jump\t// in\n    tag_271:\n        /* \"#utility.yul\":4730:4849   */\n    tag_270:\n        /* \"#utility.yul\":4888:4889   */\n      0x00\n        /* \"#utility.yul\":4913:4966   */\n      tag_272\n        /* \"#utility.yul\":4958:4965   */\n      dup5\n        /* \"#utility.yul\":4949:4955   */\n      dup3\n        /* \"#utility.yul\":4938:4947   */\n      dup6\n        /* \"#utility.yul\":4934:4956   */\n      add\n        /* \"#utility.yul\":4913:4966   */\n      tag_166\n      jump\t// in\n    tag_272:\n        /* \"#utility.yul\":4903:4966   */\n      swap2\n      pop\n        /* \"#utility.yul\":4859:4976   */\n      pop\n        /* \"#utility.yul\":4654:4983   */\n      swap3\n      swap2\n      pop\n      pop\n      jump\t// out\n        /* \"#utility.yul\":4989:5107   */\n    tag_167:\n        /* \"#utility.yul\":5076:5100   */\n      tag_274\n        /* \"#utility.yul\":5094:5099   */\n      dup2\n        /* \"#utility.yul\":5076:5100   */\n      tag_161\n      jump\t// in\n    tag_274:\n        /* \"#utility.yul\":5071:5074   */\n      dup3\n        /* \"#utility.yul\":5064:5101   */\n      mstore\n        /* \"#utility.yul\":4989:5107   */\n      pop\n      pop\n      jump\t// out\n        /* \"#utility.yul\":5113:5335   */\n    tag_33:\n        /* \"#utility.yul\":5206:5210   */\n      0x00\n        /* \"#utility.yul\":5244:5246   */\n      0x20\n        /* \"#utility.yul\":5233:5242   */\n      dup3\n        /* \"#utility.yul\":5229:5247   */\n      add\n        /* \"#utility.yul\":5221:5247   */\n      swap1\n      pop\n        /* \"#utility.yul\":5257:5328   */\n      tag_276\n        /* \"#utility.yul\":5325:5326   */\n      0x00\n        /* \"#utility.yul\":5314:5323   */\n      dup4\n        /* \"#utility.yul\":5310:5327   */\n      add\n        /* \"#utility.yul\":5301:5307   */\n      dup5\n        /* \"#utility.yul\":5257:5328   */\n      tag_167\n      jump\t// in\n    tag_276:\n        /* \"#utility.yul\":5113:5335   */\n      swap3\n      swap2\n      pop\n      pop\n      jump\t// out\n        /* \"#utility.yul\":5341:5459   */\n    tag_168:\n        /* \"#utility.yul\":5428:5452   */\n      tag_278\n        /* \"#utility.yul\":5446:5451   */\n      dup2\n        /* \"#utility.yul\":5428:5452   */\n      tag_164\n      jump\t// in\n    tag_278:\n        /* \"#utility.yul\":5423:5426   */\n      dup3\n        /* \"#utility.yul\":5416:5453   */\n      mstore\n        /* \"#utility.yul\":5341:5459   */\n      pop\n      pop\n      jump\t// out\n        /* \"#utility.yul\":5465:5687   */\n    tag_46:\n        /* \"#utility.yul\":5558:5562   */\n      0x00\n        /* \"#utility.yul\":5596:5598   */\n      0x20\n        /* \"#utility.yul\":5585:5594   */\n      dup3\n        /* \"#utility.yul\":5581:5599   */\n      add\n        /* \"#utility.yul\":5573:5599   */\n      swap1\n      pop\n        /* \"#utility.yul\":5609:5680   */\n      tag_280\n        /* \"#utility.yul\":5677:5678   */\n      0x00\n        /* \"#utility.yul\":5666:5675   */\n      dup4\n        /* \"#utility.yul\":5662:5679   */\n      add\n        /* \"#utility.yul\":5653:5659   */\n      dup5\n        /* \"#utility.yul\":5609:5680   */\n      tag_168\n      jump\t// in\n    tag_280:\n        /* \"#utility.yul\":5465:5687   */\n      swap3\n      swap2\n      pop\n      pop\n      jump\t// out\n        /* \"#utility.yul\":5693:6022   */\n    tag_57:\n        /* \"#utility.yul\":5752:5758   */\n      0x00\n        /* \"#utility.yul\":5801:5803   */\n      0x20\n        /* \"#utility.yul\":5789:5798   */\n      dup3\n        /* \"#utility.yul\":5780:5787   */\n      dup5\n        /* \"#utility.yul\":5776:5799   */\n      sub\n        /* \"#utility.yul\":5772:5804   */\n      slt\n        /* \"#utility.yul\":5769:5888   */\n      iszero\n      tag_282\n      jumpi\n        /* \"#utility.yul\":5807:5886   */\n      tag_283\n      tag_145\n      jump\t// in\n    tag_283:\n        /* \"#utility.yul\":5769:5888   */\n    tag_282:\n        /* \"#utility.yul\":5927:5928   */\n      0x00\n        /* \"#utility.yul\":5952:6005   */\n      tag_284\n        /* \"#utility.yul\":5997:6004   */\n      dup5\n        /* \"#utility.yul\":5988:5994   */\n      dup3\n        /* \"#utility.yul\":5977:5986   */\n      dup6\n        /* \"#utility.yul\":5973:5995   */\n      add\n        /* \"#utility.yul\":5952:6005   */\n      tag_163\n      jump\t// in\n    tag_284:\n        /* \"#utility.yul\":5942:6005   */\n      swap2\n      pop\n        /* \"#utility.yul\":5898:6015   */\n      pop\n        /* \"#utility.yul\":5693:6022   */\n      swap3\n      swap2\n      pop\n      pop\n      jump\t// out\n        /* \"#utility.yul\":6028:6127   */\n    tag_169:\n        /* \"#utility.yul\":6080:6086   */\n      0x00\n        /* \"#utility.yul\":6114:6119   */\n      dup2\n        /* \"#utility.yul\":6108:6120   */\n      mload\n        /* \"#utility.yul\":6098:6120   */\n      swap1\n      pop\n        /* \"#utility.yul\":6028:6127   */\n      swap2\n      swap1\n      pop\n      jump\t// out\n        /* \"#utility.yul\":6133:6302   */\n    tag_170:\n        /* \"#utility.yul\":6217:6228   */\n      0x00\n        /* \"#utility.yul\":6251:6257   */\n      dup3\n        /* \"#utility.yul\":6246:6249   */\n      dup3\n        /* \"#utility.yul\":6239:6258   */\n      mstore\n        /* \"#utility.yul\":6291:6295   */\n      0x20\n        /* \"#utility.yul\":6286:6289   */\n      dup3\n        /* \"#utility.yul\":6282:6296   */\n      add\n        /* \"#utility.yul\":6267:6296   */\n      swap1\n      pop\n        /* \"#utility.yul\":6133:6302   */\n      swap3\n      swap2\n      pop\n      pop\n      jump\t// out\n        /* \"#utility.yul\":6308:6447   */\n    tag_171:\n        /* \"#utility.yul\":6397:6403   */\n      dup3\n        /* \"#utility.yul\":6392:6395   */\n      dup2\n        /* \"#utility.yul\":6387:6390   */\n      dup4\n        /* \"#utility.yul\":6381:6404   */\n      mcopy\n        /* \"#utility.yul\":6438:6439   */\n      0x00\n        /* \"#utility.yul\":6429:6435   */\n      dup4\n        /* \"#utility.yul\":6424:6427   */\n      dup4\n        /* \"#utility.yul\":6420:6436   */\n      add\n        /* \"#utility.yul\":6413:6440   */\n      mstore\n        /* \"#utility.yul\":6308:6447   */\n      pop\n      pop\n      pop\n      jump\t// out\n        /* \"#utility.yul\":6453:6830   */\n    tag_172:\n        /* \"#utility.yul\":6541:6544   */\n      0x00\n        /* \"#utility.yul\":6569:6608   */\n      tag_289\n        /* \"#utility.yul\":6602:6607   */\n      dup3\n        /* \"#utility.yul\":6569:6608   */\n      tag_169\n      jump\t// in\n    tag_289:\n        /* \"#utility.yul\":6624:6695   */\n      tag_290\n        /* \"#utility.yul\":6688:6694   */\n      dup2\n        /* \"#utility.yul\":6683:6686   */\n      dup6\n        /* \"#utility.yul\":6624:6695   */\n      tag_170\n      jump\t// in\n    tag_290:\n        /* \"#utility.yul\":6617:6695   */\n      swap4\n      pop\n        /* \"#utility.yul\":6704:6769   */\n      tag_291\n        /* \"#utility.yul\":6762:6768   */\n      dup2\n        /* \"#utility.yul\":6757:6760   */\n      dup6\n        /* \"#utility.yul\":6750:6754   */\n      0x20\n        /* \"#utility.yul\":6743:6748   */\n      dup7\n        /* \"#utility.yul\":6739:6755   */\n      add\n        /* \"#utility.yul\":6704:6769   */\n      tag_171\n      jump\t// in\n    tag_291:\n        /* \"#utility.yul\":6794:6823   */\n      tag_292\n        /* \"#utility.yul\":6816:6822   */\n      dup2\n        /* \"#utility.yul\":6794:6823   */\n      tag_149\n      jump\t// in\n    tag_292:\n        /* \"#utility.yul\":6789:6792   */\n      dup5\n        /* \"#utility.yul\":6785:6824   */\n      add\n        /* \"#utility.yul\":6778:6824   */\n      swap2\n      pop\n        /* \"#utility.yul\":6545:6830   */\n      pop\n        /* \"#utility.yul\":6453:6830   */\n      swap3\n      swap2\n      pop\n      pop\n      jump\t// out\n        /* \"#utility.yul\":6836:6978   */\n    tag_173:\n        /* \"#utility.yul\":6939:6971   */\n      tag_294\n        /* \"#utility.yul\":6965:6970   */\n      dup2\n        /* \"#utility.yul\":6939:6971   */\n      tag_158\n      jump\t// in\n    tag_294:\n        /* \"#utility.yul\":6934:6937   */\n      dup3\n        /* \"#utility.yul\":6927:6972   */\n      mstore\n        /* \"#utility.yul\":6836:6978   */\n      pop\n      pop\n      jump\t// out\n        /* \"#utility.yul\":6984:7074   */\n    tag_174:\n        /* \"#utility.yul\":7018:7025   */\n      0x00\n        /* \"#utility.yul\":7061:7066   */\n      dup2\n        /* \"#utility.yul\":7054:7067   */\n      iszero\n        /* \"#utility.yul\":7047:7068   */\n      iszero\n        /* \"#utility.yul\":7036:7068   */\n      swap1\n      pop\n        /* \"#utility.yul\":6984:7074   */\n      swap2\n      swap1\n      pop\n      jump\t// out\n        /* \"#utility.yul\":7080:7189   */\n    tag_175:\n        /* \"#utility.yul\":7161:7182   */\n      tag_297\n        /* \"#utility.yul\":7176:7181   */\n      dup2\n        /* \"#utility.yul\":7161:7182   */\n      tag_174\n      jump\t// in\n    tag_297:\n        /* \"#utility.yul\":7156:7159   */\n      dup3\n        /* \"#utility.yul\":7149:7183   */\n      mstore\n        /* \"#utility.yul\":7080:7189   */\n      pop\n      pop\n      jump\t// out\n        /* \"#utility.yul\":7195:7970   */\n    tag_60:\n        /* \"#utility.yul\":7430:7434   */\n      0x00\n        /* \"#utility.yul\":7468:7471   */\n      0xa0\n        /* \"#utility.yul\":7457:7466   */\n      dup3\n        /* \"#utility.yul\":7453:7472   */\n      add\n        /* \"#utility.yul\":7445:7472   */\n      swap1\n      pop\n        /* \"#utility.yul\":7518:7527   */\n      dup2\n        /* \"#utility.yul\":7512:7516   */\n      dup2\n        /* \"#utility.yul\":7508:7528   */\n      sub\n        /* \"#utility.yul\":7504:7505   */\n      0x00\n        /* \"#utility.yul\":7493:7502   */\n      dup4\n        /* \"#utility.yul\":7489:7506   */\n      add\n        /* \"#utility.yul\":7482:7529   */\n      mstore\n        /* \"#utility.yul\":7546:7624   */\n      tag_299\n        /* \"#utility.yul\":7619:7623   */\n      dup2\n        /* \"#utility.yul\":7610:7616   */\n      dup9\n        /* \"#utility.yul\":7546:7624   */\n      tag_172\n      jump\t// in\n    tag_299:\n        /* \"#utility.yul\":7538:7624   */\n      swap1\n      pop\n        /* \"#utility.yul\":7634:7722   */\n      tag_300\n        /* \"#utility.yul\":7718:7720   */\n      0x20\n        /* \"#utility.yul\":7707:7716   */\n      dup4\n        /* \"#utility.yul\":7703:7721   */\n      add\n        /* \"#utility.yul\":7694:7700   */\n      dup8\n        /* \"#utility.yul\":7634:7722   */\n      tag_173\n      jump\t// in\n    tag_300:\n        /* \"#utility.yul\":7732:7804   */\n      tag_301\n        /* \"#utility.yul\":7800:7802   */\n      0x40\n        /* \"#utility.yul\":7789:7798   */\n      dup4\n        /* \"#utility.yul\":7785:7803   */\n      add\n        /* \"#utility.yul\":7776:7782   */\n      dup7\n        /* \"#utility.yul\":7732:7804   */\n      tag_167\n      jump\t// in\n    tag_301:\n        /* \"#utility.yul\":7814:7880   */\n      tag_302\n        /* \"#utility.yul\":7876:7878   */\n      0x60\n        /* \"#utility.yul\":7865:7874   */\n      dup4\n        /* \"#utility.yul\":7861:7879   */\n      add\n        /* \"#utility.yul\":7852:7858   */\n      dup6\n        /* \"#utility.yul\":7814:7880   */\n      tag_175\n      jump\t// in\n    tag_302:\n        /* \"#utility.yul\":7890:7963   */\n      tag_303\n        /* \"#utility.yul\":7958:7961   */\n      0x80\n        /* \"#utility.yul\":7947:7956   */\n      dup4\n        /* \"#utility.yul\":7943:7962   */\n      add\n        /* \"#utility.yul\":7934:7940   */\n      dup5\n        /* \"#utility.yul\":7890:7963   */\n      tag_167\n      jump\t// in\n    tag_303:\n        /* \"#utility.yul\":7195:7970   */\n      swap7\n      swap6\n      pop\n      pop\n      pop\n      pop\n      pop\n      pop\n      jump\t// out\n        /* \"#utility.yul\":7976:8203   */\n    tag_176:\n        /* \"#utility.yul\":8116:8150   */\n      0x54686520646561646c696e65206861732070617373656420666f722074686973\n        /* \"#utility.yul\":8112:8113   */\n      0x00\n        /* \"#utility.yul\":8104:8110   */\n      dup3\n        /* \"#utility.yul\":8100:8114   */\n      add\n        /* \"#utility.yul\":8093:8151   */\n      mstore\n        /* \"#utility.yul\":8185:8195   */\n      0x2066756e64696e67000000000000000000000000000000000000000000000000\n        /* \"#utility.yul\":8180:8182   */\n      0x20\n        /* \"#utility.yul\":8172:8178   */\n      dup3\n        /* \"#utility.yul\":8168:8183   */\n      add\n        /* \"#utility.yul\":8161:8196   */\n      mstore\n        /* \"#utility.yul\":7976:8203   */\n      pop\n      jump\t// out\n        /* \"#utility.yul\":8209:8575   */\n    tag_177:\n        /* \"#utility.yul\":8351:8354   */\n      0x00\n        /* \"#utility.yul\":8372:8439   */\n      tag_306\n        /* \"#utility.yul\":8436:8438   */\n      0x28\n        /* \"#utility.yul\":8431:8434   */\n      dup4\n        /* \"#utility.yul\":8372:8439   */\n      tag_170\n      jump\t// in\n    tag_306:\n        /* \"#utility.yul\":8365:8439   */\n      swap2\n      pop\n        /* \"#utility.yul\":8448:8541   */\n      tag_307\n        /* \"#utility.yul\":8537:8540   */\n      dup3\n        /* \"#utility.yul\":8448:8541   */\n      tag_176\n      jump\t// in\n    tag_307:\n        /* \"#utility.yul\":8566:8568   */\n      0x40\n        /* \"#utility.yul\":8561:8564   */\n      dup3\n        /* \"#utility.yul\":8557:8569   */\n      add\n        /* \"#utility.yul\":8550:8569   */\n      swap1\n      pop\n        /* \"#utility.yul\":8209:8575   */\n      swap2\n      swap1\n      pop\n      jump\t// out\n        /* \"#utility.yul\":8581:9000   */\n    tag_88:\n        /* \"#utility.yul\":8747:8751   */\n      0x00\n        /* \"#utility.yul\":8785:8787   */\n      0x20\n        /* \"#utility.yul\":8774:8783   */\n      dup3\n        /* \"#utility.yul\":8770:8788   */\n      add\n        /* \"#utility.yul\":8762:8788   */\n      swap1\n      pop\n        /* \"#utility.yul\":8834:8843   */\n      dup2\n        /* \"#utility.yul\":8828:8832   */\n      dup2\n        /* \"#utility.yul\":8824:8844   */\n      sub\n        /* \"#utility.yul\":8820:8821   */\n      0x00\n        /* \"#utility.yul\":8809:8818   */\n      dup4\n        /* \"#utility.yul\":8805:8822   */\n      add\n        /* \"#utility.yul\":8798:8845   */\n      mstore\n        /* \"#utility.yul\":8862:8993   */\n      tag_309\n        /* \"#utility.yul\":8988:8992   */\n      dup2\n        /* \"#utility.yul\":8862:8993   */\n      tag_177\n      jump\t// in\n    tag_309:\n        /* \"#utility.yul\":8854:8993   */\n      swap1\n      pop\n        /* \"#utility.yul\":8581:9000   */\n      swap2\n      swap1\n      pop\n      jump\t// out\n        /* \"#utility.yul\":9006:9239   */\n    tag_178:\n        /* \"#utility.yul\":9146:9180   */\n      0x596f75206d75737420706179206d696e696d756d206f66203130302077656920\n        /* \"#utility.yul\":9142:9143   */\n      0x00\n        /* \"#utility.yul\":9134:9140   */\n      dup3\n        /* \"#utility.yul\":9130:9144   */\n      add\n        /* \"#utility.yul\":9123:9181   */\n      mstore\n        /* \"#utility.yul\":9215:9231   */\n      0x746f207061727469636970617465000000000000000000000000000000000000\n        /* \"#utility.yul\":9210:9212   */\n      0x20\n        /* \"#utility.yul\":9202:9208   */\n      dup3\n        /* \"#utility.yul\":9198:9213   */\n      add\n        /* \"#utility.yul\":9191:9232   */\n      mstore\n        /* \"#utility.yul\":9006:9239   */\n      pop\n      jump\t// out\n        /* \"#utility.yul\":9245:9611   */\n    tag_179:\n        /* \"#utility.yul\":9387:9390   */\n      0x00\n        /* \"#utility.yul\":9408:9475   */\n      tag_312\n        /* \"#utility.yul\":9472:9474   */\n      0x2e\n        /* \"#utility.yul\":9467:9470   */\n      dup4\n        /* \"#utility.yul\":9408:9475   */\n      tag_170\n      jump\t// in\n    tag_312:\n        /* \"#utility.yul\":9401:9475   */\n      swap2\n      pop\n        /* \"#utility.yul\":9484:9577   */\n      tag_313\n        /* \"#utility.yul\":9573:9576   */\n      dup3\n        /* \"#utility.yul\":9484:9577   */\n      tag_178\n      jump\t// in\n    tag_313:\n        /* \"#utility.yul\":9602:9604   */\n      0x40\n        /* \"#utility.yul\":9597:9600   */\n      dup3\n        /* \"#utility.yul\":9593:9605   */\n      add\n        /* \"#utility.yul\":9586:9605   */\n      swap1\n      pop\n        /* \"#utility.yul\":9245:9611   */\n      swap2\n      swap1\n      pop\n      jump\t// out\n        /* \"#utility.yul\":9617:10036   */\n    tag_91:\n        /* \"#utility.yul\":9783:9787   */\n      0x00\n        /* \"#utility.yul\":9821:9823   */\n      0x20\n        /* \"#utility.yul\":9810:9819   */\n      dup3\n        /* \"#utility.yul\":9806:9824   */\n      add\n        /* \"#utility.yul\":9798:9824   */\n      swap1\n      pop\n        /* \"#utility.yul\":9870:9879   */\n      dup2\n        /* \"#utility.yul\":9864:9868   */\n      dup2\n        /* \"#utility.yul\":9860:9880   */\n      sub\n        /* \"#utility.yul\":9856:9857   */\n      0x00\n        /* \"#utility.yul\":9845:9854   */\n      dup4\n        /* \"#utility.yul\":9841:9858   */\n      add\n        /* \"#utility.yul\":9834:9881   */\n      mstore\n        /* \"#utility.yul\":9898:10029   */\n      tag_315\n        /* \"#utility.yul\":10024:10028   */\n      dup2\n        /* \"#utility.yul\":9898:10029   */\n      tag_179\n      jump\t// in\n    tag_315:\n        /* \"#utility.yul\":9890:10029   */\n      swap1\n      pop\n        /* \"#utility.yul\":9617:10036   */\n      swap2\n      swap1\n      pop\n      jump\t// out\n        /* \"#utility.yul\":10042:10222   */\n    tag_180:\n        /* \"#utility.yul\":10090:10167   */\n      0x4e487b7100000000000000000000000000000000000000000000000000000000\n        /* \"#utility.yul\":10087:10088   */\n      0x00\n        /* \"#utility.yul\":10080:10168   */\n      mstore\n        /* \"#utility.yul\":10187:10191   */\n      0x11\n        /* \"#utility.yul\":10184:10185   */\n      0x04\n        /* \"#utility.yul\":10177:10192   */\n      mstore\n        /* \"#utility.yul\":10211:10215   */\n      0x24\n        /* \"#utility.yul\":10208:10209   */\n      0x00\n        /* \"#utility.yul\":10201:10216   */\n      revert\n        /* \"#utility.yul\":10228:10461   */\n    tag_94:\n        /* \"#utility.yul\":10267:10270   */\n      0x00\n        /* \"#utility.yul\":10290:10314   */\n      tag_318\n        /* \"#utility.yul\":10308:10313   */\n      dup3\n        /* \"#utility.yul\":10290:10314   */\n      tag_161\n      jump\t// in\n    tag_318:\n        /* \"#utility.yul\":10281:10314   */\n      swap2\n      pop\n        /* \"#utility.yul\":10336:10402   */\n      0xffffffffffffffffffffffffffffffffffffffffffffffffffffffffffffffff\n        /* \"#utility.yul\":10329:10334   */\n      dup3\n        /* \"#utility.yul\":10326:10403   */\n      sub\n        /* \"#utility.yul\":10323:10426   */\n      tag_319\n      jumpi\n        /* \"#utility.yul\":10406:10424   */\n      tag_320\n      tag_180\n      jump\t// in\n    tag_320:\n        /* \"#utility.yul\":10323:10426   */\n    tag_319:\n        /* \"#utility.yul\":10453:10454   */\n      0x01\n        /* \"#utility.yul\":10446:10451   */\n      dup3\n        /* \"#utility.yul\":10442:10455   */\n      add\n        /* \"#utility.yul\":10435:10455   */\n      swap1\n      pop\n        /* \"#utility.yul\":10228:10461   */\n      swap2\n      swap1\n      pop\n      jump\t// out\n        /* \"#utility.yul\":10467:10658   */\n    tag_96:\n        /* \"#utility.yul\":10507:10510   */\n      0x00\n        /* \"#utility.yul\":10526:10546   */\n      tag_322\n        /* \"#utility.yul\":10544:10545   */\n      dup3\n        /* \"#utility.yul\":10526:10546   */\n      tag_161\n      jump\t// in\n    tag_322:\n        /* \"#utility.yul\":10521:10546   */\n      swap2\n      pop\n        /* \"#utility.yul\":10560:10580   */\n      tag_323\n        /* \"#utility.yul\":10578:10579   */\n      dup4\n        /* \"#utility.yul\":10560:10580   */\n      tag_161\n      jump\t// in\n    tag_323:\n        /* \"#utility.yul\":10555:10580   */\n      swap3\n      pop\n        /* \"#utility.yul\":10603:10604   */\n      dup3\n        /* \"#utility.yul\":10600:10601   */\n      dup3\n        /* \"#utility.yul\":10596:10605   */\n      add\n        /* \"#utility.yul\":10589:10605   */\n      swap1\n      pop\n        /* \"#utility.yul\":10624:10627   */\n      dup1\n        /* \"#utility.yul\":10621:10622   */\n      dup3\n        /* \"#utility.yul\":10618:10628   */\n      gt\n        /* \"#utility.yul\":10615:10651   */\n      iszero\n      tag_324\n      jumpi\n        /* \"#utility.yul\":10631:10649   */\n      tag_325\n      tag_180\n      jump\t// in\n    tag_325:\n        /* \"#utility.yul\":10615:10651   */\n    tag_324:\n        /* \"#utility.yul\":10467:10658   */\n      swap3\n      swap2\n      pop\n      pop\n      jump\t// out\n        /* \"#utility.yul\":10664:10886   */\n    tag_181:\n        /* \"#utility.yul\":10804:10838   */\n      0x4f6e6c79206d616e616765722063616e206163657373207468652066756e6374\n        /* \"#utility.yul\":10800:10801   */\n      0x00\n        /* \"#utility.yul\":10792:10798   */\n      dup3\n        /* \"#utility.yul\":10788:10802   */\n      add\n        /* \"#utility.yul\":10781:10839   */\n      mstore\n        /* \"#utility.yul\":10873:10878   */\n      0x696f6e0000000000000000000000000000000000000000000000000000000000\n        /* \"#utility.yul\":10868:10870   */\n      0x20\n        /* \"#utility.yul\":10860:10866   */\n      dup3\n        /* \"#utility.yul\":10856:10871   */\n      add\n        /* \"#utility.yul\":10849:10879   */\n      mstore\n        /* \"#utility.yul\":10664:10886   */\n      pop\n      jump\t// out\n        /* \"#utility.yul\":10892:11258   */\n    tag_182:\n        /* \"#utility.yul\":11034:11037   */\n      0x00\n        /* \"#utility.yul\":11055:11122   */\n      tag_328\n        /* \"#utility.yul\":11119:11121   */\n      0x23\n        /* \"#utility.yul\":11114:11117   */\n      dup4\n        /* \"#utility.yul\":11055:11122   */\n      tag_170\n      jump\t// in\n    tag_328:\n        /* \"#utility.yul\":11048:11122   */\n      swap2\n      pop\n        /* \"#utility.yul\":11131:11224   */\n      tag_329\n        /* \"#utility.yul\":11220:11223   */\n      dup3\n        /* \"#utility.yul\":11131:11224   */\n      tag_181\n      jump\t// in\n    tag_329:\n        /* \"#utility.yul\":11249:11251   */\n      0x40\n        /* \"#utility.yul\":11244:11247   */\n      dup3\n        /* \"#utility.yul\":11240:11252   */\n      add\n        /* \"#utility.yul\":11233:11252   */\n      swap1\n      pop\n        /* \"#utility.yul\":10892:11258   */\n      swap2\n      swap1\n      pop\n      jump\t// out\n        /* \"#utility.yul\":11264:11683   */\n    tag_101:\n        /* \"#utility.yul\":11430:11434   */\n      0x00\n        /* \"#utility.yul\":11468:11470   */\n      0x20\n        /* \"#utility.yul\":11457:11466   */\n      dup3\n        /* \"#utility.yul\":11453:11471   */\n      add\n        /* \"#utility.yul\":11445:11471   */\n      swap1\n      pop\n        /* \"#utility.yul\":11517:11526   */\n      dup2\n        /* \"#utility.yul\":11511:11515   */\n      dup2\n        /* \"#utility.yul\":11507:11527   */\n      sub\n        /* \"#utility.yul\":11503:11504   */\n      0x00\n        /* \"#utility.yul\":11492:11501   */\n      dup4\n        /* \"#utility.yul\":11488:11505   */\n      add\n        /* \"#utility.yul\":11481:11528   */\n      mstore\n        /* \"#utility.yul\":11545:11676   */\n      tag_331\n        /* \"#utility.yul\":11671:11675   */\n      dup2\n        /* \"#utility.yul\":11545:11676   */\n      tag_182\n      jump\t// in\n    tag_331:\n        /* \"#utility.yul\":11537:11676   */\n      swap1\n      pop\n        /* \"#utility.yul\":11264:11683   */\n      swap2\n      swap1\n      pop\n      jump\t// out\n        /* \"#utility.yul\":11689:11869   */\n    tag_183:\n        /* \"#utility.yul\":11737:11814   */\n      0x4e487b7100000000000000000000000000000000000000000000000000000000\n        /* \"#utility.yul\":11734:11735   */\n      0x00\n        /* \"#utility.yul\":11727:11815   */\n      mstore\n        /* \"#utility.yul\":11834:11838   */\n      0x22\n        /* \"#utility.yul\":11831:11832   */\n      0x04\n        /* \"#utility.yul\":11824:11839   */\n      mstore\n        /* \"#utility.yul\":11858:11862   */\n      0x24\n        /* \"#utility.yul\":11855:11856   */\n      0x00\n        /* \"#utility.yul\":11848:11863   */\n      revert\n        /* \"#utility.yul\":11875:12195   */\n    tag_116:\n        /* \"#utility.yul\":11919:11925   */\n      0x00\n        /* \"#utility.yul\":11956:11957   */\n      0x02\n        /* \"#utility.yul\":11950:11954   */\n      dup3\n        /* \"#utility.yul\":11946:11958   */\n      div\n        /* \"#utility.yul\":11936:11958   */\n      swap1\n      pop\n        /* \"#utility.yul\":12003:12004   */\n      0x01\n        /* \"#utility.yul\":11997:12001   */\n      dup3\n        /* \"#utility.yul\":11993:12005   */\n      and\n        /* \"#utility.yul\":12024:12042   */\n      dup1\n        /* \"#utility.yul\":12014:12095   */\n      tag_334\n      jumpi\n        /* \"#utility.yul\":12080:12084   */\n      0x7f\n        /* \"#utility.yul\":12072:12078   */\n      dup3\n        /* \"#utility.yul\":12068:12085   */\n      and\n        /* \"#utility.yul\":12058:12085   */\n      swap2\n      pop\n        /* \"#utility.yul\":12014:12095   */\n    tag_334:\n        /* \"#utility.yul\":12142:12144   */\n      0x20\n        /* \"#utility.yul\":12134:12140   */\n      dup3\n        /* \"#utility.yul\":12131:12145   */\n      lt\n        /* \"#utility.yul\":12111:12129   */\n      dup2\n        /* \"#utility.yul\":12108:12146   */\n      sub\n        /* \"#utility.yul\":12105:12189   */\n      tag_335\n      jumpi\n        /* \"#utility.yul\":12161:12179   */\n      tag_336\n      tag_183\n      jump\t// in\n    tag_336:\n        /* \"#utility.yul\":12105:12189   */\n    tag_335:\n        /* \"#utility.yul\":11926:12195   */\n      pop\n        /* \"#utility.yul\":11875:12195   */\n      swap2\n      swap1\n      pop\n      jump\t// out\n        /* \"#utility.yul\":12201:12342   */\n    tag_184:\n        /* \"#utility.yul\":12250:12254   */\n      0x00\n        /* \"#utility.yul\":12273:12276   */\n      dup2\n        /* \"#utility.yul\":12265:12276   */\n      swap1\n      pop\n        /* \"#utility.yul\":12296:12299   */\n      dup2\n        /* \"#utility.yul\":12293:12294   */\n      0x00\n        /* \"#utility.yul\":12286:12300   */\n      mstore\n        /* \"#utility.yul\":12330:12334   */\n      0x20\n        /* \"#utility.yul\":12327:12328   */\n      0x00\n        /* \"#utility.yul\":12317:12335   */\n      keccak256\n        /* \"#utility.yul\":12309:12335   */\n      swap1\n      pop\n        /* \"#utility.yul\":12201:12342   */\n      swap2\n      swap1\n      pop\n      jump\t// out\n        /* \"#utility.yul\":12348:12441   */\n    tag_185:\n        /* \"#utility.yul\":12385:12391   */\n      0x00\n        /* \"#utility.yul\":12432:12434   */\n      0x20\n        /* \"#utility.yul\":12427:12429   */\n      0x1f\n        /* \"#utility.yul\":12420:12425   */\n      dup4\n        /* \"#utility.yul\":12416:12430   */\n      add\n        /* \"#utility.yul\":12412:12435   */\n      div\n        /* \"#utility.yul\":12402:12435   */\n      swap1\n      pop\n        /* \"#utility.yul\":12348:12441   */\n      swap2\n      swap1\n      pop\n      jump\t// out\n        /* \"#utility.yul\":12447:12554   */\n    tag_186:\n        /* \"#utility.yul\":12491:12499   */\n      0x00\n        /* \"#utility.yul\":12541:12546   */\n      dup3\n        /* \"#utility.yul\":12535:12539   */\n      dup3\n        /* \"#utility.yul\":12531:12547   */\n      shl\n        /* \"#utility.yul\":12510:12547   */\n      swap1\n      pop\n        /* \"#utility.yul\":12447:12554   */\n      swap3\n      swap2\n      pop\n      pop\n      jump\t// out\n        /* \"#utility.yul\":12560:12953   */\n    tag_187:\n        /* \"#utility.yul\":12629:12635   */\n      0x00\n        /* \"#utility.yul\":12679:12680   */\n      0x08\n        /* \"#utility.yul\":12667:12677   */\n      dup4\n        /* \"#utility.yul\":12663:12681   */\n      mul\n        /* \"#utility.yul\":12702:12799   */\n      tag_341\n        /* \"#utility.yul\":12732:12798   */\n      0xffffffffffffffffffffffffffffffffffffffffffffffffffffffffffffffff\n        /* \"#utility.yul\":12721:12730   */\n      dup3\n        /* \"#utility.yul\":12702:12799   */\n      tag_186\n      jump\t// in\n    tag_341:\n        /* \"#utility.yul\":12820:12859   */\n      tag_342\n        /* \"#utility.yul\":12850:12858   */\n      dup7\n        /* \"#utility.yul\":12839:12848   */\n      dup4\n        /* \"#utility.yul\":12820:12859   */\n      tag_186\n      jump\t// in\n    tag_342:\n        /* \"#utility.yul\":12808:12859   */\n      swap6\n      pop\n        /* \"#utility.yul\":12892:12896   */\n      dup1\n        /* \"#utility.yul\":12888:12897   */\n      not\n        /* \"#utility.yul\":12881:12886   */\n      dup5\n        /* \"#utility.yul\":12877:12898   */\n      and\n        /* \"#utility.yul\":12868:12898   */\n      swap4\n      pop\n        /* \"#utility.yul\":12941:12945   */\n      dup1\n        /* \"#utility.yul\":12931:12939   */\n      dup7\n        /* \"#utility.yul\":12927:12946   */\n      and\n        /* \"#utility.yul\":12920:12925   */\n      dup5\n        /* \"#utility.yul\":12917:12947   */\n      or\n        /* \"#utility.yul\":12907:12947   */\n      swap3\n      pop\n        /* \"#utility.yul\":12636:12953   */\n      pop\n      pop\n        /* \"#utility.yul\":12560:12953   */\n      swap4\n      swap3\n      pop\n      pop\n      pop\n      jump\t// out\n        /* \"#utility.yul\":12959:13019   */\n    tag_188:\n        /* \"#utility.yul\":12987:12990   */\n      0x00\n        /* \"#utility.yul\":13008:13013   */\n      dup2\n        /* \"#utility.yul\":13001:13013   */\n      swap1\n      pop\n        /* \"#utility.yul\":12959:13019   */\n      swap2\n      swap1\n      pop\n      jump\t// out\n        /* \"#utility.yul\":13025:13167   */\n    tag_189:\n        /* \"#utility.yul\":13075:13084   */\n      0x00\n        /* \"#utility.yul\":13108:13161   */\n      tag_345\n        /* \"#utility.yul\":13126:13160   */\n      tag_346\n        /* \"#utility.yul\":13135:13159   */\n      tag_347\n        /* \"#utility.yul\":13153:13158   */\n      dup5\n        /* \"#utility.yul\":13135:13159   */\n      tag_161\n      jump\t// in\n    tag_347:\n        /* \"#utility.yul\":13126:13160   */\n      tag_188\n      jump\t// in\n    tag_346:\n        /* \"#utility.yul\":13108:13161   */\n      tag_161\n      jump\t// in\n    tag_345:\n        /* \"#utility.yul\":13095:13161   */\n      swap1\n      pop\n        /* \"#utility.yul\":13025:13167   */\n      swap2\n      swap1\n      pop\n      jump\t// out\n        /* \"#utility.yul\":13173:13248   */\n    tag_190:\n        /* \"#utility.yul\":13216:13219   */\n      0x00\n        /* \"#utility.yul\":13237:13242   */\n      dup2\n        /* \"#utility.yul\":13230:13242   */\n      swap1\n      pop\n        /* \"#utility.yul\":13173:13248   */\n      swap2\n      swap1\n      pop\n      jump\t// out\n        /* \"#utility.yul\":13254:13523   */\n    tag_191:\n        /* \"#utility.yul\":13364:13403   */\n      tag_350\n        /* \"#utility.yul\":13395:13402   */\n      dup4\n        /* \"#utility.yul\":13364:13403   */\n      tag_189\n      jump\t// in\n    tag_350:\n        /* \"#utility.yul\":13425:13516   */\n      tag_351\n        /* \"#utility.yul\":13474:13515   */\n      tag_352\n        /* \"#utility.yul\":13498:13514   */\n      dup3\n        /* \"#utility.yul\":13474:13515   */\n      tag_190\n      jump\t// in\n    tag_352:\n        /* \"#utility.yul\":13466:13472   */\n      dup5\n        /* \"#utility.yul\":13459:13463   */\n      dup5\n        /* \"#utility.yul\":13453:13464   */\n      sload\n        /* \"#utility.yul\":13425:13516   */\n      tag_187\n      jump\t// in\n    tag_351:\n        /* \"#utility.yul\":13419:13423   */\n      dup3\n        /* \"#utility.yul\":13412:13517   */\n      sstore\n        /* \"#utility.yul\":13330:13523   */\n      pop\n        /* \"#utility.yul\":13254:13523   */\n      pop\n      pop\n      pop\n      jump\t// out\n        /* \"#utility.yul\":13529:13602   */\n    tag_192:\n        /* \"#utility.yul\":13574:13577   */\n      0x00\n        /* \"#utility.yul\":13529:13602   */\n      swap1\n      jump\t// out\n        /* \"#utility.yul\":13608:13797   */\n    tag_193:\n        /* \"#utility.yul\":13685:13717   */\n      tag_355\n      tag_192\n      jump\t// in\n    tag_355:\n        /* \"#utility.yul\":13726:13791   */\n      tag_356\n        /* \"#utility.yul\":13784:13790   */\n      dup2\n        /* \"#utility.yul\":13776:13782   */\n      dup5\n        /* \"#utility.yul\":13770:13774   */\n      dup5\n        /* \"#utility.yul\":13726:13791   */\n      tag_191\n      jump\t// in\n    tag_356:\n        /* \"#utility.yul\":13661:13797   */\n      pop\n        /* \"#utility.yul\":13608:13797   */\n      pop\n      pop\n      jump\t// out\n        /* \"#utility.yul\":13803:13989   */\n    tag_194:\n        /* \"#utility.yul\":13863:13983   */\n    tag_358:\n        /* \"#utility.yul\":13880:13883   */\n      dup2\n        /* \"#utility.yul\":13873:13878   */\n      dup2\n        /* \"#utility.yul\":13870:13884   */\n      lt\n        /* \"#utility.yul\":13863:13983   */\n      iszero\n      tag_360\n      jumpi\n        /* \"#utility.yul\":13934:13973   */\n      tag_361\n        /* \"#utility.yul\":13971:13972   */\n      0x00\n        /* \"#utility.yul\":13964:13969   */\n      dup3\n        /* \"#utility.yul\":13934:13973   */\n      tag_193\n      jump\t// in\n    tag_361:\n        /* \"#utility.yul\":13907:13908   */\n      0x01\n        /* \"#utility.yul\":13900:13905   */\n      dup2\n        /* \"#utility.yul\":13896:13909   */\n      add\n        /* \"#utility.yul\":13887:13909   */\n      swap1\n      pop\n        /* \"#utility.yul\":13863:13983   */\n      jump(tag_358)\n    tag_360:\n        /* \"#utility.yul\":13803:13989   */\n      pop\n      pop\n      jump\t// out\n        /* \"#utility.yul\":13995:14538   */\n    tag_195:\n        /* \"#utility.yul\":14096:14098   */\n      0x1f\n        /* \"#utility.yul\":14091:14094   */\n      dup3\n        /* \"#utility.yul\":14088:14099   */\n      gt\n        /* \"#utility.yul\":14085:14531   */\n      iszero\n      tag_363\n      jumpi\n        /* \"#utility.yul\":14130:14168   */\n      tag_364\n        /* \"#utility.yul\":14162:14167   */\n      dup2\n        /* \"#utility.yul\":14130:14168   */\n      tag_184\n      jump\t// in\n    tag_364:\n        /* \"#utility.yul\":14214:14243   */\n      tag_365\n        /* \"#utility.yul\":14232:14242   */\n      dup5\n        /* \"#utility.yul\":14214:14243   */\n      tag_185\n      jump\t// in\n    tag_365:\n        /* \"#utility.yul\":14204:14212   */\n      dup2\n        /* \"#utility.yul\":14200:14244   */\n      add\n        /* \"#utility.yul\":14397:14399   */\n      0x20\n        /* \"#utility.yul\":14385:14395   */\n      dup6\n        /* \"#utility.yul\":14382:14400   */\n      lt\n        /* \"#utility.yul\":14379:14428   */\n      iszero\n      tag_366\n      jumpi\n        /* \"#utility.yul\":14418:14426   */\n      dup2\n        /* \"#utility.yul\":14403:14426   */\n      swap1\n      pop\n        /* \"#utility.yul\":14379:14428   */\n    tag_366:\n        /* \"#utility.yul\":14441:14521   */\n      tag_367\n        /* \"#utility.yul\":14497:14519   */\n      tag_368\n        /* \"#utility.yul\":14515:14518   */\n      dup6\n        /* \"#utility.yul\":14497:14519   */\n      tag_185\n      jump\t// in\n    tag_368:\n        /* \"#utility.yul\":14487:14495   */\n      dup4\n        /* \"#utility.yul\":14483:14520   */\n      add\n        /* \"#utility.yul\":14470:14481   */\n      dup3\n        /* \"#utility.yul\":14441:14521   */\n      tag_194\n      jump\t// in\n    tag_367:\n        /* \"#utility.yul\":14100:14531   */\n      pop\n      pop\n        /* \"#utility.yul\":14085:14531   */\n    tag_363:\n        /* \"#utility.yul\":13995:14538   */\n      pop\n      pop\n      pop\n      jump\t// out\n        /* \"#utility.yul\":14544:14661   */\n    tag_196:\n        /* \"#utility.yul\":14598:14606   */\n      0x00\n        /* \"#utility.yul\":14648:14653   */\n      dup3\n        /* \"#utility.yul\":14642:14646   */\n      dup3\n        /* \"#utility.yul\":14638:14654   */\n      shr\n        /* \"#utility.yul\":14617:14654   */\n      swap1\n      pop\n        /* \"#utility.yul\":14544:14661   */\n      swap3\n      swap2\n      pop\n      pop\n      jump\t// out\n        /* \"#utility.yul\":14667:14836   */\n    tag_197:\n        /* \"#utility.yul\":14711:14717   */\n      0x00\n        /* \"#utility.yul\":14744:14795   */\n      tag_371\n        /* \"#utility.yul\":14792:14793   */\n      0x00\n        /* \"#utility.yul\":14788:14794   */\n      not\n        /* \"#utility.yul\":14780:14785   */\n      dup5\n        /* \"#utility.yul\":14777:14778   */\n      0x08\n        /* \"#utility.yul\":14773:14786   */\n      mul\n        /* \"#utility.yul\":14744:14795   */\n      tag_196\n      jump\t// in\n    tag_371:\n        /* \"#utility.yul\":14740:14796   */\n      not\n        /* \"#utility.yul\":14825:14829   */\n      dup1\n        /* \"#utility.yul\":14819:14823   */\n      dup4\n        /* \"#utility.yul\":14815:14830   */\n      and\n        /* \"#utility.yul\":14805:14830   */\n      swap2\n      pop\n        /* \"#utility.yul\":14718:14836   */\n      pop\n        /* \"#utility.yul\":14667:14836   */\n      swap3\n      swap2\n      pop\n      pop\n      jump\t// out\n        /* \"#utility.yul\":14841:15136   */\n    tag_198:\n        /* \"#utility.yul\":14917:14921   */\n      0x00\n        /* \"#utility.yul\":15063:15092   */\n      tag_373\n        /* \"#utility.yul\":15088:15091   */\n      dup4\n        /* \"#utility.yul\":15082:15086   */\n      dup4\n        /* \"#utility.yul\":15063:15092   */\n      tag_197\n      jump\t// in\n    tag_373:\n        /* \"#utility.yul\":15055:15092   */\n      swap2\n      pop\n        /* \"#utility.yul\":15125:15128   */\n      dup3\n        /* \"#utility.yul\":15122:15123   */\n      0x02\n        /* \"#utility.yul\":15118:15129   */\n      mul\n        /* \"#utility.yul\":15112:15116   */\n      dup3\n        /* \"#utility.yul\":15109:15130   */\n      or\n        /* \"#utility.yul\":15101:15130   */\n      swap1\n      pop\n        /* \"#utility.yul\":14841:15136   */\n      swap3\n      swap2\n      pop\n      pop\n      jump\t// out\n        /* \"#utility.yul\":15141:16536   */\n    tag_105:\n        /* \"#utility.yul\":15258:15295   */\n      tag_375\n        /* \"#utility.yul\":15291:15294   */\n      dup3\n        /* \"#utility.yul\":15258:15295   */\n      tag_169\n      jump\t// in\n    tag_375:\n        /* \"#utility.yul\":15360:15378   */\n      0xffffffffffffffff\n        /* \"#utility.yul\":15352:15358   */\n      dup2\n        /* \"#utility.yul\":15349:15379   */\n      gt\n        /* \"#utility.yul\":15346:15402   */\n      iszero\n      tag_376\n      jumpi\n        /* \"#utility.yul\":15382:15400   */\n      tag_377\n      tag_150\n      jump\t// in\n    tag_377:\n        /* \"#utility.yul\":15346:15402   */\n    tag_376:\n        /* \"#utility.yul\":15426:15464   */\n      tag_378\n        /* \"#utility.yul\":15458:15462   */\n      dup3\n        /* \"#utility.yul\":15452:15463   */\n      sload\n        /* \"#utility.yul\":15426:15464   */\n      tag_116\n      jump\t// in\n    tag_378:\n        /* \"#utility.yul\":15511:15578   */\n      tag_379\n        /* \"#utility.yul\":15571:15577   */\n      dup3\n        /* \"#utility.yul\":15563:15569   */\n      dup3\n        /* \"#utility.yul\":15557:15561   */\n      dup6\n        /* \"#utility.yul\":15511:15578   */\n      tag_195\n      jump\t// in\n    tag_379:\n        /* \"#utility.yul\":15605:15606   */\n      0x00\n        /* \"#utility.yul\":15629:15633   */\n      0x20\n        /* \"#utility.yul\":15616:15633   */\n      swap1\n      pop\n        /* \"#utility.yul\":15661:15663   */\n      0x1f\n        /* \"#utility.yul\":15653:15659   */\n      dup4\n        /* \"#utility.yul\":15650:15664   */\n      gt\n        /* \"#utility.yul\":15678:15679   */\n      0x01\n        /* \"#utility.yul\":15673:16291   */\n      dup2\n      eq\n      tag_381\n      jumpi\n        /* \"#utility.yul\":16335:16336   */\n      0x00\n        /* \"#utility.yul\":16352:16358   */\n      dup5\n        /* \"#utility.yul\":16349:16426   */\n      iszero\n      tag_382\n      jumpi\n        /* \"#utility.yul\":16401:16410   */\n      dup3\n        /* \"#utility.yul\":16396:16399   */\n      dup8\n        /* \"#utility.yul\":16392:16411   */\n      add\n        /* \"#utility.yul\":16386:16412   */\n      mload\n        /* \"#utility.yul\":16377:16412   */\n      swap1\n      pop\n        /* \"#utility.yul\":16349:16426   */\n    tag_382:\n        /* \"#utility.yul\":16452:16519   */\n      tag_383\n        /* \"#utility.yul\":16512:16518   */\n      dup6\n        /* \"#utility.yul\":16505:16510   */\n      dup3\n        /* \"#utility.yul\":16452:16519   */\n      tag_198\n      jump\t// in\n    tag_383:\n        /* \"#utility.yul\":16446:16450   */\n      dup7\n        /* \"#utility.yul\":16439:16520   */\n      sstore\n        /* \"#utility.yul\":16308:16530   */\n      pop\n        /* \"#utility.yul\":15643:16530   */\n      jump(tag_380)\n        /* \"#utility.yul\":15673:16291   */\n    tag_381:\n        /* \"#utility.yul\":15725:15729   */\n      0x1f\n        /* \"#utility.yul\":15721:15730   */\n      not\n        /* \"#utility.yul\":15713:15719   */\n      dup5\n        /* \"#utility.yul\":15709:15731   */\n      and\n        /* \"#utility.yul\":15759:15796   */\n      tag_384\n        /* \"#utility.yul\":15791:15795   */\n      dup7\n        /* \"#utility.yul\":15759:15796   */\n      tag_184\n      jump\t// in\n    tag_384:\n        /* \"#utility.yul\":15818:15819   */\n      0x00\n        /* \"#utility.yul\":15832:16040   */\n    tag_385:\n        /* \"#utility.yul\":15846:15853   */\n      dup3\n        /* \"#utility.yul\":15843:15844   */\n      dup2\n        /* \"#utility.yul\":15840:15854   */\n      lt\n        /* \"#utility.yul\":15832:16040   */\n      iszero\n      tag_387\n      jumpi\n        /* \"#utility.yul\":15925:15934   */\n      dup5\n        /* \"#utility.yul\":15920:15923   */\n      dup10\n        /* \"#utility.yul\":15916:15935   */\n      add\n        /* \"#utility.yul\":15910:15936   */\n      mload\n        /* \"#utility.yul\":15902:15908   */\n      dup3\n        /* \"#utility.yul\":15895:15937   */\n      sstore\n        /* \"#utility.yul\":15976:15977   */\n      0x01\n        /* \"#utility.yul\":15968:15974   */\n      dup3\n        /* \"#utility.yul\":15964:15978   */\n      add\n        /* \"#utility.yul\":15954:15978   */\n      swap2\n      pop\n        /* \"#utility.yul\":16023:16025   */\n      0x20\n        /* \"#utility.yul\":16012:16021   */\n      dup6\n        /* \"#utility.yul\":16008:16026   */\n      add\n        /* \"#utility.yul\":15995:16026   */\n      swap5\n      pop\n        /* \"#utility.yul\":15869:15873   */\n      0x20\n        /* \"#utility.yul\":15866:15867   */\n      dup2\n        /* \"#utility.yul\":15862:15874   */\n      add\n        /* \"#utility.yul\":15857:15874   */\n      swap1\n      pop\n        /* \"#utility.yul\":15832:16040   */\n      jump(tag_385)\n    tag_387:\n        /* \"#utility.yul\":16068:16074   */\n      dup7\n        /* \"#utility.yul\":16059:16066   */\n      dup4\n        /* \"#utility.yul\":16056:16075   */\n      lt\n        /* \"#utility.yul\":16053:16232   */\n      iszero\n      tag_388\n      jumpi\n        /* \"#utility.yul\":16126:16135   */\n      dup5\n        /* \"#utility.yul\":16121:16124   */\n      dup10\n        /* \"#utility.yul\":16117:16136   */\n      add\n        /* \"#utility.yul\":16111:16137   */\n      mload\n        /* \"#utility.yul\":16169:16217   */\n      tag_389\n        /* \"#utility.yul\":16211:16215   */\n      0x1f\n        /* \"#utility.yul\":16203:16209   */\n      dup10\n        /* \"#utility.yul\":16199:16216   */\n      and\n        /* \"#utility.yul\":16188:16197   */\n      dup3\n        /* \"#utility.yul\":16169:16217   */\n      tag_197\n      jump\t// in\n    tag_389:\n        /* \"#utility.yul\":16161:16167   */\n      dup4\n        /* \"#utility.yul\":16154:16218   */\n      sstore\n        /* \"#utility.yul\":16076:16232   */\n      pop\n        /* \"#utility.yul\":16053:16232   */\n    tag_388:\n        /* \"#utility.yul\":16278:16279   */\n      0x01\n        /* \"#utility.yul\":16274:16275   */\n      0x02\n        /* \"#utility.yul\":16266:16272   */\n      dup9\n        /* \"#utility.yul\":16262:16276   */\n      mul\n        /* \"#utility.yul\":16258:16280   */\n      add\n        /* \"#utility.yul\":16252:16256   */\n      dup9\n        /* \"#utility.yul\":16245:16281   */\n      sstore\n        /* \"#utility.yul\":15680:16291   */\n      pop\n      pop\n      pop\n        /* \"#utility.yul\":15643:16530   */\n    tag_380:\n      pop\n        /* \"#utility.yul\":15233:16536   */\n      pop\n      pop\n      pop\n        /* \"#utility.yul\":15141:16536   */\n      pop\n      pop\n      jump\t// out\n        /* \"#utility.yul\":16542:16763   */\n    tag_199:\n        /* \"#utility.yul\":16682:16716   */\n      0x596f7520617265206e6f7420656c696769626c6520746f206765742072656675\n        /* \"#utility.yul\":16678:16679   */\n      0x00\n        /* \"#utility.yul\":16670:16676   */\n      dup3\n        /* \"#utility.yul\":16666:16680   */\n      add\n        /* \"#utility.yul\":16659:16717   */\n      mstore\n        /* \"#utility.yul\":16751:16755   */\n      0x6e64000000000000000000000000000000000000000000000000000000000000\n        /* \"#utility.yul\":16746:16748   */\n      0x20\n        /* \"#utility.yul\":16738:16744   */\n      dup3\n        /* \"#utility.yul\":16734:16749   */\n      add\n        /* \"#utility.yul\":16727:16756   */\n      mstore\n        /* \"#utility.yul\":16542:16763   */\n      pop\n      jump\t// out\n        /* \"#utility.yul\":16769:17135   */\n    tag_200:\n        /* \"#utility.yul\":16911:16914   */\n      0x00\n        /* \"#utility.yul\":16932:16999   */\n      tag_392\n        /* \"#utility.yul\":16996:16998   */\n      0x22\n        /* \"#utility.yul\":16991:16994   */\n      dup4\n        /* \"#utility.yul\":16932:16999   */\n      tag_170\n      jump\t// in\n    tag_392:\n        /* \"#utility.yul\":16925:16999   */\n      swap2\n      pop\n        /* \"#utility.yul\":17008:17101   */\n      tag_393\n        /* \"#utility.yul\":17097:17100   */\n      dup3\n        /* \"#utility.yul\":17008:17101   */\n      tag_199\n      jump\t// in\n    tag_393:\n        /* \"#utility.yul\":17126:17128   */\n      0x40\n        /* \"#utility.yul\":17121:17124   */\n      dup3\n        /* \"#utility.yul\":17117:17129   */\n      add\n        /* \"#utility.yul\":17110:17129   */\n      swap1\n      pop\n        /* \"#utility.yul\":16769:17135   */\n      swap2\n      swap1\n      pop\n      jump\t// out\n        /* \"#utility.yul\":17141:17560   */\n    tag_111:\n        /* \"#utility.yul\":17307:17311   */\n      0x00\n        /* \"#utility.yul\":17345:17347   */\n      0x20\n        /* \"#utility.yul\":17334:17343   */\n      dup3\n        /* \"#utility.yul\":17330:17348   */\n      add\n        /* \"#utility.yul\":17322:17348   */\n      swap1\n      pop\n        /* \"#utility.yul\":17394:17403   */\n      dup2\n        /* \"#utility.yul\":17388:17392   */\n      dup2\n        /* \"#utility.yul\":17384:17404   */\n      sub\n        /* \"#utility.yul\":17380:17381   */\n      0x00\n        /* \"#utility.yul\":17369:17378   */\n      dup4\n        /* \"#utility.yul\":17365:17382   */\n      add\n        /* \"#utility.yul\":17358:17405   */\n      mstore\n        /* \"#utility.yul\":17422:17553   */\n      tag_395\n        /* \"#utility.yul\":17548:17552   */\n      dup2\n        /* \"#utility.yul\":17422:17553   */\n      tag_200\n      jump\t// in\n    tag_395:\n        /* \"#utility.yul\":17414:17553   */\n      swap1\n      pop\n        /* \"#utility.yul\":17141:17560   */\n      swap2\n      swap1\n      pop\n      jump\t// out\n        /* \"#utility.yul\":17566:17802   */\n    tag_201:\n        /* \"#utility.yul\":17706:17740   */\n      0x596f75206d7573742062652074686520636f6e7472696275746f7220746f2072\n        /* \"#utility.yul\":17702:17703   */\n      0x00\n        /* \"#utility.yul\":17694:17700   */\n      dup3\n        /* \"#utility.yul\":17690:17704   */\n      add\n        /* \"#utility.yul\":17683:17741   */\n      mstore\n        /* \"#utility.yul\":17775:17794   */\n      0x65717565737420666f7220766f74696e67000000000000000000000000000000\n        /* \"#utility.yul\":17770:17772   */\n      0x20\n        /* \"#utility.yul\":17762:17768   */\n      dup3\n        /* \"#utility.yul\":17758:17773   */\n      add\n        /* \"#utility.yul\":17751:17795   */\n      mstore\n        /* \"#utility.yul\":17566:17802   */\n      pop\n      jump\t// out\n        /* \"#utility.yul\":17808:18174   */\n    tag_202:\n        /* \"#utility.yul\":17950:17953   */\n      0x00\n        /* \"#utility.yul\":17971:18038   */\n      tag_398\n        /* \"#utility.yul\":18035:18037   */\n      0x31\n        /* \"#utility.yul\":18030:18033   */\n      dup4\n        /* \"#utility.yul\":17971:18038   */\n      tag_170\n      jump\t// in\n    tag_398:\n        /* \"#utility.yul\":17964:18038   */\n      swap2\n      pop\n        /* \"#utility.yul\":18047:18140   */\n      tag_399\n        /* \"#utility.yul\":18136:18139   */\n      dup3\n        /* \"#utility.yul\":18047:18140   */\n      tag_201\n      jump\t// in\n    tag_399:\n        /* \"#utility.yul\":18165:18167   */\n      0x40\n        /* \"#utility.yul\":18160:18163   */\n      dup3\n        /* \"#utility.yul\":18156:18168   */\n      add\n        /* \"#utility.yul\":18149:18168   */\n      swap1\n      pop\n        /* \"#utility.yul\":17808:18174   */\n      swap2\n      swap1\n      pop\n      jump\t// out\n        /* \"#utility.yul\":18180:18599   */\n    tag_124:\n        /* \"#utility.yul\":18346:18350   */\n      0x00\n        /* \"#utility.yul\":18384:18386   */\n      0x20\n        /* \"#utility.yul\":18373:18382   */\n      dup3\n        /* \"#utility.yul\":18369:18387   */\n      add\n        /* \"#utility.yul\":18361:18387   */\n      swap1\n      pop\n        /* \"#utility.yul\":18433:18442   */\n      dup2\n        /* \"#utility.yul\":18427:18431   */\n      dup2\n        /* \"#utility.yul\":18423:18443   */\n      sub\n        /* \"#utility.yul\":18419:18420   */\n      0x00\n        /* \"#utility.yul\":18408:18417   */\n      dup4\n        /* \"#utility.yul\":18404:18421   */\n      add\n        /* \"#utility.yul\":18397:18444   */\n      mstore\n        /* \"#utility.yul\":18461:18592   */\n      tag_401\n        /* \"#utility.yul\":18587:18591   */\n      dup2\n        /* \"#utility.yul\":18461:18592   */\n      tag_202\n      jump\t// in\n    tag_401:\n        /* \"#utility.yul\":18453:18592   */\n      swap1\n      pop\n        /* \"#utility.yul\":18180:18599   */\n      swap2\n      swap1\n      pop\n      jump\t// out\n        /* \"#utility.yul\":18605:18778   */\n    tag_203:\n        /* \"#utility.yul\":18745:18770   */\n      0x596f75206861766520616c726561647920766f74656420000000000000000000\n        /* \"#utility.yul\":18741:18742   */\n      0x00\n        /* \"#utility.yul\":18733:18739   */\n      dup3\n        /* \"#utility.yul\":18729:18743   */\n      add\n        /* \"#utility.yul\":18722:18771   */\n      mstore\n        /* \"#utility.yul\":18605:18778   */\n      pop\n      jump\t// out\n        /* \"#utility.yul\":18784:19150   */\n    tag_204:\n        /* \"#utility.yul\":18926:18929   */\n      0x00\n        /* \"#utility.yul\":18947:19014   */\n      tag_404\n        /* \"#utility.yul\":19011:19013   */\n      0x17\n        /* \"#utility.yul\":19006:19009   */\n      dup4\n        /* \"#utility.yul\":18947:19014   */\n      tag_170\n      jump\t// in\n    tag_404:\n        /* \"#utility.yul\":18940:19014   */\n      swap2\n      pop\n        /* \"#utility.yul\":19023:19116   */\n      tag_405\n        /* \"#utility.yul\":19112:19115   */\n      dup3\n        /* \"#utility.yul\":19023:19116   */\n      tag_203\n      jump\t// in\n    tag_405:\n        /* \"#utility.yul\":19141:19143   */\n      0x20\n        /* \"#utility.yul\":19136:19139   */\n      dup3\n        /* \"#utility.yul\":19132:19144   */\n      add\n        /* \"#utility.yul\":19125:19144   */\n      swap1\n      pop\n        /* \"#utility.yul\":18784:19150   */\n      swap2\n      swap1\n      pop\n      jump\t// out\n        /* \"#utility.yul\":19156:19575   */\n    tag_127:\n        /* \"#utility.yul\":19322:19326   */\n      0x00\n        /* \"#utility.yul\":19360:19362   */\n      0x20\n        /* \"#utility.yul\":19349:19358   */\n      dup3\n        /* \"#utility.yul\":19345:19363   */\n      add\n        /* \"#utility.yul\":19337:19363   */\n      swap1\n      pop\n        /* \"#utility.yul\":19409:19418   */\n      dup2\n        /* \"#utility.yul\":19403:19407   */\n      dup2\n        /* \"#utility.yul\":19399:19419   */\n      sub\n        /* \"#utility.yul\":19395:19396   */\n      0x00\n        /* \"#utility.yul\":19384:19393   */\n      dup4\n        /* \"#utility.yul\":19380:19397   */\n      add\n        /* \"#utility.yul\":19373:19420   */\n      mstore\n        /* \"#utility.yul\":19437:19568   */\n      tag_407\n        /* \"#utility.yul\":19563:19567   */\n      dup2\n        /* \"#utility.yul\":19437:19568   */\n      tag_204\n      jump\t// in\n    tag_407:\n        /* \"#utility.yul\":19429:19568   */\n      swap1\n      pop\n        /* \"#utility.yul\":19156:19575   */\n      swap2\n      swap1\n      pop\n      jump\t// out\n        /* \"#utility.yul\":19581:19806   */\n    tag_205:\n        /* \"#utility.yul\":19721:19755   */\n      0x546865207265717565737420686173206265656e20616c726561647920636f6d\n        /* \"#utility.yul\":19717:19718   */\n      0x00\n        /* \"#utility.yul\":19709:19715   */\n      dup3\n        /* \"#utility.yul\":19705:19719   */\n      add\n        /* \"#utility.yul\":19698:19756   */\n      mstore\n        /* \"#utility.yul\":19790:19798   */\n      0x706c657465640000000000000000000000000000000000000000000000000000\n        /* \"#utility.yul\":19785:19787   */\n      0x20\n        /* \"#utility.yul\":19777:19783   */\n      dup3\n        /* \"#utility.yul\":19773:19788   */\n      add\n        /* \"#utility.yul\":19766:19799   */\n      mstore\n        /* \"#utility.yul\":19581:19806   */\n      pop\n      jump\t// out\n        /* \"#utility.yul\":19812:20178   */\n    tag_206:\n        /* \"#utility.yul\":19954:19957   */\n      0x00\n        /* \"#utility.yul\":19975:20042   */\n      tag_410\n        /* \"#utility.yul\":20039:20041   */\n      0x26\n        /* \"#utility.yul\":20034:20037   */\n      dup4\n        /* \"#utility.yul\":19975:20042   */\n      tag_170\n      jump\t// in\n    tag_410:\n        /* \"#utility.yul\":19968:20042   */\n      swap2\n      pop\n        /* \"#utility.yul\":20051:20144   */\n      tag_411\n        /* \"#utility.yul\":20140:20143   */\n      dup3\n        /* \"#utility.yul\":20051:20144   */\n      tag_205\n      jump\t// in\n    tag_411:\n        /* \"#utility.yul\":20169:20171   */\n      0x40\n        /* \"#utility.yul\":20164:20167   */\n      dup3\n        /* \"#utility.yul\":20160:20172   */\n      add\n        /* \"#utility.yul\":20153:20172   */\n      swap1\n      pop\n        /* \"#utility.yul\":19812:20178   */\n      swap2\n      swap1\n      pop\n      jump\t// out\n        /* \"#utility.yul\":20184:20603   */\n    tag_136:\n        /* \"#utility.yul\":20350:20354   */\n      0x00\n        /* \"#utility.yul\":20388:20390   */\n      0x20\n        /* \"#utility.yul\":20377:20386   */\n      dup3\n        /* \"#utility.yul\":20373:20391   */\n      add\n        /* \"#utility.yul\":20365:20391   */\n      swap1\n      pop\n        /* \"#utility.yul\":20437:20446   */\n      dup2\n        /* \"#utility.yul\":20431:20435   */\n      dup2\n        /* \"#utility.yul\":20427:20447   */\n      sub\n        /* \"#utility.yul\":20423:20424   */\n      0x00\n        /* \"#utility.yul\":20412:20421   */\n      dup4\n        /* \"#utility.yul\":20408:20425   */\n      add\n        /* \"#utility.yul\":20401:20448   */\n      mstore\n        /* \"#utility.yul\":20465:20596   */\n      tag_413\n        /* \"#utility.yul\":20591:20595   */\n      dup2\n        /* \"#utility.yul\":20465:20596   */\n      tag_206\n      jump\t// in\n    tag_413:\n        /* \"#utility.yul\":20457:20596   */\n      swap1\n      pop\n        /* \"#utility.yul\":20184:20603   */\n      swap2\n      swap1\n      pop\n      jump\t// out\n        /* \"#utility.yul\":20609:20789   */\n    tag_207:\n        /* \"#utility.yul\":20657:20734   */\n      0x4e487b7100000000000000000000000000000000000000000000000000000000\n        /* \"#utility.yul\":20654:20655   */\n      0x00\n        /* \"#utility.yul\":20647:20735   */\n      mstore\n        /* \"#utility.yul\":20754:20758   */\n      0x12\n        /* \"#utility.yul\":20751:20752   */\n      0x04\n        /* \"#utility.yul\":20744:20759   */\n      mstore\n        /* \"#utility.yul\":20778:20782   */\n      0x24\n        /* \"#utility.yul\":20775:20776   */\n      0x00\n        /* \"#utility.yul\":20768:20783   */\n      revert\n        /* \"#utility.yul\":20795:20980   */\n    tag_138:\n        /* \"#utility.yul\":20835:20836   */\n      0x00\n        /* \"#utility.yul\":20852:20872   */\n      tag_416\n        /* \"#utility.yul\":20870:20871   */\n      dup3\n        /* \"#utility.yul\":20852:20872   */\n      tag_161\n      jump\t// in\n    tag_416:\n        /* \"#utility.yul\":20847:20872   */\n      swap2\n      pop\n        /* \"#utility.yul\":20886:20906   */\n      tag_417\n        /* \"#utility.yul\":20904:20905   */\n      dup4\n        /* \"#utility.yul\":20886:20906   */\n      tag_161\n      jump\t// in\n    tag_417:\n        /* \"#utility.yul\":20881:20906   */\n      swap3\n      pop\n        /* \"#utility.yul\":20925:20926   */\n      dup3\n        /* \"#utility.yul\":20915:20950   */\n      tag_418\n      jumpi\n        /* \"#utility.yul\":20930:20948   */\n      tag_419\n      tag_207\n      jump\t// in\n    tag_419:\n        /* \"#utility.yul\":20915:20950   */\n    tag_418:\n        /* \"#utility.yul\":20972:20973   */\n      dup3\n        /* \"#utility.yul\":20969:20970   */\n      dup3\n        /* \"#utility.yul\":20965:20974   */\n      div\n        /* \"#utility.yul\":20960:20974   */\n      swap1\n      pop\n        /* \"#utility.yul\":20795:20980   */\n      swap3\n      swap2\n      pop\n      pop\n      jump\t// out\n        /* \"#utility.yul\":20986:21213   */\n    tag_208:\n        /* \"#utility.yul\":21126:21160   */\n      0x4d616a6f7269747920646f65736e6f7420737570706f727420666f7220746865\n        /* \"#utility.yul\":21122:21123   */\n      0x00\n        /* \"#utility.yul\":21114:21120   */\n      dup3\n        /* \"#utility.yul\":21110:21124   */\n      add\n        /* \"#utility.yul\":21103:21161   */\n      mstore\n        /* \"#utility.yul\":21195:21205   */\n      0x2072657175657374000000000000000000000000000000000000000000000000\n        /* \"#utility.yul\":21190:21192   */\n      0x20\n        /* \"#utility.yul\":21182:21188   */\n      dup3\n        /* \"#utility.yul\":21178:21193   */\n      add\n        /* \"#utility.yul\":21171:21206   */\n      mstore\n        /* \"#utility.yul\":20986:21213   */\n      pop\n      jump\t// out\n        /* \"#utility.yul\":21219:21585   */\n    tag_209:\n        /* \"#utility.yul\":21361:21364   */\n      0x00\n        /* \"#utility.yul\":21382:21449   */\n      tag_422\n        /* \"#utility.yul\":21446:21448   */\n      0x28\n        /* \"#utility.yul\":21441:21444   */\n      dup4\n        /* \"#utility.yul\":21382:21449   */\n      tag_170\n      jump\t// in\n    tag_422:\n        /* \"#utility.yul\":21375:21449   */\n      swap2\n      pop\n        /* \"#utility.yul\":21458:21551   */\n      tag_423\n        /* \"#utility.yul\":21547:21550   */\n      dup3\n        /* \"#utility.yul\":21458:21551   */\n      tag_208\n      jump\t// in\n    tag_423:\n        /* \"#utility.yul\":21576:21578   */\n      0x40\n        /* \"#utility.yul\":21571:21574   */\n      dup3\n        /* \"#utility.yul\":21567:21579   */\n      add\n        /* \"#utility.yul\":21560:21579   */\n      swap1\n      pop\n        /* \"#utility.yul\":21219:21585   */\n      swap2\n      swap1\n      pop\n      jump\t// out\n        /* \"#utility.yul\":21591:22010   */\n    tag_141:\n        /* \"#utility.yul\":21757:21761   */\n      0x00\n        /* \"#utility.yul\":21795:21797   */\n      0x20\n        /* \"#utility.yul\":21784:21793   */\n      dup3\n        /* \"#utility.yul\":21780:21798   */\n      add\n        /* \"#utility.yul\":21772:21798   */\n      swap1\n      pop\n        /* \"#utility.yul\":21844:21853   */\n      dup2\n        /* \"#utility.yul\":21838:21842   */\n      dup2\n        /* \"#utility.yul\":21834:21854   */\n      sub\n        /* \"#utility.yul\":21830:21831   */\n      0x00\n        /* \"#utility.yul\":21819:21828   */\n      dup4\n        /* \"#utility.yul\":21815:21832   */\n      add\n        /* \"#utility.yul\":21808:21855   */\n      mstore\n        /* \"#utility.yul\":21872:22003   */\n      tag_425\n        /* \"#utility.yul\":21998:22002   */\n      dup2\n        /* \"#utility.yul\":21872:22003   */\n      tag_209\n      jump\t// in\n    tag_425:\n        /* \"#utility.yul\":21864:22003   */\n      swap1\n      pop\n        /* \"#utility.yul\":21591:22010   */\n      swap2\n      swap1\n      pop\n      jump\t// out\n\n    auxdata: 0xa26469706673582212201f9d149061f72946eae5e1ed5d902f44b4e5b6c5384c5a38ecfc03b35d093f2c64736f6c634300081a0033\n}\n",
				"bytecode": {
					"linkReferences": {},
					"object": "608060405234801561000f575f80fd5b506040516119dc3803806119dc833981810160405281019061003191906100d0565b816002819055508042610044919061013b565b60038190555060646005819055503360015f6101000a81548173ffffffffffffffffffffffffffffffffffffffff021916908373ffffffffffffffffffffffffffffffffffffffff160217905550505061016e565b5f80fd5b5f819050919050565b6100af8161009d565b81146100b9575f80fd5b50565b5f815190506100ca816100a6565b92915050565b5f80604083850312156100e6576100e5610099565b5b5f6100f3858286016100bc565b9250506020610104858286016100bc565b9150509250929050565b7f4e487b71000000000000000000000000000000000000000000000000000000005f52601160045260245ffd5b5f6101458261009d565b91506101508361009d565b92508282019050808211156101685761016761010e565b5b92915050565b6118618061017b5f395ff3fe6080604052600436106100e7575f3560e01c8063590e1ae311610089578063b1b1643111610058578063b1b16431146102a9578063b22c39f0146102d3578063cbaf8671146102fd578063d4b8399214610325576100e7565b8063590e1ae31461020157806381d12c58146102175780638323879814610257578063967c67ce14610281576100e7565b806329dcb0cf116100c557806329dcb0cf146101595780633b644d1814610183578063481c6a75146101ad5780634d9b3d5d146101d7576100e7565b806315ce85fb146100eb5780631b16bb5c146100f55780631f6d49421461011d575b5f80fd5b6100f361034f565b005b348015610100575f80fd5b5061011b60048036038101906101169190610de6565b61049f565b005b348015610128575f80fd5b50610143600480360381019061013e9190610e8d565b6105e1565b6040516101509190610ec7565b60405180910390f35b348015610164575f80fd5b5061016d6105f5565b60405161017a9190610ec7565b60405180910390f35b34801561018e575f80fd5b506101976105fb565b6040516101a49190610ec7565b60405180910390f35b3480156101b8575f80fd5b506101c1610601565b6040516101ce9190610eef565b60405180910390f35b3480156101e2575f80fd5b506101eb610626565b6040516101f89190610ec7565b60405180910390f35b34801561020c575f80fd5b5061021561062d565b005b348015610222575f80fd5b5061023d60048036038101906102389190610f08565b61078f565b60405161024e959493929190610fbc565b60405180910390f35b348015610262575f80fd5b5061026b610872565b6040516102789190610ec7565b60405180910390f35b34801561028c575f80fd5b506102a760048036038101906102a29190610f08565b610878565b005b3480156102b4575f80fd5b506102bd610a0f565b6040516102ca9190610ec7565b60405180910390f35b3480156102de575f80fd5b506102e7610a15565b6040516102f49190610ec7565b60405180910390f35b348015610308575f80fd5b50610323600480360381019061031e9190610f08565b610a1b565b005b348015610330575f80fd5b50610339610c06565b6040516103469190610ec7565b60405180910390f35b600354421115610394576040517f08c379a000000000000000000000000000000000000000000000000000000000815260040161038b90611084565b60405180910390fd5b60055434106103d8576040517f08c379a00000000000000000000000000000000000000000000000000000000081526004016103cf90611112565b60405180910390fd5b5f805f3373ffffffffffffffffffffffffffffffffffffffff1673ffffffffffffffffffffffffffffffffffffffff1681526020019081526020015f2054036104335760045f81548092919061042d9061115d565b91905055505b345f803373ffffffffffffffffffffffffffffffffffffffff1673ffffffffffffffffffffffffffffffffffffffff1681526020019081526020015f205f82825461047e91906111a4565b925050819055503460065f82825461049691906111a4565b92505081905550565b60015f9054906101000a900473ffffffffffffffffffffffffffffffffffffffff1673ffffffffffffffffffffffffffffffffffffffff163373ffffffffffffffffffffffffffffffffffffffff161461052e576040517f08c379a000000000000000000000000000000000000000000000000000000000815260040161052590611247565b60405180910390fd5b5f60075f60085481526020019081526020015f20905060085f8154809291906105569061115d565b919050555083815f01908161056b919061145f565b5082816001015f6101000a81548173ffffffffffffffffffffffffffffffffffffffff021916908373ffffffffffffffffffffffffffffffffffffffff1602179055508181600201819055505f816003015f6101000a81548160ff0219169083151502179055505f816004018190555050505050565b5f602052805f5260405f205f915090505481565b60035481565b60065481565b60015f9054906101000a900473ffffffffffffffffffffffffffffffffffffffff1681565b5f47905090565b600354421180156106415750600254600654105b610680576040517f08c379a00000000000000000000000000000000000000000000000000000000081526004016106779061159e565b60405180910390fd5b5f805f3373ffffffffffffffffffffffffffffffffffffffff1673ffffffffffffffffffffffffffffffffffffffff1681526020019081526020015f2054116106c7575f80fd5b5f3390508073ffffffffffffffffffffffffffffffffffffffff166108fc5f803373ffffffffffffffffffffffffffffffffffffffff1673ffffffffffffffffffffffffffffffffffffffff1681526020019081526020015f205490811502906040515f60405180830381858888f1935050505015801561074a573d5f803e3d5ffd5b505f805f3373ffffffffffffffffffffffffffffffffffffffff1673ffffffffffffffffffffffffffffffffffffffff1681526020019081526020015f208190555050565b6007602052805f5260405f205f91509050805f0180546107ae90611292565b80601f01602080910402602001604051908101604052809291908181526020018280546107da90611292565b80156108255780601f106107fc57610100808354040283529160200191610825565b820191905f5260205f20905b81548152906001019060200180831161080857829003601f168201915b505050505090806001015f9054906101000a900473ffffffffffffffffffffffffffffffffffffffff1690806002015490806003015f9054906101000a900460ff16908060040154905085565b60045481565b5f805f3373ffffffffffffffffffffffffffffffffffffffff1673ffffffffffffffffffffffffffffffffffffffff1681526020019081526020015f2054116108f6576040517f08c379a00000000000000000000000000000000000000000000000000000000081526004016108ed9061162c565b60405180910390fd5b5f60075f8381526020019081526020015f2090505f1515816005015f3373ffffffffffffffffffffffffffffffffffffffff1673ffffffffffffffffffffffffffffffffffffffff1681526020019081526020015f205f9054906101000a900460ff1615151461099b576040517f08c379a000000000000000000000000000000000000000000000000000000000815260040161099290611694565b60405180910390fd5b6001816005015f3373ffffffffffffffffffffffffffffffffffffffff1673ffffffffffffffffffffffffffffffffffffffff1681526020019081526020015f205f6101000a81548160ff021916908315150217905550806004015f815480929190610a069061115d565b91905055505050565b60085481565b60055481565b60015f9054906101000a900473ffffffffffffffffffffffffffffffffffffffff1673ffffffffffffffffffffffffffffffffffffffff163373ffffffffffffffffffffffffffffffffffffffff1614610aaa576040517f08c379a0000000000000000000000000000000000000000000000000000000008152600401610aa190611247565b60405180910390fd5b6002546006541015610aba575f80fd5b5f60075f8381526020019081526020015f2090505f816003015f6101000a81548160ff0219169083151502179055610b27576040517f08c379a0000000000000000000000000000000000000000000000000000000008152600401610b1e90611722565b60405180910390fd5b6002600454610b36919061176d565b816004015411610b7b576040517f08c379a0000000000000000000000000000000000000000000000000000000008152600401610b729061180d565b60405180910390fd5b806001015f9054906101000a900473ffffffffffffffffffffffffffffffffffffffff1673ffffffffffffffffffffffffffffffffffffffff166108fc826002015490811502906040515f60405180830381858888f19350505050158015610be5573d5f803e3d5ffd5b506001816003015f6101000a81548160ff0219169083151502179055505050565b60025481565b5f604051905090565b5f80fd5b5f80fd5b5f80fd5b5f80fd5b5f601f19601f8301169050919050565b7f4e487b71000000000000000000000000000000000000000000000000000000005f52604160045260245ffd5b610c6b82610c25565b810181811067ffffffffffffffff82111715610c8a57610c89610c35565b5b80604052505050565b5f610c9c610c0c565b9050610ca88282610c62565b919050565b5f67ffffffffffffffff821115610cc757610cc6610c35565b5b610cd082610c25565b9050602081019050919050565b828183375f83830152505050565b5f610cfd610cf884610cad565b610c93565b905082815260208101848484011115610d1957610d18610c21565b5b610d24848285610cdd565b509392505050565b5f82601f830112610d4057610d3f610c1d565b5b8135610d50848260208601610ceb565b91505092915050565b5f73ffffffffffffffffffffffffffffffffffffffff82169050919050565b5f610d8282610d59565b9050919050565b610d9281610d78565b8114610d9c575f80fd5b50565b5f81359050610dad81610d89565b92915050565b5f819050919050565b610dc581610db3565b8114610dcf575f80fd5b50565b5f81359050610de081610dbc565b92915050565b5f805f60608486031215610dfd57610dfc610c15565b5b5f84013567ffffffffffffffff811115610e1a57610e19610c19565b5b610e2686828701610d2c565b9350506020610e3786828701610d9f565b9250506040610e4886828701610dd2565b9150509250925092565b5f610e5c82610d59565b9050919050565b610e6c81610e52565b8114610e76575f80fd5b50565b5f81359050610e8781610e63565b92915050565b5f60208284031215610ea257610ea1610c15565b5b5f610eaf84828501610e79565b91505092915050565b610ec181610db3565b82525050565b5f602082019050610eda5f830184610eb8565b92915050565b610ee981610e52565b82525050565b5f602082019050610f025f830184610ee0565b92915050565b5f60208284031215610f1d57610f1c610c15565b5b5f610f2a84828501610dd2565b91505092915050565b5f81519050919050565b5f82825260208201905092915050565b8281835e5f83830152505050565b5f610f6582610f33565b610f6f8185610f3d565b9350610f7f818560208601610f4d565b610f8881610c25565b840191505092915050565b610f9c81610d78565b82525050565b5f8115159050919050565b610fb681610fa2565b82525050565b5f60a0820190508181035f830152610fd48188610f5b565b9050610fe36020830187610f93565b610ff06040830186610eb8565b610ffd6060830185610fad565b61100a6080830184610eb8565b9695505050505050565b7f54686520646561646c696e65206861732070617373656420666f7220746869735f8201527f2066756e64696e67000000000000000000000000000000000000000000000000602082015250565b5f61106e602883610f3d565b915061107982611014565b604082019050919050565b5f6020820190508181035f83015261109b81611062565b9050919050565b7f596f75206d75737420706179206d696e696d756d206f662031303020776569205f8201527f746f207061727469636970617465000000000000000000000000000000000000602082015250565b5f6110fc602e83610f3d565b9150611107826110a2565b604082019050919050565b5f6020820190508181035f830152611129816110f0565b9050919050565b7f4e487b71000000000000000000000000000000000000000000000000000000005f52601160045260245ffd5b5f61116782610db3565b91507fffffffffffffffffffffffffffffffffffffffffffffffffffffffffffffffff820361119957611198611130565b5b600182019050919050565b5f6111ae82610db3565b91506111b983610db3565b92508282019050808211156111d1576111d0611130565b5b92915050565b7f4f6e6c79206d616e616765722063616e206163657373207468652066756e63745f8201527f696f6e0000000000000000000000000000000000000000000000000000000000602082015250565b5f611231602383610f3d565b915061123c826111d7565b604082019050919050565b5f6020820190508181035f83015261125e81611225565b9050919050565b7f4e487b71000000000000000000000000000000000000000000000000000000005f52602260045260245ffd5b5f60028204905060018216806112a957607f821691505b6020821081036112bc576112bb611265565b5b50919050565b5f819050815f5260205f209050919050565b5f6020601f8301049050919050565b5f82821b905092915050565b5f6008830261131e7fffffffffffffffffffffffffffffffffffffffffffffffffffffffffffffffff826112e3565b61132886836112e3565b95508019841693508086168417925050509392505050565b5f819050919050565b5f61136361135e61135984610db3565b611340565b610db3565b9050919050565b5f819050919050565b61137c83611349565b6113906113888261136a565b8484546112ef565b825550505050565b5f90565b6113a4611398565b6113af818484611373565b505050565b5b818110156113d2576113c75f8261139c565b6001810190506113b5565b5050565b601f821115611417576113e8816112c2565b6113f1846112d4565b81016020851015611400578190505b61141461140c856112d4565b8301826113b4565b50505b505050565b5f82821c905092915050565b5f6114375f198460080261141c565b1980831691505092915050565b5f61144f8383611428565b9150826002028217905092915050565b61146882610f33565b67ffffffffffffffff81111561148157611480610c35565b5b61148b8254611292565b6114968282856113d6565b5f60209050601f8311600181146114c7575f84156114b5578287015190505b6114bf8582611444565b865550611526565b601f1984166114d5866112c2565b5f5b828110156114fc578489015182556001820191506020850194506020810190506114d7565b868310156115195784890151611515601f891682611428565b8355505b6001600288020188555050505b505050505050565b7f596f7520617265206e6f7420656c696769626c6520746f2067657420726566755f8201527f6e64000000000000000000000000000000000000000000000000000000000000602082015250565b5f611588602283610f3d565b91506115938261152e565b604082019050919050565b5f6020820190508181035f8301526115b58161157c565b9050919050565b7f596f75206d7573742062652074686520636f6e7472696275746f7220746f20725f8201527f65717565737420666f7220766f74696e67000000000000000000000000000000602082015250565b5f611616603183610f3d565b9150611621826115bc565b604082019050919050565b5f6020820190508181035f8301526116438161160a565b9050919050565b7f596f75206861766520616c726561647920766f746564200000000000000000005f82015250565b5f61167e601783610f3d565b91506116898261164a565b602082019050919050565b5f6020820190508181035f8301526116ab81611672565b9050919050565b7f546865207265717565737420686173206265656e20616c726561647920636f6d5f8201527f706c657465640000000000000000000000000000000000000000000000000000602082015250565b5f61170c602683610f3d565b9150611717826116b2565b604082019050919050565b5f6020820190508181035f83015261173981611700565b9050919050565b7f4e487b71000000000000000000000000000000000000000000000000000000005f52601260045260245ffd5b5f61177782610db3565b915061178283610db3565b92508261179257611791611740565b5b828204905092915050565b7f4d616a6f7269747920646f65736e6f7420737570706f727420666f72207468655f8201527f2072657175657374000000000000000000000000000000000000000000000000602082015250565b5f6117f7602883610f3d565b91506118028261179d565b604082019050919050565b5f6020820190508181035f830152611824816117eb565b905091905056fea26469706673582212201f9d149061f72946eae5e1ed5d902f44b4e5b6c5384c5a38ecfc03b35d093f2c64736f6c634300081a0033",
					"opcodes": "PUSH1 0x80 PUSH1 0x40 MSTORE CALLVALUE DUP1 ISZERO PUSH2 0xF JUMPI PUSH0 DUP1 REVERT JUMPDEST POP PUSH1 0x40 MLOAD PUSH2 0x19DC CODESIZE SUB DUP1 PUSH2 0x19DC DUP4 CODECOPY DUP2 DUP2 ADD PUSH1 0x40 MSTORE DUP2 ADD SWAP1 PUSH2 0x31 SWAP2 SWAP1 PUSH2 0xD0 JUMP JUMPDEST DUP2 PUSH1 0x2 DUP2 SWAP1 SSTORE POP DUP1 TIMESTAMP PUSH2 0x44 SWAP2 SWAP1 PUSH2 0x13B JUMP JUMPDEST PUSH1 0x3 DUP2 SWAP1 SSTORE POP PUSH1 0x64 PUSH1 0x5 DUP2 SWAP1 SSTORE POP CALLER PUSH1 0x1 PUSH0 PUSH2 0x100 EXP DUP2 SLOAD DUP2 PUSH20 0xFFFFFFFFFFFFFFFFFFFFFFFFFFFFFFFFFFFFFFFF MUL NOT AND SWAP1 DUP4 PUSH20 0xFFFFFFFFFFFFFFFFFFFFFFFFFFFFFFFFFFFFFFFF AND MUL OR SWAP1 SSTORE POP POP POP PUSH2 0x16E JUMP JUMPDEST PUSH0 DUP1 REVERT JUMPDEST PUSH0 DUP2 SWAP1 POP SWAP2 SWAP1 POP JUMP JUMPDEST PUSH2 0xAF DUP2 PUSH2 0x9D JUMP JUMPDEST DUP2 EQ PUSH2 0xB9 JUMPI PUSH0 DUP1 REVERT JUMPDEST POP JUMP JUMPDEST PUSH0 DUP2 MLOAD SWAP1 POP PUSH2 0xCA DUP2 PUSH2 0xA6 JUMP JUMPDEST SWAP3 SWAP2 POP POP JUMP JUMPDEST PUSH0 DUP1 PUSH1 0x40 DUP4 DUP6 SUB SLT ISZERO PUSH2 0xE6 JUMPI PUSH2 0xE5 PUSH2 0x99 JUMP JUMPDEST JUMPDEST PUSH0 PUSH2 0xF3 DUP6 DUP3 DUP7 ADD PUSH2 0xBC JUMP JUMPDEST SWAP3 POP POP PUSH1 0x20 PUSH2 0x104 DUP6 DUP3 DUP7 ADD PUSH2 0xBC JUMP JUMPDEST SWAP2 POP POP SWAP3 POP SWAP3 SWAP1 POP JUMP JUMPDEST PUSH32 0x4E487B7100000000000000000000000000000000000000000000000000000000 PUSH0 MSTORE PUSH1 0x11 PUSH1 0x4 MSTORE PUSH1 0x24 PUSH0 REVERT JUMPDEST PUSH0 PUSH2 0x145 DUP3 PUSH2 0x9D JUMP JUMPDEST SWAP2 POP PUSH2 0x150 DUP4 PUSH2 0x9D JUMP JUMPDEST SWAP3 POP DUP3 DUP3 ADD SWAP1 POP DUP1 DUP3 GT ISZERO PUSH2 0x168 JUMPI PUSH2 0x167 PUSH2 0x10E JUMP JUMPDEST JUMPDEST SWAP3 SWAP2 POP POP JUMP JUMPDEST PUSH2 0x1861 DUP1 PUSH2 0x17B PUSH0 CODECOPY PUSH0 RETURN INVALID PUSH1 0x80 PUSH1 0x40 MSTORE PUSH1 0x4 CALLDATASIZE LT PUSH2 0xE7 JUMPI PUSH0 CALLDATALOAD PUSH1 0xE0 SHR DUP1 PUSH4 0x590E1AE3 GT PUSH2 0x89 JUMPI DUP1 PUSH4 0xB1B16431 GT PUSH2 0x58 JUMPI DUP1 PUSH4 0xB1B16431 EQ PUSH2 0x2A9 JUMPI DUP1 PUSH4 0xB22C39F0 EQ PUSH2 0x2D3 JUMPI DUP1 PUSH4 0xCBAF8671 EQ PUSH2 0x2FD JUMPI DUP1 PUSH4 0xD4B83992 EQ PUSH2 0x325 JUMPI PUSH2 0xE7 JUMP JUMPDEST DUP1 PUSH4 0x590E1AE3 EQ PUSH2 0x201 JUMPI DUP1 PUSH4 0x81D12C58 EQ PUSH2 0x217 JUMPI DUP1 PUSH4 0x83238798 EQ PUSH2 0x257 JUMPI DUP1 PUSH4 0x967C67CE EQ PUSH2 0x281 JUMPI PUSH2 0xE7 JUMP JUMPDEST DUP1 PUSH4 0x29DCB0CF GT PUSH2 0xC5 JUMPI DUP1 PUSH4 0x29DCB0CF EQ PUSH2 0x159 JUMPI DUP1 PUSH4 0x3B644D18 EQ PUSH2 0x183 JUMPI DUP1 PUSH4 0x481C6A75 EQ PUSH2 0x1AD JUMPI DUP1 PUSH4 0x4D9B3D5D EQ PUSH2 0x1D7 JUMPI PUSH2 0xE7 JUMP JUMPDEST DUP1 PUSH4 0x15CE85FB EQ PUSH2 0xEB JUMPI DUP1 PUSH4 0x1B16BB5C EQ PUSH2 0xF5 JUMPI DUP1 PUSH4 0x1F6D4942 EQ PUSH2 0x11D JUMPI JUMPDEST PUSH0 DUP1 REVERT JUMPDEST PUSH2 0xF3 PUSH2 0x34F JUMP JUMPDEST STOP JUMPDEST CALLVALUE DUP1 ISZERO PUSH2 0x100 JUMPI PUSH0 DUP1 REVERT JUMPDEST POP PUSH2 0x11B PUSH1 0x4 DUP1 CALLDATASIZE SUB DUP2 ADD SWAP1 PUSH2 0x116 SWAP2 SWAP1 PUSH2 0xDE6 JUMP JUMPDEST PUSH2 0x49F JUMP JUMPDEST STOP JUMPDEST CALLVALUE DUP1 ISZERO PUSH2 0x128 JUMPI PUSH0 DUP1 REVERT JUMPDEST POP PUSH2 0x143 PUSH1 0x4 DUP1 CALLDATASIZE SUB DUP2 ADD SWAP1 PUSH2 0x13E SWAP2 SWAP1 PUSH2 0xE8D JUMP JUMPDEST PUSH2 0x5E1 JUMP JUMPDEST PUSH1 0x40 MLOAD PUSH2 0x150 SWAP2 SWAP1 PUSH2 0xEC7 JUMP JUMPDEST PUSH1 0x40 MLOAD DUP1 SWAP2 SUB SWAP1 RETURN JUMPDEST CALLVALUE DUP1 ISZERO PUSH2 0x164 JUMPI PUSH0 DUP1 REVERT JUMPDEST POP PUSH2 0x16D PUSH2 0x5F5 JUMP JUMPDEST PUSH1 0x40 MLOAD PUSH2 0x17A SWAP2 SWAP1 PUSH2 0xEC7 JUMP JUMPDEST PUSH1 0x40 MLOAD DUP1 SWAP2 SUB SWAP1 RETURN JUMPDEST CALLVALUE DUP1 ISZERO PUSH2 0x18E JUMPI PUSH0 DUP1 REVERT JUMPDEST POP PUSH2 0x197 PUSH2 0x5FB JUMP JUMPDEST PUSH1 0x40 MLOAD PUSH2 0x1A4 SWAP2 SWAP1 PUSH2 0xEC7 JUMP JUMPDEST PUSH1 0x40 MLOAD DUP1 SWAP2 SUB SWAP1 RETURN JUMPDEST CALLVALUE DUP1 ISZERO PUSH2 0x1B8 JUMPI PUSH0 DUP1 REVERT JUMPDEST POP PUSH2 0x1C1 PUSH2 0x601 JUMP JUMPDEST PUSH1 0x40 MLOAD PUSH2 0x1CE SWAP2 SWAP1 PUSH2 0xEEF JUMP JUMPDEST PUSH1 0x40 MLOAD DUP1 SWAP2 SUB SWAP1 RETURN JUMPDEST CALLVALUE DUP1 ISZERO PUSH2 0x1E2 JUMPI PUSH0 DUP1 REVERT JUMPDEST POP PUSH2 0x1EB PUSH2 0x626 JUMP JUMPDEST PUSH1 0x40 MLOAD PUSH2 0x1F8 SWAP2 SWAP1 PUSH2 0xEC7 JUMP JUMPDEST PUSH1 0x40 MLOAD DUP1 SWAP2 SUB SWAP1 RETURN JUMPDEST CALLVALUE DUP1 ISZERO PUSH2 0x20C JUMPI PUSH0 DUP1 REVERT JUMPDEST POP PUSH2 0x215 PUSH2 0x62D JUMP JUMPDEST STOP JUMPDEST CALLVALUE DUP1 ISZERO PUSH2 0x222 JUMPI PUSH0 DUP1 REVERT JUMPDEST POP PUSH2 0x23D PUSH1 0x4 DUP1 CALLDATASIZE SUB DUP2 ADD SWAP1 PUSH2 0x238 SWAP2 SWAP1 PUSH2 0xF08 JUMP JUMPDEST PUSH2 0x78F JUMP JUMPDEST PUSH1 0x40 MLOAD PUSH2 0x24E SWAP6 SWAP5 SWAP4 SWAP3 SWAP2 SWAP1 PUSH2 0xFBC JUMP JUMPDEST PUSH1 0x40 MLOAD DUP1 SWAP2 SUB SWAP1 RETURN JUMPDEST CALLVALUE DUP1 ISZERO PUSH2 0x262 JUMPI PUSH0 DUP1 REVERT JUMPDEST POP PUSH2 0x26B PUSH2 0x872 JUMP JUMPDEST PUSH1 0x40 MLOAD PUSH2 0x278 SWAP2 SWAP1 PUSH2 0xEC7 JUMP JUMPDEST PUSH1 0x40 MLOAD DUP1 SWAP2 SUB SWAP1 RETURN JUMPDEST CALLVALUE DUP1 ISZERO PUSH2 0x28C JUMPI PUSH0 DUP1 REVERT JUMPDEST POP PUSH2 0x2A7 PUSH1 0x4 DUP1 CALLDATASIZE SUB DUP2 ADD SWAP1 PUSH2 0x2A2 SWAP2 SWAP1 PUSH2 0xF08 JUMP JUMPDEST PUSH2 0x878 JUMP JUMPDEST STOP JUMPDEST CALLVALUE DUP1 ISZERO PUSH2 0x2B4 JUMPI PUSH0 DUP1 REVERT JUMPDEST POP PUSH2 0x2BD PUSH2 0xA0F JUMP JUMPDEST PUSH1 0x40 MLOAD PUSH2 0x2CA SWAP2 SWAP1 PUSH2 0xEC7 JUMP JUMPDEST PUSH1 0x40 MLOAD DUP1 SWAP2 SUB SWAP1 RETURN JUMPDEST CALLVALUE DUP1 ISZERO PUSH2 0x2DE JUMPI PUSH0 DUP1 REVERT JUMPDEST POP PUSH2 0x2E7 PUSH2 0xA15 JUMP JUMPDEST PUSH1 0x40 MLOAD PUSH2 0x2F4 SWAP2 SWAP1 PUSH2 0xEC7 JUMP JUMPDEST PUSH1 0x40 MLOAD DUP1 SWAP2 SUB SWAP1 RETURN JUMPDEST CALLVALUE DUP1 ISZERO PUSH2 0x308 JUMPI PUSH0 DUP1 REVERT JUMPDEST POP PUSH2 0x323 PUSH1 0x4 DUP1 CALLDATASIZE SUB DUP2 ADD SWAP1 PUSH2 0x31E SWAP2 SWAP1 PUSH2 0xF08 JUMP JUMPDEST PUSH2 0xA1B JUMP JUMPDEST STOP JUMPDEST CALLVALUE DUP1 ISZERO PUSH2 0x330 JUMPI PUSH0 DUP1 REVERT JUMPDEST POP PUSH2 0x339 PUSH2 0xC06 JUMP JUMPDEST PUSH1 0x40 MLOAD PUSH2 0x346 SWAP2 SWAP1 PUSH2 0xEC7 JUMP JUMPDEST PUSH1 0x40 MLOAD DUP1 SWAP2 SUB SWAP1 RETURN JUMPDEST PUSH1 0x3 SLOAD TIMESTAMP GT ISZERO PUSH2 0x394 JUMPI PUSH1 0x40 MLOAD PUSH32 0x8C379A000000000000000000000000000000000000000000000000000000000 DUP2 MSTORE PUSH1 0x4 ADD PUSH2 0x38B SWAP1 PUSH2 0x1084 JUMP JUMPDEST PUSH1 0x40 MLOAD DUP1 SWAP2 SUB SWAP1 REVERT JUMPDEST PUSH1 0x5 SLOAD CALLVALUE LT PUSH2 0x3D8 JUMPI PUSH1 0x40 MLOAD PUSH32 0x8C379A000000000000000000000000000000000000000000000000000000000 DUP2 MSTORE PUSH1 0x4 ADD PUSH2 0x3CF SWAP1 PUSH2 0x1112 JUMP JUMPDEST PUSH1 0x40 MLOAD DUP1 SWAP2 SUB SWAP1 REVERT JUMPDEST PUSH0 DUP1 PUSH0 CALLER PUSH20 0xFFFFFFFFFFFFFFFFFFFFFFFFFFFFFFFFFFFFFFFF AND PUSH20 0xFFFFFFFFFFFFFFFFFFFFFFFFFFFFFFFFFFFFFFFF AND DUP2 MSTORE PUSH1 0x20 ADD SWAP1 DUP2 MSTORE PUSH1 0x20 ADD PUSH0 KECCAK256 SLOAD SUB PUSH2 0x433 JUMPI PUSH1 0x4 PUSH0 DUP2 SLOAD DUP1 SWAP3 SWAP2 SWAP1 PUSH2 0x42D SWAP1 PUSH2 0x115D JUMP JUMPDEST SWAP2 SWAP1 POP SSTORE POP JUMPDEST CALLVALUE PUSH0 DUP1 CALLER PUSH20 0xFFFFFFFFFFFFFFFFFFFFFFFFFFFFFFFFFFFFFFFF AND PUSH20 0xFFFFFFFFFFFFFFFFFFFFFFFFFFFFFFFFFFFFFFFF AND DUP2 MSTORE PUSH1 0x20 ADD SWAP1 DUP2 MSTORE PUSH1 0x20 ADD PUSH0 KECCAK256 PUSH0 DUP3 DUP3 SLOAD PUSH2 0x47E SWAP2 SWAP1 PUSH2 0x11A4 JUMP JUMPDEST SWAP3 POP POP DUP2 SWAP1 SSTORE POP CALLVALUE PUSH1 0x6 PUSH0 DUP3 DUP3 SLOAD PUSH2 0x496 SWAP2 SWAP1 PUSH2 0x11A4 JUMP JUMPDEST SWAP3 POP POP DUP2 SWAP1 SSTORE POP JUMP JUMPDEST PUSH1 0x1 PUSH0 SWAP1 SLOAD SWAP1 PUSH2 0x100 EXP SWAP1 DIV PUSH20 0xFFFFFFFFFFFFFFFFFFFFFFFFFFFFFFFFFFFFFFFF AND PUSH20 0xFFFFFFFFFFFFFFFFFFFFFFFFFFFFFFFFFFFFFFFF AND CALLER PUSH20 0xFFFFFFFFFFFFFFFFFFFFFFFFFFFFFFFFFFFFFFFF AND EQ PUSH2 0x52E JUMPI PUSH1 0x40 MLOAD PUSH32 0x8C379A000000000000000000000000000000000000000000000000000000000 DUP2 MSTORE PUSH1 0x4 ADD PUSH2 0x525 SWAP1 PUSH2 0x1247 JUMP JUMPDEST PUSH1 0x40 MLOAD DUP1 SWAP2 SUB SWAP1 REVERT JUMPDEST PUSH0 PUSH1 0x7 PUSH0 PUSH1 0x8 SLOAD DUP2 MSTORE PUSH1 0x20 ADD SWAP1 DUP2 MSTORE PUSH1 0x20 ADD PUSH0 KECCAK256 SWAP1 POP PUSH1 0x8 PUSH0 DUP2 SLOAD DUP1 SWAP3 SWAP2 SWAP1 PUSH2 0x556 SWAP1 PUSH2 0x115D JUMP JUMPDEST SWAP2 SWAP1 POP SSTORE POP DUP4 DUP2 PUSH0 ADD SWAP1 DUP2 PUSH2 0x56B SWAP2 SWAP1 PUSH2 0x145F JUMP JUMPDEST POP DUP3 DUP2 PUSH1 0x1 ADD PUSH0 PUSH2 0x100 EXP DUP2 SLOAD DUP2 PUSH20 0xFFFFFFFFFFFFFFFFFFFFFFFFFFFFFFFFFFFFFFFF MUL NOT AND SWAP1 DUP4 PUSH20 0xFFFFFFFFFFFFFFFFFFFFFFFFFFFFFFFFFFFFFFFF AND MUL OR SWAP1 SSTORE POP DUP2 DUP2 PUSH1 0x2 ADD DUP2 SWAP1 SSTORE POP PUSH0 DUP2 PUSH1 0x3 ADD PUSH0 PUSH2 0x100 EXP DUP2 SLOAD DUP2 PUSH1 0xFF MUL NOT AND SWAP1 DUP4 ISZERO ISZERO MUL OR SWAP1 SSTORE POP PUSH0 DUP2 PUSH1 0x4 ADD DUP2 SWAP1 SSTORE POP POP POP POP POP JUMP JUMPDEST PUSH0 PUSH1 0x20 MSTORE DUP1 PUSH0 MSTORE PUSH1 0x40 PUSH0 KECCAK256 PUSH0 SWAP2 POP SWAP1 POP SLOAD DUP2 JUMP JUMPDEST PUSH1 0x3 SLOAD DUP2 JUMP JUMPDEST PUSH1 0x6 SLOAD DUP2 JUMP JUMPDEST PUSH1 0x1 PUSH0 SWAP1 SLOAD SWAP1 PUSH2 0x100 EXP SWAP1 DIV PUSH20 0xFFFFFFFFFFFFFFFFFFFFFFFFFFFFFFFFFFFFFFFF AND DUP2 JUMP JUMPDEST PUSH0 SELFBALANCE SWAP1 POP SWAP1 JUMP JUMPDEST PUSH1 0x3 SLOAD TIMESTAMP GT DUP1 ISZERO PUSH2 0x641 JUMPI POP PUSH1 0x2 SLOAD PUSH1 0x6 SLOAD LT JUMPDEST PUSH2 0x680 JUMPI PUSH1 0x40 MLOAD PUSH32 0x8C379A000000000000000000000000000000000000000000000000000000000 DUP2 MSTORE PUSH1 0x4 ADD PUSH2 0x677 SWAP1 PUSH2 0x159E JUMP JUMPDEST PUSH1 0x40 MLOAD DUP1 SWAP2 SUB SWAP1 REVERT JUMPDEST PUSH0 DUP1 PUSH0 CALLER PUSH20 0xFFFFFFFFFFFFFFFFFFFFFFFFFFFFFFFFFFFFFFFF AND PUSH20 0xFFFFFFFFFFFFFFFFFFFFFFFFFFFFFFFFFFFFFFFF AND DUP2 MSTORE PUSH1 0x20 ADD SWAP1 DUP2 MSTORE PUSH1 0x20 ADD PUSH0 KECCAK256 SLOAD GT PUSH2 0x6C7 JUMPI PUSH0 DUP1 REVERT JUMPDEST PUSH0 CALLER SWAP1 POP DUP1 PUSH20 0xFFFFFFFFFFFFFFFFFFFFFFFFFFFFFFFFFFFFFFFF AND PUSH2 0x8FC PUSH0 DUP1 CALLER PUSH20 0xFFFFFFFFFFFFFFFFFFFFFFFFFFFFFFFFFFFFFFFF AND PUSH20 0xFFFFFFFFFFFFFFFFFFFFFFFFFFFFFFFFFFFFFFFF AND DUP2 MSTORE PUSH1 0x20 ADD SWAP1 DUP2 MSTORE PUSH1 0x20 ADD PUSH0 KECCAK256 SLOAD SWAP1 DUP2 ISZERO MUL SWAP1 PUSH1 0x40 MLOAD PUSH0 PUSH1 0x40 MLOAD DUP1 DUP4 SUB DUP2 DUP6 DUP9 DUP9 CALL SWAP4 POP POP POP POP ISZERO DUP1 ISZERO PUSH2 0x74A JUMPI RETURNDATASIZE PUSH0 DUP1 RETURNDATACOPY RETURNDATASIZE PUSH0 REVERT JUMPDEST POP PUSH0 DUP1 PUSH0 CALLER PUSH20 0xFFFFFFFFFFFFFFFFFFFFFFFFFFFFFFFFFFFFFFFF AND PUSH20 0xFFFFFFFFFFFFFFFFFFFFFFFFFFFFFFFFFFFFFFFF AND DUP2 MSTORE PUSH1 0x20 ADD SWAP1 DUP2 MSTORE PUSH1 0x20 ADD PUSH0 KECCAK256 DUP2 SWAP1 SSTORE POP POP JUMP JUMPDEST PUSH1 0x7 PUSH1 0x20 MSTORE DUP1 PUSH0 MSTORE PUSH1 0x40 PUSH0 KECCAK256 PUSH0 SWAP2 POP SWAP1 POP DUP1 PUSH0 ADD DUP1 SLOAD PUSH2 0x7AE SWAP1 PUSH2 0x1292 JUMP JUMPDEST DUP1 PUSH1 0x1F ADD PUSH1 0x20 DUP1 SWAP2 DIV MUL PUSH1 0x20 ADD PUSH1 0x40 MLOAD SWAP1 DUP2 ADD PUSH1 0x40 MSTORE DUP1 SWAP3 SWAP2 SWAP1 DUP2 DUP2 MSTORE PUSH1 0x20 ADD DUP3 DUP1 SLOAD PUSH2 0x7DA SWAP1 PUSH2 0x1292 JUMP JUMPDEST DUP1 ISZERO PUSH2 0x825 JUMPI DUP1 PUSH1 0x1F LT PUSH2 0x7FC JUMPI PUSH2 0x100 DUP1 DUP4 SLOAD DIV MUL DUP4 MSTORE SWAP2 PUSH1 0x20 ADD SWAP2 PUSH2 0x825 JUMP JUMPDEST DUP3 ADD SWAP2 SWAP1 PUSH0 MSTORE PUSH1 0x20 PUSH0 KECCAK256 SWAP1 JUMPDEST DUP2 SLOAD DUP2 MSTORE SWAP1 PUSH1 0x1 ADD SWAP1 PUSH1 0x20 ADD DUP1 DUP4 GT PUSH2 0x808 JUMPI DUP3 SWAP1 SUB PUSH1 0x1F AND DUP3 ADD SWAP2 JUMPDEST POP POP POP POP POP SWAP1 DUP1 PUSH1 0x1 ADD PUSH0 SWAP1 SLOAD SWAP1 PUSH2 0x100 EXP SWAP1 DIV PUSH20 0xFFFFFFFFFFFFFFFFFFFFFFFFFFFFFFFFFFFFFFFF AND SWAP1 DUP1 PUSH1 0x2 ADD SLOAD SWAP1 DUP1 PUSH1 0x3 ADD PUSH0 SWAP1 SLOAD SWAP1 PUSH2 0x100 EXP SWAP1 DIV PUSH1 0xFF AND SWAP1 DUP1 PUSH1 0x4 ADD SLOAD SWAP1 POP DUP6 JUMP JUMPDEST PUSH1 0x4 SLOAD DUP2 JUMP JUMPDEST PUSH0 DUP1 PUSH0 CALLER PUSH20 0xFFFFFFFFFFFFFFFFFFFFFFFFFFFFFFFFFFFFFFFF AND PUSH20 0xFFFFFFFFFFFFFFFFFFFFFFFFFFFFFFFFFFFFFFFF AND DUP2 MSTORE PUSH1 0x20 ADD SWAP1 DUP2 MSTORE PUSH1 0x20 ADD PUSH0 KECCAK256 SLOAD GT PUSH2 0x8F6 JUMPI PUSH1 0x40 MLOAD PUSH32 0x8C379A000000000000000000000000000000000000000000000000000000000 DUP2 MSTORE PUSH1 0x4 ADD PUSH2 0x8ED SWAP1 PUSH2 0x162C JUMP JUMPDEST PUSH1 0x40 MLOAD DUP1 SWAP2 SUB SWAP1 REVERT JUMPDEST PUSH0 PUSH1 0x7 PUSH0 DUP4 DUP2 MSTORE PUSH1 0x20 ADD SWAP1 DUP2 MSTORE PUSH1 0x20 ADD PUSH0 KECCAK256 SWAP1 POP PUSH0 ISZERO ISZERO DUP2 PUSH1 0x5 ADD PUSH0 CALLER PUSH20 0xFFFFFFFFFFFFFFFFFFFFFFFFFFFFFFFFFFFFFFFF AND PUSH20 0xFFFFFFFFFFFFFFFFFFFFFFFFFFFFFFFFFFFFFFFF AND DUP2 MSTORE PUSH1 0x20 ADD SWAP1 DUP2 MSTORE PUSH1 0x20 ADD PUSH0 KECCAK256 PUSH0 SWAP1 SLOAD SWAP1 PUSH2 0x100 EXP SWAP1 DIV PUSH1 0xFF AND ISZERO ISZERO EQ PUSH2 0x99B JUMPI PUSH1 0x40 MLOAD PUSH32 0x8C379A000000000000000000000000000000000000000000000000000000000 DUP2 MSTORE PUSH1 0x4 ADD PUSH2 0x992 SWAP1 PUSH2 0x1694 JUMP JUMPDEST PUSH1 0x40 MLOAD DUP1 SWAP2 SUB SWAP1 REVERT JUMPDEST PUSH1 0x1 DUP2 PUSH1 0x5 ADD PUSH0 CALLER PUSH20 0xFFFFFFFFFFFFFFFFFFFFFFFFFFFFFFFFFFFFFFFF AND PUSH20 0xFFFFFFFFFFFFFFFFFFFFFFFFFFFFFFFFFFFFFFFF AND DUP2 MSTORE PUSH1 0x20 ADD SWAP1 DUP2 MSTORE PUSH1 0x20 ADD PUSH0 KECCAK256 PUSH0 PUSH2 0x100 EXP DUP2 SLOAD DUP2 PUSH1 0xFF MUL NOT AND SWAP1 DUP4 ISZERO ISZERO MUL OR SWAP1 SSTORE POP DUP1 PUSH1 0x4 ADD PUSH0 DUP2 SLOAD DUP1 SWAP3 SWAP2 SWAP1 PUSH2 0xA06 SWAP1 PUSH2 0x115D JUMP JUMPDEST SWAP2 SWAP1 POP SSTORE POP POP POP JUMP JUMPDEST PUSH1 0x8 SLOAD DUP2 JUMP JUMPDEST PUSH1 0x5 SLOAD DUP2 JUMP JUMPDEST PUSH1 0x1 PUSH0 SWAP1 SLOAD SWAP1 PUSH2 0x100 EXP SWAP1 DIV PUSH20 0xFFFFFFFFFFFFFFFFFFFFFFFFFFFFFFFFFFFFFFFF AND PUSH20 0xFFFFFFFFFFFFFFFFFFFFFFFFFFFFFFFFFFFFFFFF AND CALLER PUSH20 0xFFFFFFFFFFFFFFFFFFFFFFFFFFFFFFFFFFFFFFFF AND EQ PUSH2 0xAAA JUMPI PUSH1 0x40 MLOAD PUSH32 0x8C379A000000000000000000000000000000000000000000000000000000000 DUP2 MSTORE PUSH1 0x4 ADD PUSH2 0xAA1 SWAP1 PUSH2 0x1247 JUMP JUMPDEST PUSH1 0x40 MLOAD DUP1 SWAP2 SUB SWAP1 REVERT JUMPDEST PUSH1 0x2 SLOAD PUSH1 0x6 SLOAD LT ISZERO PUSH2 0xABA JUMPI PUSH0 DUP1 REVERT JUMPDEST PUSH0 PUSH1 0x7 PUSH0 DUP4 DUP2 MSTORE PUSH1 0x20 ADD SWAP1 DUP2 MSTORE PUSH1 0x20 ADD PUSH0 KECCAK256 SWAP1 POP PUSH0 DUP2 PUSH1 0x3 ADD PUSH0 PUSH2 0x100 EXP DUP2 SLOAD DUP2 PUSH1 0xFF MUL NOT AND SWAP1 DUP4 ISZERO ISZERO MUL OR SWAP1 SSTORE PUSH2 0xB27 JUMPI PUSH1 0x40 MLOAD PUSH32 0x8C379A000000000000000000000000000000000000000000000000000000000 DUP2 MSTORE PUSH1 0x4 ADD PUSH2 0xB1E SWAP1 PUSH2 0x1722 JUMP JUMPDEST PUSH1 0x40 MLOAD DUP1 SWAP2 SUB SWAP1 REVERT JUMPDEST PUSH1 0x2 PUSH1 0x4 SLOAD PUSH2 0xB36 SWAP2 SWAP1 PUSH2 0x176D JUMP JUMPDEST DUP2 PUSH1 0x4 ADD SLOAD GT PUSH2 0xB7B JUMPI PUSH1 0x40 MLOAD PUSH32 0x8C379A000000000000000000000000000000000000000000000000000000000 DUP2 MSTORE PUSH1 0x4 ADD PUSH2 0xB72 SWAP1 PUSH2 0x180D JUMP JUMPDEST PUSH1 0x40 MLOAD DUP1 SWAP2 SUB SWAP1 REVERT JUMPDEST DUP1 PUSH1 0x1 ADD PUSH0 SWAP1 SLOAD SWAP1 PUSH2 0x100 EXP SWAP1 DIV PUSH20 0xFFFFFFFFFFFFFFFFFFFFFFFFFFFFFFFFFFFFFFFF AND PUSH20 0xFFFFFFFFFFFFFFFFFFFFFFFFFFFFFFFFFFFFFFFF AND PUSH2 0x8FC DUP3 PUSH1 0x2 ADD SLOAD SWAP1 DUP2 ISZERO MUL SWAP1 PUSH1 0x40 MLOAD PUSH0 PUSH1 0x40 MLOAD DUP1 DUP4 SUB DUP2 DUP6 DUP9 DUP9 CALL SWAP4 POP POP POP POP ISZERO DUP1 ISZERO PUSH2 0xBE5 JUMPI RETURNDATASIZE PUSH0 DUP1 RETURNDATACOPY RETURNDATASIZE PUSH0 REVERT JUMPDEST POP PUSH1 0x1 DUP2 PUSH1 0x3 ADD PUSH0 PUSH2 0x100 EXP DUP2 SLOAD DUP2 PUSH1 0xFF MUL NOT AND SWAP1 DUP4 ISZERO ISZERO MUL OR SWAP1 SSTORE POP POP POP JUMP JUMPDEST PUSH1 0x2 SLOAD DUP2 JUMP JUMPDEST PUSH0 PUSH1 0x40 MLOAD SWAP1 POP SWAP1 JUMP JUMPDEST PUSH0 DUP1 REVERT JUMPDEST PUSH0 DUP1 REVERT JUMPDEST PUSH0 DUP1 REVERT JUMPDEST PUSH0 DUP1 REVERT JUMPDEST PUSH0 PUSH1 0x1F NOT PUSH1 0x1F DUP4 ADD AND SWAP1 POP SWAP2 SWAP1 POP JUMP JUMPDEST PUSH32 0x4E487B7100000000000000000000000000000000000000000000000000000000 PUSH0 MSTORE PUSH1 0x41 PUSH1 0x4 MSTORE PUSH1 0x24 PUSH0 REVERT JUMPDEST PUSH2 0xC6B DUP3 PUSH2 0xC25 JUMP JUMPDEST DUP2 ADD DUP2 DUP2 LT PUSH8 0xFFFFFFFFFFFFFFFF DUP3 GT OR ISZERO PUSH2 0xC8A JUMPI PUSH2 0xC89 PUSH2 0xC35 JUMP JUMPDEST JUMPDEST DUP1 PUSH1 0x40 MSTORE POP POP POP JUMP JUMPDEST PUSH0 PUSH2 0xC9C PUSH2 0xC0C JUMP JUMPDEST SWAP1 POP PUSH2 0xCA8 DUP3 DUP3 PUSH2 0xC62 JUMP JUMPDEST SWAP2 SWAP1 POP JUMP JUMPDEST PUSH0 PUSH8 0xFFFFFFFFFFFFFFFF DUP3 GT ISZERO PUSH2 0xCC7 JUMPI PUSH2 0xCC6 PUSH2 0xC35 JUMP JUMPDEST JUMPDEST PUSH2 0xCD0 DUP3 PUSH2 0xC25 JUMP JUMPDEST SWAP1 POP PUSH1 0x20 DUP2 ADD SWAP1 POP SWAP2 SWAP1 POP JUMP JUMPDEST DUP3 DUP2 DUP4 CALLDATACOPY PUSH0 DUP4 DUP4 ADD MSTORE POP POP POP JUMP JUMPDEST PUSH0 PUSH2 0xCFD PUSH2 0xCF8 DUP5 PUSH2 0xCAD JUMP JUMPDEST PUSH2 0xC93 JUMP JUMPDEST SWAP1 POP DUP3 DUP2 MSTORE PUSH1 0x20 DUP2 ADD DUP5 DUP5 DUP5 ADD GT ISZERO PUSH2 0xD19 JUMPI PUSH2 0xD18 PUSH2 0xC21 JUMP JUMPDEST JUMPDEST PUSH2 0xD24 DUP5 DUP3 DUP6 PUSH2 0xCDD JUMP JUMPDEST POP SWAP4 SWAP3 POP POP POP JUMP JUMPDEST PUSH0 DUP3 PUSH1 0x1F DUP4 ADD SLT PUSH2 0xD40 JUMPI PUSH2 0xD3F PUSH2 0xC1D JUMP JUMPDEST JUMPDEST DUP2 CALLDATALOAD PUSH2 0xD50 DUP5 DUP3 PUSH1 0x20 DUP7 ADD PUSH2 0xCEB JUMP JUMPDEST SWAP2 POP POP SWAP3 SWAP2 POP POP JUMP JUMPDEST PUSH0 PUSH20 0xFFFFFFFFFFFFFFFFFFFFFFFFFFFFFFFFFFFFFFFF DUP3 AND SWAP1 POP SWAP2 SWAP1 POP JUMP JUMPDEST PUSH0 PUSH2 0xD82 DUP3 PUSH2 0xD59 JUMP JUMPDEST SWAP1 POP SWAP2 SWAP1 POP JUMP JUMPDEST PUSH2 0xD92 DUP2 PUSH2 0xD78 JUMP JUMPDEST DUP2 EQ PUSH2 0xD9C JUMPI PUSH0 DUP1 REVERT JUMPDEST POP JUMP JUMPDEST PUSH0 DUP2 CALLDATALOAD SWAP1 POP PUSH2 0xDAD DUP2 PUSH2 0xD89 JUMP JUMPDEST SWAP3 SWAP2 POP POP JUMP JUMPDEST PUSH0 DUP2 SWAP1 POP SWAP2 SWAP1 POP JUMP JUMPDEST PUSH2 0xDC5 DUP2 PUSH2 0xDB3 JUMP JUMPDEST DUP2 EQ PUSH2 0xDCF JUMPI PUSH0 DUP1 REVERT JUMPDEST POP JUMP JUMPDEST PUSH0 DUP2 CALLDATALOAD SWAP1 POP PUSH2 0xDE0 DUP2 PUSH2 0xDBC JUMP JUMPDEST SWAP3 SWAP2 POP POP JUMP JUMPDEST PUSH0 DUP1 PUSH0 PUSH1 0x60 DUP5 DUP7 SUB SLT ISZERO PUSH2 0xDFD JUMPI PUSH2 0xDFC PUSH2 0xC15 JUMP JUMPDEST JUMPDEST PUSH0 DUP5 ADD CALLDATALOAD PUSH8 0xFFFFFFFFFFFFFFFF DUP2 GT ISZERO PUSH2 0xE1A JUMPI PUSH2 0xE19 PUSH2 0xC19 JUMP JUMPDEST JUMPDEST PUSH2 0xE26 DUP7 DUP3 DUP8 ADD PUSH2 0xD2C JUMP JUMPDEST SWAP4 POP POP PUSH1 0x20 PUSH2 0xE37 DUP7 DUP3 DUP8 ADD PUSH2 0xD9F JUMP JUMPDEST SWAP3 POP POP PUSH1 0x40 PUSH2 0xE48 DUP7 DUP3 DUP8 ADD PUSH2 0xDD2 JUMP JUMPDEST SWAP2 POP POP SWAP3 POP SWAP3 POP SWAP3 JUMP JUMPDEST PUSH0 PUSH2 0xE5C DUP3 PUSH2 0xD59 JUMP JUMPDEST SWAP1 POP SWAP2 SWAP1 POP JUMP JUMPDEST PUSH2 0xE6C DUP2 PUSH2 0xE52 JUMP JUMPDEST DUP2 EQ PUSH2 0xE76 JUMPI PUSH0 DUP1 REVERT JUMPDEST POP JUMP JUMPDEST PUSH0 DUP2 CALLDATALOAD SWAP1 POP PUSH2 0xE87 DUP2 PUSH2 0xE63 JUMP JUMPDEST SWAP3 SWAP2 POP POP JUMP JUMPDEST PUSH0 PUSH1 0x20 DUP3 DUP5 SUB SLT ISZERO PUSH2 0xEA2 JUMPI PUSH2 0xEA1 PUSH2 0xC15 JUMP JUMPDEST JUMPDEST PUSH0 PUSH2 0xEAF DUP5 DUP3 DUP6 ADD PUSH2 0xE79 JUMP JUMPDEST SWAP2 POP POP SWAP3 SWAP2 POP POP JUMP JUMPDEST PUSH2 0xEC1 DUP2 PUSH2 0xDB3 JUMP JUMPDEST DUP3 MSTORE POP POP JUMP JUMPDEST PUSH0 PUSH1 0x20 DUP3 ADD SWAP1 POP PUSH2 0xEDA PUSH0 DUP4 ADD DUP5 PUSH2 0xEB8 JUMP JUMPDEST SWAP3 SWAP2 POP POP JUMP JUMPDEST PUSH2 0xEE9 DUP2 PUSH2 0xE52 JUMP JUMPDEST DUP3 MSTORE POP POP JUMP JUMPDEST PUSH0 PUSH1 0x20 DUP3 ADD SWAP1 POP PUSH2 0xF02 PUSH0 DUP4 ADD DUP5 PUSH2 0xEE0 JUMP JUMPDEST SWAP3 SWAP2 POP POP JUMP JUMPDEST PUSH0 PUSH1 0x20 DUP3 DUP5 SUB SLT ISZERO PUSH2 0xF1D JUMPI PUSH2 0xF1C PUSH2 0xC15 JUMP JUMPDEST JUMPDEST PUSH0 PUSH2 0xF2A DUP5 DUP3 DUP6 ADD PUSH2 0xDD2 JUMP JUMPDEST SWAP2 POP POP SWAP3 SWAP2 POP POP JUMP JUMPDEST PUSH0 DUP2 MLOAD SWAP1 POP SWAP2 SWAP1 POP JUMP JUMPDEST PUSH0 DUP3 DUP3 MSTORE PUSH1 0x20 DUP3 ADD SWAP1 POP SWAP3 SWAP2 POP POP JUMP JUMPDEST DUP3 DUP2 DUP4 MCOPY PUSH0 DUP4 DUP4 ADD MSTORE POP POP POP JUMP JUMPDEST PUSH0 PUSH2 0xF65 DUP3 PUSH2 0xF33 JUMP JUMPDEST PUSH2 0xF6F DUP2 DUP6 PUSH2 0xF3D JUMP JUMPDEST SWAP4 POP PUSH2 0xF7F DUP2 DUP6 PUSH1 0x20 DUP7 ADD PUSH2 0xF4D JUMP JUMPDEST PUSH2 0xF88 DUP2 PUSH2 0xC25 JUMP JUMPDEST DUP5 ADD SWAP2 POP POP SWAP3 SWAP2 POP POP JUMP JUMPDEST PUSH2 0xF9C DUP2 PUSH2 0xD78 JUMP JUMPDEST DUP3 MSTORE POP POP JUMP JUMPDEST PUSH0 DUP2 ISZERO ISZERO SWAP1 POP SWAP2 SWAP1 POP JUMP JUMPDEST PUSH2 0xFB6 DUP2 PUSH2 0xFA2 JUMP JUMPDEST DUP3 MSTORE POP POP JUMP JUMPDEST PUSH0 PUSH1 0xA0 DUP3 ADD SWAP1 POP DUP2 DUP2 SUB PUSH0 DUP4 ADD MSTORE PUSH2 0xFD4 DUP2 DUP9 PUSH2 0xF5B JUMP JUMPDEST SWAP1 POP PUSH2 0xFE3 PUSH1 0x20 DUP4 ADD DUP8 PUSH2 0xF93 JUMP JUMPDEST PUSH2 0xFF0 PUSH1 0x40 DUP4 ADD DUP7 PUSH2 0xEB8 JUMP JUMPDEST PUSH2 0xFFD PUSH1 0x60 DUP4 ADD DUP6 PUSH2 0xFAD JUMP JUMPDEST PUSH2 0x100A PUSH1 0x80 DUP4 ADD DUP5 PUSH2 0xEB8 JUMP JUMPDEST SWAP7 SWAP6 POP POP POP POP POP POP JUMP JUMPDEST PUSH32 0x54686520646561646C696E65206861732070617373656420666F722074686973 PUSH0 DUP3 ADD MSTORE PUSH32 0x2066756E64696E67000000000000000000000000000000000000000000000000 PUSH1 0x20 DUP3 ADD MSTORE POP JUMP JUMPDEST PUSH0 PUSH2 0x106E PUSH1 0x28 DUP4 PUSH2 0xF3D JUMP JUMPDEST SWAP2 POP PUSH2 0x1079 DUP3 PUSH2 0x1014 JUMP JUMPDEST PUSH1 0x40 DUP3 ADD SWAP1 POP SWAP2 SWAP1 POP JUMP JUMPDEST PUSH0 PUSH1 0x20 DUP3 ADD SWAP1 POP DUP2 DUP2 SUB PUSH0 DUP4 ADD MSTORE PUSH2 0x109B DUP2 PUSH2 0x1062 JUMP JUMPDEST SWAP1 POP SWAP2 SWAP1 POP JUMP JUMPDEST PUSH32 0x596F75206D75737420706179206D696E696D756D206F66203130302077656920 PUSH0 DUP3 ADD MSTORE PUSH32 0x746F207061727469636970617465000000000000000000000000000000000000 PUSH1 0x20 DUP3 ADD MSTORE POP JUMP JUMPDEST PUSH0 PUSH2 0x10FC PUSH1 0x2E DUP4 PUSH2 0xF3D JUMP JUMPDEST SWAP2 POP PUSH2 0x1107 DUP3 PUSH2 0x10A2 JUMP JUMPDEST PUSH1 0x40 DUP3 ADD SWAP1 POP SWAP2 SWAP1 POP JUMP JUMPDEST PUSH0 PUSH1 0x20 DUP3 ADD SWAP1 POP DUP2 DUP2 SUB PUSH0 DUP4 ADD MSTORE PUSH2 0x1129 DUP2 PUSH2 0x10F0 JUMP JUMPDEST SWAP1 POP SWAP2 SWAP1 POP JUMP JUMPDEST PUSH32 0x4E487B7100000000000000000000000000000000000000000000000000000000 PUSH0 MSTORE PUSH1 0x11 PUSH1 0x4 MSTORE PUSH1 0x24 PUSH0 REVERT JUMPDEST PUSH0 PUSH2 0x1167 DUP3 PUSH2 0xDB3 JUMP JUMPDEST SWAP2 POP PUSH32 0xFFFFFFFFFFFFFFFFFFFFFFFFFFFFFFFFFFFFFFFFFFFFFFFFFFFFFFFFFFFFFFFF DUP3 SUB PUSH2 0x1199 JUMPI PUSH2 0x1198 PUSH2 0x1130 JUMP JUMPDEST JUMPDEST PUSH1 0x1 DUP3 ADD SWAP1 POP SWAP2 SWAP1 POP JUMP JUMPDEST PUSH0 PUSH2 0x11AE DUP3 PUSH2 0xDB3 JUMP JUMPDEST SWAP2 POP PUSH2 0x11B9 DUP4 PUSH2 0xDB3 JUMP JUMPDEST SWAP3 POP DUP3 DUP3 ADD SWAP1 POP DUP1 DUP3 GT ISZERO PUSH2 0x11D1 JUMPI PUSH2 0x11D0 PUSH2 0x1130 JUMP JUMPDEST JUMPDEST SWAP3 SWAP2 POP POP JUMP JUMPDEST PUSH32 0x4F6E6C79206D616E616765722063616E206163657373207468652066756E6374 PUSH0 DUP3 ADD MSTORE PUSH32 0x696F6E0000000000000000000000000000000000000000000000000000000000 PUSH1 0x20 DUP3 ADD MSTORE POP JUMP JUMPDEST PUSH0 PUSH2 0x1231 PUSH1 0x23 DUP4 PUSH2 0xF3D JUMP JUMPDEST SWAP2 POP PUSH2 0x123C DUP3 PUSH2 0x11D7 JUMP JUMPDEST PUSH1 0x40 DUP3 ADD SWAP1 POP SWAP2 SWAP1 POP JUMP JUMPDEST PUSH0 PUSH1 0x20 DUP3 ADD SWAP1 POP DUP2 DUP2 SUB PUSH0 DUP4 ADD MSTORE PUSH2 0x125E DUP2 PUSH2 0x1225 JUMP JUMPDEST SWAP1 POP SWAP2 SWAP1 POP JUMP JUMPDEST PUSH32 0x4E487B7100000000000000000000000000000000000000000000000000000000 PUSH0 MSTORE PUSH1 0x22 PUSH1 0x4 MSTORE PUSH1 0x24 PUSH0 REVERT JUMPDEST PUSH0 PUSH1 0x2 DUP3 DIV SWAP1 POP PUSH1 0x1 DUP3 AND DUP1 PUSH2 0x12A9 JUMPI PUSH1 0x7F DUP3 AND SWAP2 POP JUMPDEST PUSH1 0x20 DUP3 LT DUP2 SUB PUSH2 0x12BC JUMPI PUSH2 0x12BB PUSH2 0x1265 JUMP JUMPDEST JUMPDEST POP SWAP2 SWAP1 POP JUMP JUMPDEST PUSH0 DUP2 SWAP1 POP DUP2 PUSH0 MSTORE PUSH1 0x20 PUSH0 KECCAK256 SWAP1 POP SWAP2 SWAP1 POP JUMP JUMPDEST PUSH0 PUSH1 0x20 PUSH1 0x1F DUP4 ADD DIV SWAP1 POP SWAP2 SWAP1 POP JUMP JUMPDEST PUSH0 DUP3 DUP3 SHL SWAP1 POP SWAP3 SWAP2 POP POP JUMP JUMPDEST PUSH0 PUSH1 0x8 DUP4 MUL PUSH2 0x131E PUSH32 0xFFFFFFFFFFFFFFFFFFFFFFFFFFFFFFFFFFFFFFFFFFFFFFFFFFFFFFFFFFFFFFFF DUP3 PUSH2 0x12E3 JUMP JUMPDEST PUSH2 0x1328 DUP7 DUP4 PUSH2 0x12E3 JUMP JUMPDEST SWAP6 POP DUP1 NOT DUP5 AND SWAP4 POP DUP1 DUP7 AND DUP5 OR SWAP3 POP POP POP SWAP4 SWAP3 POP POP POP JUMP JUMPDEST PUSH0 DUP2 SWAP1 POP SWAP2 SWAP1 POP JUMP JUMPDEST PUSH0 PUSH2 0x1363 PUSH2 0x135E PUSH2 0x1359 DUP5 PUSH2 0xDB3 JUMP JUMPDEST PUSH2 0x1340 JUMP JUMPDEST PUSH2 0xDB3 JUMP JUMPDEST SWAP1 POP SWAP2 SWAP1 POP JUMP JUMPDEST PUSH0 DUP2 SWAP1 POP SWAP2 SWAP1 POP JUMP JUMPDEST PUSH2 0x137C DUP4 PUSH2 0x1349 JUMP JUMPDEST PUSH2 0x1390 PUSH2 0x1388 DUP3 PUSH2 0x136A JUMP JUMPDEST DUP5 DUP5 SLOAD PUSH2 0x12EF JUMP JUMPDEST DUP3 SSTORE POP POP POP POP JUMP JUMPDEST PUSH0 SWAP1 JUMP JUMPDEST PUSH2 0x13A4 PUSH2 0x1398 JUMP JUMPDEST PUSH2 0x13AF DUP2 DUP5 DUP5 PUSH2 0x1373 JUMP JUMPDEST POP POP POP JUMP JUMPDEST JUMPDEST DUP2 DUP2 LT ISZERO PUSH2 0x13D2 JUMPI PUSH2 0x13C7 PUSH0 DUP3 PUSH2 0x139C JUMP JUMPDEST PUSH1 0x1 DUP2 ADD SWAP1 POP PUSH2 0x13B5 JUMP JUMPDEST POP POP JUMP JUMPDEST PUSH1 0x1F DUP3 GT ISZERO PUSH2 0x1417 JUMPI PUSH2 0x13E8 DUP2 PUSH2 0x12C2 JUMP JUMPDEST PUSH2 0x13F1 DUP5 PUSH2 0x12D4 JUMP JUMPDEST DUP2 ADD PUSH1 0x20 DUP6 LT ISZERO PUSH2 0x1400 JUMPI DUP2 SWAP1 POP JUMPDEST PUSH2 0x1414 PUSH2 0x140C DUP6 PUSH2 0x12D4 JUMP JUMPDEST DUP4 ADD DUP3 PUSH2 0x13B4 JUMP JUMPDEST POP POP JUMPDEST POP POP POP JUMP JUMPDEST PUSH0 DUP3 DUP3 SHR SWAP1 POP SWAP3 SWAP2 POP POP JUMP JUMPDEST PUSH0 PUSH2 0x1437 PUSH0 NOT DUP5 PUSH1 0x8 MUL PUSH2 0x141C JUMP JUMPDEST NOT DUP1 DUP4 AND SWAP2 POP POP SWAP3 SWAP2 POP POP JUMP JUMPDEST PUSH0 PUSH2 0x144F DUP4 DUP4 PUSH2 0x1428 JUMP JUMPDEST SWAP2 POP DUP3 PUSH1 0x2 MUL DUP3 OR SWAP1 POP SWAP3 SWAP2 POP POP JUMP JUMPDEST PUSH2 0x1468 DUP3 PUSH2 0xF33 JUMP JUMPDEST PUSH8 0xFFFFFFFFFFFFFFFF DUP2 GT ISZERO PUSH2 0x1481 JUMPI PUSH2 0x1480 PUSH2 0xC35 JUMP JUMPDEST JUMPDEST PUSH2 0x148B DUP3 SLOAD PUSH2 0x1292 JUMP JUMPDEST PUSH2 0x1496 DUP3 DUP3 DUP6 PUSH2 0x13D6 JUMP JUMPDEST PUSH0 PUSH1 0x20 SWAP1 POP PUSH1 0x1F DUP4 GT PUSH1 0x1 DUP2 EQ PUSH2 0x14C7 JUMPI PUSH0 DUP5 ISZERO PUSH2 0x14B5 JUMPI DUP3 DUP8 ADD MLOAD SWAP1 POP JUMPDEST PUSH2 0x14BF DUP6 DUP3 PUSH2 0x1444 JUMP JUMPDEST DUP7 SSTORE POP PUSH2 0x1526 JUMP JUMPDEST PUSH1 0x1F NOT DUP5 AND PUSH2 0x14D5 DUP7 PUSH2 0x12C2 JUMP JUMPDEST PUSH0 JUMPDEST DUP3 DUP2 LT ISZERO PUSH2 0x14FC JUMPI DUP5 DUP10 ADD MLOAD DUP3 SSTORE PUSH1 0x1 DUP3 ADD SWAP2 POP PUSH1 0x20 DUP6 ADD SWAP5 POP PUSH1 0x20 DUP2 ADD SWAP1 POP PUSH2 0x14D7 JUMP JUMPDEST DUP7 DUP4 LT ISZERO PUSH2 0x1519 JUMPI DUP5 DUP10 ADD MLOAD PUSH2 0x1515 PUSH1 0x1F DUP10 AND DUP3 PUSH2 0x1428 JUMP JUMPDEST DUP4 SSTORE POP JUMPDEST PUSH1 0x1 PUSH1 0x2 DUP9 MUL ADD DUP9 SSTORE POP POP POP JUMPDEST POP POP POP POP POP POP JUMP JUMPDEST PUSH32 0x596F7520617265206E6F7420656C696769626C6520746F206765742072656675 PUSH0 DUP3 ADD MSTORE PUSH32 0x6E64000000000000000000000000000000000000000000000000000000000000 PUSH1 0x20 DUP3 ADD MSTORE POP JUMP JUMPDEST PUSH0 PUSH2 0x1588 PUSH1 0x22 DUP4 PUSH2 0xF3D JUMP JUMPDEST SWAP2 POP PUSH2 0x1593 DUP3 PUSH2 0x152E JUMP JUMPDEST PUSH1 0x40 DUP3 ADD SWAP1 POP SWAP2 SWAP1 POP JUMP JUMPDEST PUSH0 PUSH1 0x20 DUP3 ADD SWAP1 POP DUP2 DUP2 SUB PUSH0 DUP4 ADD MSTORE PUSH2 0x15B5 DUP2 PUSH2 0x157C JUMP JUMPDEST SWAP1 POP SWAP2 SWAP1 POP JUMP JUMPDEST PUSH32 0x596F75206D7573742062652074686520636F6E7472696275746F7220746F2072 PUSH0 DUP3 ADD MSTORE PUSH32 0x65717565737420666F7220766F74696E67000000000000000000000000000000 PUSH1 0x20 DUP3 ADD MSTORE POP JUMP JUMPDEST PUSH0 PUSH2 0x1616 PUSH1 0x31 DUP4 PUSH2 0xF3D JUMP JUMPDEST SWAP2 POP PUSH2 0x1621 DUP3 PUSH2 0x15BC JUMP JUMPDEST PUSH1 0x40 DUP3 ADD SWAP1 POP SWAP2 SWAP1 POP JUMP JUMPDEST PUSH0 PUSH1 0x20 DUP3 ADD SWAP1 POP DUP2 DUP2 SUB PUSH0 DUP4 ADD MSTORE PUSH2 0x1643 DUP2 PUSH2 0x160A JUMP JUMPDEST SWAP1 POP SWAP2 SWAP1 POP JUMP JUMPDEST PUSH32 0x596F75206861766520616C726561647920766F74656420000000000000000000 PUSH0 DUP3 ADD MSTORE POP JUMP JUMPDEST PUSH0 PUSH2 0x167E PUSH1 0x17 DUP4 PUSH2 0xF3D JUMP JUMPDEST SWAP2 POP PUSH2 0x1689 DUP3 PUSH2 0x164A JUMP JUMPDEST PUSH1 0x20 DUP3 ADD SWAP1 POP SWAP2 SWAP1 POP JUMP JUMPDEST PUSH0 PUSH1 0x20 DUP3 ADD SWAP1 POP DUP2 DUP2 SUB PUSH0 DUP4 ADD MSTORE PUSH2 0x16AB DUP2 PUSH2 0x1672 JUMP JUMPDEST SWAP1 POP SWAP2 SWAP1 POP JUMP JUMPDEST PUSH32 0x546865207265717565737420686173206265656E20616C726561647920636F6D PUSH0 DUP3 ADD MSTORE PUSH32 0x706C657465640000000000000000000000000000000000000000000000000000 PUSH1 0x20 DUP3 ADD MSTORE POP JUMP JUMPDEST PUSH0 PUSH2 0x170C PUSH1 0x26 DUP4 PUSH2 0xF3D JUMP JUMPDEST SWAP2 POP PUSH2 0x1717 DUP3 PUSH2 0x16B2 JUMP JUMPDEST PUSH1 0x40 DUP3 ADD SWAP1 POP SWAP2 SWAP1 POP JUMP JUMPDEST PUSH0 PUSH1 0x20 DUP3 ADD SWAP1 POP DUP2 DUP2 SUB PUSH0 DUP4 ADD MSTORE PUSH2 0x1739 DUP2 PUSH2 0x1700 JUMP JUMPDEST SWAP1 POP SWAP2 SWAP1 POP JUMP JUMPDEST PUSH32 0x4E487B7100000000000000000000000000000000000000000000000000000000 PUSH0 MSTORE PUSH1 0x12 PUSH1 0x4 MSTORE PUSH1 0x24 PUSH0 REVERT JUMPDEST PUSH0 PUSH2 0x1777 DUP3 PUSH2 0xDB3 JUMP JUMPDEST SWAP2 POP PUSH2 0x1782 DUP4 PUSH2 0xDB3 JUMP JUMPDEST SWAP3 POP DUP3 PUSH2 0x1792 JUMPI PUSH2 0x1791 PUSH2 0x1740 JUMP JUMPDEST JUMPDEST DUP3 DUP3 DIV SWAP1 POP SWAP3 SWAP2 POP POP JUMP JUMPDEST PUSH32 0x4D616A6F7269747920646F65736E6F7420737570706F727420666F7220746865 PUSH0 DUP3 ADD MSTORE PUSH32 0x2072657175657374000000000000000000000000000000000000000000000000 PUSH1 0x20 DUP3 ADD MSTORE POP JUMP JUMPDEST PUSH0 PUSH2 0x17F7 PUSH1 0x28 DUP4 PUSH2 0xF3D JUMP JUMPDEST SWAP2 POP PUSH2 0x1802 DUP3 PUSH2 0x179D JUMP JUMPDEST PUSH1 0x40 DUP3 ADD SWAP1 POP SWAP2 SWAP1 POP JUMP JUMPDEST PUSH0 PUSH1 0x20 DUP3 ADD SWAP1 POP DUP2 DUP2 SUB PUSH0 DUP4 ADD MSTORE PUSH2 0x1824 DUP2 PUSH2 0x17EB JUMP JUMPDEST SWAP1 POP SWAP2 SWAP1 POP JUMP INVALID LOG2 PUSH5 0x6970667358 0x22 SLT KECCAK256 0x1F SWAP14 EQ SWAP1 PUSH2 0xF729 CHAINID 0xEA 0xE5 0xE1 0xED TSTORE SWAP1 0x2F PREVRANDAO 0xB4 0xE5 0xB6 0xC5 CODESIZE 0x4C GAS CODESIZE 0xEC 0xFC SUB 0xB3 TSTORE MULMOD EXTCODEHASH 0x2C PUSH5 0x736F6C6343 STOP ADDMOD BYTE STOP CALLER "
				},
				"gasEstimates": {
					"creation": {
						"codeDepositCost": "1248200",
						"executionCost": "infinite",
						"totalCost": "infinite"
					},
					"external": {
						"contributors(address)": "2869",
						"createRequest(string,address,uint256)": "infinite",
						"deadline()": "2448",
						"getbalance()": "423",
						"makepayment(uint256)": "31531",
						"manager()": "2575",
						"mincontributions()": "2469",
						"noofcontributors()": "2492",
						"numRequest()": "2447",
						"raisedamount()": "2470",
						"refund()": "infinite",
						"requests(uint256)": "infinite",
						"sendeth()": "infinite",
						"target()": "2513",
						"voterequest(uint256)": "infinite"
					}
				},
				"methodIdentifiers": {
					"contributors(address)": "1f6d4942",
					"createRequest(string,address,uint256)": "1b16bb5c",
					"deadline()": "29dcb0cf",
					"getbalance()": "4d9b3d5d",
					"makepayment(uint256)": "cbaf8671",
					"manager()": "481c6a75",
					"mincontributions()": "b22c39f0",
					"noofcontributors()": "83238798",
					"numRequest()": "b1b16431",
					"raisedamount()": "3b644d18",
					"refund()": "590e1ae3",
					"requests(uint256)": "81d12c58",
					"sendeth()": "15ce85fb",
					"target()": "d4b83992",
					"voterequest(uint256)": "967c67ce"
				}
			},
			"storageLayout": {
				"storage": [
					{
						"astId": 5,
						"contract": "crowdfunding.sol:crowdfund",
						"label": "contributors",
						"offset": 0,
						"slot": "0",
						"type": "t_mapping(t_address,t_uint256)"
					},
					{
						"astId": 7,
						"contract": "crowdfunding.sol:crowdfund",
						"label": "manager",
						"offset": 0,
						"slot": "1",
						"type": "t_address"
					},
					{
						"astId": 9,
						"contract": "crowdfunding.sol:crowdfund",
						"label": "target",
						"offset": 0,
						"slot": "2",
						"type": "t_uint256"
					},
					{
						"astId": 11,
						"contract": "crowdfunding.sol:crowdfund",
						"label": "deadline",
						"offset": 0,
						"slot": "3",
						"type": "t_uint256"
					},
					{
						"astId": 13,
						"contract": "crowdfunding.sol:crowdfund",
						"label": "noofcontributors",
						"offset": 0,
						"slot": "4",
						"type": "t_uint256"
					},
					{
						"astId": 15,
						"contract": "crowdfunding.sol:crowdfund",
						"label": "mincontributions",
						"offset": 0,
						"slot": "5",
						"type": "t_uint256"
					},
					{
						"astId": 17,
						"contract": "crowdfunding.sol:crowdfund",
						"label": "raisedamount",
						"offset": 0,
						"slot": "6",
						"type": "t_uint256"
					},
					{
						"astId": 37,
						"contract": "crowdfunding.sol:crowdfund",
						"label": "requests",
						"offset": 0,
						"slot": "7",
						"type": "t_mapping(t_uint256,t_struct(Request)32_storage)"
					},
					{
						"astId": 39,
						"contract": "crowdfunding.sol:crowdfund",
						"label": "numRequest",
						"offset": 0,
						"slot": "8",
						"type": "t_uint256"
					}
				],
				"types": {
					"t_address": {
						"encoding": "inplace",
						"label": "address",
						"numberOfBytes": "20"
					},
					"t_address_payable": {
						"encoding": "inplace",
						"label": "address payable",
						"numberOfBytes": "20"
					},
					"t_bool": {
						"encoding": "inplace",
						"label": "bool",
						"numberOfBytes": "1"
					},
					"t_mapping(t_address,t_bool)": {
						"encoding": "mapping",
						"key": "t_address",
						"label": "mapping(address => bool)",
						"numberOfBytes": "32",
						"value": "t_bool"
					},
					"t_mapping(t_address,t_uint256)": {
						"encoding": "mapping",
						"key": "t_address",
						"label": "mapping(address => uint256)",
						"numberOfBytes": "32",
						"value": "t_uint256"
					},
					"t_mapping(t_uint256,t_struct(Request)32_storage)": {
						"encoding": "mapping",
						"key": "t_uint256",
						"label": "mapping(uint256 => struct crowdfund.Request)",
						"numberOfBytes": "32",
						"value": "t_struct(Request)32_storage"
					},
					"t_string_storage": {
						"encoding": "bytes",
						"label": "string",
						"numberOfBytes": "32"
					},
					"t_struct(Request)32_storage": {
						"encoding": "inplace",
						"label": "struct crowdfund.Request",
						"members": [
							{
								"astId": 19,
								"contract": "crowdfunding.sol:crowdfund",
								"label": "description",
								"offset": 0,
								"slot": "0",
								"type": "t_string_storage"
							},
							{
								"astId": 21,
								"contract": "crowdfunding.sol:crowdfund",
								"label": "recipient",
								"offset": 0,
								"slot": "1",
								"type": "t_address_payable"
							},
							{
								"astId": 23,
								"contract": "crowdfunding.sol:crowdfund",
								"label": "value",
								"offset": 0,
								"slot": "2",
								"type": "t_uint256"
							},
							{
								"astId": 25,
								"contract": "crowdfunding.sol:crowdfund",
								"label": "completed",
								"offset": 0,
								"slot": "3",
								"type": "t_bool"
							},
							{
								"astId": 27,
								"contract": "crowdfunding.sol:crowdfund",
								"label": "noofvoters",
								"offset": 0,
								"slot": "4",
								"type": "t_uint256"
							},
							{
								"astId": 31,
								"contract": "crowdfunding.sol:crowdfund",
								"label": "voters",
								"offset": 0,
								"slot": "5",
								"type": "t_mapping(t_address,t_bool)"
							}
						],
						"numberOfBytes": "192"
					},
					"t_uint256": {
						"encoding": "inplace",
						"label": "uint256",
						"numberOfBytes": "32"
					}
				}
			},
			"userdoc": {
				"kind": "user",
				"methods": {},
				"version": 1
			}
		}
	}
}